:020000040800F2
:10000000E8109FE5E4209FE5E0309FE5DC409FE5B8
:10001000D8509FE5D4609FE5D0709FE5CC809FE5E8
:10002000C8909FE5C4B09FE5C0C09FE5BCD09FE5E8
:10003000B8E09FE500000FE1801080E301F021E1CE
:10004000D7F021E3A8D09FE5DBF021E3A4D09FE522
:10005000D2F021E3A0D09FE5D3F021E39CD09FE52F
:100060009C009FE5010010E398E09F1598E09F0534
:1000700010FF2FE17847000090009FE5010010E39A
:100080008CE09F158CE09F0510FF2FE17847000062
:1000900084009FE5100F01EE100F11EE400D80E37C
:1000A000100F01EE74009FE510FF2FE1DEEEDEEE93
:1000B000784700000220A0E3101E10EE021001E0BD
:1000C000000051E3FBFFFF1A100E01EE1EFF2FE1AF
:1000D000784700000120A0E3101E10EE021001E09E
:1000E000000051E3FBFFFF0A100E11EE1EFF2FE18F
:1000F000EFBEADDE346B0008346C0008346A0008D3
:100100003462000845070008750000087800000800
:10011000610E00088D0000089000000878000500BE
:10012000190E000810B4042A0ED3031C0B439B07BE
:100130000AD108C810C9A34202D1043A042AF8D24D
:10014000A34201D004380439002A02D1002010BC97
:100150007047D30701D5013205E003780C780131EF
:100160000130A34207D103780C7801310130A3425A
:1001700001D1023AF1D1181BE9E7000078470000ED
:10018000030052E33E00009A03C010E20800000A98
:100190000130D1E402005CE30C2082E001C0D19484
:1001A0000130C0E40130D134042042E201C0C094E7
:1001B0000130C034033011E21E00000A042052E274
:1001C0002F00003A03C031E7020053E30800000AA1
:1001D0000F00008A2C34A0E104C0B1E5042052E2F3
:1001E0000C3C83E1043080E4F9FFFF2A011081E236
:1001F000230000EA2C38A0E104C0B1E5042052E25B
:100200000C3883E1043080E4F9FFFF2A021081E218
:100210001B0000EA2C3CA0E104C0B1E5042052E23E
:100220000C3483E1043080E4F9FFFF2A031081E2FB
:10023000130000EA7847000010402DE9202052E228
:100240000500003A1850B1281850A0281850B128BD
:100250001850A02820205222F9FFFF2A02CEB0E138
:100260001850B1281850A0281800B1481800A0480C
:100270001040BDE802CFB0E1043091240430802466
:100280001EFF2F01822FB0E10120D1440130D12483
:1002900001C0D1240120C0440130C02401C0C024C9
:1002A0001EFF2FE130B50C4901220A7000220A70AE
:1002B000602404800480094A0021883A5268074D6E
:1002C00005E00C234B43EB5880331C8001319142F5
:1002D000F7D3F021018030BD00070080140B020825
:1002E000FFB50C1C2849151C012081B008700020A6
:1002F0000870264E3068C068804700202449244A90
:100300008839496805E00C234343D358AB4202D0F7
:1003100001308842F7D3680840000519AA23180164
:100320002018438115218901552261188A8280276E
:10033000478143818A8230202880291C201C154A4D
:1003400001F0C6F9002817D104980024C6090E4F01
:1003500016E0200701D101203870002038700B48CA
:100360000068C0688047802209498039281CFFF74F
:10037000D9FE002802D00A2005B0F0BD8035013436
:10038000A642E6D80020F7E7000700802C220008EC
:10039000140B0208FFFF0000F8B5051C0E1C00241A
:1003A00011E00C4901200870002008700C20604307
:1003B0000949421853680A582F6A311C281CB8474B
:1003C000002806D101340448883840688442E8D3C4
:1003D0000020F8BD00070080140B0208FFB5061CC2
:1003E00000243549012083B008700020087033488C
:1003F0000068C06880470C9A002A36D0304A002036
:1004000051680CE00C232E4D634388355B195B6803
:10041000069F1818B84204D801342404240C8C42D6
:10042000F0D3131C8C4220D00C9A069F251CBA18BE
:10043000234F013A883709E0824209D30C236B43EA
:10044000DB195B68181801352D042D0C8D42F3D390
:100450001949012008700020087018480068C06819
:100460008047174B5868854219D1032007B0F0BD6B
:100470000C20134A604388328118029109890029AF
:100480000CD1111C029A53680A58376A0599301C1E
:10049000B8470028EAD10299012008810134AC4212
:1004A000E6DD0C9A04AB0092F4690ECB301CA04739
:1004B0000028DBD1DAE70000000700802C220008CA
:1004C0008C0A02081048F0B544680F4D2004020E53
:1004D0000C704A7000220220883511E00C2353432F
:1004E000461C5B195B680B541804070E8F55701C73
:1004F0001E02370E0F54461C1B0E701C01328B550A
:10050000A242EBDBF0BD00008C0A0208F0B587B018
:100510000027002100220026041CF02500920191F2
:100520000580BC46AA2108012018418115239B01A2
:100530005521E318998290214181208800AB1881D0
:1005400060885881A08B988125803B48006886464A
:1005500027E03423384D53430021002004355B1934
:1005600005935B6806930AE0059B85005B199B6811
:10057000450002AF7D5BAB4200D101310130069BEB
:100580008342F1DC069B8B420AD134202A4D504332
:100590000435401900904769018BBC46019102E087
:1005A00001327245D5D3009800283FD000200025A5
:1005B0001AE0EB0000211A1C624404930EE0536819
:1005C0001E4F9E460C234343B644FE505668DB192B
:1005D0005E6000261E81013001317646049B67462D
:1005E000FB588B42EBDC013501998D42E1DBFF21A9
:1005F0001931884205DD1248012100220170027084
:10060000FCE70E490D4A883948600E600020803AA8
:10061000FF21115401308028FBDB0098002805D011
:100620000098C16A002901D0201C8847F025258048
:10063000009807B0F0BD0000B0200008140B0208BD
:1006400000070080FFB581B03C48029D0121017088
:10065000002101703A480068C0688047039A0498F6
:100660001521890140084000511800918418049810
:10067000552149015618C007002814DA2878FF21AF
:1006800000020843021CAA2070810099552088822C
:10069000A02070812280211C039801F019F8002805
:1006A0003FD1023401350498C707FF0F17E068787F
:1006B000297800020843021CAA2070810099552065
:1006C0008882A02070812280211C039801F000F80C
:1006D000002826D10234023502373F043F0C0A9924
:1006E000781C8842E3D30A998F4212D22878FF21DE
:1006F00009020843021CAA207081009955208882B3
:10070000A02070812280211C039800F0E1FF0028C6
:1007100007D1049802990A9AFFF704FD002802D035
:100720000A2005B0F0BD05480121017000210170CB
:1007300003480068C06880470020F2E70007008097
:100740002C22000870470000B0B5084D064C281C4C
:10075000618800F00DF861886854000A6A185070CA
:10076000881C6080B0BD0000346C0008880202085C
:1007700030B50C4D0A4A07E0037853401B06DB0DE9
:10078000EB5A120A5A4001304B1E1B041B0C0C1C66
:10079000191C002CF0D1D0430004000C30BD000027
:1007A000FFFF0000F818000830B5D2431204120C05
:1007B0000A4D07E0037853401B06DB0DEB5A120A83
:1007C0005A4001304B1E1B041B0C0C1C191C002C26
:1007D000F0D1D0430004000C30BD0000F818000830
:1007E00070B50025002304E0CE5C2C1C01350133DC
:1007F00006559342F8DB002070BD0000F7B50C4DA4
:10080000171C28780E1C0024022882B001D100F0A9
:10081000BDF82878002802D0082005B0F0BD0548B2
:1008200000970068331CC5690299221CA847F4E7A9
:10083000AC200008880A0208F7B50C4D171C287870
:100840000E1C0024022882B001D100F09FF8287805
:10085000002802D0082005B0F0BD054800970068C8
:10086000331C456A0299221CA847F4E7AC20000813
:10087000880A0208F8B500240F48012606700027F0
:1008800007700E4D297910E0287A4906490F06D0E5
:10089000302028731020287328732E7301E000F095
:1008A0000DFB2979044806700770201C013480284C
:1008B00001DAC807E8D4F8BD00070080100F0080F7
:1008C00070B500241F4801210170002101701E48ED
:1008D0000078012823D000F0D5FD1C4908780528B0
:1008E0000BD108690078C00619D5886D01220188EE
:1008F0008805800F8000164B0CE0062810D108698F
:10090000007880060BD5C86D03220188C805C00F8A
:10091000104B80004906490E185800F0FFFC70BDCE
:100920000B28FCD100F0B8FC051CF8D0074EA4360B
:1009300005E0305D00F0C2FA01342404240CAC421E
:10094000F7D370BD00070080356C0008341802082A
:10095000E0210008C021000801490220087070470A
:10096000AC20000810B5074C2078022801D100F017
:100970000DF82078002801D0002010BD0248006842
:10098000006810BDAC200008880A0208F8B50E4DBA
:100990002878002817D0012815D0022813D10B4C35
:1009A0000B4E0C4F05E0616888473060002806D187
:1009B00008342068B842F6D13068002801D0002001
:1009C00000E001202870F8BDAC20000804220008D7
:1009D000880A0208EFBEADDEB0B5094C051C2078D0
:1009E000022801D1FFF7D2FF2078002801D008208B
:1009F000B0BD0448291C0068826A9047B0BD000061
:100A0000AC200008880A0208F8B5214F3868C06891
:100A10008047386801697E208847012500241FE04F
:100A20001F20A04302D13868C06880471948065D7E
:100A30007E2E01D07D2E0CD1386801697D2088473B
:100A400020203968464030060969000E8847023583
:100A500005E0386801693006000E88470135013429
:100A60000D4840888442DBDB3868C06880473868BE
:100A700001697E208847681C800607D138680169B3
:100A80007E208847386801697E208847F8BD0000CD
:100A90002C22000888020208346C000880B5034943
:100AA0000E2000F0FFFA002080BD0000941800081E
:100AB000F8B5041C36480078002835D12022E01D06
:100AC0003449FFF72FFB002807D1261C2036F07988
:100AD000022802D1307A022803D02E499031052015
:100AE00025E0A088242803D22A49B83103201EE03B
:100AF00029480027294C2749077002252022213147
:100B0000601C2570FFF73CEB20346570A570E77022
:100B1000042020716771A771E77127726772A7724D
:100B2000FFF720FF051C05D11A497431082000F099
:100B3000B9FA2BE0281C00F0B7F90206174F120E85
:100B4000291C381C2C30E272FFF71AEBE17A642280
:100B500000252C31481C7A543D54441C3819FFF7A9
:100B60003BFF0119707AC207D20F7A54481C0C4916
:100B700048800121C902884204D90A480121017034
:100B80000570FCE7FFF7E0FDFFF73EFF0020F8BD32
:100B9000AC200008601700085020000888020208F6
:100BA000346C00080007008080B50349052000F080
:100BB00079FA002080BD0000C417000880B5034901
:100BC0000E2000F06FFA002080BD0000941800088D
:100BD000094980B512200870084901204880FFF7B4
:100BE000B3FDFFF711FF064800688068804700F0FA
:100BF00049F9002080BD000088020208346C00081A
:100C00002C2200080B4910B50C2008700A4801245A
:100C10004480FFF799FDFFF7F7FE084804700021B4
:100C20000170074800688068804700F03BF90020A9
:100C300010BD000088020208346C00080007008024
:100C40002C22000810B5821D8088072801D01C497D
:100C500014E09178507809020843D17809040843D8
:100C6000117909060143507993791B021843041C3A
:100C700001208002844205D911491831032000F077
:100C800011FA1AE00F4804230370537843709378E5
:100C90008370D378C370127902710530221CFFF77C
:100CA0009FFD002802D006492C31E8E70649601D67
:100CB0004880FFF749FDFFF7A7FE002010BD0000A8
:100CC0004018000888020208346C000810B5831D23
:100CD000808899780538020458780902120C084374
:100CE000D97809040843197909060843041C211C12
:100CF000581DFFF783FD002803D00C4900F0D2F9FE
:100D000012E00B48062101702104090E4470817025
:100D10002102090EC170210E01710649052048808B
:100D2000FFF712FDFFF770FE002010BD80180008CD
:100D300088020208346C000810B5831D80889978F9
:100D40000538020458780902120C0843D9780904BE
:100D50000843197909060843041C211C581DFFF794
:100D60006BFD002803D00C4900F09CF912E00B4801
:100D7000082101702104090E447081702102090EBE
:100D8000C170210E0171064905204880FFF7DCFC87
:100D9000FFF73AFE002010BD801800088802020804
:100DA000346C000810B5811D80880A220131013899
:100DB00004040848240C0270221C0130FFF7E0E90B
:100DC0000549601C4880FFF7BFFCFFF71DFE0020AF
:100DD00010BD000088020208346C000801490D2093
:100DE0000870704730220008B0B5084C2068804772
:100DF0000128074D05D1606880470028FBD02C6092
:100E0000B0BD044C20688047F9E70000F0210008DD
:100E10002C220008A82100088CB5684606220D493E
:100E2000FFF7AEE90C48062269460068FFF7A8E91B
:100E3000FFF7D4FFFFF790FD084801210170002162
:100E40000170FFF7D1FF00F06DF8FFF79FFD00F094
:100E50008FF88CBD58170008142200080007008086
:100E6000054C0020054900E001C48C42FCD3044934
:100E700001220A70087070472C22000864190208C9
:100E8000000700800548002281690A60006A082185
:100E900001600349012008700A70FCE7F81E000891
:100EA00000070080FEE70000011C002000E0013088
:100EB0000A780131002AFAD170470000B0B5164C0B
:100EC0000025216900290BD16168002903D113484D
:100ED00000F024FCB0BD21610A6862608D800D6065
:100EE0007D2805D07E2806D100F0C0F82570B0BD61
:100EF00001202070B0BD2169094B8A889A4207D22F
:100F00002378002B02D0202358402570521890716E
:100F1000888801308880B0BD346C0008A4170008B0
:100F20000704000070B500220E49412401200A6028
:100F30008A80240183011B181B015D182E1BCE50D3
:100F400001306428AA80F5DB0748091805481438E1
:100F50004160826002610270C26004490120087031
:100F600070BD0000486C000830920100502000085D
:100F7000F8B5084F0026064C01253868C068804740
:100F80002570267000F008F825702670F5E700003F
:100F9000000700802C220008F8B52D4C2068C0689E
:100FA00080474EE02B490120487020688860002867
:100FB00000D1C860002000270025206011E02448EF
:100FC0000068C0688047A088461B802E00DD802610
:100FD000601906303A1C3104090CFFF7E5FB071CC9
:100FE000AD19A088A842EADC1B48874203D01B4801
:100FF00000F094FB21E0A0880238A080A079411E77
:10100000152917D816490978002901D0012811D1CE
:1010100014490978002905D01049E039082000F06A
:1010200041F80AE01049800040184038C16B201C8C
:10103000884702E0201CFFF7B7FD0649486820609A
:101040004C6004498C68002CACD100204870F8BD7D
:101050002C220008346C0008470F0000B418000868
:1010600050200008AC200008542000080B4B10B59D
:1010700018690B4C81880022A14201D8032901D2B2
:10108000828010BDD968002902D1D860986002E042
:1010900008601869D8601A6110BD0000346C00083F
:1010A0000704000070B50D1C041C081CFFF7FCFEB3
:1010B000061C281C00F032FB0C480D210170210495
:1010C000090E447081702102090EC170210E017158
:1010D000291C321C0530FFF754E80549701D488073
:1010E000FFF732FBFFF790FC70BD0000880202089A
:1010F000346C0008094A00211079C3070BD540065B
:10110000400F07D03020107310201073107301208F
:10111000107300E001210806000E7047100F0080D8
:101120000022012010B50449044B01E008700A7048
:101130001C792407FAD510BD00070080100F00802D
:1011400010B5094800240471FFF7EAFF064B01219E
:10115000303B064802E01A7A017004701A79D2070F
:10116000F9D4012010BD0000400F0080000700806E
:1011700030B500230121074C054A01E011701370BE
:101180002578ED07FAD503491039087230BD000003
:1011900000070080200F00800F4A10B5D06900249E
:1011A0000178C90603D50520107002200DE00078F3
:1011B000800603D506201070032006E000F020F81A
:1011C000002804D00B2010700A205070012400F079
:1011D00059F9201C10BD000034180208011C0748F2
:1011E000406D0078022905D0032902D12021084052
:1011F000401170470C2108408010704734180208D5
:101200000548C06C01888805800D03D1490501D5CA
:1012100001208002704700003418020830B5033204
:1012200092081B4C01252570002525708C07A40F02
:1012300007D0012C03D0022C1BD0032C24D1002476
:1012400014E0002402E020C8013420C19442FADBFB
:101250001AE020C80D7001312D0A0D7001312D0AE0
:101260000D7001312D0A0D70013101349442F0DB13
:101270000AE0002406E020C80D8002312D0C0D800C
:10128000023101349442F6DB0248806B038030BDAA
:10129000000700803418020870B51E4D0024FFF7C7
:1012A000AFFF021C33D0402A01D940220EE0A86CC7
:1012B00000880005F3D4296C04200880A86C0188FC
:1012C0004905FCD500888205920D01241149A431FD
:1012D000D01C8308002003E06E690130366840C1ED
:1012E0009842F9DB0C480126067000210170002CA1
:1012F0000DD0A86C0088000506D5FFF781FFB1026C
:10130000884201D1286C0680296C08200880101CB6
:1013100070BD00003418020800070080F8B5171CE3
:101320000E1C051C084801210170002101700024D9
:1013300003E0285DFFF7C2FD0134B442F9DB034846
:10134000806B0780F8BD0000000700803418020899
:10135000F0B5D41CE517AD0F2C19A4101E4D0126B5
:101360002E7000262E708D07AD0F07D0012D03D0F3
:10137000022D1ED0032D28D1002517E0002502E004
:1013800040C9013540C0A542FADB1EE00E780131AC
:101390000F7801313F02BE190F7801313F04BE19A9
:1013A0000F7801313F06BE1940C00135A542EDDB83
:1013B0000BE0002507E00E8802310F8802313F0460
:1013C000BE1940C00135A542F5DB04491002496B46
:1013D00018430880F0BD00000007008034180208A0
:1013E000134930B58A07920F1302114D0343643D30
:1013F0006C6C23800330002A07D004239A1A801AC9
:10140000801001300204120C00E08208880881007C
:1014100000206C6902E008C9013023609042FADBC9
:10142000E96B00200880E96A8020088030BD000058
:1014300098180208114830B5417801250023022987
:101440000F4C01D1102102E0032902D14021426D4D
:1014500010E00A290BD1006D01888905890D04E08F
:1014600001888905890D257023700029F8D130BDC8
:101470002570237010780840FAD030BD3418020867
:1014800000070080F0B5264C2448E1690988C905A9
:1014900028D5A16800250D80E268168802230B80FC
:1014A000E268128804270F80E268128806220A8008
:1014B000E1680A881B4B01211970002119701B4B30
:1014C00019499E421FD01A4B9E420CD0184B8033B4
:1014D0009E4205D020690078400601D5A06B0780A8
:1014E000206B0580F0BD0223FFF732FF00207D2135
:1014F000C900E26904E0002001308842FCDB10886A
:10150000C007EDD4F7E7226E044812881030D206E7
:10151000D20E0523FFF782FEE2E7000040030062DF
:101520003418020800070080581902082120000022
:10153000A121000030B50024002500F02DF813484B
:1015400000890006000E01281DD0114B01201A6AE7
:10155000002111805A6A11809A6A11800D4A115532
:1015600001340A2CFBDBC22454700124947008243B
:1015700094715C6B06222280092222809A6B118072
:101580000221118030BD281C30BD00000004006223
:1015900034180208581902081849194830B58160F2
:1015A0000439C16015490C390161F03141611349B9
:1015B00018398161C16104390162104914394162ED
:1015C000043181620D492C3028310A1C0B1C0C1C83
:1015D0001C3C203B243A1EC03C380C31C1630749F7
:1015E00040310D1C0164143D456410398164C564AB
:1015F000291F0165283954301EC030BD1C0400620B
:1016000034180208F0B52D4F00223B6900241988D8
:101610007E68751C7D606437B855294F01263E7081
:1016200000263E707E280AD126480678002E01D07A
:10163000002602E0012401220126067002E0402D6E
:1016400000D10122002A0AD01C48002646604078BA
:101650002A04120C0A2803D1101CFFF7C1FEF0BDAA
:10166000022812D1012002E038703E701988490723
:10167000FAD50220FFF7B2FD80001349002C08586C
:1016800001D0082315E0072313E00328E7D1012048
:1016900002E038703E7019880907FAD50320FFF779
:1016A0009DFD80000949002C085801D00B2300E063
:1016B0000A2302496431FFF74BFEF0BD34180208DB
:1016C00000070080BC210008D0210008C8210008C4
:1016D000F7B5802002400E1C151C002400270D4980
:1016E000012008700F700C480068C068804730887F
:1016F0008022011C1140A94209D08006EFD5013497
:10170000142CECDB0099F02008800720FEBD00209F
:10171000FCE70000000700802C22000870B5051CC3
:10172000FFF7C2FB041C0A4E0E203070221C291C3D
:10173000701CFEF726ED601C0004000C054A0A230D
:10174000411C51803354FEF7FFFFFFF75DF970BD78
:1017500088020208346C000844554D4D59000000C1
:1017600051434F4D206661737420646F776E6C6FC8
:1017700061642070726F746F636F6C20686F737434
:101780000051434F4D206661737420646F776E6C17
:101790006F61642070726F746F636F6C207461721C
:1017A000670000004552523A2057696E646F7720F7
:1017B0006F76657272756E206465746563746564B6
:1017C0002E2E2E00496E76616C696420436F6D6D1C
:1017D000616E6400556E7265636F676E697A6564E9
:1017E00020666C617368206465766963650000003B
:1017F000496E76616C6964206D61676963206E75FE
:101800006D6265722F70726F746F636F6C20766596
:101810007273696F6E000000506172616D6574656E
:10182000722052657175657374205061636B6574C5
:10183000204C656E677468204572726F72000000FC
:10184000496E76616C6964207061636B6574206CAD
:10185000656E6774680000005061636B6574207486
:101860006F6F206C617267650000000052656164F3
:1018700020756E7375636365737366756C00000025
:10188000577269746520756E7375636365737366EB
:10189000756C00004E414E442070726F6772616D2E
:1018A0006D696E67206E6F7420737570706F7274DF
:1018B000656400004552523A2043524320696E76D7
:1018C000616C696400000000414D4420414D323993
:1018D0004244533132384800414D4420414D323961
:1018E0004244533634304700414D4420414D323953
:1018F00050445333323244000000891112239B328A
:101900002446AD573665BF74488CC19D5AAFD3BECF
:101910006CCAE5DB7EE9F7F88110080193331A22DF
:10192000A5562C47B7753E64C99C408DDBBF52AEAF
:10193000EDDA64CBFFF976E802218B3010029913BF
:101940002667AF763444BD554AADC3BC588ED19F8F
:101950006EEBE7FA7CC8F5D983310A20911218039F
:10196000A7772E66B5543C45CBBD42ACD99E508F6F
:10197000EFFB66EAFDD874C904428D5316619F706F
:101980002004A9153227BB364CCEC5DF5EEDD7FC4F
:101990006888E1997AABF3BA85520C4397711E605F
:1019A000A1142805B3373A26CDDE44CFDFFD56EC2F
:1019B000E9986089FBBB72AA06638F7214409D513F
:1019C0002225AB343006B9174EEFC7FE5CCCD5DD0F
:1019D0006AA9E3B8788AF19B87730E6295501C411F
:1019E000A3352A24B1163807CFFF46EEDDDC54CDEF
:1019F000EBB962A8F99A708B088481951AA793B6FF
:101A00002CC2A5D33EE1B7F04008C919522BDB3AEE
:101A1000644EED5F766DFF7C899400859BB712A6BE
:101A2000ADD224C3BFF136E0C1184809D33B5A2ACE
:101A3000E55E6C4FF77D7E6C0AA583B4188691979E
:101A40002EE3A7F23CC0B5D14229CB38500AD91BAE
:101A5000666FEF7E744CFD5D8BB502A4999610877E
:101A6000AFF326E2BDD034C1C3394A28D11A580B8E
:101A7000E77F6E6EF55C7C4D0CC685D71EE597F44E
:101A80002880A1913AA3B3B2444ACD5B5669DF786E
:101A9000600CE91D722FFB3E8DD604C79FF516E43E
:101AA000A9902081BBB332A2C55A4C4BD7795E684E
:101AB000E11C680DF33F7A2E0EE787F61CC495D51E
:101AC0002AA1A3B03882B193466BCF7A5448DD592E
:101AD000622DEB3C700EF91F8FF706E69DD414C5FE
:101AE000ABB122A0B9923083C77B4E6AD5585C490E
:101AF000E33D6A2CF11E780F00000000C7B93020CA
:101B000049CA51208E736100552D93209294A300F1
:101B10001CE7C200DB5EF2206DE31621AA5A260103
:101B200024294701E390772138CE8501FF77B5213D
:101B30007104D421B6BDE4011D7F1D22DAC62D0239
:101B400054B54C02930C7C2248528E028FEBBE227D
:101B50000198DF22C621EF02709C0B03B7253B23BF
:101B600039565A23FEEF6A0325B19823E208A803E9
:101B70006C7BC903ABC2F923FD470A243AFE3A0441
:101B8000B48D5B0473346B24A86A99046FD3A924C1
:101B9000E1A0C8242619F80490A41C05571D2C2583
:101BA000D96E4D251ED77D05C5898F250230BF050D
:101BB0008C43DE054BFAEE25E038170627812726F1
:101BC000A9F246266E4B7606B515842672ACB4068D
:101BD000FCDFD5063B66E5268DDB01274A6231072F
:101BE000C411500703A86027D8F692071F4FA227F9
:101BF000913CC3275685F3073D362428FA8F1408F5
:101C000074FC7508B3454528681BB708AFA2872840
:101C100021D1E628E668D60850D53209976C02290A
:101C2000191F6329DEA6530905F8A129C2419109AC
:101C30004C32F0098B8BC0292049390AE7F0092A78
:101C40006983682AAE3A580A7564AA2AB2DD9A0AEC
:101C50003CAEFB0AFB17CB2A4DAA2F2B8A131F0B76
:101C600004607E0BC3D94E2B1887BC0BDF3E8C2B38
:101C7000514DED2B96F4DD0BC0712E0C07C81E2CB8
:101C800089BB7F2C4E024F0C955CBD2C52E58D0C10
:101C9000DC96EC0C1B2FDC2CAD92382D6A2B080D3A
:101CA000E458690D23E1592DF8BFAB0D3F069B2D7C
:101CB000B175FA2D76CCCA0DDD0E332E1AB7030E90
:101CC00094C4620E537D522E8823A00E4F9A902EFC
:101CD000C1E9F12E0650C10EB0ED250F7754152F36
:101CE000F927742F3E9E440FE5C0B62F2279860F48
:101CF000AC0AE70F6BB3D72FBDD578307A6C48109C
:101D0000F41F291033A61930E8F8EB102F41DB300F
:101D1000A132BA30668B8A10D0366E11178F5E31C1
:101D200099FC3F315E450F11851BFD3142A2CD115B
:101D3000CCD1AC110B689C31A0AA65126713553247
:101D4000E96034322ED90412F587F632323EC612DB
:101D5000BC4DA7127BF49732CD4973330AF043137D
:101D600084832213433A12339864E0135FDDD03347
:101D7000D1AEB1331617811340927214872B4234BF
:101D800009582334CEE1131415BFE134D206D1141F
:101D90005C75B0149BCC80342D716435EAC8541541
:101DA00064BB3515A3020535785CF715BFE5C7356B
:101DB0003196A635F62F96155DED6F369A545F165F
:101DC00014273E16D39E0E3608C0FC16CF79CC36AB
:101DD000410AAD3686B39D16300E7917F7B74937ED
:101DE00079C42837BE7D18176523EA37A29ADA1717
:101DF0002CE9BB17EB508B3780E35C18475A6C38E3
:101E0000C9290D380E903D18D5CECF381277FF185E
:101E10009C049E185BBDAE38ED004A392AB97A1988
:101E2000A4CA1B1963732B39B82DD9197F94E939CA
:101E3000F1E78839365EB8199D9C413A5A25711AE6
:101E4000D456101A13EF203AC8B1D21A0F08E23A4A
:101E5000817B833A46C2B31AF07F571B37C6673B74
:101E6000B9B5063B7E0C361BA552C43B62EBF41B96
:101E7000EC98951B2B21A53B7DA4563CBA1D661CF6
:101E8000346E071CF3D7373C2889C51CEF30F53C6E
:101E90006143943CA6FAA41C1047401DD7FE703D38
:101EA000598D113D9E34211D456AD33D82D3E31DDA
:101EB0000CA0821DCB19B23D60DB4B1EA7627B3E9E
:101EC00029111A3EEEA82A1E35F6D83EF24FE81E1A
:101ED0007C3C891EBB85B93E0D385D3FCA816D1FB4
:101EE00044F20C1F834B3C3F5815CE1F9FACFE3F66
:101EF00011DF9F3FD666AF1F0012008034120080B2
:101F00000C12008004120080381200801012008031
:101F10000800005860000058000000580C000058ED
:101F20006400005804000058081200803C12008031
:101F30001412008000000000700000580000000033
:101F400008170080081700800817008000000000B4
:101F5000000000000000000020205155414C434F7C
:101F60004D4D2041524D505247204964656E746971
:101F70006669636174696F6E20426C6F636B0020E9
:101F8000202020436F6D70696C6564204665622077
:101F9000313620323030342031343A31353A31382C
:101FA000002020202056657273696F6E203D3D2011
:101FB00030362E30352E3030002020202041505237
:101FC00047363130302E48455820666F72204D53C9
:101FD0004D363130302F36333030204F4E4C592073
:101FE0002D205541525420616E64205553420020EB
:101FF000202020436F7079726967687420286329F4
:1020000020323030322D3230303320627920515539
:10201000414C434F4D4D2C20496E636F72706F726F
:10202000617465642E20416C6C205269676874731A
:102030002052657365727665642E002020456E64BB
:10204000206F6620494420426C6F636B00000000E3
:1020500001000000B10A0008A90B0008450C0008A7
:10206000A90B0008CD0C0008A90B0008390D0008C9
:10207000A90B0008A50D0008A90B0008050C000815
:10208000A90B0008A90B0008A90B0008A90B000860
:10209000A90B0008D10B0008A90B0008BD0B000814
:1020A000A90B00089D0A0008A90B00080200000007
:1020B00003000000C8180008030000000100000031
:1020C0007E220000182200005021000803000000BA
:1020D00045060008E1020008DD030008C504000809
:1020E0000000000099030008D81800080300000051
:1020F000010000007E220000042200006821000888
:102100000600000045060008E1020008DD030008A3
:10211000C5040008A502000899030008E818000893
:1021200003000000010000007E22000006220000E3
:10213000982100080200000045060008E10200089E
:10214000DD030008C5040008000000009903000832
:102150000800000000200000FE0000000000010058
:102160000800000000200000040000000040000003
:102170001F0000000000010020000000000001001E
:1021800020000000000001001F000000000001000E
:1021900004000000004000003F00000000000100BB
:1021A000080000000040000041110008F510000880
:1021B00021110008750800087111000801000000D5
:1021C000C0020062000300624002006280020062FE
:1021D0004000006280000062C000006200010062F6
:1021E0004001006280010062C001006200020062E2
:1021F000351500089911000835140008C1080008B9
:1022000005160008000000000D050008EFBEADDE59
:1022100000000000581F00087F1F0008A11F0008D1
:0C222000B91F0008EF1F00083B20000859
:0400000308000000F1
:00000001FF
