:020000040800F2
:10000000E8109FE5E4209FE5E0309FE5DC409FE5B8
:10001000D8509FE5D4609FE5D0709FE5CC809FE5E8
:10002000C8909FE5C4B09FE5C0C09FE5BCD09FE5E8
:10003000B8E09FE500000FE1801080E301F021E1CE
:10004000D7F021E3A8D09FE5DBF021E3A4D09FE522
:10005000D2F021E3A0D09FE5D3F021E39CD09FE52F
:100060009C009FE5010010E398E09F1598E09F0534
:1000700010FF2FE17847000090009FE5010010E39A
:100080008CE09F158CE09F0510FF2FE17847000062
:1000900084009FE5100F01EE100F11EE400D80E37C
:1000A000100F01EE74009FE510FF2FE1DEEEDEEE93
:1000B000784700000220A0E3101E10EE021001E0BD
:1000C000000051E3FBFFFF1A100E01EE1EFF2FE1AF
:1000D000784700000120A0E3101E10EE021001E09E
:1000E000000051E3FBFFFF0A100E11EE1EFF2FE18F
:1000F000EFBEADDE086B0008086C0008086A000857
:10010000086200084507000875000008780000082C
:10011000650E00088D0000089000000878000500BA
:100120001D0E000810B4042A0ED3031C0B439B07BA
:100130000AD108C810C9A34202D1043A042AF8D24D
:10014000A34201D004380439002A02D1002010BC97
:100150007047D30701D5013205E003780C780131EF
:100160000130A34207D103780C7801310130A3425A
:1001700001D1023AF1D1181BE9E7000078470000ED
:10018000030052E33E00009A03C010E20800000A98
:100190000130D1E402005CE30C2082E001C0D19484
:1001A0000130C0E40130D134042042E201C0C094E7
:1001B0000130C034033011E21E00000A042052E274
:1001C0002F00003A03C031E7020053E30800000AA1
:1001D0000F00008A2C34A0E104C0B1E5042052E2F3
:1001E0000C3C83E1043080E4F9FFFF2A011081E236
:1001F000230000EA2C38A0E104C0B1E5042052E25B
:100200000C3883E1043080E4F9FFFF2A021081E218
:100210001B0000EA2C3CA0E104C0B1E5042052E23E
:100220000C3483E1043080E4F9FFFF2A031081E2FB
:10023000130000EA7847000010402DE9202052E228
:100240000500003A1850B1281850A0281850B128BD
:100250001850A02820205222F9FFFF2A02CEB0E138
:100260001850B1281850A0281800B1481800A0480C
:100270001040BDE802CFB0E1043091240430802466
:100280001EFF2F01822FB0E10120D1440130D12483
:1002900001C0D1240120C0440130C02401C0C024C9
:1002A0001EFF2FE130B50C4901224A6000224A604E
:1002B000602404800480094A0021883A5268074D6E
:1002C00005E00C234B43EB5880331C8001319142F5
:1002D000F7D3F021018030BD00340080E80A020825
:1002E000FFB50C1C2849151C012081B04860002076
:1002F0004860264E3068C068804700202449244A60
:100300008839496805E00C234343D358AB4202D0F7
:1003100001308842F7D3680840000519AA23180164
:100320002018438115218901552261188A8280276E
:10033000478143818A8230202880291C201C154A4D
:1003400001F0CAF9002817D104980024C6090E4FFD
:1003500016E0200701D101207860002078600B486A
:100360000068C0688047802209498039281CFFF74F
:10037000D9FE002802D00A2005B0F0BD8035013436
:10038000A642E6D80020F7E70034008004220008E7
:10039000E80A0208FFFF0000F8B5051C0E1C002447
:1003A00011E00C4901204860002048600C206043A7
:1003B0000949421853680A582F6A311C281CB8474B
:1003C000002806D101340448883840688442E8D3C4
:1003D0000020F8BD00340080E80A0208FFB5061CC2
:1003E00000243549012083B048600020486033482C
:1003F0000068C06880470C9A002A36D0304A002036
:1004000051680CE00C232E4D634388355B195B6803
:10041000069F1818B84204D801342404240C8C42D6
:10042000F0D3131C8C4220D00C9A069F251CBA18BE
:10043000234F013A883709E0824209D30C236B43EA
:10044000DB195B68181801352D042D0C8D42F3D390
:100450001949012048600020486018480068C068B9
:100460008047174B5868854219D1032007B0F0BD6B
:100470000C20134A604388328118029109890029AF
:100480000CD1111C029A53680A58376A0599301C1E
:10049000B8470028EAD10299012008810134AC4212
:1004A000E6DD0C9A04AB0092F4690ECB301CA04739
:1004B0000028DBD1DAE700000034008004220008C5
:1004C000600A02081048F0B544680F4D2004020E7F
:1004D0000C704A7000220220883511E00C2353432F
:1004E000461C5B195B680B541804070E8F55701C73
:1004F0001E02370E0F54461C1B0E701C01328B550A
:10050000A242EBDBF0BD0000600A0208F0B587B044
:100510000027002100220026041CF02500920191F2
:100520000580BC46AA2108012018418115239B01A2
:100530005521E318998290214181208800AB1881D0
:1005400060885881A08B988125803B48006886464A
:1005500027E03423384D53430021002004355B1934
:1005600005935B6806930AE0059B85005B199B6811
:10057000450002AF7D5BAB4200D101310130069BEB
:100580008342F1DC069B8B420AD134202A4D504332
:100590000435401900904769018BBC46019102E087
:1005A00001327245D5D3009800283FD000200025A5
:1005B0001AE0EB0000211A1C624404930EE0536819
:1005C0001E4F9E460C234343B644FE505668DB192B
:1005D0005E6000261E81013001317646049B67462D
:1005E000FB588B42EBDC013501998D42E1DBFF21A9
:1005F0001931884205DD1248012100224160426024
:10060000FCE70E490D4A883948600E600020803AA8
:10061000FF21115401308028FBDB0098002805D011
:100620000098C16A002901D0201C8847F025258048
:10063000009807B0F0BD0000B0200008E80A0208EA
:1006400000340080FFB581B03C48029D012141602B
:10065000002141603A480068C0688047039A0498C6
:100660001521890140084000511800918418049810
:10067000552149015618C007002814DA2878FF21AF
:1006800000020843021CAA2070810099552088822C
:10069000A02070812280211C039801F01DF8002801
:1006A0003FD1023401350498C707FF0F17E068787F
:1006B000297800020843021CAA2070810099552065
:1006C0008882A02070812280211C039801F004F808
:1006D000002826D10234023502373F043F0C0A9924
:1006E000781C8842E3D30A998F4212D22878FF21DE
:1006F00009020843021CAA207081009955208882B3
:10070000A02070812280211C039800F0E5FF0028C2
:1007100007D1049802990A9AFFF704FD002802D035
:100720000A2005B0F0BD054801214160002141606B
:1007300003480068C06880470020F2E7003400806A
:100740000422000870470000B0B5084D064C281C74
:10075000618800F00DF861886854000A6A185070CA
:10076000881C6080B0BD0000086C00085C020208B4
:1007700030B50C4D0A4A07E0037853401B06DB0DE9
:10078000EB5A120A5A4001304B1E1B041B0C0C1C66
:10079000191C002CF0D1D0430004000C30BD000027
:1007A000FFFF00000019000830B5D2431204120CFC
:1007B0000A4D07E0037853401B06DB0DEB5A120A83
:1007C0005A4001304B1E1B041B0C0C1C191C002C26
:1007D000F0D1D0430004000C30BD00000019000827
:1007E00070B50025002304E0CE5C2C1C01350133DC
:1007F00006559342F8DB002070BD0000F7B50C4DA4
:10080000171C28780E1C0024022882B001D100F0A9
:10081000C3F82878002802D0082005B0F0BD0548AC
:1008200000970068331CC5690299221CA847F4E7A9
:10083000AC2000085C0A0208F7B50C4D171C28789C
:100840000E1C0024022882B001D100F0A5F82878FF
:10085000002802D0082005B0F0BD054800970068C8
:10086000331C456A0299221CA847F4E7AC20000813
:100870005C0A0208F8B500241248012646600027E9
:100880004760114DE9680906090E14E06869000621
:10089000000E4906490F06D03020A8611020A8613B
:1008A000A861AE6101E000F00BFBE86801060548B5
:1008B000090E46604760201C0134802801DAC80711
:1008C000E4D4F8BD00340080000C0084F8B5214861
:1008D00001214160002141601F480078012838D083
:1008E00000F066FC1D4DD12000012E18F07B002188
:1008F00000F074FD00282CD02C1FF07B276800210D
:1009000000F0A4FDC0680922D201101A0604101CD0
:100910006838291C0818291F0968360C884201D13B
:100920000F482818011C2060042000F0FBFD002E59
:100930000FD00D20000200242D1806E0688B411C0A
:100940006983385C00F0BCFA0134B442F6DB002065
:100950006883F8BD00340080096C00080C18020898
:10096000980800000149022008707047AC20000878
:1009700010B5074C2078022801D100F00DF820783E
:10098000002801D0002010BD02480068006810BD9A
:10099000AC2000085C0A0208F8B50E4D2878002843
:1009A00017D0012815D0022813D10B4C0B4E0C4F39
:1009B00005E0616888473060002806D10834206867
:1009C000B842F6D13068002801D0002000E00120B4
:1009D0002870F8BDAC200008DC2100085C0A020881
:1009E000EFBEADDEB0B5094C051C2078022801D160
:1009F000FFF7D2FF2078002801D00820B0BD0448BE
:100A0000291C0068826A9047B0BD0000AC20000835
:100A10005C0A0208F8B5214F3868C068804738681A
:100A200001697E208847012500241FE01F20A04384
:100A300002D13868C06880471948065D7E2E01D013
:100A40007D2E0CD1386801697D20884720203968C7
:100A5000464030060969000E8847023505E03868CF
:100A600001693006000E8847013501340D48408881
:100A70008442DBDB3868C0688047386801697E20C3
:100A80008847681C800607D1386801697E2088473E
:100A9000386801697E208847F8BD000004220008FC
:100AA0005C020208086C000880B503490E2000F0C3
:100AB000FBFA002080BD00009C180008F8B5041C5B
:100AC00036480078002835D12022E01D3449FFF750
:100AD00029FB002807D1261C2036F079022802D1F4
:100AE000307A022803D02E499031052025E0A088D5
:100AF000242803D22A49B83103201EE029480027C0
:100B0000294C27490770022520222131601C2570BD
:100B1000FFF736EB20346570A570E7700420207174
:100B20006771A771E77127726772A772FFF720FFDD
:100B3000051C05D11A497431082000F0B5FA2BE0E4
:100B4000281C00F0B3F90206174F120E291C381C9E
:100B50002C30E272FFF714EBE17A642200252C318D
:100B6000481C7A543D54441C3819FFF73BFF0119C7
:100B7000707AC207D20F7A54481C0C494880012170
:100B8000C902884204D90A48012141604560FCE756
:100B9000FFF7DAFDFFF73EFF0020F8BDAC200008AC
:100BA00068170008502000085C020208086C000862
:100BB0000034008080B50349052000F075FA00205C
:100BC00080BD0000CC17000880B503490E2000F05E
:100BD0006BFA002080BD00009C180008094980B510
:100BE00012200870084901204880FFF7ADFDFFF78B
:100BF00011FF064800688068804700F045F9002032
:100C000080BD00005C020208086C00080422000895
:100C10000B4910B50C2008700A4801244480FFF7E6
:100C200093FDFFF7F7FE0848446000214160074844
:100C300000688068804700F037F9002010BD000090
:100C40005C020208086C00080034008004220008DE
:100C500010B5821D8088072801D01C4914E09178C6
:100C6000507809020843D17809040843117909062C
:100C70000143507993791B021843041C0120800220
:100C8000844205D911491831032000F00DFA1AE009
:100C90000F48042303705378437093788370D3789C
:100CA000C370127902710530221CFFF799FD0028EC
:100CB00002D006492C31E8E70649601D4880FFF75D
:100CC00043FDFFF7A7FE002010BD000048180008F4
:100CD0005C020208086C000810B5831D80889978B2
:100CE0000538020458780902120C0843D97809041F
:100CF0000843197909060843041C211C581DFFF7F5
:100D00007DFD002803D00C4900F0CEF912E00B481D
:100D1000062101702104090E447081702102090E20
:100D2000C170210E0171064905204880FFF70CFDB6
:100D3000FFF770FE002010BD881800085C02020852
:100D4000086C000810B5831D808899780538020466
:100D500058780902120C0843D97809040843197914
:100D600009060843041C211C581DFFF765FD0028D7
:100D700003D00C4900F098F912E00B4808210170EB
:100D80002104090E447081702102090EC170210EE8
:100D90000171064905204880FFF7D6FCFFF73AFEAF
:100DA000002010BD881800085C020208086C0008CA
:100DB00010B5811D80880A220131013804040848D9
:100DC000240C0270221C0130FFF7DAE90549601C8F
:100DD0004880FFF7B9FCFFF71DFE002010BD0000A2
:100DE0005C020208086C000870470000B0B5084CAF
:100DF000206880470128074D05D16068804700289A
:100E0000FBD02C60B0BD044C20688047F9E700009F
:100E1000C821000804220008A82100088CB56846F3
:100E200006220D49FFF7ACE90C4806226946006826
:100E3000FFF7A6E9FFF7D8FFFFF794FD0848012167
:100E4000416000214160FFF7D1FF00F06DF8FFF72E
:100E5000A3FD00F08FF88CBD60170008EC2100089E
:100E600000340080054C0020054900E001C48C429C
:100E7000FCD3044901224A604860704704220008FC
:100E8000302502080034008005480022016A0A600B
:100E9000806A082101600349012048604A60FCE73C
:100EA000001F000800340080FEE70000011C002045
:100EB00000E001300A780131002AFAD170470000C1
:100EC000B0B5164C0025216900290BD161680029B5
:100ED00003D1134800F026FCB0BD21610A686260AE
:100EE0008D800D607D2805D07E2806D100F0C0F8E9
:100EF0002570B0BD01202070B0BD2169094B8A88E2
:100F00009A4207D22378002B02D020235840257024
:100F100052189071888801308880B0BD086C000834
:100F2000AC1700080704000070B500220E494124E8
:100F300001200A608A80240183011B181B015D18AF
:100F40002E1BCE5001306428AA80F5DB0748091813
:100F5000054814384160826002610270C260044931
:100F60000120087070BD00001C6C00083092010068
:100F700050200008F8B5084F0026064C01253868B7
:100F8000C06880476560666000F008F8656066606C
:100F9000F5E700000034008004220008F8B52D4C6D
:100FA0002068C06880474EE02B49012048702068C7
:100FB0008860002800D1C86000200027002520603C
:100FC00011E024480068C0688047A088461B802E36
:100FD00000DD8026601906303A1C3104090CFFF749
:100FE000E3FB071CAD19A088A842EADC1B48874236
:100FF00003D01B4800F096FB21E0A0880238A080B7
:10100000A079411E152917D816490978002901D061
:10101000012811D114490978002905D01049E03977
:10102000082000F041F80AE01049800040184038DC
:10103000C16B201C884702E0201CFFF7BBFD06495E
:10104000486820604C6004498C68002CACD10020BA
:101050004870F8BD04220008086C0008470F000023
:10106000BC18000850200008AC20000854200008DC
:101070000B4B10B518690B4C81880022A14201D896
:10108000032901D2828010BDD968002902D1D8601D
:10109000986002E008601869D8601A6110BD00000D
:1010A000086C00080704000070B50D1C041C081C27
:1010B000FFF7FCFE061C281C00F034FB0C480D2139
:1010C00001702104090E447081702102090EC17063
:1010D000210E0171291C321C0530FFF752E8054929
:1010E000701D4880FFF730FBFFF794FC70BD0000D7
:1010F0005C020208086C00080A4A0021D068000659
:10110000000EC3070BD54006400F07D0302090617A
:101110001020906190610120906100E0012108069B
:10112000000E7047000C00840022012010B5044915
:10113000044B01E048604A60DC682407FAD510BD22
:1011400000340080000C008410B50948002484603D
:10115000FFF7EAFF064B0121403B064802E05A69CF
:1011600041604460DA68D207F9D4012010BD000064
:10117000400C00840034008030B500240122054B6F
:10118000054901E05A605C600D6AED07FAD5086117
:1011900030BD000000340080000C008403480121B1
:1011A0004160002141600120704700000034008050
:1011B000F0B5002600250021002095B0504F00F02A
:1011C0000DF9002873D04F4801214160002343608E
:1011D0004D48692149014418A278391C0431002A7C
:1011E00009D0A3703A68026009680171090A417167
:1011F000090A817115E03A6800AB9A80120CDA8016
:1012000009681981090C59819988404B994206D087
:101210003F4B994205D100AB5D89061C01E00121DD
:10122000A170A0783B4F00282FD1B96B0220084352
:10123000B863002D1DD00121002000F007F9011C2A
:101240004068CB220004000CD2058018CA68530DF8
:101250005B055B19D218CA602A1C311C00F0F0F93A
:101260000121002000F0FCF80121002000F0CAF864
:1012700007E00121002000F0E9F80121002000F042
:10128000EFF80121002000F0CFF80021002000F04D
:1012900063F80021002000F06BF81F480168020588
:1012A000914301600C300168490D490500E024E0DC
:1012B0000160A278002A03D000AB5A89891800E0A7
:1012C000803101600021002000F0AEF8A0780028F5
:1012D00013D17D25ED0003E000200130A842FCDBA6
:1012E0000121002000F07AF80028F5D07868002865
:1012F00003D12088002800D0786015B0F0BD000030
:1013000000108065003400800C18020821200000C5
:10131000A121000040008065000480650448D121BF
:101320000901401880B5807B012100F06DF980BD76
:101330000C18020800224000002903D0012903D123
:10134000022200E0012282400249086B104000D0D6
:101350000A6370474000806541000120034A8840CD
:10136000D169014000D0D061704700004000806525
:1013700041000120034A8840116A014000D01062F8
:101380007047000040008065F0B54500012402264A
:10139000AE40AC400023002918D0012900D1331CF5
:1013A0000C4F7D6B9D437D63002A0CD000220029E9
:1013B0000ED0012900D1321C074B5B6A134002D0CA
:1013C000054B4033DA60FFF7B5FFF0BD231CE7E7BC
:1013D000221CF1E740008065000880650022400083
:1013E000002903D0012903D1022200E0012282401A
:1013F0000348006B104001D0012070470020704767
:101400004000806500224000002903D0012903D15B
:10141000022200E0012282400249486B10434863E7
:10142000704700004000806500224000002903D082
:10143000012903D1022200E0012282400249886A88
:10144000104000D18A62704740008065034A400125
:101450008018012900D11030704700000004806519
:1014600041000220034A8840D169014000D1D06187
:10147000704700004000806570B52749002049682A
:10148000002900D170BD254D0D21090269180022E7
:101490000A834A838A8369214901691889231B01C8
:1014A0008A70412424010A8029180E193272C91841
:1014B0000A720921C90101308842F5DB1848174E2C
:1014C0000168043E716001792971417969718079FF
:1014D0000021A8710420FFF7B9FFC068D1210901DC
:1014E000321D0004000C5418002801D0042000E034
:1014F0000220E073A073E07B0021FFF76FFF00285C
:10150000F9D08320C0002918021C68320420316001
:1015100000F008F8012070BD400080650C1802083A
:10152000BC21000870B50D1C041C161C0021FFF71F
:1015300001FF0021201CFFF70FFF0021201CFFF7F7
:1015400017FF0D49E000401805600021201CFFF73F
:101550007DFFC168490D49058919C16001206100FD
:101560008840064948620021201CFFF74BFF0021FC
:10157000201CFFF759FF70BD800980650008806559
:10158000F8B51D4B0D2109025D18298B4A1CC9189D
:101590002A8308727E282ED12E8B012E2BD017493C
:1015A00001204860154800214160D12000011F182A
:1015B000BC7B181C083000900121201CFFF746FF5F
:1015C000C1680F4A8919C160E10000988918486014
:1015D0006100022088400B4948620121201CFFF76E
:1015E00011FF0121201CFFF71FFF00212983B87B79
:1015F000012100F009F8F8BD0C1802080034008041
:10160000800980650008806500224000002980B5BF
:1016100003D0012903D1022200E001228240064BBF
:10162000586A1040FCD10548D12212018018807BF5
:101630000022FFF7A9FE80BD000880650C18020893
:10164000033292088B079B0F30B507D0012B0DD0CA
:10165000022B20D0032B08D1002339E0002302E025
:1016600010C9013310C09342FADB30BD00230FE0F4
:101670000C7801310D7801312D022C190D780131D2
:101680002D042C190D7801312D062C1910C00133B1
:101690009342EDDB30BD002307E00C8802310D885A
:1016A00002312D042C1910C001339342F5DB30BDFB
:1016B0000C7801310D7801312D022C190D78013192
:1016C0002D042C190D7801312D062C1910C0013371
:1016D0009342EDDB30BD0000F7B5802002400E1CC8
:1016E000151C002400270D49012048604F600C485C
:1016F0000068C068804730888022011C1140A942E0
:1017000009D08006EFD50134142CECDB0099F020D1
:1017100008800720FEBD0020FCE7000000340080A8
:101720000422000870B5051CFFF7C0FB041C0A4E1C
:101730000E203070221C291C701CFEF722ED601C4C
:101740000004000C054A0A23411C51803354FEF763
:10175000FBFFFFF75FF970BD5C020208086C000830
:1017600044554D4D5900000051434F4D2066617363
:101770007420646F776E6C6F61642070726F746F29
:10178000636F6C20686F73740051434F4D20666126
:10179000737420646F776E6C6F61642070726F7405
:1017A0006F636F6C20746172670000004552523A9B
:1017B0002057696E646F77206F76657272756E2040
:1017C00064657465637465642E2E2E00496E7661BF
:1017D0006C696420436F6D6D616E6400556E726557
:1017E000636F676E697A656420666C6173682064F4
:1017F0006576696365000000496E76616C696420F6
:101800006D61676963206E756D6265722F70726FAE
:10181000746F636F6C2076657273696F6E00000081
:10182000506172616D657465722052657175657382
:1018300074205061636B6574204C656E677468201A
:101840004572726F72000000496E76616C696420A7
:101850007061636B6574206C656E6774680000006E
:101860005061636B657420746F6F206C6172676583
:10187000000000005265616420756E7375636365D6
:10188000737366756C000000577269746520756E1D
:101890007375636365737366756C00004E414E44E7
:1018A0002070726F6772616D6D696E67206E6F7404
:1018B00020737570706F7274656400004552523AFF
:1018C0002043524320696E76616C69640000000019
:1018D000414D4420414D3239424453313238480061
:1018E000414D4420414D3239424453363430470053
:1018F000414D4420414D323950445333323244003B
:101900000000891112239B322446AD573665BF74FF
:10191000488CC19D5AAFD3BE6CCAE5DB7EE9F7F8AF
:101920008110080193331A22A5562C47B7753E64DF
:10193000C99C408DDBBF52AEEDDA64CBFFF976E88F
:1019400002218B30100299132667AF763444BD55BF
:101950004AADC3BC588ED19F6EEBE7FA7CC8F5D96F
:1019600083310A2091121803A7772E66B5543C459F
:10197000CBBD42ACD99E508FEFFB66EAFDD874C94F
:1019800004428D5316619F702004A9153227BB367F
:101990004CCEC5DF5EEDD7FC6888E1997AABF3BA2F
:1019A00085520C4397711E60A1142805B3373A265F
:1019B000CDDE44CFDFFD56ECE9986089FBBB72AA0F
:1019C00006638F7214409D512225AB343006B9173F
:1019D0004EEFC7FE5CCCD5DD6AA9E3B8788AF19BEF
:1019E00087730E6295501C41A3352A24B11638071F
:1019F000CFFF46EEDDDC54CDEBB962A8F99A708BCF
:101A0000088481951AA793B62CC2A5D33EE1B7F0FE
:101A10004008C919522BDB3A644EED5F766DFF7CAE
:101A2000899400859BB712A6ADD224C3BFF136E0DE
:101A3000C1184809D33B5A2AE55E6C4FF77D7E6C8E
:101A40000AA583B4188691972EE3A7F23CC0B5D1BE
:101A50004229CB38500AD91B666FEF7E744CFD5D6E
:101A60008BB502A499961087AFF326E2BDD034C19E
:101A7000C3394A28D11A580BE77F6E6EF55C7C4D4E
:101A80000CC685D71EE597F42880A1913AA3B3B27E
:101A9000444ACD5B5669DF78600CE91D722FFB3E2E
:101AA0008DD604C79FF516E4A9902081BBB332A25E
:101AB000C55A4C4BD7795E68E11C680DF33F7A2E0E
:101AC0000EE787F61CC495D52AA1A3B03882B1933E
:101AD000466BCF7A5448DD59622DEB3C700EF91FEE
:101AE0008FF706E69DD414C5ABB122A0B99230831E
:101AF000C77B4E6AD5585C49E33D6A2CF11E780FCE
:101B000000000000C7B9302049CA51208E7361001F
:101B1000552D93209294A3001CE7C200DB5EF220B7
:101B20006DE31621AA5A260124294701E390772163
:101B300038CE8501FF77B5217104D421B6BDE4010B
:101B40001D7F1D22DAC62D0254B54C02930C7C2257
:101B500048528E028FEBBE220198DF22C621EF028F
:101B6000709C0B03B7253B2339565A23FEEF6A03BB
:101B700025B19823E208A8036C7BC903ABC2F92303
:101B8000FD470A243AFE3A04B48D5B0473346B2497
:101B9000A86A99046FD3A924E1A0C8242619F804DF
:101BA00090A41C05571D2C25D96E4D251ED77D05EB
:101BB000C5898F250230BF058C43DE054BFAEE2523
:101BC000E038170627812726A9F246266E4B7606AF
:101BD000B515842672ACB406FCDFD5063B66E52657
:101BE0008DDB01274A623107C411500703A8602723
:101BF000D8F692071F4FA227913CC3275685F307BB
:101C00003D362428FA8F140874FC7508B34545281E
:101C1000681BB708AFA2872821D1E628E668D60856
:101C200050D53209976C0229191F6329DEA6530982
:101C300005F8A129C24191094C32F0098B8BC029CA
:101C40002049390AE7F0092A6983682AAE3A580A16
:101C50007564AA2AB2DD9A0A3CAEFB0AFB17CB2AAE
:101C60004DAA2F2B8A131F0B04607E0BC3D94E2B5A
:101C70001887BC0BDF3E8C2B514DED2B96F4DD0B02
:101C8000C0712E0C07C81E2C89BB7F2C4E024F0C36
:101C9000955CBD2C52E58D0CDC96EC0C1B2FDC2CDE
:101CA000AD92382D6A2B080DE458690D23E1592DAA
:101CB000F8BFAB0D3F069B2DB175FA2D76CCCA0D42
:101CC000DD0E332E1AB7030E94C4620E537D522ECE
:101CD0008823A00E4F9A902EC1E9F12E0650C10E16
:101CE000B0ED250F7754152FF927742F3E9E440F22
:101CF000E5C0B62F2279860FAC0AE70F6BB3D72F5A
:101D0000BDD578307A6C4810F41F291033A61930ED
:101D1000E8F8EB102F41DB30A132BA30668B8A1025
:101D2000D0366E11178F5E3199FC3F315E450F1131
:101D3000851BFD3142A2CD11CCD1AC110B689C3179
:101D4000A0AA651267135532E96034322ED9041205
:101D5000F587F632323EC612BC4DA7127BF497329D
:101D6000CD4973330AF0431384832213433A123369
:101D70009864E0135FDDD033D1AEB1331617811311
:101D800040927214872B423409582334CEE1131445
:101D900015BFE134D206D1145C75B0149BCC8034ED
:101DA0002D716435EAC8541564BB3515A302053599
:101DB000785CF715BFE5C7353196A635F62F961531
:101DC0005DED6F369A545F1614273E16D39E0E367D
:101DD00008C0FC16CF79CC36410AAD3686B39D16C5
:101DE000300E7917F7B7493779C42837BE7D1817F1
:101DF0006523EA37A29ADA172CE9BB17EB508B3729
:101E000080E35C18475A6C38C9290D380E903D188C
:101E1000D5CECF381277FF189C049E185BBDAE3824
:101E2000ED004A392AB97A19A4CA1B1963732B39F0
:101E3000B82DD9197F94E939F1E78839365EB81998
:101E40009D9C413A5A25711AD456101A13EF203A24
:101E5000C8B1D21A0F08E23A817B833A46C2B31A5C
:101E6000F07F571B37C6673BB9B5063B7E0C361B68
:101E7000A552C43B62EBF41BEC98951B2B21A53BB0
:101E80007DA4563CBA1D661C346E071CF3D7373C44
:101E90002889C51CEF30F53C6143943CA6FAA41C8C
:101EA0001047401DD7FE703D598D113D9E34211DB8
:101EB000456AD33D82D3E31D0CA0821DCB19B23DF0
:101EC00060DB4B1EA7627B3E29111A3EEEA82A1E3C
:101ED00035F6D83EF24FE81E7C3C891EBB85B93EE4
:101EE0000D385D3FCA816D1F44F20C1F834B3C3F90
:101EF0005815CE1F9FACFE3F11DF9F3FD666AF1F28
:101F00005C01008468010084500100847401008435
:101F1000600100846C010084540100847801008415
:101F20000800004860000048000000480000000071
:101F30000C00004864000048040000480000000055
:101F40006401008470010084580100847C010084D5
:101F500000000000700000480000000000000000C9
:101F600020205155414C434F4D4D2041524D505230
:101F700047204964656E74696669636174696F6E50
:101F800020426C6F636B0020202020436F6D7069CE
:101F90006C65642046656220313620323030342052
:101FA00031343A32373A32340020202020566572DC
:101FB00073696F6E203D3D2030362E30352E303027
:101FC000002020202041505247363235302E4845DF
:101FD0005820666F72204D534D36323530204F4EAB
:101FE0004C59202D205541525420616E6420555388
:101FF000420020202020436F707972696768742046
:1020000028632920323030322D323030332062794B
:10201000205155414C434F4D4D2C20496E636F72FA
:10202000706F72617465642E20416C6C2052696718
:102030006874732052657365727665642E00202083
:10204000456E64206F6620494420426C6F636B00CC
:1020500001000000BD0A0008B50B0008510C000883
:10206000B50B0008D90C0008B50B0008450D000899
:10207000B50B0008B10D0008B50B0008110C0008E5
:10208000B50B0008B50B0008B50B0008B50B000830
:10209000B50B0008DD0B0008B50B0008C90B0008E4
:1020A000B50B0008A90A0008B50B000802000000E3
:1020B00003000000D0180008030000000100000029
:1020C0007E220000182200005021000803000000BA
:1020D00045060008E1020008DD030008C504000809
:1020E0000000000099030008E01800080300000049
:1020F000010000007E220000042200006821000888
:102100000600000045060008E1020008DD030008A3
:10211000C5040008A502000899030008F01800088B
:1021200003000000010000007E22000006220000E3
:10213000982100080200000045060008E10200089E
:10214000DD030008C5040008000000009903000832
:102150000800000000200000FE0000000000010058
:102160000800000000200000040000000040000003
:102170001F0000000000010020000000000001001E
:1021800020000000000001001F000000000001000E
:1021900004000000004000003F00000000000100BB
:1021A000080000000040000049110008F910000874
:1021B00029110008750800087911000800C2010003
:1021C0000000080000000000791400089D110008BC
:1021D0001D130008CD08000881150008000000004C
:1021E0000D050008EFBEADDE00000000601F000816
:1021F000871F0008A91F0008C11F0008F21F000860
:042200003E20000874
:0400000308000000F1
:00000001FF
