:020000040800F2
:10000000F4109FE5F0209FE5EC309FE5E8409FE588
:10001000E4509FE5E0609FE5DC709FE5D8809FE5B8
:10002000D4909FE5D0B09FE5CCC09FE5C8D09FE5B8
:10003000C4E09FE500000FE1801080E301F021E1C2
:10004000D7F021E3B4D09FE5DBF021E3B0D09FE50A
:10005000D2F021E3ACD09FE5D3F021E3A8D09FE517
:10006000A8009FE5010010E3A4E09F15A4E09F0510
:1000700010FF2FE1784700009C009FE5010010E38E
:1000800098E09F1598E09F0510FF2FE1784700004A
:1000900090009FE5100F01EE100F11EE400D80E370
:1000A000100F01EE80009FE510FF2FE1DEEEDEEE87
:1000B000784700000220A0E3101E10EE021001E0BD
:1000C000000051E3FBFFFF1A100E01EE1EFF2FE1AF
:1000D000784700000120A0E3101E10EE021001E09E
:1000E000000051E3FBFFFF0A100E11EE1EFF2FE18F
:1000F000784700000070A0E117FF2FE1EFBEADDEF2
:100100000C7000080C7100080C6F00080C670008E8
:10011000350600087500000878000008250E000864
:100120008D0000089000000878000500E10D00082F
:1001300010B4042A0ED3031C0B439B070AD108C832
:1001400010C9A34202D1043A042AF8D2A34201D032
:1001500004380439002A02D1002010BC7047D307AC
:1001600001D5013205E003780C7801310130A3425A
:1001700007D103780C7801310130A34201D1023A52
:10018000F1D1181BE9E7000078470000030052E3B3
:100190003E00009A03C010E20800000A0130D1E4DA
:1001A00002005CE30C2082E001C0D1940130C0E485
:1001B0000130D134042042E201C0C0940130C03487
:1001C000033011E21E00000A042052E22F00003A20
:1001D00003C031E7020053E30800000A0F00008A61
:1001E0002C34A0E104C0B1E5042052E20C3C83E1D0
:1001F000043080E4F9FFFF2A011081E2230000EAC5
:100200002C38A0E104C0B1E5042052E20C3883E1AF
:10021000043080E4F9FFFF2A021081E21B0000EAAB
:100220002C3CA0E104C0B1E5042052E20C3483E18F
:10023000043080E4F9FFFF2A031081E2130000EA92
:100240007847000010402DE9202052E20500003AD6
:100250001850B1281850A0281850B1281850A028BC
:1002600020205222F9FFFF2A02CEB0E11850B12817
:100270001850A0281800B1481800A0481040BDE848
:1002800002CFB0E104309124043080241EFF2F01FE
:10029000822FB0E10120D1440130D12401C0D1240A
:1002A0000120C0440130C02401C0C0241EFF2FE142
:1002B00030B50B4A0121D160602404800480094AD2
:1002C0000021883A5268074D05E00C234B43EB5858
:1002D00080331C8001319142F7D3F021018030BD81
:1002E0000054008030100208FFB50C1C2649151C74
:1002F000012081B0C860254F3868C0688047002061
:100300002349234A8839496805E00C234343D358DD
:10031000AB4202D001308842F7D36808400005198B
:10032000AA2318012018438115218901552261183B
:100330008A828026468143818A8230202880291C37
:10034000201C144A01F0DCFB002814D1049800247E
:10035000C60914E0200702D10B490120C8603868A3
:10036000C068804780220A498039281CFFF7E0FED8
:10037000002802D00A2005B0F0BD80350134A64225
:10038000E8D80020F7E700000054008008270008A4
:1003900030100208FFFF0000F8B5051C0E1C0024F9
:1003A0000FE00B490120C8600C2060430949421846
:1003B00053680A586F6A311C281CB847002806D1B8
:1003C00001340448883840688442EAD30020F8BDEC
:1003D0000054008030100208FFB5061C0024334989
:1003E000012083B0C86032480068C06880470C9A1A
:1003F000002A34D02F4A002051680CE00C232D4DE8
:10040000634388355B195B68069F1818B84204D8A7
:1004100001342404240C8C42F0D3131C8C421ED0D3
:100420000C9A069F251CBA18224F013A883709E01A
:10043000824209D30C236B43DB195B681818013522
:100440002D042D0C8D42F3D318490120C8601848A3
:100450000068C0688047174B5868854219D103204F
:1004600007B0F0BD0C20134A604388328118029116
:10047000098900290CD1111C029A53680A58776A1D
:100480000599301CB8470028EAD10299012008815B
:100490000134AC42E6DD0C9A04AB0092346A0ECB18
:1004A000301CA0470028DBD1DAE7000000540080B0
:1004B00008270008A80F02081048F0B544680F4D3F
:1004C0002004020E0C704A7000220220883511E0D0
:1004D0000C235343461C5B195B680B541804070E2E
:1004E0008F55701C1E02370E0F54461C1B0E701CBD
:1004F00001328B55A242EBDBF0BD0000A80F0208D1
:10050000BCB5041CF0250580AA21080120184181F2
:10051000152292015521A2189182902141812088B3
:1005200000AB188060885880A08B98802580694631
:10053000201C01F065FA2580BCBD0000FFB581B02C
:100540003A49029D0120C86039480068C068804768
:10055000039A049815218901400840005118009120
:1005600084180498552149015618C007002814DA48
:100570002878FF2100020843021CAA2070810099FC
:1005800055208882A02070812280211C039801F0D0
:10059000B7FA00283FD1023401350498C707FF0F8E
:1005A00017E06878297800020843021CAA207081AD
:1005B000009955208882A02070812280211C0398F8
:1005C00001F09EFA002826D10234023502373F049A
:1005D0003F0C0A99781C8842E3D30A998F4212D2C1
:1005E0002878FF2109020843021CAA207081009983
:1005F00055208882A02070812280211C039801F060
:100600007FFA002807D1049802990A9AFFF790FD13
:10061000002802D00A2005B0F0BD04490120C860BE
:1006200003480068C06880470020F4E70054008059
:100630000827000870470000B0B5084D064C281C7C
:10064000618800F00DF861886854000A6A185070DB
:10065000881C6080B0BD00000C71000864070208AF
:1006600030B50C4D0A4A07E0037853401B06DB0DFA
:10067000EB5A120A5A4001304B1E1B041B0C0C1C77
:10068000191C002CF0D1D0430004000C30BD000038
:10069000FFFF0000CC1D000830B5D2431204120C3D
:1006A0000A4D07E0037853401B06DB0DEB5A120A94
:1006B0005A4001304B1E1B041B0C0C1C191C002C37
:1006C000F0D1D0430004000C30BD0000CC1D000868
:1006D00070B50025002304E0CE5C2C1C01350133ED
:1006E00006559342F8DB002070BD0000F7B50C4DB5
:1006F000171C28780E1C0024022882B001D100F0BB
:1007000011F92878002802D0082005B0F0BD05486E
:1007100000970068331C056A0299221CA847F4E779
:1007200060250008A40F0208F7B50C4D171C2878A7
:100730000E1C0024022882B001D100F0F3F82878C2
:10074000002802D0082005B0F0BD054800970068D9
:10075000331C856A0299221CA847F4E7602500082B
:10076000A40F0208F8B5114F00240126FE60104DB9
:10077000A8680106090E12E0E8680006000E4906A6
:10078000490F06D0302028611020286128612E6191
:1007900001E000F065FBA8680106090EFE60201C60
:1007A0000134802801DAC807E6D4F8BD005400807F
:1007B00000400080F8B549480122C2604849496AB2
:1007C000C90772D5474902264E600121C1604548DC
:1007D000403081684A0704D5042101600521816009
:1007E0008168090761D5016B446B0C4004630821E3
:1007F0008160A00701D501F037F8E00706D5012296
:100800000121002000F018FF00F0E8FD364DD12056
:1008100000012F18BD7B68008640311C324E201C21
:1008200008400C3E00281BD00121281C00F076FF58
:10083000C068C002C00A002810DC0121281C00F09A
:10084000B3FE0121281C00F0D3FE00220121281C48
:1008500000F0F2FE0121281C00F094FE0020307010
:10086000F87B0121204D420091400C4001D0B1683D
:1008700071603178002918D17168371C002914D0B3
:10088000002100F04BFFC0680922D201101A0604B3
:10089000101C154968380818B968360C884201D10F
:1008A00012482818011CB86000E016E0042001F08E
:1008B0000BF8002E11D00D20000200242D1807E0A7
:1008C000688B411C69837968085C00F0C9FA0134BF
:1008D000B442F5DB002068837860F8BD00540080E6
:1008E000400D0080002000805C1D02089808000078
:1008F00001490220087070476025000810B5074CB8
:100900002078022801D100F00DF82078002801D0CD
:10091000002010BD02480068006810BD6025000876
:10092000A40F0208F8B50E4D2878002817D001282A
:1009300015D0022813D10B4C0B4E0C4F05E061680B
:1009400088473060002806D108342068B842F6D1C4
:100950003068002801D0002000E001202870F8BD98
:1009600060250008EC260008A40F0208EFBEADDEEB
:10097000B0B5094C051C2078022801D1FFF7D2FF41
:100980002078002801D00820B0BD0448291C006848
:10099000C26A9047B0BD000060250008A40F02089D
:1009A000F8B5214F3868C0688047386801697E20F3
:1009B0008847012500241FE01F20A04302D138688A
:1009C000C06880471948065D7E2E01D07D2E0CD16F
:1009D000386801697D208847202039684640300604
:1009E0000969000E8847023505E03868016930065C
:1009F000000E8847013501340D4840888442DBDB16
:100A00003868C0688047386801697E208847681C5C
:100A1000800607D1386801697E20884738680169F7
:100A20007E208847F8BD00000827000864070208F8
:100A30000C71000880B503490E2000F057FC00201F
:100A400080BD0000501D0008F8B5041C394800782E
:100A5000002838D12022E01D3749FFF769FB002824
:100A600002D03549913106E0261C2036307A022822
:100A700003D23149A931052028E0A088242803D2D7
:100A80002D49C531032021E02C48002505702C4F4D
:100A900029490220387020222131781CFFF776EB9B
:100AA0003C1C2034032060700220A070E5700420FC
:100AB00020716571A571E57125726572A572FFF7E8
:100AC0001DFF051C05D11C497531082000F00EFCE6
:100AD0002EE0281C00F0BAF90206120E381C291C60
:100AE0002C30E272FFF752EBE07A642200252C30C2
:100AF000411C3A544C1C38197D54FFF739FF011939
:100B0000707AC207D20F7A54481C0E4948800121DE
:100B1000C902884208D90849ED31072000F0E6FBF8
:100B200009490120C860FDE7FFF786FDFFF738FFA0
:100B30000020F8BD60250008CF1B0008E424000851
:100B4000640702080C7100080054008080B5034956
:100B5000052000F0CBFB002080BD0000341C000805
:100B600080B503490E2000F0C1FB002080BD0000CD
:100B7000501D000880B503490E2000F0B7FB00208F
:100B800080BD0000501D000880B503490E2000F014
:100B9000ADFB002080BD0000501D0008064980B557
:100BA000122008700549012048800549152000F0F1
:100BB0009DFB002080BD0000640702080C71000846
:100BC000381D00080A4910B50C2008700948012496
:100BD0004480FFF731FDFFF7E3FE0748C460074894
:100BE00000688068804700F02FF9002010BD0000E9
:100BF000640702080C7100080054008008270008F0
:100C000080B503490E2000F071FB002080BD00007C
:100C1000501D000810B5821D8088072801D01C498E
:100C200014E09178507809020843D1780904084308
:100C3000117909060143507993791B021843041C6A
:100C400001208002844205D911491831032000F0A7
:100C50004DFB1AE00F4804230370537843709378D8
:100C60008370D378C370127902710530221CFFF7AC
:100C70002FFD002802D006492C31E8E70649601D07
:100C80004880FFF7D9FCFFF78BFE002010BD000065
:100C9000E41C0008640702080C71000810B5831DED
:100CA000808899780538020458780902120C0843A4
:100CB000D97809040843197909060843041C211C42
:100CC000581DFFF713FD002803D00C4900F00EFB60
:100CD00012E00B48062101702104090E4470817056
:100CE0002102090EC170210E0171064905204880BC
:100CF000FFF7A2FCFFF754FE002010BD241D0008E2
:100D0000640702080C71000810B5831D808899786B
:100D10000538020458780902120C0843D9780904EE
:100D20000843197909060843041C211C581DFFF7C4
:100D3000FBFC002803D00C4900F0D8FA12E00B4865
:100D4000082101702104090E447081702102090EEE
:100D5000C170210E0171064905204880FFF76CFC27
:100D6000FFF71EFE002010BD241D000864070208C6
:100D70000C71000810B5811D80880A2201310138EC
:100D800004040848240C0270221C0130FFF7FEE91D
:100D90000549601C4880FFF74FFCFFF701FE00206B
:100DA00010BD0000640702080C71000870470000C5
:100DB000B0B5084C206880470128074D05D1606810
:100DC00080470028FBD02C60B0BD044C20688047D1
:100DD000F9E70000D826000808270008B826000810
:100DE0008CB5684606220C49FFF7D0E90B4806226D
:100DF00069460068FFF7CAE9FFF7D8FFFFF778FDFB
:100E000007490120C860FFF7D3FF00F061F8FFF742
:100E100089FD00F083F88CBD801B000804270008C2
:100E200000540080054C0020054900E001C48C42BC
:100E3000FCD304490120C86070470000082700085F
:100E4000802A020800540080FEE70000011C0020F8
:100E500000E001300A780131002AFAD17047000021
:100E6000B0B5184C002561680131616061690029E5
:100E70000BD1A168002903D1134800F063FEB0BD77
:100E800061610A68A2608D800D607D2805D07E2892
:100E900006D100F0BFF82570B0BD01202070B0BDB4
:100EA00061690A4B8A889A4207D22378002B02D0C4
:100EB000202358402570521890718888013088800E
:100EC000B0BD00000C710008141C000807040000ED
:100ED00070B500220E49412401200A608A80240155
:100EE00083011B181B015D182E1BCE500130642896
:100EF000AA80F5DB07480918054818388160C260E8
:100F000042610270026104490120087070BD000056
:100F10002471000830920100E424000870B5064EE8
:100F2000044D01243068C0688047EC6000F006F88A
:100F3000EC60F7E70054008008270008F8B52D4C56
:100F40002068C06880474DE02B4901204870206828
:100F5000C860002800D1086100200027002520601B
:100F600011E024480068C0688047A088461B802E96
:100F700000DD8026601906303A1C3104090CFFF7A9
:100F80008BFB071CAD19A088A842EADC1B488742EE
:100F900003D01B4800F0D6FD20E0A0880238A080D6
:100FA000A079411E1B2916D816490978002901D0BD
:100FB000012810D114490978002904D013490820C8
:100FC00000F094F90AE01249800040184038C16BE3
:100FD000201C884702E0201CFFF7B8FD06498868FE
:100FE00020608C600449CC68002CADD10020487092
:100FF000F8BD0000082700080C710008470F00002A
:10100000701D0008E424000860250008441C000846
:10101000F02400080B4B10B558690B4C8188002256
:10102000A14201D8032901D2828010BD196900298B
:1010300002D11861D86002E00860586918615A61ED
:1010400010BD00000C71000807040000FFB583B05C
:1010500000250195550800270E1C041C002A01D00C
:10106000009500E0009224490120C86023480068F0
:10107000C068804768008519069840080290AA2039
:101080000101711848811521890155207118888244
:101090000099252049007052029801387052164973
:1010A0000120C86015480068C068804700200BE038
:1010B00061782278090211430F1C2F8001950235B7
:1010C000023401300004000C02998142F0D8019DE5
:1010D000292028803A1C301C019900F011FD0028BD
:1010E00007D105490120C86004480068C0688047EE
:1010F000002007B0F0BD0000005400800827000861
:10110000FFB581B03A49019D0120C86039480068A7
:10111000C0688047029A0398152189014008400061
:101120005118009184180398552149015618C00799
:10113000002814DA2878FF2100020843021CAA20A4
:101140007081009955208882A02070812280211C06
:10115000029800F0D5FC00283FD1023401350398F5
:10116000C707FF0F17E06878297800020843021CC0
:10117000AA207081009955208882A0207081228049
:10118000211C029800F0BCFC002826D10234023554
:1011900002373F043F0C0499781C8842E3D304993A
:1011A0008F4212D22878FF2109020843021CAA208C
:1011B0007081009955208882A02070812280211C96
:1011C000029800F09DFC002807D10398049A019929
:1011D000FEF7AEFF002802D00A2005B0F0BD04499A
:1011E0000120C86003480068C06880470020F4E719
:1011F0000054008008270008FEB5041CF025058077
:10120000AA2318012018438115218901552261184C
:101210008A8290264681278800AB9F802580AA235A
:1012200043818A824681608800ABD880A08B188178
:10123000E08B5881258001A9201C00F0E1FB25806E
:10124000FEBD0000FFB581B00A981F1C00250024D8
:10125000402807D23A1C029803990A9BFFF750FFD7
:1012600005B0F0BD1F490120C8601F480068C06874
:101270008047BE06B60E27D0331C3A1C029803994D
:10128000FFF73EFF051C341C002820D11CE00A9803
:101290004026001B402800DA061C402E08DA02987F
:1012A0003A19001933041B0C0399FFF729FF07E0D3
:1012B00002983A19001933041B0C0399FFF7C6FE74
:1012C000051CA41900280BD10A988442DFDB381CC6
:1012D00002990A9AFEF72CFF002801D00A20BFE7E6
:1012E000281CBDE7005400800827000870B50D1CBD
:1012F000041C081CFFF7AAFD061C281C00F022FC99
:101300000C480D2101702104090E447081702102E6
:10131000090EC170210E0171291C321C0530FEF727
:1013200036EF0549701D4880FFF786F9FFF738FB57
:1013300070BD0000640702080C7100080A4A002111
:1013400090680006000EC3070BD54006400F07D07B
:10135000302010611020106110610120106100E048
:1013600001210806000E704700400080044901205A
:10137000044A00E0C86093681B07FBD57047000073
:10138000005400800040008010B5074C0020A0638E
:10139000FFF7ECFF0548012101E0E268C160A268A7
:1013A000D207FAD4012010BD004000800054008014
:1013B00010B5054B0122054900E0DA604C69E407ED
:1013C000FBD5C86010BD00000054008000400080C4
:1013D00001490120C860704700540080FEB5002616
:1013E000002553480122C260524F692040013C1839
:1013F000A378514948680968002B08D00022A270E0
:1014000039603871000A7871000AB87138E000ABB1
:101410009980090CD9801881000C58819888FF2385
:10142000033398420BD0454B984206D0444B984228
:1014300026D100AB5D893E1C22E0A27020E000AB0B
:101440001889000601D4002100E0012100AB1889B1
:10145000394F00237F6800073F07FF0E000F002968
:101460002FD0012901D10223BB40364FBA6B1A405D
:1014700000D0BB6300F052F90168490049080160DF
:101480000021002000F0A2F80021002000F0C2F8A6
:101490000021002000F088F80021002000F0A8F8CA
:1014A000294801680205914301600C300168490D2B
:1014B00049050160A278002A06D000AB5A89891834
:1014C00003E0BA40131CD0E7803101600021002006
:1014D00000F012F9A078002805D1002D04D02A1CB4
:1014E000311C00F027FAFEBD0121002000F016F9A2
:1014F0000121002000F06AF80121002000F08AF8A4
:101500000121002000F050F80121002000F070F8C7
:101510000C4F0220F969014000D1F861012100203F
:1015200000F0D8F80121002000F0E6F8DBE7000029
:10153000005400805C1D0208003000802120000063
:10154000A121000040200080002400800A48D12111
:1015500009014018B0B5807B0123022241008A4076
:10156000074D064C00E0E360696A1140FBD10022A0
:10157000012100F061F8B0BD5C1D0208005400803C
:101580000028008000224000002903D0012903D157
:10159000022200E0012282400249086B104000D084
:1015A0000A6370474020008000224000002903D0D9
:1015B000012903D1022200E0012282400249086988
:1015C000104000D00A617047402000800022400097
:1015D000002903D0012903D1022200E00122824028
:1015E0000249C869104000D0CA617047402000809D
:1015F00000224000002903D0012903D1022200E08B
:101600000122824002494869104000D04A61704777
:101610004020008000224000002903D0012903D18E
:10162000022200E0012282400249086A104000D0F4
:101630000A62704740200080F8B5051C0C1C690048
:10164000012602278F408E400020002C37D0012C2D
:1016500000D1381C1D4B596B81435963002A29D096
:101660000020002C2DD0012C00D1381CD863211C67
:10167000281CFFF787FF211C281C00F04FF8C168C9
:10168000490D4905C160480D0CD00020002C1AD02E
:10169000012C00D1381C0E49496A014002D00C4986
:1016A0004031C860211C281CFFF790FF211C281C1A
:1016B000FFF7B0FF211C281CFFF764FFF8BD301CAA
:1016C000C8E7301CD2E7301CE5E70000402000806E
:1016D0000028008000224000002903D0012903D106
:1016E000022200E0012282400249486B1043486315
:1016F000704700004020008000224000002903D0F5
:10170000012903D1022200E0012282400249886AB5
:10171000104000D18A62704740200080034A400197
:101720008018012900D1103070470000002400808B
:101730004000F0B5022401238340844000220029A8
:101740001FD0012900D1221C114EB56B281C10405E
:1017500016D10020002916D0012900D1201C776A5B
:10176000074000D070621543281CB0630020002998
:101770000BD0012900D1201C716A014000D1706298
:10178000F0BD1A1CE0E7181CE9E7181CF4E700009C
:1017900040200080F8B5304E00207168002900D14B
:1017A000F8BD2E4A0D210902511800240C834C83E8
:1017B0008C836921490151180925ED0189231B01F9
:1017C0002E1C8C700C80703E11188F19C9183C7239
:1017D0000130A8420C72F7DB2148204903680C391C
:1017E000CB600179161C117141795171807900210A
:1017F00090710420FFF792FFC068D121174A0901B8
:101800000004000C5118002801D0042000E0022040
:10181000C8738873C97B13480F4E4A000121914059
:1018200000E0C360326B01230A4001D01A1C00E0C3
:10183000221C002AF5D000210020FFF74BFF074EA5
:101840008320C000311805480C3881602A1C042010
:1018500000F03AF80120A3E7402000805C1D020858
:10186000CC2600080054008080B501210020FFF73D
:1018700055FFC068C002C00A002820DC01210020FA
:10188000FFF792FE01210020FFF7B2FE01220121A5
:101890000020FFF7D1FE01210020FFF773FE012198
:1018A0000020FFF745FF06494868002807D1054892
:1018B0006922520180180088002800D0486080BD4D
:1018C000402000805C1D020870B50D1C041C161C15
:1018D0000021FFF723FFC168490D49058919C1603F
:1018E0001249E000401805600021201CFFF76EFE41
:1018F0000021201CFFF78EFE0021201CFFF754FE64
:101900000021201CFFF774FE610001208840084977
:1019100048620021201CFFF735FE0021201CFFF744
:10192000D9FE0021201CFFF7E7FE70BD8029008052
:1019300000280080F8B50E1C041C171C0121FFF7BD
:10194000EDFE051CC068C00204D001220121201C4C
:10195000FFF772FEE8681349400D4005C019E860C2
:10196000E000401846606100022088400E4948624D
:101970000121201CFFF72AFE0121201CFFF74AFE4F
:101980000121201CFFF710FE0121201CFFF730FE73
:101990000121201CFFF79EFE0121201CFFF7ACFE59
:1019A000F8BD00008029008000280080124B0D2126
:1019B000090270B55C18218B4A1CC9182283087271
:1019C0007E2818D1228B012A15D00C4E0125F560F6
:1019D000D12000011818191C0831807BFFF7AAFFDD
:1019E00000202083044C0C3C2570FEF7E3FEF560DC
:1019F00020780028F9D170BD5C1D020800540080D9
:101A0000F0B50F1C002185B000260025844639481A
:101A10000024009401910068B646049023E0382128
:101A2000344B6143002200200433CB1803935968E0
:101A300009E0039B86009B199B684600BE5BB3428E
:101A400000D1013201308142F3DC91420AD13820C9
:101A5000284B60430433C01800908669818BB646DA
:101A6000019103E0013404988442D8D300980028FF
:101A70003CD00020002419E0E30000211A1C72442D
:101A800002930DE053681C4E5F190C234343013051
:101A9000F55055689B195D6000251D813D1C013185
:101AA000029B7646F3588B42ECDC013401998C4260
:101AB000E2DBFF211931884203DD10490120C860B3
:101AC000FDE70D490C4A883948600D600020803AD6
:101AD000FF21115401308028FBDB0098002805D03D
:101AE0000098016B002901D060468847009805B036
:101AF000F0BD00006425000830100208005400808A
:101B0000F7B580273A400E1C0024151C0B49012014
:101B1000C8600B480068C06880473088011C3940A5
:101B2000A94209D08006F1D50134142CEEDB0099CE
:101B3000F02008800720FEBD0020FCE70054008054
:101B40000827000870B5051CFFF780F9041C0A4E31
:101B50000E203070221C291C701CFEF718EB601C34
:101B60000004000C054A0A23411C51803354FEF73F
:101B700063FDFEF715FF70BD640702080C710008D5
:101B800044554D4D59000000546F74616C206279CA
:101B900074657320726563642062792041524D50F0
:101BA00052472030780041524D5052472073697A95
:101BB00065206D7367206F76657272756E003031C7
:101BC0003233343536373839414243444546005183
:101BD000434F4D206661737420646F776E6C6F6144
:101BE000642070726F746F636F6C20686F73740021
:101BF00051434F4D206661737420646F776E6C6F34
:101C000061642070726F746F636F6C2074617267AF
:101C1000000000004552523A2057696E646F7720E9
:101C20006F76657272756E20646574656374656441
:101C30002E2E2E00496E76616C696420436F6D6DA7
:101C4000616E6400556E7265636F676E697A656474
:101C500020666C61736820646576696365000000C6
:101C6000496E76616C6964206D61676963206E7589
:101C70006D62657200000000496E76616C696420D7
:101C800070726F746F636F6C2076657273696F6EBC
:101C900000000000506172616D65746572205265CC
:101CA0007175657374205061636B6574204C656E4B
:101CB000677468204572726F72000000496E746527
:101CC000726E616C206572726F72202D2072657069
:101CD0006C795F627566666572206F766572727583
:101CE0006E000000496E76616C6964207061636B00
:101CF0006574206C656E6774680000005061636BEA
:101D0000657420746F6F206C61726765000000005D
:101D10005265616420756E73756363657373667570
:101D20006C000000577269746520756E737563638B
:101D300065737366756C0000506F776572206F660F
:101D400066206E6F7420737570706F7274656400B6
:101D50004E414E442070726F6772616D6D696E679F
:101D6000206E6F7420737570706F727465640000FC
:101D70004552523A2043524320696E76616C696441
:101D8000000000005350414E53494F4E205332390A
:101D900057533235364E30534200414D4420414D69
:101DA00032394244533132384800414D4420414D8C
:101DB00032394244533634304700414D4420414D7E
:101DC000323950445333323244000000000089114C
:101DD00012239B322446AD573665BF74488CC19D93
:101DE0005AAFD3BE6CCAE5DB7EE9F7F88110080173
:101DF00093331A22A5562C47B7753E64C99C408D73
:101E0000DBBF52AEEDDA64CBFFF976E802218B300E
:101E1000100299132667AF763444BD554AADC3BC52
:101E2000588ED19F6EEBE7FA7CC8F5D983310A2032
:101E300091121803A7772E66B5543C45CBBD42AC32
:101E4000D99E508FEFFB66EAFDD874C904428D53CA
:101E500016619F702004A9153227BB364CCEC5DF12
:101E60005EEDD7FC6888E1997AABF3BA85520C43F2
:101E700097711E60A1142805B3373A26CDDE44CFF2
:101E8000DFFD56ECE9986089FBBB72AA06638F728E
:101E900014409D512225AB343006B9174EEFC7FED2
:101EA0005CCCD5DD6AA9E3B8788AF19B87730E62B2
:101EB00095501C41A3352A24B1163807CFFF46EEB2
:101EC000DDDC54CDEBB962A8F99A708B088481955A
:101ED0001AA793B62CC2A5D33EE1B7F04008C919A2
:101EE000522BDB3A644EED5F766DFF7C8994008562
:101EF0009BB712A6ADD224C3BFF136E0C118480982
:101F0000D33B5A2AE55E6C4FF77D7E6C0AA583B4FD
:101F1000188691972EE3A7F23CC0B5D14229CB3861
:101F2000500AD91B666FEF7E744CFD5D8BB502A421
:101F300099961087AFF326E2BDD034C1C3394A2841
:101F4000D11A580BE77F6E6EF55C7C4D0CC685D7B9
:101F50001EE597F42880A1913AA3B3B2444ACD5B21
:101F60005669DF78600CE91D722FFB3E8DD604C7E1
:101F70009FF516E4A9902081BBB332A2C55A4C4B01
:101F8000D7795E68E11C680DF33F7A2E0EE787F67D
:101F90001CC495D52AA1A3B03882B193466BCF7AE1
:101FA0005448DD59622DEB3C700EF91F8FF706E6A1
:101FB0009DD414C5ABB122A0B9923083C77B4E6AC1
:101FC000D5585C49E33D6A2CF11E780F00000000F3
:101FD000C7B9302049CA51208E736100552D932016
:101FE0009294A3001CE7C200DB5EF2206DE3162191
:101FF000AA5A260124294701E390772138CE85018A
:10200000FF77B5217104D421B6BDE4011D7F1D22E7
:10201000DAC62D0254B54C02930C7C2248528E0233
:102020008FEBBE220198DF22C621EF02709C0B03CA
:10203000B7253B2339565A23FEEF6A0325B198236F
:10204000E208A8036C7BC903ABC2F923FD470A244D
:102050003AFE3A04B48D5B0473346B24A86A990485
:102060006FD3A924E1A0C8242619F80490A41C0564
:10207000571D2C25D96E4D251ED77D05C5898F2569
:102080000230BF058C43DE054BFAEE25E03817061B
:1020900027812726A9F246266E4B7606B51584269B
:1020A00072ACB406FCDFD5063B66E5268DDB012766
:1020B0004A623107C411500703A86027D8F6920777
:1020C0001F4FA227913CC3275685F3073D3624288E
:1020D000FA8F140874FC7508B3454528681BB708C7
:1020E000AFA2872821D1E628E668D60850D5320964
:1020F000976C0229191F6329DEA6530905F8A12947
:10210000C24191094C32F0098B8BC0292049390A10
:10211000E7F0092A6983682AAE3A580A7564AA2A40
:10212000B2DD9A0A3CAEFB0AFB17CB2A4DAA2F2B35
:102130008A131F0B04607E0BC3D94E2B1887BC0B70
:10214000DF3E8C2B514DED2B96F4DD0BC0712E0C28
:1021500007C81E2C89BB7F2C4E024F0C955CBD2CF2
:1021600052E58D0CDC96EC0C1B2FDC2CAD92382D3F
:102170006A2B080DE458690D23E1592DF8BFAB0D0A
:102180003F069B2DB175FA2D76CCCA0DDD0E332E90
:102190001AB7030E94C4620E537D522E8823A00EEC
:1021A0004F9A902EC1E9F12E0650C10EB0ED250FC9
:1021B0007754152FF927742F3E9E440FE5C0B62F94
:1021C0002279860FAC0AE70F6BB3D72FBDD57830D5
:1021D0007A6C4810F41F291033A61930E8F8EB1078
:1021E0002F41DB30A132BA30668B8A10D0366E11A7
:1021F000178F5E3199FC3F315E450F11851BFD3114
:1022000042A2CD11CCD1AC110B689C31A0AA6512B1
:1022100067135532E96034322ED90412F587F6324D
:10222000323EC612BC4DA7127BF49732CD497333B0
:102230000AF0431384832213433A12339864E01361
:102240005FDDD033D1AEB1331617811340927214D3
:10225000872B423409582334CEE1131415BFE134DF
:10226000D206D1145C75B0149BCC80342D716435CA
:10227000EAC8541564BB3515A3020535785CF7151B
:10228000BFE5C7353196A635F62F96155DED6F364D
:102290009A545F1614273E16D39E0E3608C0FC16BD
:1022A000CF79CC36410AAD3686B39D16300E7917FC
:1022B000F7B7493779C42837BE7D18176523EA3741
:1022C000A29ADA172CE9BB17EB508B3780E35C1826
:1022D000475A6C38C9290D380E903D18D5CECF38E5
:1022E0001277FF189C049E185BBDAE38ED004A398A
:1022F0002AB97A19A4CA1B1963732B39B82DD919B5
:102300007F94E939F1E78839365EB8199D9C413AE6
:102310005A25711AD456101A13EF203AC8B1D21A9E
:102320000F08E23A817B833A46C2B31AF07F571B0B
:1023300037C6673BB9B5063B7E0C361BA552C43B7E
:1023400062EBF41BEC98951B2B21A53B7DA4563C1E
:10235000BA1D661C346E071CF3D7373C2889C51C90
:10236000EF30F53C6143943CA6FAA41C1047401D95
:10237000D7FE703D598D113D9E34211D456AD33DD8
:1023800082D3E31D0CA0821DCB19B23D60DB4B1E36
:10239000A7627B3E29111A3EEEA82A1E35F6D83ECA
:1023A000F24FE81E7C3C891EBB85B93E0D385D3F6F
:1023B000CA816D1F44F20C1F834B3C3F5815CE1F42
:1023C0009FACFE3F11DF9F3FD666AF1F20205155C7
:1023D000414C434F4D4D2041524D5052472049648E
:1023E000656E74696669636174696F6E20426C6FB3
:1023F000636B0A20202020436F6D70696C65642038
:102400004A756C20313820323030352031313A3045
:10241000383A31320A2020202056657273696F6E77
:10242000203D3D2030392E30302E30350A202020FE
:102430002041505247363830302E48455820666F7C
:1024400072204D534D36383030204F4E4C59202D90
:10245000205541525420616E64205553420A202079
:10246000202020204D756C74692D496D61676520B1
:10247000426F6F7420537570706F7274206F6E6C42
:10248000790A20202020436F707972696768742070
:1024900028632920323030342D32303035206279B3
:1024A000205155414C434F4D4D2C20496E636F7266
:1024B000706F72617465642E20416C6C2052696784
:1024C0006874732052657365727665642E0A2020E5
:1024D000456E64206F6620494420426C6F636B0A2E
:1024E0000000000001000000881B0008A61B000877
:1024F000490A00084D0B0008150C00084D0B000898
:102500009D0C00084D0B0008090D00084D0B00083C
:10251000750D00084D0B0008C50B00084D0B000899
:102520004D0B00084D0B00084D0B00084D0B00082B
:102530009D0B00084D0B0008610B00084D0B0008B7
:10254000350A00084D0B0008010C00084D0B00086F
:10255000890B00084D0B0008750B00084D0B000897
:102560000200000004000000841D000804000000B8
:10257000010000007E220000302200000022000046
:10258000482600080300000045120008E902000880
:10259000D9030008B90400080000000099030008EE
:1025A0009A1D000803000000010000007E220000C8
:1025B0001822000000000000602600080300000050
:1025C0003D050008E9020008D9030008B904000825
:1025D0000000000099030008AA1D00080300000085
:1025E000010000007E220000042200000000000024
:1025F00078260008060000003D050008E9020008F2
:10260000D9030008B9040008B102000899030008C2
:10261000BA1D000803000000010000007E22000037
:102620000622000000000000A826000802000000AA
:102630003D050008E9020008D9030008B9040008B4
:102640000000000099030008040000000080000062
:10265000FE000000000002000400000000800000F6
:102660000800000000200000FE0000000000010043
:1026700008000000002000000400000000400000EE
:102680001F00000000000100200000000000010009
:1026900020000000000001001F00000000000100F9
:1026A00004000000004000003F00000000000100A6
:1026B0000800000000400000891300083D130008D6
:1026C0006D13000865070008B113000800C201007F
:1026D000000008000000000095170008D113000852
:1026E0004D150008B5070008AD19000800000000EE
:1026F000F91100080000000001050008EFBEADDE82
:0827000000000000CC230008DA
:0400000308000000F1
:00000001FF
