:020000040800F2
:10000000F4109FE5F0209FE5EC309FE5E8409FE588
:10001000E4509FE5E0609FE5DC709FE5D8809FE5B8
:10002000D4909FE5D0B09FE5CCC09FE5C8D09FE5B8
:10003000C4E09FE500000FE1801080E301F021E1C2
:10004000D7F021E3B4D09FE5DBF021E3B0D09FE50A
:10005000D2F021E3ACD09FE5D3F021E3A8D09FE517
:10006000A8009FE5010010E3A4E09F15A4E09F0510
:1000700010FF2FE1784700009C009FE5010010E38E
:1000800098E09F1598E09F0510FF2FE1784700004A
:1000900090009FE5100F01EE100F11EE400D80E370
:1000A000100F01EE80009FE510FF2FE1DEEEDEEE87
:1000B000784700000220A0E3101E10EE021001E0BD
:1000C000000051E3FBFFFF1A100E01EE1EFF2FE1AF
:1000D000784700000120A0E3101E10EE021001E09E
:1000E000000051E3FBFFFF0A100E11EE1EFF2FE18F
:1000F000784700000070A0E117FF2FE1EFBEADDEF2
:10010000307700083078000830760008306E00083C
:100110001D0800087500000878000008A9130008F1
:100120008D000008900000087800050065130008A5
:1001300010B4042A0ED3031C0B439B070AD108C832
:1001400010C9A34202D1043A042AF8D2A34201D032
:1001500004380439002A02D1002010BC7047D307AC
:1001600001D5013205E003780C7801310130A3425A
:1001700007D103780C7801310130A34201D1023A52
:10018000F1D1181BE9E7000078470000030052E3B3
:100190003E00009A03C010E20800000A0130D1E4DA
:1001A00002005CE30C2082E001C0D1940130C0E485
:1001B0000130D134042042E201C0C0940130C03487
:1001C000033011E21E00000A042052E22F00003A20
:1001D00003C031E7020053E30800000A0F00008A61
:1001E0002C34A0E104C0B1E5042052E20C3C83E1D0
:1001F000043080E4F9FFFF2A011081E2230000EAC5
:100200002C38A0E104C0B1E5042052E20C3883E1AF
:10021000043080E4F9FFFF2A021081E21B0000EAAB
:100220002C3CA0E104C0B1E5042052E20C3483E18F
:10023000043080E4F9FFFF2A031081E2130000EA92
:100240007847000010402DE9202052E20500003AD6
:100250001850B1281850A0281850B1281850A028BC
:1002600020205222F9FFFF2A02CEB0E11850B12817
:100270001850A0281800B1481800A0481040BDE848
:1002800002CFB0E104309124043080241EFF2F01FE
:10029000822FB0E10120D1440130D12401C0D1240A
:1002A0000120C0440130C02401C0C0241EFF2FE142
:1002B000F0B51A4D2EE0031CE82601240680EC63FD
:1002C00007883F06FAD51F26068004260F88078078
:1002D0004F8847808F888780CF88C7800F890781A4
:1002E0004F8947818F898781CF89C781103010312D
:1002F000013EEBD1D0261E801E88EC633706FBD56D
:100300001A24264003D0FF241C800720F0BDFF24C0
:100310001C80403A002ACED10020F0BD00050080AC
:10032000F0B549E0031CE825254C0127058001278D
:10033000E76306883606F9D51F25058004254E7823
:100340000F7836023E430680CE788F7836023E43E1
:1003500046804E790F7936023E438680CE798F797A
:1003600036023E43C6804E7A0F7A36023E430681FD
:10037000CE7A8F7A36023E4346814E7B0F7B360221
:100380003E438681CE7B8F7B36023E43C681103052
:100390001031013DD3D1D0251D8001271D88E76391
:1003A0002E06FBD51A24254003D0FF241C800720ED
:1003B000F0BDFF241C80403A002AB3D10020F0BDDC
:1003C00000050080F0B58446031C20E0580840007A
:1003D0000C78FF270780058840260680DE0702D4B8
:1003E0003E02344301E024023C432C4004800C4F85
:1003F00001250488FD632606FBD51A252C4003D071
:10040000FF2707800720F0BD01310133013A002AA0
:10041000DCD1604640084000FF2707800020F0BD87
:1004200000050080F0B50B1C011CE826114D0124CD
:100430000680EC6307883F06FAD55208561E0680F0
:1004400004E01E88023306800230013A002AF8D107
:10045000D02008800888EC630206FBD51A221040E1
:10046000FF22002802D00A800720F0BD0A80002069
:10047000F0BD00000005008030B50C4A0121D163B9
:100480006024048004800B4A0021094D128807E093
:100490000C234B43EB5880331C8001310904090CB9
:1004A0009142F5D3F021018030BD000000050080AD
:1004B0004C1F0208B0370208FFB50C1C2549151C5B
:1004C000012081B0C863244F3868C068804700208D
:1004D0002349224A098805E00C234343D358AB4201
:1004E00002D001308842F7D3680840000519AA23DA
:1004F00018012018438115218901552261188A822B
:100500008026468143818A8230202880291C201C35
:10051000144A01F017FE002813D104980024C609DC
:1005200013E0200702D10B490120C8633868C06876
:1005300080478022281C0C49FFF7FAFD002802D0D2
:100540000A2005B0F0BD80350134A642E9D800206C
:10055000F7E7000000050080282E00084C1F020865
:10056000B0370208FFFF0000CC1E0208F8B50E1CD1
:10057000051C002801D10720F8BD002411E00C491A
:100580000120C8630C2060430A49421853680A5886
:100590006F6A311C281CB8470028EDD101342404AF
:1005A000240C054800888442E9D30020E4E70000D9
:1005B000000500804C1F0208B0370208FFB5061C7A
:1005C0000024002883B002D1072007B0F0BD3049D5
:1005D0000120C8632F480068C06880470C9A002A31
:1005E00032D02D4A002011880BE00C2363432B4DA1
:1005F0005B195B68069F1818B84204D801342404BC
:10060000240C8C42F1D3131C8C421DD00C9A069FF3
:10061000251CBA18013A214F09E0824209D30C2364
:100620006B43DB195B68181801352D042D0C8D42C6
:10063000F3D317490120C86316480068C068804793
:10064000154B1888854217D10320BEE70C20604364
:10065000124A81180291098900290CD1111C029AB1
:1006600053680A58776A0599301CB8470028ACD1FE
:100670000299012008810134AC42E7DD0C9A04ABF9
:100680000092346A0ECB301CA04700289DD19CE715
:1006900000050080282E0008B03702084C1F020811
:1006A0000F48F0B5048802200E4D0C70220A4A70E3
:1006B000002211E00C235343461C5B195B680B546A
:1006C0001804070E8F55701C1E02370E0F54461C5F
:1006D0001B0E701C01328B55A242EBDBF0BD0000FB
:1006E000B03702084C1F0208BCB5041CF025058079
:1006F000AA21080120184181152292015521A21832
:10070000918290214181208800AB188060885880B8
:10071000A08B988025806946201C01F089FC2580EB
:10072000BCBD0000FFB581B03A49029D0120C863FD
:1007300039480068C0688047039A049815218901E8
:10074000400840005118009184180498552149012F
:100750005618C007002814DA2878FF210002084341
:10076000021CAA207081009955208882A0207081E7
:100770002280211C039801F0E5FC00283FD10234BF
:1007800001350498C707FF0F17E068782978000241
:100790000843021CAA207081009955208882A0205D
:1007A00070812280211C039801F0CCFC002826D106
:1007B0000234023502373F043F0C0A99781C884204
:1007C000E3D30A998F4212D22878FF210902084305
:1007D000021CAA207081009955208882A020708177
:1007E0002280211C039801F0ADFC002807D1049859
:1007F00002990A9AFFF79CFC002802D00A2005B053
:10080000F0BD04490120C86303480068C068804700
:100810000020F4E700050080282E00087047000043
:10082000B0B5084D064C281C618800F00DF86188B1
:100830006854000A6A185070881C6080B0BD0000BF
:1008400030780008880E020830B50C4D0A4A07E0DF
:10085000037853401B06DB0DEB5A120A5A40013055
:100860004B1E1B041B0C0C1C191C002CF0D1D0437C
:100870000004000C30BD0000FFFF0000EC23000866
:1008800030B5D2431204120C0A4D07E003785340EE
:100890001B06DB0DEB5A120A5A4001304B1E1B049B
:1008A0001B0C0C1C191C002CF0D1D0430004000CB4
:1008B00030BD0000EC23000870B5002801D10720EE
:1008C00070BD0025002304E0CE5C2C1C01350133F3
:1008D00006559342F8DB002070BD0000F7B50C4DC3
:1008E000171C28780E1C0024022882B001D100F0C9
:1008F0000BF92878002802D0082005B0F0BD054883
:1009000000970068331C056A0299221CA847F4E787
:10091000C82B0008C81E0208F7B50C4D171C287814
:100920000E1C0024022882B001D100F0EDF82878D6
:10093000002802D0082005B0F0BD054800970068E7
:10094000331C856A0299221CA847F4E7C82B0008CB
:10095000C81E0208F8B50F4F00240126FE630E4D95
:10096000A96810E0E8680006000E4906490F06D0A5
:10097000302028611020286128612E6101E000F0FC
:1009800045FDA968FE63201C0134802801DAC807F0
:10099000E8D4F8BD00050080004E0080F8B5484856
:1009A000406AC00771D54748022646604648012183
:1009B000C1634448403081684A0704D5042101607E
:1009C00005218160816809075FD5016B446B0C408C
:1009D000046308218160A00701D501F0D5F9E00783
:1009E00006D501220121002001F0BCF800F092FFA1
:1009F000364DD12000012F18BD7B68008640311C88
:100A0000324E201C08400C3E00281BD00121281C1F
:100A100001F01AF9C068C002C00A002810DC0121E8
:100A2000281C01F057F80121281C01F077F800225A
:100A30000121281C01F096F80121281C01F038F84A
:100A400000203070F87B0121204D420091400C4085
:100A500001D0B16871603178002916D17168371CF6
:100A6000002912D0002101F0EFF8C0680922D2015C
:100A7000101A0604101C154968380818B968360C95
:100A8000884203D11248281800E018E0011CB86021
:100A9000042001F0A9F9002E11D00D20000200243D
:100AA0002D1807E0688B411C69837968085C00F0A9
:100AB000ADFC0134B442F5DB002068837860F8BDFA
:100AC000400F00800020008000050080C43702082D
:100AD000980800000149022008707047C82B0008E0
:100AE00010B5074C2078022801D100F00DF82078CD
:100AF000002801D0002010BD02480068006810BD29
:100B0000C82B0008C81E0208F8B50E4D287800282A
:100B100017D0012815D0022813D10B4C0B4E0C4FC7
:100B200005E0616888473060002806D108342068F5
:100B3000B842F6D13068002801D0002000E0012042
:100B40002870F8BDC82B0008F02D0008C81E020848
:100B5000EFBEADDEB0B5094C051C2078022801D1EE
:100B6000FFF7D2FF2078002801D00020B0BD044854
:100B7000291C0068C26A9047B0BD0000C82B00085D
:100B8000C81E0208F8B5214F3868C0688047386829
:100B900001697E208847012500241FE01F20A04313
:100BA00002D13868C06880471948065D7E2E01D0A2
:100BB0007D2E0CD1386801697D2088472020396856
:100BC000464030060969000E8847023505E038685E
:100BD00001693006000E8847013501340D48408810
:100BE0008442DBDB3868C0688047386801697E2052
:100BF0008847681C800607D1386801697E208847CD
:100C0000386801697E208847F8BD0000282E00085A
:100C1000880E02083078000880B503490E2000F0E5
:100C200005FE002080BD00004823000880B5034970
:100C30000E2000F0FBFD002080BD000048230008CE
:100C4000F8B5041C36480078002835D12022E01D74
:100C50003449FFF76DFA002807D1261C2036F079B9
:100C6000022802D1307A022803D02E499131052082
:100C700025E0A088242803D22A49B93103201EE0A8
:100C800029480027294C27490770022520222131B5
:100C9000601C2570FFF77AEA20346570A570E77054
:100CA000042020716771A771E77127726772A772BC
:100CB000FFF716FF051C05D11A497531082000F011
:100CC000B5FD2AE0281C00F093FB0206174F120E18
:100CD000291C381C2C30E272FFF758EAE07A6422B3
:100CE0002C30411C3A54002078544C1C3819FFF722
:100CF00031FF0119707AC207D20F7A54481C0C498F
:100D0000488001210903884203DD0A490120C863A4
:100D1000FDE7FFF785FDFFF735FF0020F8BD000078
:100D2000C82B000813220008442B0008880E020874
:100D3000307800080005008080B50349052000F0E8
:100D400075FD002080BD00007822000880B50349B1
:100D50000E2000F06BFD002080BD0000482300083D
:100D6000094980B512200870084901204880FFF722
:100D700057FDFFF707FF064800688068804700F0CE
:100D800025FB002080BD0000880E02083078000896
:100D9000282E00080B4910B50C2008700A480124C1
:100DA0004480FFF73DFDFFF7EDFE00F09FFA074896
:100DB000C463074800688068804700F017FB002084
:100DC00010BD0000880E0208307800080005008081
:100DD000282E000810B5821D8088072801D01C49E4
:100DE00014E09178507809020843D1780904084347
:100DF000117909060143507993791B021843041CA9
:100E000001208002844205D911491831032000F0E5
:100E10000DFD1AE00F480423037053784370937854
:100E20008370D378C370127902710530221CFFF7EA
:100E300043FD002802D006492C31E8E70649601D31
:100E40004880FFF7EDFCFFF79DFE002010BD00007D
:100E5000F4220008880E02083078000810B5831DBF
:100E6000808899780538020458780902120C0843E2
:100E7000D97809040843197909060843041C211C80
:100E8000581DFFF72BFD002803D00C4900F0CEFCC5
:100E900012E00B48062101702104090E4470817094
:100EA0002102090EC170210E0171064905204880FA
:100EB000FFF7B6FCFFF766FE002010BD34230008E4
:100EC000880E02083078000810B5831D8088997854
:100ED0000538020458780902120C0843D97809042D
:100EE0000843197909060843041C211C581DFFF703
:100EF00013FD002803D00C4900F098FC12E00B48C9
:100F0000082101702104090E447081702102090E2C
:100F1000C170210E0171064905204880FFF780FC51
:100F2000FFF730FE002010BD34230008880E0208B1
:100F30003078000810B5811D80880A2201310138FF
:100F400004040848240C0270221C0130FFF71EE93B
:100F50000549601C4880FFF763FCFFF713FE002083
:100F600010BD0000880E02083078000801491120E9
:100F7000087070472C2E0008B0B5084C20688047D8
:100F80000128074D05D1606880470028FBD02C6000
:100F9000B0BD044C20688047F9E70000DC2D000854
:100FA000282E0008BC2D0008F8B51F1C141C0D1CB1
:100FB0002E490120069EC8632D480068C0688047FE
:100FC000780840000419002E01D10020F8BDA006C9
:100FD0001CD0A00980014030071B17D0B74215D89C
:100FE000E80703D4F80701D4E00705D53A1C291C0B
:100FF000201CFFF7E7F904E03A1C291C201CFFF72E
:1010000011FA0028E2D1ED19E419F61BB709BF0166
:1010100011D0E80705D53A1C291C201CFFF780F9E0
:1010200004E03A1C291C201CFFF742F90028CDD10E
:10103000ED19E419F61BB206920E0ED0E80701D4A2
:10104000D00704D5291C201CFFF7BCF903E0291C9C
:10105000201CFFF7E7F90028B8D104490120C86334
:1010600003480068C0688047AFE7000000050080C3
:10107000282E0008F0B512490120C863124900204B
:101080006024FF25D0260F4A096812E00C23434351
:101090005027D3581F801E801D8070271F801F88F7
:1010A0003F06FCD51D801C801E801D800130000481
:1010B000000C8842EAD302490120C863F0BD000059
:1010C000000500804C1F0208AC370208FFB51C4E1B
:1010D000141C012581B0F5631A4F3868C068804739
:1010E00000201A49184A096805E00C234343D358E5
:1010F000A34202D001308842F7D360080299400031
:1011000044185020208020202080D020208003E020
:10111000F5633868C068804720880006F8D52088C5
:10112000FF212180010702D5092005B0F0BD81060D
:1011300001D4800701D50720F7E70020F5E700007C
:1011400000050080282E00084C1F0208AC3702085A
:10115000F8B50E1C051C002801D10720F8BD00249D
:101160000FE00B490120C8630C2060430949421875
:1011700053680A586F6A311C281CB8470028EDD103
:101180000134054800688442EBD30020E6E7000004
:10119000000500804C1F0208AC370208FFB5061C92
:1011A00000243349012083B0C86332480068C06816
:1011B00080470C9A002A37D0002E02D1072007B0B2
:1011C000F0BD2D4A002011680BE00C2363432B4D2A
:1011D0005B195B68069F1818B84204D801342404D0
:1011E000240C8C42F1D3131C8C421DD00C9A069F08
:1011F000251CBA18013A214F09E0824209D30C2379
:101200006B43DB195B68181801352D042D0C8D42DA
:10121000F3D317490120C86316480068C0688047A7
:10122000154B1868854217D10320C8E70C2060438E
:10123000124A81180291098900290CD1111C029AC5
:1012400053680A58776A0599301CB8470028B6D108
:101250000299012008810134AC42E7DD0C9A04AB0D
:101260000092346A0ECB301CA0470028A7D1A6E715
:1012700000050080282E0008AC3702084C1F020829
:101280000F48F0B504680F4D2004020E0C704A7030
:101290000220002211E00C235343461C5B195B68BB
:1012A0000B541804070E8F55701C1E02370E0F5476
:1012B000461C1B0E701C01328B55A242EBD3F0BDB5
:1012C000AC3702084C1F020808B550210180FF21ED
:1012D000018090220280028800AB1A8042885A80E6
:1012E0000180694600F01CFE08BD0000F8B5194EEB
:1012F0001C24706800F07CF87168174E051C021CF5
:10130000301CFEF744EF164800272A1C0832134908
:10131000406815E0402D0BDB0E4DA86800F068F822
:10132000041C021C301CA968FEF730EF37550CE096
:10133000031CE3401B071B0FCB5C043C73550135BA
:101340009542E7DB402D00DA7755301C00F01CFF9A
:10135000F8BD0000442B0008881E02080222000885
:10136000307800088CB5684606220C49FEF70EEF6F
:101370000B48062269460068FEF708EFFFF7F6FD06
:10138000FFF7A8FB07490120C863FFF7F5FD00F050
:1013900075F8FFF7B9FB00F097F88CBDC421000881
:1013A000102E000800050080054C0020054900E0D3
:1013B00001C48C42FCD304490120C863704700007B
:1013C000282E0008E8440208000500800549002096
:1013D0008A691060096A0820086003490120C8630F
:1013E000FDE70000EC29000800050080FEE7000092
:1013F000011C0020002903D1704701300004000CBB
:101400000A780131002AF8D170470000B0B5184CB5
:101410000025616801316160616900290BD1A16813
:10142000002903D1134800F0AFFEB0BD61610A6826
:10143000A2608D800D607D2805D07E2806D100F049
:10144000BDF82570B0BD01202070B0BD61690A4BA8
:101450008A889A4207D22378002B02D02023584052
:10146000257052189071888801308880B0BD0000C6
:1014700030780008582200080704000070B50022E8
:101480000E49412401200A608A80240183011B182F
:101490001B015D182E1BCE5001306428AA80F5DB9D
:1014A00007480918054818388160C2604261027017
:1014B000026104490120087070BD000048780008EE
:1014C00030920100442B000870B5064E044D0124F3
:1014D0003068C0688047EC6300F006F8EC63F7E71B
:1014E00000050080282E0008F8B52D4C2068C06843
:1014F00080474EE02B49012048702068C8600028D2
:1015000000D10861002000270025206011E0244858
:101510000068C0688047A088461B802E00DD8026BA
:10152000601906303A1C3104090CFFF7A9F9071CB1
:10153000AD19A088A842EADC1B48874203D01B48AB
:1015400000F022FE21E0A0880238A080A079411E90
:101550001D2917D816490978002901D0012811D171
:1015600014490978002905D01049E039082000F015
:101570005DF90AE01049800040184038C16B201C1A
:10158000884702E0201CFFF7D7FB064988682060E7
:101590008C600449CC68002CACD100204870F8BDA8
:1015A000282E000830780008470F00006823000844
:1015B000442B0008C82B0008502B00080B4B10B51B
:1015C00058690B4C81880022A14201D8032901D21D
:1015D000828010BD1969002902D11861D86002E02B
:1015E0000860586918615A6110BD00003078000821
:1015F00007040000FFB583B00025019555080027BA
:101600000E1C041C002A01D0009500E00092234922
:101610000120C86322480068C068804768008519B7
:10162000AA200101711848811521890155207118DE
:10163000888200982521400031520699490802917C
:101640000139315215490120C86315480068C06846
:10165000804700200BE061782278090211430F1CBB
:101660002F8001950235023401300004000C0299EC
:101670008142F0D8019D292028803A1C301C019914
:1016800000F060FD002807D104490120C863044828
:101690000068C0688047002007B0F0BD00050080EA
:1016A000282E0008FFB5171C051C3149012081B008
:1016B000C86330480068C0688047029A15218901D4
:1016C0005118009178084000552149018418F80705
:1016D0005618002814DA2878FF2100020843021C5B
:1016E000AA207081009955208882A02070812280D4
:1016F000211C029800F026FD002837D10234013564
:10170000FF07FF0F17E06878297800020843021CE2
:10171000AA207081009955208882A02070812280A3
:10172000211C029800F00EFD00281FD10234023562
:1017300002373F043F0C0499781C8842E3D3049994
:101740008F4212D22878FF2109020843021CAA20E6
:101750007081009955208882A02070812280211CF0
:10176000029800F0EFFC002800D1002005B0F0BD89
:1017700000050080282E0008FEB5041CF025058019
:10178000AA231801201843811521890155226118C7
:101790008A8290264681278800AB9F802580AA23D5
:1017A00043818A824681608800ABD880A08B1881F3
:1017B000E08B5881258001A9201C00F039FC258090
:1017C000FEBD0000FFB59906890E171C1E1C4025A2
:1017D00000240020002981B023D06B1A1C1C321C6D
:1017E000391C0298FFF75EFF00281DD119E00A9806
:1017F0004025001B402800D2051C402D07D202982E
:1018000032192B1C0019391CFFF74CFF06E0029817
:1018100032192B1C0019391CFFF7ECFE6419002843
:1018200002D10A998C42E2D305B0F0BD70B50D1C0F
:10183000041C081CFFF7DCFD061C281C00F0A4FC9F
:101840000C480D2101702104090E447081702102A1
:10185000090EC170210E0171291C321C0530FEF7E2
:1018600096EC0549701D4880FEF7DAFFFFF78AF90C
:1018700070BD0000880E020830780008084A002079
:101880009168CB0709D54906490F07D0302111616E
:101890001021116111610121116170470120704710
:1018A000004E008004490120044A00E0C8639368A8
:1018B0001B07FBD57047000000050080004E00802C
:1018C00010B5074C0020A063FFF7ECFF054801218D
:1018D00001E0E268C163A268D207FAD4012010BD1A
:1018E000004E00800005008010B5054B012205491F
:1018F00000E0DA634C69E407FBD5C86010BD000066
:1019000000050080004E008001490120C863704737
:1019100000050080FEB50026002553480122C26361
:10192000524F692040013C18A37851494868096822
:10193000002B08D00022A27039603871000A78713B
:10194000000AB87138E000AB9980090CD980188181
:10195000000C58819888FF23033398420BD0454BE5
:10196000984206D0444B984226D100AB5D893E1C7C
:1019700022E0A27020E000AB1889000601D400210B
:1019800000E0012100AB1889394F00237F68000770
:101990003F07FF0E000F00292FD0012901D102239C
:1019A000BB40364FBA6B1A4000D0BB6300F04CF915
:1019B00001684900490801600021002000F09CF8FE
:1019C0000021002000F0BCF80021002000F082F887
:1019D0000021002000F0A2F8294801680205914387
:1019E00001600C300168490D49050160A278002AA8
:1019F00006D000AB5A89891803E0BA40131CD0E71F
:101A0000803101600021002000F00CF9A07800284E
:101A100005D1002D04D02A1C311C00F01BFAFEBD9C
:101A20000121002000F010F90121002000F064F8ED
:101A30000121002000F084F80121002000F04AF884
:101A40000121002000F06AF80C4F0220F9690140E2
:101A500000D1F8610121002000F0D2F8012100201E
:101A600000F0E0F8DBE7000000050080C437020862
:101A70000030008021200000A121000040200080D3
:101A8000002400800848D1210901401880B5807BDE
:101A90000222064B41008A40596A1140FCD10022C3
:101AA000012100F05FF880BDC437020800280080E3
:101AB00000224000002903D0012903D1022200E0C6
:101AC000012282400249086B104000D00A6370472F
:101AD0004020008000224000002903D0012903D1CA
:101AE000022200E00122824002490869104000D031
:101AF0000A6170474020008000224000002903D086
:101B0000012903D1022200E0012282400249C86972
:101B1000104000D0CA617047402000800022400081
:101B2000002903D0012903D1022200E001228240D2
:101B300002494869104000D04A6170474020008047
:101B400000224000002903D0012903D1022200E035
:101B5000012282400249086A104000D00A627047A0
:101B600040200080F8B5051C0C1C690001260227E6
:101B70008F408E400020002C37D0012C00D1381C23
:101B80001D4B596B81435963002A29D00020002C3A
:101B90002DD0012C00D1381CD863211C281CFFF744
:101BA00087FF211C281C00F04FF8C168490D49052A
:101BB000C160480D0CD00020002C1AD0012C00D19F
:101BC000381C0E49496A014002D00C494031C860B6
:101BD000211C281CFFF790FF211C281CFFF7B0FFD9
:101BE000211C281CFFF764FFF8BD301CC8E7301C1F
:101BF000D2E7301CE5E7000040200080002800808C
:101C000000224000002903D0012903D1022200E074
:101C1000012282400249486B10434863704700002C
:101C20004020008000224000002903D0012903D178
:101C3000022200E0012282400249886A104000D15D
:101C40008A62704740200080034A400180180129C1
:101C500000D1103070470000002400804000F0B533
:101C60000224012383408440002200291FD001293F
:101C700000D1221C114EB56B281C104016D100203B
:101C8000002916D0012900D1201C776A074000D016
:101C900070621543281CB063002000290BD0012975
:101CA00000D1201C716A014000D17062F0BD1A1C85
:101CB000E0E7181CE9E7181CF4E70000402000806A
:101CC000F8B52E4B00205968002900D1F8BD2C4AE8
:101CD0000D210902511800240C834C838C83692147
:101CE000490151180925ED0189231B012E1C8C7017
:101CF0000C80703E11188F19C9183C720130A8422F
:101D00000C72F7DB1F481E4E01680C3EF160017932
:101D1000171C117141795171807900219071042053
:101D2000FFF792FFC068164A0104D1200001101885
:101D3000090C002901D0042100E00221C173817344
:101D4000C07B01210D4B4200081C90401A6B0240E1
:101D500001D00A1C00E0221C002AF7D0002100203C
:101D6000FFF74EFF064F8320C00039182A1C0420BD
:101D7000B16000F039F80120A8E7000040200080A1
:101D8000C4370208D02D000880B501210020FFF7DC
:101D90005BFFC068C002C00A002820DC01210020CF
:101DA000FFF798FE01210020FFF7B8FE0122012174
:101DB0000020FFF7D7FE01210020FFF779FE012167
:101DC0000020FFF74BFF06494868002807D1054867
:101DD0006922520180180088002800D0486080BD28
:101DE00040200080C437020870B50D1C041C161C6E
:101DF0000021FFF729FFC168490D49058919C16014
:101E00001249E000401805600021201CFFF774FE15
:101E10000021201CFFF794FE0021201CFFF75AFE32
:101E20000021201CFFF77AFE61000120884008494C
:101E300048620021201CFFF73BFE0021201CFFF719
:101E4000DFFE0021201CFFF7EDFE70BD8029008021
:101E500000280080F8B50E1C041C171C0121FFF798
:101E6000F3FE051CC068C00204D001220121201C21
:101E7000FFF778FEE8681349400D4005C019E86097
:101E8000E000401846606100022088400E49486228
:101E90000121201CFFF730FE0121201CFFF750FE1E
:101EA0000121201CFFF716FE0121201CFFF736FE42
:101EB0000121201CFFF7A4FE0121201CFFF7B2FE28
:101EC000F8BD00008029008000280080124B0D2101
:101ED0000902B0B55C18218B4A1CC918228308720C
:101EE0007E2817D1228B012A14D00C480125C56306
:101EF000D12000011818191C0831807BFFF7AAFFB8
:101F000000202083044C0C3C2570FEF747FD207810
:101F10000028FAD1B0BD0000C437020800050080D7
:101F2000F0B585B00F1C84463C4800210025009583
:101F3000019100780026002486462BE03821374B9B
:101F40006943002200200433C918039149680491B1
:101F50000DE003998300C91889684300FB5A994230
:101F600002D101321206120E01300006000E049951
:101F70008142EEDC0499914209D13820274B684315
:101F80000433C0180090818B8469019104E001350D
:101F90002D062D0E7545D1D3009800283AD0002C7F
:101FA00032D0002000251E4F17E0EB0000211A1947
:101FB00002930DE053689E460C234343B644FE5003
:101FC0005668DB195E6000261E81013001317646BD
:101FD000029BE35A8B42EDD8013501998D42E4D33F
:101FE0004121C900884203D90E490120C863FDE799
:101FF0000D490E4A08600020FF211154013080284D
:10200000FBD30098002805D00098016B002901D06F
:1020100060468847009805B0F0BD0000CC2B000852
:102020004C1F020800050080AC370208CC1E0208D5
:10203000F0B5002485B00F1C002684463C480025DE
:1020400000950194007886462BE03821384B69438F
:10205000002200200433C9180391496804910DE05F
:1020600003998300C91889684300FB5A994202D139
:1020700001321206120E01300006000E0499814250
:10208000EEDC0499914209D13820294B684304338E
:10209000C0180090818B8469019104E001352D0600
:1020A0002D0E7545D1D3009800283DD0002C35D099
:1020B000002000251F4F19E0EB0000211A190293A0
:1020C0000FE053689E460C234343B644FE505668C7
:1020D000DB195E60002601300004000C1E8176468C
:1020E0000131029BE35A8B42EBD8013501998D42B5
:1020F000E2D34121C900884203D90F490120C863B6
:10210000FDE70E490E4A4E6008800020FF21115461
:1021100001308028FBD30098002805D00098016B7F
:10212000002901D060468847009805B0F0BD000046
:10213000182C00084C1F020800050080B037020868
:10214000CC1E0208F7B580273A400E1C0024151C4F
:102150000B490120C8630B480068C068804730887D
:10216000011C3940A94209D08006F1D50134142C54
:10217000EEDB0099F02008800720FEBD0020FCE780
:1021800000050080282E000870B5051CFFF730F907
:10219000041C0A4E0E203070221C291C701CFDF7F6
:1021A000F6EF601C0004000C054A0A23411C518014
:1021B0003354FEF735FBFEF7E5FC70BD880E0208D0
:1021C0003078000844554D4D59000000546F74613B
:1021D0006C20627974657320726563642062792073
:1021E00041524D5052472030780041524D50524795
:1021F0002073697A65206D7367206F7665727275DA
:102200006E00303132333435363738394142434449
:1022100045460051434F4D206661737420646F77CB
:102220006E6C6F61642070726F746F636F6C206886
:102230006F73740051434F4D206661737420646F57
:10224000776E6C6F61642070726F746F636F6C2057
:1022500074617267000000004552523A2057696E5F
:10226000646F77206F76657272756E206465746531
:10227000637465642E2E2E00496E76616C6964204D
:10228000436F6D6D616E6400556E7265636F676E4E
:10229000697A656420666C61736820646576696339
:1022A00065000000496E76616C6964206D61676944
:1022B00063206E756D6265722F70726F746F636FDD
:1022C0006C2076657273696F6E00000050617261F8
:1022D0006D65746572205265717565737420506107
:1022E000636B6574204C656E677468204572726F0D
:1022F00072000000496E76616C6964207061636BE6
:102300006574206C656E6774680000005061636BD3
:10231000657420746F6F206C617267650000000047
:102320005265616420756E7375636365737366755A
:102330006C000000577269746520756E7375636375
:1023400065737366756C00004E414E442070726F69
:102350006772616D6D696E67206E6F742073757042
:10236000706F7274656400004552523A20435243C4
:1023700020696E76616C696400000000494E544526
:102380004C2050483238463235364C313842383598
:10239000005350414E53494F4E2053323957533218
:1023A00035364E305342005350414E53494F4E2024
:1023B00053323957533531325000414D4420414D4D
:1023C00032394244533132384800414D4420414D66
:1023D00032394244533634304700414D4420414D58
:1023E0003239504453333232440000000000891126
:1023F00012239B322446AD573665BF74488CC19D6D
:102400005AAFD3BE6CCAE5DB7EE9F7F8811008014C
:1024100093331A22A5562C47B7753E64C99C408D4C
:10242000DBBF52AEEDDA64CBFFF976E802218B30E8
:10243000100299132667AF763444BD554AADC3BC2C
:10244000588ED19F6EEBE7FA7CC8F5D983310A200C
:1024500091121803A7772E66B5543C45CBBD42AC0C
:10246000D99E508FEFFB66EAFDD874C904428D53A4
:1024700016619F702004A9153227BB364CCEC5DFEC
:102480005EEDD7FC6888E1997AABF3BA85520C43CC
:1024900097711E60A1142805B3373A26CDDE44CFCC
:1024A000DFFD56ECE9986089FBBB72AA06638F7268
:1024B00014409D512225AB343006B9174EEFC7FEAC
:1024C0005CCCD5DD6AA9E3B8788AF19B87730E628C
:1024D00095501C41A3352A24B1163807CFFF46EE8C
:1024E000DDDC54CDEBB962A8F99A708B0884819534
:1024F0001AA793B62CC2A5D33EE1B7F04008C9197C
:10250000522BDB3A644EED5F766DFF7C899400853B
:102510009BB712A6ADD224C3BFF136E0C11848095B
:10252000D33B5A2AE55E6C4FF77D7E6C0AA583B4D7
:10253000188691972EE3A7F23CC0B5D14229CB383B
:10254000500AD91B666FEF7E744CFD5D8BB502A4FB
:1025500099961087AFF326E2BDD034C1C3394A281B
:10256000D11A580BE77F6E6EF55C7C4D0CC685D793
:102570001EE597F42880A1913AA3B3B2444ACD5BFB
:102580005669DF78600CE91D722FFB3E8DD604C7BB
:102590009FF516E4A9902081BBB332A2C55A4C4BDB
:1025A000D7795E68E11C680DF33F7A2E0EE787F657
:1025B0001CC495D52AA1A3B03882B193466BCF7ABB
:1025C0005448DD59622DEB3C700EF91F8FF706E67B
:1025D0009DD414C5ABB122A0B9923083C77B4E6A9B
:1025E000D5585C49E33D6A2CF11E780F00000000CD
:1025F000C7B9302049CA51208E736100552D9320F0
:102600009294A3001CE7C200DB5EF2206DE316216A
:10261000AA5A260124294701E390772138CE850163
:10262000FF77B5217104D421B6BDE4011D7F1D22C1
:10263000DAC62D0254B54C02930C7C2248528E020D
:102640008FEBBE220198DF22C621EF02709C0B03A4
:10265000B7253B2339565A23FEEF6A0325B1982349
:10266000E208A8036C7BC903ABC2F923FD470A2427
:102670003AFE3A04B48D5B0473346B24A86A99045F
:102680006FD3A924E1A0C8242619F80490A41C053E
:10269000571D2C25D96E4D251ED77D05C5898F2543
:1026A0000230BF058C43DE054BFAEE25E0381706F5
:1026B00027812726A9F246266E4B7606B515842675
:1026C00072ACB406FCDFD5063B66E5268DDB012740
:1026D0004A623107C411500703A86027D8F6920751
:1026E0001F4FA227913CC3275685F3073D36242868
:1026F000FA8F140874FC7508B3454528681BB708A1
:10270000AFA2872821D1E628E668D60850D532093D
:10271000976C0229191F6329DEA6530905F8A12920
:10272000C24191094C32F0098B8BC0292049390AEA
:10273000E7F0092A6983682AAE3A580A7564AA2A1A
:10274000B2DD9A0A3CAEFB0AFB17CB2A4DAA2F2B0F
:102750008A131F0B04607E0BC3D94E2B1887BC0B4A
:10276000DF3E8C2B514DED2B96F4DD0BC0712E0C02
:1027700007C81E2C89BB7F2C4E024F0C955CBD2CCC
:1027800052E58D0CDC96EC0C1B2FDC2CAD92382D19
:102790006A2B080DE458690D23E1592DF8BFAB0DE4
:1027A0003F069B2DB175FA2D76CCCA0DDD0E332E6A
:1027B0001AB7030E94C4620E537D522E8823A00EC6
:1027C0004F9A902EC1E9F12E0650C10EB0ED250FA3
:1027D0007754152FF927742F3E9E440FE5C0B62F6E
:1027E0002279860FAC0AE70F6BB3D72FBDD57830AF
:1027F0007A6C4810F41F291033A61930E8F8EB1052
:102800002F41DB30A132BA30668B8A10D0366E1180
:10281000178F5E3199FC3F315E450F11851BFD31ED
:1028200042A2CD11CCD1AC110B689C31A0AA65128B
:1028300067135532E96034322ED90412F587F63227
:10284000323EC612BC4DA7127BF49732CD4973338A
:102850000AF0431384832213433A12339864E0133B
:102860005FDDD033D1AEB1331617811340927214AD
:10287000872B423409582334CEE1131415BFE134B9
:10288000D206D1145C75B0149BCC80342D716435A4
:10289000EAC8541564BB3515A3020535785CF715F5
:1028A000BFE5C7353196A635F62F96155DED6F3627
:1028B0009A545F1614273E16D39E0E3608C0FC1697
:1028C000CF79CC36410AAD3686B39D16300E7917D6
:1028D000F7B7493779C42837BE7D18176523EA371B
:1028E000A29ADA172CE9BB17EB508B3780E35C1800
:1028F000475A6C38C9290D380E903D18D5CECF38BF
:102900001277FF189C049E185BBDAE38ED004A3963
:102910002AB97A19A4CA1B1963732B39B82DD9198E
:102920007F94E939F1E78839365EB8199D9C413AC0
:102930005A25711AD456101A13EF203AC8B1D21A78
:102940000F08E23A817B833A46C2B31AF07F571BE5
:1029500037C6673BB9B5063B7E0C361BA552C43B58
:1029600062EBF41BEC98951B2B21A53B7DA4563CF8
:10297000BA1D661C346E071CF3D7373C2889C51C6A
:10298000EF30F53C6143943CA6FAA41C1047401D6F
:10299000D7FE703D598D113D9E34211D456AD33DB2
:1029A00082D3E31D0CA0821DCB19B23D60DB4B1E10
:1029B000A7627B3E29111A3EEEA82A1E35F6D83EA4
:1029C000F24FE81E7C3C891EBB85B93E0D385D3F49
:1029D000CA816D1F44F20C1F834B3C3F5815CE1F1C
:1029E0009FACFE3F11DF9F3FD666AF1F0004008003
:1029F0003404008010040080040400803804008047
:102A00001404008008570084405700840057008455
:102A10000C57008444570084045700840804008045
:102A20003C0400801804008000000000505700841F
:102A30000000000000F0008000F0008000F0008046
:102A400000000000000000000000000020205155A0
:102A5000414C434F4D4D2041524D50524720496407
:102A6000656E74696669636174696F6E20426C6F2C
:102A7000636B0020202020436F6D70696C656420BB
:102A800053657020303520323030362031303A34C2
:102A9000353A3230002020202056657273696F6EFF
:102AA000203D3D2030372E30302E30350020202084
:102AB0002041505247363535302E48455820666FF4
:102AC00072204D534D36353530204F4E4C59202D08
:102AD000205541525420616E642055534220666F48
:102AE00072204E4F52204F6E6C79002020202043E0
:102AF0006F707972696768742028632920323030DA
:102B000036206279205155414C434F4D4D2C204980
:102B10006E636F72706F72617465642E20416C6CAD
:102B200020526967687473205265736572766564B4
:102B30002E002020456E64206F6620494420426CA0
:102B40006F636B0001000000CC210008EA2100083F
:102B5000410C0008390D0008D50D0008390D00089A
:102B60005D0E0008390D0008C90E0008390D000877
:102B7000350F0008390D0008950D0008390D0008C3
:102B8000390D0008390D0008390D0008390D00080D
:102B9000610D0008390D00084D0D0008390D0008C1
:102BA000190C0008390D0008390D0008390D00080E
:102BB000390D0008390D0008390D0008390D0008DD
:102BC0002D0C0008390D0008020000000100000073
:102BD0007C2300080200000089000000108800002B
:102BE0000000000000000000082C000802000000A7
:102BF000A90F0008CD1000089D11000881120008DF
:102C00007510000851110008040000000080000049
:102C1000FF000000000002000500000091230008F2
:102C200004000000010000007E22000030220000AD
:102C3000002200004C2D000803000000C51700080A
:102C4000B9040008BD050008A10600080000000046
:102C50006D050008A7230008040000000100000023
:102C60007E2200003D22000000220000342D0008DA
:102C700003000000C5170008B9040008BD050008DE
:102C8000A1060008000000006D050008BA23000836
:102C900003000000010000007E2200001822000056
:102CA00000000000642D0008030000002507000854
:102CB000B9040008BD050008A106000800000000D6
:102CC0006D050008CA230008030000000100000091
:102CD0007E22000004220000000000007C2D00087D
:102CE0000600000025070008B9040008BD0500081B
:102CF000A1060008790400086D050008DA23000821
:102D000003000000010000007E22000006220000F7
:102D100000000000AC2D000802000000250700089C
:102D2000B9040008BD050008A10600080000000065
:102D30006D0500080400000000800000FE01000096
:102D400000000200040000000080000004000000F9
:102D500000800000FE0000000000020004000000EF
:102D6000008000000800000000200000FE000000BD
:102D70000000010008000000002000000400000026
:102D8000004000001F0000000000010020000000C3
:102D90000000010020000000000001001F000000F2
:102DA0000000010004000000004000003F0000009F
:102DB000000001000800000000400000C1180008E9
:102DC0007D180008A518000855090008E918000832
:102DD00000C201000000080000000000C11C000843
:102DE00009190008851A00089D090008CD1E000871
:102DF000000000007917000800000000E906000844
:102E000000000000C9120008EFBEADDE00000000A7
:102E10004C2A0008732A0008952A0008AD2A0008E9
:082E2000EB2A0008322B000828
:0400000308000000F1
:00000001FF
