:020000040800F2
:10000000E8109FE5E4209FE5E0309FE5DC409FE5B8
:10001000D8509FE5D4609FE5D0709FE5CC809FE5E8
:10002000C8909FE5C4B09FE5C0C09FE5BCD09FE5E8
:10003000B8E09FE500000FE1801080E301F021E1CE
:10004000D7F021E3A8D09FE5DBF021E3A4D09FE522
:10005000D2F021E3A0D09FE5D3F021E39CD09FE52F
:100060009C009FE5010010E398E09F1598E09F0534
:1000700010FF2FE17847000090009FE5010010E39A
:100080008CE09F158CE09F0510FF2FE17847000062
:1000900084009FE5100F01EE100F11EE400D80E37C
:1000A000100F01EE74009FE510FF2FE1DEEEDEEE93
:1000B000784700000220A0E3101E10EE021001E0BD
:1000C000000051E3FBFFFF1A100E01EE1EFF2FE1AF
:1000D000784700000120A0E3101E10EE021001E09E
:1000E000000051E3FBFFFF0A100E11EE1EFF2FE18F
:1000F000EFBEADDE486C0008486D0008486B000894
:10010000486300089D070008750000087800000893
:10011000290F00088D0000089000000878000500F5
:10012000E50E000810B4042A0ED3031C0B439B07F2
:100130000AD108C810C9A34202D1043A042AF8D24D
:10014000A34201D004380439002A02D1002010BC97
:100150007047D30701D5013205E003780C780131EF
:100160000130A34207D103780C7801310130A3425A
:1001700001D1023AF1D1181BE9E7000078470000ED
:10018000030052E33E00009A03C010E20800000A98
:100190000130D1E402005CE30C2082E001C0D19484
:1001A0000130C0E40130D134042042E201C0C094E7
:1001B0000130C034033011E21E00000A042052E274
:1001C0002F00003A03C031E7020053E30800000AA1
:1001D0000F00008A2C34A0E104C0B1E5042052E2F3
:1001E0000C3C83E1043080E4F9FFFF2A011081E236
:1001F000230000EA2C38A0E104C0B1E5042052E25B
:100200000C3883E1043080E4F9FFFF2A021081E218
:100210001B0000EA2C3CA0E104C0B1E5042052E23E
:100220000C3483E1043080E4F9FFFF2A031081E2FB
:10023000130000EA7847000010402DE9202052E228
:100240000500003A1850B1281850A0281850B128BD
:100250001850A02820205222F9FFFF2A02CEB0E138
:100260001850B1281850A0281800B1481800A0480C
:100270001040BDE802CFB0E1043091240430802466
:100280001EFF2F01822FB0E10120D1440130D12483
:1002900001C0D1240120C0440130C02401C0C024C9
:1002A0001EFF2FE130B50B4A0121D1636024048089
:1002B0000480094A0021883A5268074D05E00C2362
:1002C0004B43EB5880331C8001319142F7D3F0212E
:1002D000018030BD001B00806C0C0208FFB50D1CB6
:1002E000141C2C4F012681B0FE632B4E3068C06871
:1002F000804700202949294A8839496805E00C23AC
:100300004343D358A34202D001308842F7D3600858
:1003100040004419AA231801281843811521890196
:10032000552269188A828027478143818A8230203A
:100330002080184F012604E0FE6317480068C0685B
:10034000804720880007F7D5211C281C144A01F09B
:1003500013FA002816D1114F04980025803FC609D2
:1003600014E0280706D10B490120C8630A48006839
:10037000C06880478022391C201CFFF7D3FE00286C
:1003800002D00A2005B0F0BD80340135AE42E8D875
:100390000020F7E7001B0080402300086C0C0208D7
:1003A000FFFF0000F8B5051C0E1C00240FE00B49F0
:1003B0000120C8630C2060430949421853680A5859
:1003C0002F6A311C281CB847002806D10134044884
:1003D000883840688442EAD30020F8BD001B0080C2
:1003E0006C0C0208FFB5061C00243349012083B0C1
:1003F000C86332480068C06880470C9A002A34D02D
:100400002F4A002051680CE00C232D4D63438835A2
:100410005B195B68069F1818B84204D8013424049D
:10042000240C8C42F0D3131C8C421ED00C9A069FD5
:10043000251CBA18224F013A883709E0824209D3B5
:100440000C236B43DB195B68181801352D042D0C48
:100450008D42F3D318490120C86318480068C0686A
:100460008047174B5868854219D1032007B0F0BD6B
:100470000C20134A604388328118029109890029AF
:100480000CD1111C029A53680A58376A0599301C1E
:10049000B8470028EAD10299012008810134AC4212
:1004A000E6DD0C9A04AB0092F4690ECB301CA04739
:1004B0000028DBD1DAE70000001B008040230008A1
:1004C000E40B02081148F0B544682004020E0C70D9
:1004D0004A7000220220012515E00C230B4E5343E5
:1004E00088369B195B68461C0B541804070E8F5501
:1004F000701C1E02370E0F54461C1B0E8B55044BEE
:10050000701CDD630132A242E7DBF0BDE40B0208A0
:10051000001B0080F0B587B00027002100220026D4
:10052000041CF025009201910580BC46AA21080117
:100530002018418115239B015521E31899829021B0
:100540004181208800AB188160885881A08B9881F8
:1005500025804F480068864627E034234C4D53439E
:100560000021002004355B1905935B6806930AE0BF
:10057000059B85005B199B68450002AF7D5BAB4224
:1005800000D101310130069B8342F1DC069B8B4296
:100590000AD134203E4D504304354019009047693C
:1005A000018BBC46019102E001327245D5D300981F
:1005B000002834D0002000251AE0EB0000211A1C8E
:1005C000624404930EE05368324F9E460C2343432B
:1005D000B644FE505668DB195E6000261E8101306D
:1005E00001317646049B6746FB588B42EBDC0135B4
:1005F00001998D42E1DBFF211931884203DD264854
:100600000121C163FDE72349224A883948600E6011
:100610000020803AFF21115401308028FBDB0025A7
:1006200023E01D4F0120F8630C216943194A5658F5
:10063000318832885140490716D530213180174F13
:1006400005E015490120C8633868C06880473088D4
:100650000007F6D5311C301C114A01F08DF8002836
:1006600002D0002007B0F0BD01350A488838406844
:100670008542D6D30098002805D00098C16A002989
:1006800001D0201C8847F02525800098EAE700006B
:10069000A02100086C0C0208001B00804023000809
:1006A000FFFF0000FFB581B03A49029D0120C863F9
:1006B00039480068C0688047039A04981521890169
:1006C00040084000511800918418049855214901B0
:1006D0005618C007002814DA2878FF2100020843C2
:1006E000021CAA207081009955208882A020708168
:1006F0002280211C039801F03FF800283FD10234EA
:1007000001350498C707FF0F17E0687829780002C1
:100710000843021CAA207081009955208882A020DD
:1007200070812280211C039801F026F8002826D130
:100730000234023502373F043F0C0A99781C884284
:10074000E3D30A998F4212D22878FF210902084385
:10075000021CAA207081009955208882A0207081F7
:100760002280211C039801F007F8002807D1049883
:1007700002990A9AFFF7D6FC002802D00A2005B099
:10078000F0BD04490120C86303480068C068804781
:100790000020F4E7001B00804023000870470000A1
:1007A000B0B5084D064C281C618800F00DF8618832
:1007B0006854000A6A185070881C6080B0BD000040
:1007C000486D0008A003020830B50C4D0A4A07E046
:1007D000037853401B06DB0DEB5A120A5A400130D6
:1007E0004B1E1B041B0C0C1C191C002CF0D1D043FD
:1007F0000004000C30BD0000FFFF0000F4190008E9
:1008000030B5D2431204120C0A4D07E0037853406E
:100810001B06DB0DEB5A120A5A4001304B1E1B041B
:100820001B0C0C1C191C002CF0D1D0430004000C34
:1008300030BD0000F419000870B50025002304E065
:10084000CE5C2C1C0135013306559342F8DB0020A9
:1008500070BD0000F7B50C4D171C28780E1C002445
:10086000022882B001D100F0BDF82878002802D01B
:10087000082005B0F0BD054800970068331CC56925
:100880000299221CA847F4E79C210008E00B02080B
:10089000F7B50C4D171C28780E1C0024022882B0D6
:1008A00001D100F09FF82878002802D0082005B078
:1008B000F0BD054800970068331C456A0299221C68
:1008C000A847F4E79C210008E00B0208F8B5114F97
:1008D00000240126FE63104DA8680106090E12E0EF
:1008E000E8680006000E4906490F06D0302028614E
:1008F0001020286128612E6101E000F043FBA86808
:100900000106090EFE63201C0134802801DAC807A5
:10091000E6D4F8BD001B008000140080F8B5204923
:100920000120C8631F480078012838D000F096FCE9
:100930001D4DD12000012E18F07B002100F0A0FDFC
:1009400000282CD02C1FF07B2768002100F0D0FD60
:10095000C0680922D201101A0604101C6838291C2C
:100960000818291F0968360C884201D10F48281839
:10097000011C2060042000F027FE002E0FD00D2067
:10098000000200242D1806E0688B411C6983385C46
:1009900000F0F8FA0134B442F6DB00206883F8BDB9
:1009A000001B0080496D000890190208980800009B
:1009B00001490220087070479C21000810B5074CBF
:1009C0002078022801D100F00DF82078002801D00D
:1009D000002010BD02480068006810BD9C2100087E
:1009E000E00B0208F8B50E4D2878002817D0012832
:1009F00015D0022813D10B4C0B4E0C4F05E061684B
:100A000088473060002806D108342068B842F6D103
:100A10003068002801D0002000E001202870F8BDD7
:100A20009C21000818230008E00B0208EFBEADDE91
:100A3000B0B5094C051C2078022801D1FFF7D2FF80
:100A40002078002801D00820B0BD0448291C006887
:100A5000826A9047B0BD00009C210008E00B0208AC
:100A6000F8B5214F3868C0688047386801697E2032
:100A70008847012500241FE01F20A04302D13868C9
:100A8000C06880471948065D7E2E01D07D2E0CD1AE
:100A9000386801697D208847202039684640300643
:100AA0000969000E8847023505E03868016930069B
:100AB000000E8847013501340D4840888442DBDB55
:100AC0003868C0688047386801697E208847681C9C
:100AD000800607D1386801697E2088473868016937
:100AE0007E208847F8BD000040230008A0030208CC
:100AF000486D000880B503490E2000F037FB002048
:100B000080BD00007C190008F8B5041C3648007848
:100B1000002835D12022E01D3449FFF703FB0028CF
:100B200007D1261C2036F079022802D1307A02281B
:100B300003D02E499131052025E0A088242803D236
:100B40002A49B93103201EE029480027294C2749AA
:100B50000770022520222131601C2570FFF710EB61
:100B600020346570A570E770042020716771A7714B
:100B7000E77127726772A772FFF720FF051C05D186
:100B80001A497531082000F0F1FA2AE0281C00F01B
:100B9000EFF90206174F120E291C381C2C30E27296
:100BA000FFF7EEEAE07A64222C30411C3A54002030
:100BB00078544C1C3819FFF73BFF0119707AC207B3
:100BC000D20F7A54481C0C4948800121C90288423E
:100BD00003D90A490120C863FDE7FFF7E1FDFFF7EC
:100BE0003FFF0020F8BD00009C21000847180008C6
:100BF00038210008A0030208486D0008001B00808F
:100C000080B50349052000F0B1FA002080BD000046
:100C1000AC18000880B503490E2000F0A7FA0020A8
:100C200080BD00007C190008094980B512200870B9
:100C3000084901204880FFF7B3FDFFF711FF064880
:100C400000688068804700F081F9002080BD0000C6
:100C5000A0030208486D0008402300080B4910B5A6
:100C60000C2008700A4801244480FFF799FDFFF723
:100C7000F7FE00F0FDF80748C46307480068806885
:100C8000804700F073F9002010BD0000A0030208A7
:100C9000486D0008001B00804023000810B5821D2D
:100CA0008088072801D01C4914E091785078090207
:100CB0000843D178090408431179090601435079A2
:100CC00093791B021843041C01208002844205D939
:100CD00011491831032000F049FA1AE00F480423A3
:100CE00003705378437093788370D378C37012790C
:100CF00002710530221CFFF79FFD002802D0064933
:100D00002C31E8E70649601D4880FFF749FDFFF7F1
:100D1000A7FE002010BD000028190008A00302084B
:100D2000486D000810B5831D808899780538020445
:100D300058780902120C0843D97809040843197934
:100D400009060843041C211C581DFFF783FD0028D9
:100D500003D00C4900F00AFA12E00B48062101709A
:100D60002104090E447081702102090EC170210E08
:100D70000171064905204880FFF712FDFFF770FE5C
:100D8000002010BD68190008A0030208486D000883
:100D900010B5831D808899780538020458780902B7
:100DA000120C0843D9780904084319790906084345
:100DB000041C211C581DFFF76BFD002803D00C49B3
:100DC00000F0D4F912E00B48082101702104090E4B
:100DD000447081702102090EC170210E0171064913
:100DE00005204880FFF7DCFCFFF73AFE002010BD2D
:100DF00068190008A0030208486D000810B5811D9D
:100E000080880A220131013804040848240C027049
:100E1000221C0130FFF7B4E90549601C4880FFF748
:100E2000BFFCFFF71DFE002010BD0000A00302085C
:100E3000486D000801490F200870704744230008DE
:100E4000B0B5084C206880470128074D05D160687F
:100E500080470028FBD02C60B0BD044C2068804740
:100E6000F9E700000423000840230008E4220008FA
:100E7000F8B5184F1C25786800F07AF8164E041C57
:100E8000021C301C7968FFF77CE91549231C0833E4
:100E90001248496815E0402C0BDBB86800F068F890
:100EA000051C021C301CB968FFF76AE90020705568
:100EB00009E00A1CEA401207120F825C043D325519
:100EC00001349C42E7DB00203055301C00F076FCFA
:100ED000F8BD000038210008A00B020836180008F1
:100EE000486D00088CB5684606220C49FFF748E9B2
:100EF0000B48062269460068FFF742E9FFF79AFFB0
:100F0000FFF756FD07490120C863FFF799FF00F07E
:100F100071F8FFF767FD00F093F88CBDF817000833
:100F200028230008001B0080054C0020054900E034
:100F300001C48C42FCD304490120C86370470000FF
:100F400040230008B4260208001B00800549002049
:100F50008A691060096A0820086003490120C86393
:100F6000FDE70000F41F0008001B0080FEE7000002
:100F7000011C002000E001300A780131002AFAD17A
:100F800070470000B0B5184C002561680131616000
:100F9000616900290BD1A168002903D1134800F031
:100FA0000DFCB0BD61610A68A2608D800D607D2876
:100FB00005D07E2806D100F0BDF82570B0BD012017
:100FC0002070B0BD61690A4B8A889A4207D22378A3
:100FD000002B02D020235840257052189071888829
:100FE00001308880B0BD0000486D00088C180008F2
:100FF0000704000070B500220E49412401200A6058
:101000008A80240183011B181B015D182E1BCE5002
:1010100001306428AA80F5DB07480918054818380C
:101020008160C2604261027002610449012008705F
:1010300070BD0000606D000830920100382100088A
:1010400070B5064E044D01243068C0688047EC63DB
:1010500000F006F8EC63F7E7001B0080402300086F
:10106000F8B52D4C2068C06880474EE02B49012020
:1010700048702068C860002800D10861002000275F
:101080000025206011E024480068C0688047A088DF
:10109000461B802E00DD8026601906303A1C310484
:1010A000090CFFF7ADFB071CAD19A088A842EADCCC
:1010B0001B48874203D01B4800F080FB21E0A0883A
:1010C0000238A080A079411E152917D81649097841
:1010D000002901D0012811D114490978002905D02F
:1010E0001049E039082000F041F80AE0104980007A
:1010F00040184038C16B201C884702E0201CFFF7D5
:101100007FFD0649886820608C600449CC68002C0B
:10111000ACD100204870F8BD40230008486D00089D
:10112000470F00009C190008382100089C21000886
:10113000442100080B4B10B558690B4C81880022E4
:10114000A14201D8032901D2828010BD196900296A
:1011500002D11861D86002E00860586918615A61CC
:1011600010BD0000486D00080704000070B50D1C9C
:10117000041C081CFFF7FCFE061C281C00F01EFBCC
:101180000C480D2101702104090E44708170210268
:10119000090EC170210E0171291C321C0530FEF7A9
:1011A000F0EF0549701D4880FFF7FAFAFFF758FC89
:1011B00070BD0000A0030208486D00080A4A002123
:1011C00090680006000EC3070BD54006400F07D0FD
:1011D000302010611020106110610120106100E0CA
:1011E00001210806000E7047001400800449012008
:1011F000044A00E0C86393681B07FBD570470000F2
:10120000001B00800014008010B5074C0020A06374
:10121000FFF7ECFF0548012101E0E268C163A26825
:10122000D207FAD4012010BD00140080001B0080FA
:1012300010B5054B0122054900E0DA634C69E4076B
:10124000FBD5C86010BD0000001B008000140080AA
:1012500001490120C8637047001B0080FEB50026CD
:101260000025002100204F4F00F00AF9002871D01E
:101270004D480121C1634D48692252018418A37869
:101280003A1C0432002B0AD00021A1703968016099
:1012900011680171090A4171090A817114E03F68FE
:1012A00000AB9F803F0CDF8012681A81120C5A81BC
:1012B0009A883F4B9A4206D03E4B9A4204D100ABEB
:1012C0005D89061C00E0A170A0783B4F00282FD15B
:1012D000B96B02200843B863002D1DD00121002006
:1012E00000F006F9011C4068CB220004000CD20576
:1012F0008018CA68530D5B055B19D218CA602A1C96
:10130000311C00F0EDF90121002000F0FBF8012173
:10131000002000F0C9F807E00121002000F0E8F803
:101320000121002000F0EEF80121002000F0CEF8AD
:101330000021002000F062F80021002000F06AF88F
:101340001E4801680205914301600C300168490D97
:10135000490500E024E00160A278002A03D000AB38
:101360005A89891800E0803101600021002000F0D6
:10137000ADF8A078002813D17D25ED0003E0002012
:101380000130A842FCDB0121002000F079F80028A0
:10139000F5D07868002803D12088002800D0786034
:1013A000FEBD000000108065001B0080901902083F
:1013B00021200000A121000040008065000480651C
:1013C0000448D1210901401880B5807B012100F03B
:1013D0006BF980BD9019020800224000002903D05B
:1013E000012903D1022200E0012282400249086B58
:1013F000104000D00A637047400080654100012022
:10140000034A8840D169014000D0D0617047000094
:101410004000806541000120034A8840116A014074
:1014200000D010627047000040008065F0B54500B4
:1014300001240226AE40AC400023002918D0012927
:1014400000D1331C0C4F7D6B9D437D63002A0CD073
:10145000002200290ED0012900D1321C074B5B6A03
:10146000134002D0054B4033DA60FFF7B5FFF0BD03
:10147000231CE7E7221CF1E7400080650008806537
:1014800000224000002903D0012903D1022200E0FC
:10149000012282400348006B104001D001207047B8
:1014A000002070474000806500224000002903D0E2
:1014B000012903D1022200E0012282400249486B47
:1014C00010434863704700004000806500224000E0
:1014D000002903D0012903D1022200E00122824029
:1014E0000249886A104000D18A62704740008065D6
:1014F000034A40018018012900D1103070470000D4
:101500000004806541000220034A8840D1690140FF
:1015100000D1D061704700004000806570B5274958
:1015200000204968002900D170BD254D0D21090218
:10153000691800220A834A838A836921490169184C
:1015400089231B018A70412424010A8029180E195D
:101550003272C9180A720921C90101308842F5DBCB
:101560001848174E0168043E71600179297141796C
:10157000697180790021A8710420FFF7B9FFC06864
:10158000D1210901321D0004000C5418002801D09B
:10159000042000E00220E073A073E07B0021FFF74D
:1015A0006FFF0028F9D08320C0002918021C683280
:1015B0000420316000F008F8012070BD4000806513
:1015C00090190208F822000870B50D1C041C161CA6
:1015D0000021FFF701FF0021201CFFF70FFF002172
:1015E000201CFFF717FF0D49E0004018056000219F
:1015F000201CFFF77DFFC168490D49058919C160AD
:10160000012061008840064948620021201CFFF744
:101610004BFF0021201CFFF759FF70BD800980653A
:1016200000088065F8B51C4B0D2109025D18298B57
:101630004A1CC9182A8308727E282BD12E8B012EB2
:1016400028D016490120C863D12000011F18BC7B97
:10165000181C083000900121201CFFF749FFC168C9
:101660000F4A8919C160E10000988918486061003B
:10167000022088400B4948620121201CFFF714FF1B
:101680000121201CFFF722FF00202883B87B0121C5
:1016900000F00AF8F8BD000090190208001B008055
:1016A000800980650008806500224000002980B51F
:1016B00003D0012903D1022200E001228240064B1F
:1016C000586A1040FCD10548D12212018018807B55
:1016D0000022FFF7ABFE80BD00088065901902086C
:1016E000033292088B079B0F30B507D0012B0DD02A
:1016F000022B20D0032B08D1002339E0002302E085
:1017000010C9013310C09342FADB30BD00230FE053
:101710000C7801310D7801312D022C190D78013131
:101720002D042C190D7801312D062C1910C0013310
:101730009342EDDB30BD002307E00C8802310D88B9
:1017400002312D042C1910C001339342F5DB30BD5A
:101750000C7801310D7801312D022C190D780131F1
:101760002D042C190D7801312D062C1910C00133D0
:101770009342EDDB30BD0000F7B580273A400E1CE8
:101780000024151C0B490120C8630B480068C06881
:1017900080473088011C3940A94209D08006F1D524
:1017A0000134142CEEDB0099F02008800720FEBDE8
:1017B0000020FCE7001B00804023000870B5051CDA
:1017C000FFF7D6FB041C0A4E0E203070221C291C89
:1017D000701CFEF7D6EC601C0004000C054A0A23BE
:1017E000411C51803354FEF7DBFFFFF739F970BD20
:1017F000A0030208486D000844554D4D59000000F3
:10180000546F74616C2062797465732072656364CF
:101810002062792041524D50524720307800415289
:101820004D5052472073697A65206D7367206F763B
:10183000657272756E00303132333435363738396F
:101840004142434445460051434F4D206661737405
:1018500020646F776E6C6F61642070726F746F6359
:101860006F6C20686F73740051434F4D2066617335
:101870007420646F776E6C6F61642070726F746F28
:10188000636F6C2074617267000000004552523A29
:101890002057696E646F77206F76657272756E205F
:1018A00064657465637465642E2E2E00496E7661DE
:1018B0006C696420436F6D6D616E6400556E726576
:1018C000636F676E697A656420666C617368206413
:1018D0006576696365000000496E76616C69642015
:1018E0006D61676963206E756D6265722F70726FCE
:1018F000746F636F6C2076657273696F6E000000A1
:10190000506172616D6574657220526571756573A1
:1019100074205061636B6574204C656E6774682039
:101920004572726F72000000496E76616C696420C6
:101930007061636B6574206C656E6774680000008D
:101940005061636B657420746F6F206C61726765A2
:10195000000000005265616420756E7375636365F5
:10196000737366756C000000577269746520756E3C
:101970007375636365737366756C00004E414E4406
:101980002070726F6772616D6D696E67206E6F7423
:1019900020737570706F7274656400004552523A1E
:1019A0002043524320696E76616C69640000000038
:1019B000414D4420414D3239424453313238480080
:1019C000414D4420414D3239424453363430470072
:1019D000414D4420414D323950445333323244005A
:1019E0005350414E53494F4E20533239575332359D
:1019F000364E00000000891112239B322446AD5759
:101A00003665BF74488CC19D5AAFD3BE6CCAE5DB46
:101A10007EE9F7F88110080193331A22A5562C4766
:101A2000B7753E64C99C408DDBBF52AEEDDA64CB26
:101A3000FFF976E802218B30100299132667AF7602
:101A40003444BD554AADC3BC588ED19F6EEBE7FA06
:101A50007CC8F5D983310A2091121803A7772E6626
:101A6000B5543C45CBBD42ACD99E508FEFFB66EAE6
:101A7000FDD874C904428D5316619F702004A915C6
:101A80003227BB364CCEC5DF5EEDD7FC6888E199C6
:101A90007AABF3BA85520C4397711E60A1142805E6
:101AA000B3373A26CDDE44CFDFFD56ECE9986089A6
:101AB000FBBB72AA06638F7214409D512225AB3482
:101AC0003006B9174EEFC7FE5CCCD5DD6AA9E3B886
:101AD000788AF19B87730E6295501C41A3352A24A6
:101AE000B1163807CFFF46EEDDDC54CDEBB962A866
:101AF000F99A708B088481951AA793B62CC2A5D346
:101B00003EE1B7F04008C919522BDB3A644EED5F55
:101B1000766DFF7C899400859BB712A6ADD224C355
:101B2000BFF136E0C1184809D33B5A2AE55E6C4F35
:101B3000F77D7E6C0AA583B4188691972EE3A7F2F1
:101B40003CC0B5D14229CB38500AD91B666FEF7E15
:101B5000744CFD5D8BB502A499961087AFF326E215
:101B6000BDD034C1C3394A28D11A580BE77F6E6EF5
:101B7000F55C7C4D0CC685D71EE597F42880A191B5
:101B80003AA3B3B2444ACD5B5669DF78600CE91DD5
:101B9000722FFB3E8DD604C79FF516E4A9902081D5
:101BA000BBB332A2C55A4C4BD7795E68E11C680DB5
:101BB000F33F7A2E0EE787F61CC495D52AA1A3B071
:101BC0003882B193466BCF7A5448DD59622DEB3C95
:101BD000700EF91F8FF706E69DD414C5ABB122A095
:101BE000B9923083C77B4E6AD5585C49E33D6A2C75
:101BF000F11E780F00000000C7B9302049CA5120FB
:101C00008E736100552D93209294A3001CE7C200AF
:101C1000DB5EF2206DE31621AA5A26012429470132
:101C2000E390772138CE8501FF77B5217104D42167
:101C3000B6BDE4011D7F1D22DAC62D0254B54C024B
:101C4000930C7C2248528E028FEBBE220198DF2239
:101C5000C621EF02709C0B03B7253B2339565A234C
:101C6000FEEF6A0325B19823E208A8036C7BC90341
:101C7000ABC2F923FD470A243AFE3A04B48D5B0453
:101C800073346B24A86A99046FD3A924E1A0C824F3
:101C90002619F80490A41C05571D2C25D96E4D2536
:101CA0001ED77D05C5898F250230BF058C43DE0513
:101CB0004BFAEE25E038170627812726A9F246269B
:101CC0006E4B7606B515842672ACB406FCDFD506DD
:101CD0003B66E5268DDB01274A623107C4115007B8
:101CE00003A86027D8F692071F4FA227913CC3276D
:101CF0005685F3073D362428FA8F140874FC7508BE
:101D0000B3454528681BB708AFA2872821D1E6282C
:101D1000E668D60850D53209976C0229191F632945
:101D2000DEA6530905F8A129C24191094C32F009F8
:101D30008B8BC0292049390AE7F0092A6983682A70
:101D4000AE3A580A7564AA2AB2DD9A0A3CAEFB0A7A
:101D5000FB17CB2A4DAA2F2B8A131F0B04607E0B77
:101D6000C3D94E2B1887BC0BDF3E8C2B514DED2B6E
:101D700096F4DD0BC0712E0C07C81E2C89BB7F2C7E
:101D80004E024F0C955CBD2C52E58D0CDC96EC0C94
:101D90001B2FDC2CAD92382D6A2B080DE458690DF1
:101DA00023E1592DF8BFAB0D3F069B2DB175FA2DE0
:101DB00076CCCA0DDD0E332E1AB7030E94C4620E14
:101DC000537D522E8823A00E4F9A902EC1E9F12EFA
:101DD0000650C10EB0ED250F7754152FF927742F3B
:101DE0003E9E440FE5C0B62F2279860FAC0AE70F5E
:101DF0006BB3D72FBDD578307A6C4810F41F2910FB
:101E000033A61930E8F8EB102F41DB30A132BA309D
:101E1000668B8A10D0366E11178F5E3199FC3F3178
:101E20005E450F11851BFD3142A2CD11CCD1AC1105
:101E30000B689C31A0AA651267135532E9603432F1
:101E40002ED90412F587F632323EC612BC4DA712C7
:101E50007BF49732CD4973330AF043138483221302
:101E6000433A12339864E0135FDDD033D1AEB1331F
:101E70001617811340927214872B42340958233469
:101E8000CEE1131415BFE134D206D1145C75B01441
:101E90009BCC80342D716435EAC8541564BB35156C
:101EA000A3020535785CF715BFE5C7353196A63531
:101EB000F62F96155DED6F369A545F1614273E1671
:101EC000D39E0E3608C0FC16CF79CC36410AAD360B
:101ED00086B39D16300E7917F7B7493779C428377E
:101EE000BE7D18176523EA37A29ADA172CE9BB17CB
:101EF000EB508B3780E35C18475A6C38C9290D3892
:101F00000E903D18D5CECF381277FF189C049E183E
:101F10005BBDAE38ED004A392AB97A19A4CA1B193B
:101F200063732B39B82DD9197F94E939F1E78839D2
:101F3000365EB8199D9C413A5A25711AD456101A2A
:101F400013EF203AC8B1D21A0F08E23A817B833AE4
:101F500046C2B31AF07F571B37C6673BB9B5063B7D
:101F60007E0C361BA552C43B62EBF41BEC98951B10
:101F70002B21A53B7DA4563CBA1D661C346E071C64
:101F8000F3D7373C2889C51CEF30F53C6143943CBE
:101F9000A6FAA41C1047401DD7FE703D598D113D77
:101FA0009E34211D456AD33D82D3E31D0CA0821DC2
:101FB000CB19B23D60DB4B1EA7627B3E29111A3E56
:101FC000EEA82A1E35F6D83EF24FE81E7C3C891E4C
:101FD000BB85B93E0D385D3FCA816D1F44F20C1FB1
:101FE000834B3C3F5815CE1F9FACFE3F11DF9F3FF8
:101FF000D666AF1F00220080342200800C220080B1
:10200000042200803822008010220080080000484E
:1020100040000048000000480C0000484400004810
:1020200004000048082200803C2200801422008026
:1020300000000000500000480000000000000030D8
:10204000000000300000003020205155414C434F2B
:102050004D4D2041524D505247204964656E746980
:102060006669636174696F6E20426C6F636B0020F8
:10207000202020436F6D70696C6564204465632087
:10208000303120323030362031383A33303A323441
:10209000002020202056657273696F6E203D3D2020
:1020A00030362E30352E3031002020202041505245
:1020B00047363530302E48455820666F72204D53D4
:1020C0004D36353030204F4E4C59202D2055415241
:1020D0005420616E64205553420020202020436F1D
:1020E0007079726967687420286329203230303330
:1020F0002D32303036206279205155414C434F4DBE
:102100004D2C20496E636F72706F72617465642E1E
:1021100020416C6C20526967687473205265736546
:10212000727665642E002020456E64206F6620491B
:102130004420426C6F636B0001000000001800082F
:102140001E180008090B0008010C00089D0C00086F
:10215000010C0008250D0008010C0008910D000875
:10216000010C0008FD0D0008010C00085D0C0008C2
:10217000010C0008010C0008010C0008010C00080B
:10218000010C0008290C0008010C0008150C0008BF
:10219000010C0008F50A0008010C0008020000000C
:1021A00004000000B0190008030000000100000056
:1021B0007E220000182200007422000803000000A4
:1021C000A5060008DD020008E5030008C5040008B4
:1021D00000000000A5030008C0190008030000006B
:1021E000010000007E220000042200008C22000872
:1021F00006000000A5060008DD020008E50300084F
:10220000C5040008A5020008A5030008D0190008AD
:1022100003000000010000007E22000006220000F2
:10222000BC22000802000000A5060008DD0200082C
:10223000E5030008C504000800000000A50300082D
:10224000E019000803000000010000007E220000E9
:1022500030220000CC22000803000000A506000880
:10226000DD020008E5030008C504000800000000C6
:10227000A50300080800000000200000FE00000088
:102280000000010008000000002000000400000021
:10229000004000001F0000000000010020000000BE
:1022A0000000010020000000000001001F000000ED
:1022B0000000010004000000004000003F0000009A
:1022C00000000100080000000040000004000000C1
:1022D00000800000FE00000000000200040000007A
:1022E0000080000009120008BD110008ED1100086F
:1022F000CD0800083112000800C2010000000800EB
:10230000000000001D15000851120008C11300084C
:102310001D0900082516000800000000150500082A
:10232000EFBEADDE00000000482000086F2000086E
:1023300091200008A9200008DA20000826210008C2
:0400000308000000F1
:00000001FF
