:0200000400807A
:10000000F4109FE5F0209FE5EC309FE5E8409FE588
:10001000E4509FE5E0609FE5DC709FE5D8809FE5B8
:10002000D4909FE5D0B09FE5CCC09FE5C8D09FE5B8
:10003000C4E09FE500000FE1801080E301F021E1C2
:10004000D7F021E3B4D09FE5DBF021E3B0D09FE50A
:10005000D2F021E3ACD09FE5D3F021E3A8D09FE517
:10006000A8009FE5010010E3A4E09F15A4E09F0510
:1000700010FF2FE1784700009C009FE5010010E38E
:1000800098E09F1598E09F0510FF2FE1784700004A
:1000900090009FE5100F01EE100F11EE400D80E370
:1000A000100F01EE80009FE510FF2FE1DEEEDEEE87
:1000B000784700000220A0E3101E10EE021001E0BD
:1000C000000051E3FBFFFF1A100E01EE1EFF2FE1AF
:1000D000784700000120A0E3101E10EE021001E09E
:1000E000000051E3FBFFFF0A100E11EE1EFF2FE18F
:1000F000784700000070A0E117FF2FE1EFBEADDEF2
:10010000B0888000B0898000B0878000B07F800018
:10011000BD05800075008000780080007D1E800095
:100120008D00800090008000780005002D1E80006A
:1001300010B4042A0ED3031C0B439B070AD108C832
:1001400010C9A34202D1043A042AF8D2A34201D032
:1001500004380439002A02D1002010BC7047D307AC
:1001600001D5013205E003780C7801310130A3425A
:1001700007D103780C7801310130A34201D1023A52
:10018000F1D1181BE9E7000078470000030052E3B3
:100190003E00009A03C010E20800000A0130D1E4DA
:1001A00002005CE30C2082E001C0D1940130C0E485
:1001B0000130D134042042E201C0C0940130C03487
:1001C000033011E21E00000A042052E22F00003A20
:1001D00003C031E7020053E30800000A0F00008A61
:1001E0002C34A0E104C0B1E5042052E20C3C83E1D0
:1001F000043080E4F9FFFF2A011081E2230000EAC5
:100200002C38A0E104C0B1E5042052E20C3883E1AF
:10021000043080E4F9FFFF2A021081E21B0000EAAB
:100220002C3CA0E104C0B1E5042052E20C3483E18F
:10023000043080E4F9FFFF2A031081E2130000EA92
:100240007847000010402DE9202052E20500003AD6
:100250001850B1281850A0281850B1281850A028BC
:1002600020205222F9FFFF2A02CEB0E11850B12817
:100270001850A0281800B1481800A0481040BDE848
:1002800002CFB0E104309124043080241EFF2F01FE
:10029000822FB0E10120D1440130D12401C0D1240A
:1002A0000120C0440130C02401C0C0241EFF2FE142
:1002B00030B4441C810708D001780130002902D1F4
:1002C000001B30BC70478107F6D10B4AD50102C82C
:1002D0008B1A8B432B40FAD0001B0A0601D103383E
:1002E000EFE70A04120E01D10238EAE70902090E0B
:1002F000E7D10138E5E7000001010101031C0B43D0
:100300009B0770B40FD1104CE60102E004300431B9
:10031000043A042A07D303680D68AB4203D11D1BBE
:100320009D433540F2D0002A02D1002070BC7047B6
:1003300003780C7801310130012B03D3A34201D1A2
:10034000013AF5D1181BF1E701010101F0B4031CDA
:10035000041C0C43A4070CD1104DEF0102E0043142
:10036000043A10C3042A04D30C68661BA6433E401B
:10037000F5D0002A07D00C7801311C700133002C15
:1003800003D0013AF7D1F0BC7047012AFBD9511EC6
:1003900000221A7001330139FBD1F4E70101010198
:1003A000B0B5254C254DE26900200A2AE96926D01E
:1003B0000ADC012A1BD0022A14D0052A12D0092AED
:1003C00035D100F05BFC34E00C2A23D00D2A24D078
:1003D0000E2A04D0202A2AD100F056FB29E000F092
:1003E000BDFC26E0002924D000F02EFB21E00029EE
:1003F00002D101F0A9F81CE001F060F919E0002930
:1004000002D100F089FB01E000F0D4FBE96C296522
:10041000A1610EE001F004FA0BE0002902D102F024
:10042000FDFC06E0286D296A02F0C8FC01E0FF200F
:100430000130E061B0BD00004C31820050288200E4
:10044000F7B55C480E1C0068151CC06884B0804776
:10045000594B9969002963D0DC69002C0AD10868DE
:100460009861D961002008601962049A4A608E6020
:10047000CD6099E01F1C206802E00268041C101C7B
:10048000002814D08268B242F7D38268B24248D1C1
:10049000027C012A44D0C268AA4241D3AA4233D185
:1004A000049A42608660C5600122027480E0A06800
:1004B000E2688018B04206D108683B1CB861216030
:1004C00000240C606BE00290301A0190011C02982D
:1004D00001F0D8FE002823D0BA693B1C11680F68D0
:1004E0009F612260116000240C605060029890604F
:1004F0000198D0601474586A049A01304A608E6082
:10050000CD6001220A7451E00A683B1CBA61216087
:100510000860C268521BC2608268521982603EE065
:100520002AE0227C012A27D0A2680392E3689E4633
:10053000D21873199C469A4229D90F681E4B3A6803
:100540009A61039A7346B21AE26052199A1AFA60D3
:1005500021600F6038600498174B48608E60CD6052
:1005600001200874586A013058626046B860F96822
:1005700001F088FE002802D1002007B0F0BD7860AD
:1005800000200D493874486A0130486210E00A685A
:100590003B1CBA6121600860E068401BE060049881
:1005A00048608E60CD6001200874586A013058623E
:1005B0000120E2E7A83F8000703182007047000010
:1005C000F7B515480C1C0068161CC0688047134F0F
:1005D000F86900280ED1B96A0123651A2A1C01F0B6
:1005E000D7FD002806D03868B96A2A1CFFF728FF13
:1005F00000280DD00023321C211C009801F0C8FDFA
:10060000002805D0321C211CFFF71AFF002801D159
:100610000020FEBD0120FCE7A83F80007031820071
:10062000FFB58C4600210D1C0C1C96460F4F002276
:1006300081B0835CFB5C9E06B60E74405B0606D5FB
:1006400013061B0E5940DB435D402D062D0E013273
:100650001204120C802AECD373466246281C02F066
:1006600049F80498047005B0F0BD00001234800011
:1006700000B50A2001F0FCFB00BD00004B20C000CB
:1006800070470000B0B5084D064C281CA18800F04A
:100690000DF8A1886854000A6A185070881CA08060
:1006A000B0BD0000B08980001020820030B50C4D34
:1006B0000A4A07E0037853401B06DB0DEB5A120A87
:1006C0005A4001304B1E1B041B0C0C1C191C002C27
:1006D000F0D1D0430004000C30BD0000FFFF00004B
:1006E0008437800030B5D2431204120C0A4D07E063
:1006F000037853401B06DB0DEB5A120A5A400130B7
:100700004B1E1B041B0C0C1C191C002CF0D1D043DD
:100710000004000C30BD000084378000031C164824
:1007200030B5164C98430BE00D78830D083A6B40BA
:100730001B069B0DE358120400025840120C0131B5
:10074000082AF1D2002A13D009780D4D890508E056
:10075000031C4B409B0002D54000684000E0400075
:100760004900531E1B041B0C141C1A1C002CEFD137
:10077000C0438000800830BDFFFFFF3F8439800008
:10078000C7B9306070B50C4E0125F5630B4C0020E5
:10079000022103C4083CE060A16020616061206226
:1007A0000A20E061FFF7FCFDF563E069002801D055
:1007B000072070BD002070BD001B00804C318200FE
:1007C0000C4910B50120C8630B4C09206060002162
:1007D0002160A060E1602061606121622020E06111
:1007E000FFF7DEFDE069002801D0072010BD0020E2
:1007F00010BD0000001B00804C318200B0B5041C0D
:1008000013490120C863002C1AD001F023FE114DBA
:100810000920002168602960A860E960286168619A
:100820002962022C0ED1E861FFF7BAFDE8690028C1
:1008300006D10220E861FFF7B3FDE869002805D082
:100840000720B0BD012CFBD10E20ECE70020B0BD8D
:10085000001B00804C31820070B50025002304E0AD
:10086000CE5C2C1C0135013306559342F8DB002089
:1008700070BD000080B501F025FE002801D10720E1
:1008800080BD002080BD0000F8B5114F0024012676
:10089000FE63104DA8680106090E12E0E868000624
:1008A000000E4906490F06D030202861102028612B
:1008B00028612E6101E001F013FBA8680106090E12
:1008C000FE63201C0134802801DAC807E6D4F8BD95
:1008D000001B008000140080F8B520490120C86387
:1008E0001F480078012838D001F0AEFF1D4DD120FF
:1008F00000012E18F07B002102F0B6F800282CD061
:100900002C1FF07B2768002102F0E6F8C06809225E
:10091000D201101A0604101C6838291C0818291F57
:100920000968360C884201D10F482818011C206044
:10093000042002F06BF9002E0FD00D2000020024DD
:100940002D1806E0688B411C6983385C01F0C8FAF9
:100950000134B442F6DB00206883F8BD001B008040
:10096000B1898000FCFC860098080000044980B52D
:100970000220087003490020086001F06BFD80BD73
:10098000503F80005C288200024880B50068016802
:10099000884780BD5C288200F8B50B4C0025206894
:1009A0000A4E00280ED10A4F0021381C00F014FB1B
:1009B000002805D12760002F04D101203070F8BD38
:1009C0002560FAE73570FAE75C288200503F800026
:1009D000A82C8200F8B5051C00201A4F009038683A
:1009E000C1688847041C386801698847061C386854
:1009F0004169884701E064107600C82CFBDC46435F
:100A00000098321C411C2C542004030E6B54130E0E
:100A10009C4613021B0E9E461304481C00211E0E0A
:100A200017063F0E0AE0421C2F54AE54501C73466A
:100A30002B54421C501C6346AB540131A142F2DBE3
:100A4000F8BD00005C288200F8B50D4E0024012599
:100A5000F5630C4F211CF868C2699047831C06D0CF
:100A6000F563F868211C826A9047002802D0FF20B5
:100A70000130F8BDF563F86B78600020F9E70000FD
:100A8000001B008050288200F8B51F4E0120F06343
:100A90001E4C0021201C00F09FFA1D49002815D192
:100AA000201CCC6026D00D1CC16888476863E868AC
:100AB00001698847A863E86841698847E863E8688E
:100AC0000168884700240127A86417E00020C86057
:100AD00010E0F7630F480068C0688047E868211C91
:100AE000C2699047831C08D0E868211C826A90473D
:100AF000002802D0FF200130F8BD0134686B844229
:100B0000E7DB0020F8E70000001B0080A82C820033
:100B100050288200A83F8000F8B5234C0120E063F4
:100B2000224DE70D2868002811D0E96B1F4E081AE6
:100B30005836FF2204E029684B1C2B6072540138A0
:100B40000028F8D1012102F045FA002828D001261A
:100B5000E66301F09FFA002822D01349CE631449BE
:100B6000E86C124C4861A869182258340861201CAE
:100B7000FFF70CEB0C490120C863201CE96B18300F
:100B80001839FF2202E00270013001390029FAD140
:100B90000548C6630022201C02F0BEF9002801D1DE
:100BA000381CF8BD0020FCE7001B008050288200A4
:100BB000342D8200F8B51C4D0127EF631B4C211C1E
:100BC0002068C96B884226D8184E583600280FD0A6
:100BD000081AFF2204E021684B1C2360725401387C
:100BE0000028F8D1EF63012102F0F4F9002812D0B7
:100BF000211C246A13E00D4900200022C96B01E08A
:100C0000325401308842FBDBEF630121002002F007
:100C1000E1F9002802D1FF200130F8BD0134102C89
:100C2000E9DBEF630020F8E7001B0080502882001A
:100C300070B5FF26051C0C1C8B1C4A1C4E71FFF75F
:100C4000EFFCA31D221DE11C281C8030FFF7E8FCEF
:100C5000231C0933281CFF305A1EE11D0130FFF709
:100C6000DFFC231C0C335A1E281CFF30511E813020
:100C7000FFF7D6FC6673A673E67370BDFEB501A8D8
:100C800006222F49FFF782EA2E48062201A90068B2
:100C9000FFF77CEA2C490120C86300252B4C2C4E21
:100CA0000021301CE56100F097F9002827D1301CA5
:100CB000E66037D003218907E164C1688847606333
:100CC000E06801698847A063E06841698847E0639C
:100CD000E06801688847A064A06BE26B011C514387
:100CE000194F2164616B414301266164FE63A56075
:100CF000A5612561656125606560E66204E0E560E7
:100D000010E0E06A0130E062E068C269E16A9047A1
:100D1000831CF6D0FE63E06A0130A06201F0D4F9D2
:100D2000002802D1FF200130FEBDFE6308480949BA
:100D30008C30016008494160022181600020F3E7A6
:100D40000C348000903F8000001B008050288200FF
:100D5000A82C82005EDBE34873AA55EE70B51F4DE8
:100D60000120E8631E4C0021201C00F035F900260C
:100D700000281C4907D1201CCC600C1C002804D181
:100D8000FF20013070BDCE60FAE703218907E164DE
:100D9000C16888476063E06801698847A063E068CC
:100DA00041698847E063E06801688847A064A06BF8
:100DB000E26B011C51432164616B41430120E061FE
:100DC00026626164E863A660A661266166612660AA
:100DD000A66266606662E863002070BD001B00804A
:100DE000A82C820050288200FFB50D1C161C81B073
:100DF00003D00720C04305B0F0BD281CFFF758FA08
:100E0000102802D90920C043F5E71F4C606801286B
:100E100005D1A068102802DB0820C043EBE70024BE
:100E20001A4F0CE01C206043C0191030291C00F040
:100E300081FB012802D10B20C043DCE70134F868B4
:100E4000A042EFD8104C6068002806D110483860E6
:100E5000104878600120B8606060A0681C23584387
:100E60001022C0191030291CFFF770FAA0681C214D
:100E70004143C9198E62049A01300A620A9A4A6291
:100E8000A0600020B7E7000018F9860028FB860064
:100E9000AA73EE55DBBD5EE3016EC06D081A7047A4
:100EA000C06E7047F8B50E1C0169041C0025ED43A7
:100EB0008847216EE26D891A4143B14201D8281C4E
:100EC000F8BD1D4A012111601C4A13688B43194368
:100ED00011601B4AD1611B4900274F71E16D4143ED
:100EE00088194402546000F02FF803201060161C8B
:100EF00000F0C8FA00F028F80620306000F072FA1E
:100F00000534746000F020F80220306000F06AFAC6
:100F1000B0688821084006D1306A0006000EFF2123
:100F2000814300D00025054A106840084000106049
:100F3000F061014A1760C2E718F9860014F98600CB
:100F40000003006400020064032007494003486076
:100F50000548403000694004800F03D00349012058
:100F6000C863FDE77047000000090080001B008097
:100F7000F8B5041C012500E00135291CE269201C9C
:100F80009047831CF8D00026A06EF643A84215DDDA
:100F9000E06E626B6843451C291C201C90470028AA
:100FA00002D10A20C043F8BD074F084AB868291C7F
:100FB000D060636A201C9847002801D0301CF2E7FB
:100FC00000207860B860EEE718F9860028FB8600FC
:100FD000C06F7047406E7047F3B581B00221009139
:100FE0002049051C00240120086000F01FF9FFF7CC
:100FF000ABFF1D4E002030601C490868F0614008BE
:1010000040000860F061FFF79FFF0720306000F0AC
:1010100005FAFFF799FF0520306000F0E3F9FFF7CC
:1010200093FF0620306000F0DDF9B06841000F0E3C
:101030004002060E0B49002008600D49A0000B5825
:10104000391C321C281C9847002803D1029980358E
:10105000A960FEBD009801348442EEDB0020C0434D
:10106000F7E7000018F986000003006414F9860011
:10107000543F8000F8B50E1C016EC26D051C0124A2
:10108000891AB14223D90169884703E00134240455
:101090004010240C0228F9D10F4F01203860E86D70
:1010A00080190934A0400D4C6060FFF74DFF04200B
:1010B000206000F0E7F9FFF747FF0620206000F00E
:1010C00091F9A068002139608821084002D00020F1
:1010D000C043F8BD0020FCE718F986000003006457
:1010E000F7B5051C2149161C08680122400840007C
:1010F0000024104384B01E4F0860F8612969281C41
:101100008847E96D48430599401840027860FFF729
:101110001BFF0120386000F065F96969281C8847C9
:1011200019218906021C301CFFF730E80F490868B6
:10113000400840000860F8616946301CFFF778FD00
:101140000C4A00206946095883181B68594004D08E
:101150004B1E1940214306D1013404301028F1D32D
:101160000120012C00D0002007B0F0BD14F986004A
:101170000003006400020064F3B50169041C012748
:1011800081B08847061CA169201C8847051C206E79
:10119000E16D401A70430299884201D80020FEBDDB
:1011A0001E4801221E4902600868904310431D4AF0
:1011B0000860D061E06D02997043401840025060B1
:1011C000FFF7C2FE01201060141C00F00BF9A068AC
:1011D000882108400021002801D0002713E00020CA
:1011E000192292060DE083181E68731C08D00C4A61
:1011F0001068400840001060E06108480160CDE7D9
:101200000430A842EFDB064A106840084000106036
:10121000E06102480160381CC1E7000018F986004F
:1012200014F9860000030064806F704780B5FFF7F3
:1012300025FA0221044A08431168044B1940044B63
:101240000143D961106080BD14F98600A2F8FFFF48
:1012500000030064F0B50D1C09780027061C302936
:10126000F5B002D0B81F75B0F0BD69783A2902D048
:101270000620C043F7E701A900F026F80028F2D1C4
:10128000002402350AE01C20604301A940181030F8
:10129000291C00F04FF9012807D001340498A0421E
:1012A000F1D8002F01D1381FDDE71C20604301A9D0
:1012B0004018016AF165016A406A0818306600202A
:1012C000D1E70000006F7047F3B5041C012581B021
:1012D00000E00135291CE269201C9047831CF8D0EE
:1012E0000026A06EF643A84212DDE06E626B6843F2
:1012F000451C291C201C9047012801D10638FEBD41
:10130000114F291C236B3A1C201C9847002801D040
:10131000301CF4E70D4A3868391C904203D10C4A5E
:101320004868904202D00C20C043E8E78868012852
:1013300002D00D20C043E2E7FF22D1320298FEF72F
:1013400082EF0020DBE7000028F98600AA73EE5543
:10135000DBBD5EE3F8B50D1C0169041C161C884753
:10136000E16D226E521A4243AA4202D80020C043C5
:10137000F8BD164F012241433A60154A4819400210
:101380005060FFF7E1FD124A0120106000F02AF8DA
:101390000F4A90680F4A011C11400BD0400606D539
:1013A000321C291C201CFFF79BFE002802D10020C4
:1013B0003860DBE76169201C884719218906021C17
:1013C000301CFEF7E4EE00203860D1E718F9860003
:1013D00000030064480000808030416070470000D6
:1013E000406F704770B50A4E0A4D002403E0013487
:1013F0000120FFF73DF93069800401D4AC42F6D3F7
:10140000AC4203D104490120C863FDE770BD000070
:1014100040090080581B0000001B008070B5164E6C
:10142000144D002403E001340120FFF721F928695D
:101430004004800F032801D0B442F4D3B44214D145
:10144000286903214903084008D001235B0398421F
:1014500007D05B00984201D0884206D0074901209E
:1014600006E00749C8680130C860FFF76DFD70BD30
:10147000C863FDE740090080581B0000001B008086
:1014800018F9860070B50B4E0B4D002403E00134B3
:101490000120FFF7EDF830694004800F032801D0E8
:1014A000AC42F4D3AC4203D104490120C863FDE748
:1014B00070BD000040090080581B0000001B008028
:1014C000F7B5041C0E1C01698847051C206EE16DF0
:1014D000411A6943B14223D9144F01203860616930
:1014E000201C8847021C192080060299FEF74EEE48
:1014F000E06D0F4C6843801940026060FFF724FDE7
:1015000003202060FFF7BEFFFFF71EFD06202060CE
:10151000FFF768FFA068002139608821084002D0E9
:101520000020C043FEBD0020FCE7000018F9860043
:101530000003006480B51022FEF7E0FE002801D110
:10154000012080BD002080BDFEB558490120C86340
:101550005748C168026A5518026951180268406903
:101560008E1A0404240C3019019052488168002915
:1015700004D1012181605049CE6006634B4A0121AC
:10158000D1634C48016BB14236D0771A02978E4234
:1015900069D32AE04748C16B02688E46891AB9426E
:1015A00000D3391CFF22031C8C4609E01868013F58
:1015B000411C19603F4958310A546046013884463D
:1015C00060460028F2D118681A1C70454BD8704547
:1015D0000BD136490120C8630121301C01F0FAFC0F
:1015E000002840D0334A00201060002FD2D131496A
:1015F0000869029FC01908612C490120C86346E0B0
:101600002C4A1068D16B0F1AA7420CD92948161C16
:10161000316858304018221C291CFEF7B8ED30689C
:101620000019306035E0A74207D1224A002804D0D3
:10163000204958310818221C08E0A74214D21D4A3C
:10164000002811D01B49583108183A1C291CFEF7F4
:101650009EED1848ED195830E11B0C04240C154A76
:101660000021116005E01BE0281C6D18611A0C04B4
:10167000240C0E4F0121F9630122311C01F04CFCB6
:1016800000280DD00121F9630A4AD06B3618002CCE
:10169000B6D1084E019830633068F16B884202D9A8
:1016A000FF200130FEBD0020FCE70000001B008091
:1016B0004C31820050288200342D8200FEB55549FD
:1016C0000120C8635448C168026A5518026951185C
:1016D00002688A1A0292406950490404240C1019C5
:1016E00000908868002803D101208860029A0A636C
:1016F000484A0120D063086B029A0F1C904234D0F4
:10170000029A391C161A0196824271D30F1C26E0E8
:10171000F86B3A688446801A391CB04200D3301CFA
:10172000FF230F1C07E03968013E4A1C3A603B4A20
:101730005832535401380028F5D138683A1C6045B6
:1017400056D8171C60450AD132490120C8630121CF
:10175000029801F03FFC00284AD000203860002E9B
:10176000D6D13869019E801938612A490120C863A1
:1017700043E03868F96B0E1AA6420BD9274839683E
:1017800058304018221C291CFEF700ED386800195B
:10179000386034E0A64206D1002804D01F495831F1
:1017A0000818221C07E0A64211D200280FD01B49BE
:1017B00058310818321C291CFEF7E8EC1748AD19FF
:1017C0005830A11B0C04240C0021396004E0281CB3
:1017D0006D18611A0C04240C0E4E0121F1630122D4
:1017E000029901F099FB002802D00121F16300E089
:1017F0000BE0029AF86B12180292002CB9D10098F3
:1018000038633868F96B884202D9FF200130FEBD89
:101810000020FCE7001B00804C3182005028820031
:101820000548064948650A6902604A694260896953
:1018300081600020704700004C31820050288200F7
:10184000F8B5214F3868C0688047386801697E2044
:101850008847012500241FE01F20A04302D13868DB
:10186000C06880471948065D7E2E01D07D2E0CD1C0
:10187000386801697D208847202039684640300655
:101880000969000E8847023505E0386801693006AD
:10189000000E8847013501340D4880888442DBDB27
:1018A0003868C0688047386801697E208847681CAE
:1018B000800607D1386801697E2088473868016949
:1018C0007E208847F8BD0000A83F800010208200DD
:1018D000B0898000B0B5041C17480068C068804714
:1018E000164DEA69002A25D09168101CA1420BD13F
:1018F0000168E961002900D12962A9690160A86134
:10190000696A01396962B0BD0068016802E00B686C
:10191000081C191C00280DD08368A342F7D1016868
:10192000A9690160A861696A01396962002AEAD17E
:101930002A62B0BD0020B0BDA83F80007031820097
:1019400010B50F4CA068012802D00E490F2005E009
:10195000FEF718FF002804D00A49283100F0FCFEE9
:101960000BE00020A060A07007491620087001203D
:10197000A080FEF787FEFFF763FF002010BD000088
:10198000B0898000703380001020820010B5114CA7
:10199000A078002801D0104905E0104800780128FF
:1019A00005D10D4920310F2000F0D6FE10E0FEF7E2
:1019B00007FF002803D008493C310720F4E7084915
:1019C0001E2008700120A080FEF75CFEFFF738FFA4
:1019D000002010BDB0898000A8338000CC3E80007C
:1019E00010208200F8B5041C36480078002835D154
:1019F0002022E01D3449FEF79BFB002807D1261C5E
:101A00002036F079022802D1307A022803D02E49FC
:101A10009131052025E0A088242803D22A49B93134
:101A200003201EE029480027294C2749077002257A
:101A300020222131601C2570FEF7A8EB2034657050
:101A4000A570E770042020716771A771E771277294
:101A50006772A772FEF798FF051C05D11A49753108
:101A6000082000F079FE2AE0281C00F02BFA02067C
:101A7000174F120E291C381C2C30E272FEF786EB31
:101A8000E07A64222C30411C3A54002078544C1CDB
:101A90003819FEF79FFF0119707A4207520F7A54E6
:101AA000481C0C4988800121C902884203DD0A498B
:101AB0000120C863FDE7FEF7E5FDFFF7C1FE00204A
:101AC000F8BD0000503F80003B318000CC3E8000DC
:101AD00010208200B0898000001B008080B503497F
:101AE000052000F039FE002080BD0000A0318000FC
:101AF000B0B5174DC479A86801280AD1A878A042CA
:101B000002D014490F2013E01248243001F0D0FA1B
:101B10001CE0022C04D0012C02D00E49503106E00A
:101B2000201CFEF76BFE002805D00A49643107200F
:101B300000F012FE0AE00120A860074AAC701421F0
:101B40001170A880FEF79EFDFFF77AFE0020B0BD61
:101B5000B089800000338000102082000D4980B5DC
:101B6000122008700C49012088808868012804D15F
:101B70000A490F2000F0F0FD09E0FEF783FDFFF7B2
:101B80005FFE074800688068804700F089F9002000
:101B900080BD000010208200B0898000E03280000B
:101BA000A83F80000F4810B58168012904D10E4973
:101BB0000F2000F0D1FD12E00C210C4A012411701D
:101BC0008480FEF75FFDFFF73BFE00F0F3F8084866
:101BD000C463084800688068804700F071F90020FD
:101BE00010BD0000B08980005C32800010208200AF
:101BF000001B0080A83F800010B5821D8088072848
:101C000001D01C4914E09178507809020843D1783A
:101C100009040843117909060143507993791B029D
:101C20001843041C01208002844205D9114918314F
:101C3000032000F091FD1AE00F480423037053784D
:101C4000437093788370D378C37012790271053032
:101C5000221CFEF701FE002802D006492C31E8E7DD
:101C60000649601D8880FEF70DFDFFF7E9FD0020A5
:101C700010BD00001C32800010208200B08980005E
:101C800080B50349052000F067FD002080BD0000FD
:101C900078328000B0B5831D80889978234D05384F
:101CA000020458780902120C0843D9780904084341
:101CB000197909060843041CA868002802D0A878EE
:101CC000002802D11A490F2018E001280ED1194826
:101CD000844203D31849A018884203D914491C31FF
:101CE00002200BE001200004211800E0211C581DF7
:101CF000FEF7C0FD002804D00D49383100F02CFD5E
:101D000011E00E48082101702104090E4470817011
:101D10002102090EC170210E01710520A880FEF775
:101D2000B1FCFFF78DFD0020B0BD0000B089800040
:101D3000943280000000FFFFFF7FFFFF1020820031
:101D400010B5811D80880A22013101380404084839
:101D5000240C0270221C0130FEF718EA0549601CB1
:101D60008880FEF78FFCFFF76BFD002010BD0000A0
:101D700010208200B089800001491020087070474F
:101D8000AC3F8000B0B5084C206880470128074D63
:101D900005D1606880470028FBD02C60B0BD044CA2
:101DA00020688047F9E700007C3F8000A83F800062
:101DB0005C3F8000F8B5194E1C24706800F082F872
:101DC0007168174E051C021C301CFEF7E0E916482E
:101DD00000272A1C08321349C06815E0402D0BDB90
:101DE0000E4DA86800F06EF8041C021C301CA96897
:101DF000FEF7CCE937550CE0031CE3401B071B0F33
:101E0000CB5C043C735501359542E7DB402D00DA8D
:101E10007755301C01F04CF9F8BD0000CC3E800035
:101E2000102882002A318000B08980008CB5684675
:101E300006220C49FEF7AAE90B480622694600680B
:101E4000FEF7A4E9FFF798FFFEF790FD0749012090
:101E5000C863FFF797FF00F07BF8FEF79DFD00F0E9
:101E60009DF88CBDEC308000903F8000001B00800E
:101E700000E001380028FCD170470000054C00202C
:101E8000054900E001C48C42FCD304490120C86329
:101E900070470000A83F8000200A8700001B0080D8
:101EA000054900208A691060096A08200860034912
:101EB0000120C863FDE70000843D8000001B008016
:101EC000FEE70000011C0020002903D1704701300B
:101ED0000004000C0A780131002AF8D17047000094
:101EE000B0B5184C0025E1680131E160E1690029D5
:101EF0000BD12169002903D1134801F0D9F8B0BDF5
:101F0000E1610A6822618D800D607D2805D07E2800
:101F100006D100F021F92570B0BD01202070B0BDC0
:101F2000E1690A4B8A889A4207D22378002B02D0B3
:101F3000202358402570521890718888013088807D
:101F4000B0BD0000B089800080318000070400002F
:101F500070B500220E49412401200A608A802401C4
:101F600083011B181B015D182E1BCE500130642805
:101F7000AA80F5DB0748091805482038016142614D
:101F8000C2610270826104490120087070BD0000C6
:101F9000D089800030920100CC3E800070B5064EA2
:101FA000044D01243068C0688047EC6300F006F8F7
:101FB000EC63F7E7001B0080A83F8000F8B52D4CCC
:101FC0002068C06880474DE02B4901204870206898
:101FD0004861002800D1886100200027002520608A
:101FE00011E024480068C0688047A088461B802E06
:101FF00000DD8026601906303A1C3104090CFEF71A
:1020000071FB071CAD19A088A842EADC1B48874277
:1020100003D01B4801F04CF820E0A0880238A080D3
:10202000A079411E1D2916D816490978002901D02A
:10203000012810D114490978002904D01349082037
:1020400000F08AFB0AE01249800040184038C16B5A
:10205000201C884702E0201CFFF740FD0649086964
:1020600020600C6104494C69002CADD100204870FF
:10207000F8BD0000A83F8000B0898000470F000035
:10208000F8338000CC3E8000503F8000B0318000AB
:10209000D83E800010B50B4CE16AA162E068C269CD
:1020A0009047002805D1E068826AA16A904700281D
:1020B00001D0002010BDA06BA16A606041430120E7
:1020C000616210BD5028820010B5104C06E06069B6
:1020D000216C40186061A06A0130A062E068C269AA
:1020E000A16A9047831CF2D0606BA16A814204D23E
:1020F000E068826A9047002801D0002010BDA06BE4
:10210000A16A606041430120616210BD50288200D5
:1021100010B5104C03E06069216C40186061A16A41
:102120000131A162E068C2699047831CF3D0606B03
:10213000A16A814204D2E068826A9047002801D0F7
:10214000002010BDA06BA16A606041430120616264
:1021500010BD0000502882000B4B10B5D8690B4C05
:1021600081880022A14201D8032901D2828010BDBA
:102170009969002902D19861586102E00860D86924
:102180009861DA6110BD0000B0898000070400008A
:10219000FFB525480E1C0068151CC06881B080473B
:1021A000FF212D31214FB86888421CDA79683A68DE
:1021B0008A4202D1002816D101E0002801D1B86A74
:1021C000F860F868331A7869D418844208D3841AFE
:1021D0001B1B164C3434E4186319934206D302E0F7
:1021E0006219824202D9002005B0F0BD3B69721924
:1021F000D21A9E420BD98B1883423E6105D9401AF0
:102200000A49101A3431081800E0601978600498FF
:10221000002804D12A1C201C0199FDF7B8EFB868EA
:102220000130B860201CDFE7A83F800070318200D9
:1022300070B5061C11480D1C0068141CC06880474E
:102240000F4A916800290AD01068B04207D1D368BC
:10225000AB4204D15369161C1A1A944201DD0020C6
:1022600070BD00193060984202D1054834303060AA
:1022700001392819F060B160012070BDA83F8000CD
:102280007031820070B5051C15480C1C0068C068D0
:102290008047FF202D30134EB16881421BDA7068F1
:1022A0003268824201D1002915D1F068281A756977
:1022B0001318AB420BD30B4B0A4D14335B1BC01AE4
:1022C000084B343318180319934206D303E0181C43
:1022D0001A19AA4201D9002070BD0131B16070BD48
:1022E000A83F800070318200F8B5071C0D1C016901
:1022F0000026012488470090386EF96D401AA842E4
:1023000001D80020F8BD3969381C884703E0013442
:1023100024044010240C0228F9D101201E49A540B4
:102320002C1C00250860F86D009948431B490019D2
:10233000400205304860FEF707FE18490220086099
:1023400088688007FCD48868C00701D50126F64359
:10235000086A0006000EFF2801D00126F643013569
:102360002D042D0C0134022DDDD3FEF7EDFD0B4DB8
:1023700000242C600A490868E861400840000860B1
:10238000E861FEF7E1FD07202860FFF747F8024902
:10239000301C0C60B6E7000018F9860000030064EA
:1023A00014F98600F8B5061C006EF26D801A88429A
:1023B00002D80020C043F8BD0E4F012038600C1C2D
:1023C0003169301C884701E0401064000128FBD1CE
:1023D0000025211C301CFEF765FD002801D1386066
:1023E000E9E70120400224180135022DF1DB00202D
:1023F0003860DEE718F98600F8B5051C1448072791
:102400000026242373431C1863698B421AD1A369E5
:10241000934217D1242171430818C069022814D0AF
:102420000B495C225C39281CFDF70CEF2422211C8F
:10243000281C6430FDF706EF0020E8656068286618
:102440000020F8BD0136BE42DBDB0020C043F8E7C8
:1024500038368000F0B517490120C86300221649BC
:10246000FF242D3402250A601426464301307318D8
:102470001F1C143F8F515A60DA609A601D74A0428D
:10248000F2DB0E484B2309180D481B0381610C49F0
:10249000C261026234314160426201608260C260A6
:1024A000C918416102618262C2620263014901206E
:1024B000C863F0BD001B0080A4E186005C1700002B
:1024C00070318200F8B5061C23480C1C0068151CEE
:1024D000C068804767192149C869002819D1081CBC
:1024E000806AA0420BD0081C006B844232D32A1CA5
:1024F000211C301CFEF764F8002826D11EE02A1C9F
:10250000211C301C00F02CF8002817D013488762DB
:102510001BE080681149A0421CD8A04207D12A1CA8
:10252000211C301C00F068FD00280ED106E02A1C9A
:10253000211C301CFEF744F8002801D10020F8BD12
:102540000649886A844200D38F620449C86A84427B
:1025500000D9CC620120F2E7A83F800070318200F0
:10256000F8B5061C0D480D1C0068171CC068804794
:10257000022000210A4C606021600834A3C4183C8A
:1025800026620120E061FDF70BFFE069002801D021
:102590000020F8BD034805630120FAE7A83F80004A
:1025A0004C31820070318200F8B5051C0F1C0169A6
:1025B0000026012488470090286EE96D401AB84231
:1025C00001D80020F8BD2969281C884703E00134A0
:1025D00024044010240C0228F9D11A490120086073
:1025E000E86D0099A7404843174CC01940020530D8
:1025F0006060FEF7A9FC02202060A0688007FCD480
:10260000A068C1070120C043002900DA061C216A26
:102610000906090EFF2900D0061CFEF795FC0025CF
:1026200025600A490868E061400840000860E061F0
:10263000FEF78AFC07202060FEF7F0FE0149301CFF
:102640000D60BFE718F986000003006414F98600E6
:10265000F8B5051C006EEA6D0027FF43801A88421A
:1026600001D8381CF8BD0B4E012030600C1C2969C4
:10267000281C884701E0401064000128FBD1211C80
:10268000281CFEF70FFC0021002801D13160E9E78A
:102690003160E6E718F98600F8B5051C14480227F2
:1026A0000026242373431C1863698B421AD1A36943
:1026B000934217D1242171430818C069022814D00D
:1026C0000B495C225C39281CFDF7BCED2422211C3F
:1026D000281C6430FDF7B6ED0020E86560682866C8
:1026E0000020F8BD0136BE42DBDB0020C043F8E726
:1026F00070358000F0B52025402400261E7016702D
:102700000F1C274002D017782F4317706D08071C45
:10271000274002D017782F43177001363606360E41
:102720006D086408032EEBD3802200250E1C264082
:1027300002D01E7816431E705208061C264002D096
:102740001E7816431E7001352D062D0E52086408A2
:10275000042DEBD3F0BD000070B50D1C041C081C4B
:10276000FFF7B0FB061C281C00F0A2FC0C480D2152
:1027700001702104090E447081702102090EC1709C
:10278000210E0171291C321C0530FDF700ED0549B1
:10279000701D8880FDF776FFFFF752F870BD0000CE
:1027A00010208200B08980000A4A0021906800064B
:1027B000000EC3070BD54006400F07D03020106134
:1027C0001020106110610120106100E00121080655
:1027D000000E70470014008004490120044A00E004
:1027E000C86393681B07FBD570470000001B00807F
:1027F0000014008010B5074C0020A063FFF7ECFF29
:102800000548012101E0E268C163A268D207FAD459
:10281000012010BD00140080001B008010B5054B86
:102820000122054900E0DA634C69E407FBD5C86082
:1028300010BD0000001B0080001400800149012031
:10284000C8637047001B0080FEB5002600250021EC
:1028500000204E4F00F008F9002871D04C480121AB
:10286000C1634C48692252018418A3783A1C04328F
:10287000002B0AD00021A170396801601168017134
:10288000090A4171090A817114E03F6800AB9F8019
:102890003F0CDF8012681A81120C5A819A883E4BD5
:1028A0009A4206D03D4B9A4204D100AB5D89061C8A
:1028B00000E0A170A07800282ED1012100F016F9C7
:1028C000002D1DD00121002000F006F9011C4068F8
:1028D000CB220004000CD2058018CA68530D5B059A
:1028E0005B19D218CA602A1C311C00F01BFA0121A6
:1028F000002000F029F90121002000F0C9F807E0CC
:102900000121002000F0E8F80121002000F01CF96E
:102910000121002000F0CEF80021002000F062F834
:102920000021002000F06AF81D480168020591436B
:1029300001600C300168490D49050160A27800E092
:1029400023E0002A03D000AB5A89891800E08031C7
:1029500001600021002000F0ADF8A078002814D11B
:102960007D25ED0003E000200130A842FCDB0121C1
:10297000002000F079F80028F5D00A4841680029C5
:1029800003D12188002900D04160FEBD0010806580
:10299000001B0080FCFC860021200000A12100001B
:1029A00000048065400080650448D1210901401879
:1029B00080B5807B012100F099F980BDFCFC860088
:1029C00000224000002903D0012903D1022200E0A7
:1029D000012282400249086B104000D00A63704710
:1029E0004000806541000120034A8840D1690140D0
:1029F00000D0D06170470000400080654100012098
:102A0000034A8840116A014000D0106270470000FC
:102A100040008065F0B5450001240226AE40AC4080
:102A20000023002918D0012900D1331C0C4F7D6BE5
:102A30009D437D63002A0CD0002200290ED001297D
:102A400000D1321C074B5B6A134002D0054B403368
:102A5000DA60FFF7B5FFF0BD231CE7E7221CF1E7C2
:102A6000400080650008806500224000002903D0F6
:102A7000012903D1022200E0012282400348006BB9
:102A8000104001D001207047002070474000806551
:102A900000224000002903D0012903D1022200E0D6
:102AA000012282400249486B10434863704700008E
:102AB0004000806500224000002903D0012903D195
:102AC000022200E0012282400249886A104000D1BF
:102AD0008A62704740008065034A400180180129DE
:102AE00000D110307047000000048065400070B5D0
:102AF0000224012383408440002200291CD00129A4
:102B000000D1221C0F4DA86B104014D100200029C9
:102B100014D0012900D1201C6E6A064000D06862E2
:102B2000AA63002000290BD0012900D1201C696A6A
:102B3000014000D1686270BD1A1CE3E7181CEBE786
:102B4000181CF4E74000806541000220034A8840D9
:102B5000D169014000D1D06170470000400080651C
:102B600070B5274900204968002900D170BD254D66
:102B70000D210902691800220A834A838A83692188
:102B80004901691889231B018A70412424010A80A4
:102B900029180E193272C9180A720921C9010130A7
:102BA0008842F5DB1848174E0168043E71600179D0
:102BB00029714179697180790021A8710420FFF79A
:102BC0008BFFC068D1210901321D0004000C54188C
:102BD000002801D0042000E00220E073A073E07B15
:102BE0000021FFF741FF0028F9D08320C0002918F9
:102BF000021C68320420316000F008F8012070BD2A
:102C000040008065FCFC8600703F800070B50D1CA4
:102C1000041C161C0021FFF7D3FE0021201CFFF727
:102C2000E1FE0021201CFFF7E9FE0D49E0004018FD
:102C300005600021201CFFF74FFFC168490D4905C1
:102C40008919C1600120610088400649486200215D
:102C5000201CFFF71DFF0021201CFFF72BFF70BD7C
:102C60008009806500088065F8B51C4B0D210902BC
:102C70005D18298B4A1CC9182A8308727E282BD11B
:102C80002E8B012E28D016490120C863D1200001C7
:102C90001F18BC7B181C083000900121201CFFF776
:102CA0001BFFC1680F4A8919C160E10000988918AB
:102CB00048606100022088400B4948620121201CC5
:102CC000FFF7E6FE0121201CFFF7F4FE0020288319
:102CD000B87B012100F00AF8F8BD0000FCFC86007A
:102CE000001B00808009806500088065002240008C
:102CF000002980B503D0012903D1022200E001227E
:102D00008240064B586A1040FCD10548D12212017E
:102D10008018807B0022FFF77DFE80BD0008806563
:102D2000FCFC8600033292088B079B0F30B507D05E
:102D3000012B0DD0022B20D0032B08D1002339E02A
:102D4000002302E010C9013310C09342FADB30BD0A
:102D500000230FE00C7801310D7801312D022C1980
:102D60000D7801312D042C190D7801312D062C1907
:102D700010C001339342EDDB30BD002307E00C8827
:102D800002310D8802312D042C1910C001339342F9
:102D9000F5DB30BD0C7801310D7801312D022C1995
:102DA0000D7801312D042C190D7801312D062C19C7
:102DB00010C001339342EDDB30BD0000F3B50F1CB2
:102DC0001349012081B0C8638805124D0024124EBA
:102DD000E86412E0E868321C036B211C9847002865
:102DE00011D1E86BC004020CE86C311CFDF796FCB5
:102DF000E86407490120C8630134BC42EADB01985A
:102E0000E96C884202D0FF200130FEBD0020FCE7C3
:102E1000001B0080502882004C2F8200F8B5384EED
:102E20000125F563374CA56202E0A06A0130A0627B
:102E3000E068C269A16A9047831CF6D0A06A616B02
:102E4000884258D2A26B271C5043011CE0682E4CCC
:102E5000036B221C984700284DD1F5632B4920684D
:102E6000884248D12A496068884244D1A068022833
:102E700041D16069009024698807F864B86A01301C
:102E8000B862F868C269B96A9047831CF6D0B86A1C
:102E9000796B88422FD228E0B86BBE6A4643002582
:102EA00016E0F8681B4A036B311C9847002822D1B2
:102EB000F86B1849C004020CF86CFDF72FFCF8649D
:102EC0000F490120C863F86B241A04D0013601357C
:102ED000B86B8542E5DB3D1CA86A0130A862E86852
:102EE000C269A96A9047831CF6D0002CD4D10098FF
:102EF000F96C884202D0FF200130F8BD0020FCE7C9
:102F0000001B0080502882004C2D82005EDBE348CD
:102F100073AA55EE4C2F8200F7B52C4D041C081CEB
:102F2000696A6A6C91422FD8696800290AD1FF2624
:102F3000E9690136012903D0FFF7EAF8002801D139
:102F4000301CFEBDE868221C436A696A9847002865
:102F50001AD11F4E311C002202E00A7001310130EB
:102F6000EB6B9842F9DBE868321C036B696A98479F
:102F7000002809D1201C0021EA6B08E0037837788B
:102F800001360130BB4201D00020DAE70131914225
:102F9000F4DB029801280AD1D004020CE86C211C51
:102FA000FDF7BCFBE864A869E96B4018A861E86913
:102FB000012802D1286A01302862686A01306862FB
:102FC0006868013868600120BBE700005028820073
:102FD000A82A82000A1C011C80B50648FFF79CFF46
:102FE000002800D180BD0349002058390860012025
:102FF00080BD0000A8288200F8B5061C2A480D1CD8
:103000000068141CC0688047284FF869017C0029BB
:103010003FD1C068A0423CD3221C291C301CFFF7C2
:103020009FFA002835D0221C291C3868FFF700F9C8
:1030300000282ED0F969C868A0420CD9061B886800
:103040000D1C311C0419201CFFF71CF9002820D08E
:10305000043551C525E0281CFEF73CFC002818D09B
:1030600002260674FC692568002C1AD016E0221D81
:1030700007CAFFF775FA00280BD0A068FEF72AFCF4
:10308000002806D00674221D07CAFFF7D1F80028D1
:1030900001D10020F8BD2C1C03D02568207C01281C
:1030A000E5D00120F6E70000A83F800070318200E3
:1030B00070B5051CFEF706FF041C0A4E0E2030708A
:1030C000221C291C701CFDF762E8601C0004000C27
:1030D000054A0A23411C91803354FDF7D3FAFEF7C9
:1030E000AFFB70BD10208200B089800044554D4D6B
:1030F00059000000546F74616C206279746573200C
:10310000726563642062792041524D5052472030ED
:10311000780041524D5052472073697A65206D7393
:1031200067206F76657272756E00303132333435D8
:10313000363738394142434445460051434F4D20CC
:103140006661737420646F776E6C6F616420707257
:103150006F746F636F6C20686F73740051434F4DD1
:10316000206661737420646F776E6C6F6164207089
:10317000726F746F636F6C2074617267000000007F
:103180004552523A2057696E646F77206F766572A8
:1031900072756E2064657465637465642E2E2E00EE
:1031A000496E76616C696420436F6D6D616E640079
:1031B000556E7265636F676E697A656420666C61CF
:1031C000736820646576696365000000496E766106
:1031D0006C6964206D61676963206E756D626572EC
:1031E0002F70726F746F636F6C2076657273696F86
:1031F0006E000000506172616D65746572205265E9
:103200007175657374205061636B6574204C656ED5
:10321000677468204572726F72000000496E7661B3
:103220006C6964207061636B6574206C656E677493
:10323000680000005061636B657420746F6F206CD0
:1032400061726765000000005265616420756E73ED
:1032500075636365737366756C00000043616E6E21
:103260006F74207265736574206265666F72652085
:10327000636C6F736500000053696D706C65207737
:1032800072697465206E6F7420616C6C6F77656411
:103290000000000043616E6E6F7420777269746580
:1032A000206265666F7265206F70656E00000000B9
:1032B000426F6F74206C6F61646572206164647228
:1032C00065737320696E76616C6964005772697406
:1032D0006520756E7375636365737366756C000046
:1032E00043616E6E6F7420706F77657220646F77C4
:1032F0006E206265666F726520636C6F7365000097
:10330000416C7265616479206F70656E65642069D7
:103310006E20646966666572656E74206D6F6465A3
:1033200000000000416C7265616479206F70656E09
:1033300065642C2069676E6F72696E67206F7065B7
:103340006E20696E2073616D65206D6F646500008D
:10335000496E76616C6964204F70656E204D6F64B4
:10336000650000004F70656E206661696C656400E1
:1033700043616E6E6F7420636C6F73652077686550
:103380006E206E6F742070726576696F75736C79DC
:10339000206F70656E656400436C6F7365206661B5
:1033A000696C65640000000045726173652072639A
:1033B0007664207768696C65206D6F646520697339
:1033C000206F70656E6564005061726D207265716A
:1033D00020636D64206E6F7420796574207263764B
:1033E00064000000457261736520466C617368205B
:1033F0006661696C656400004552523A204352434D
:1034000020696E76616C69640000000044554D4D82
:10341000590000555603590C0F5A5A0F0C590356B0
:103420005500653033663C696A3F3F6A693C6633E4
:103430003065663330653F6A693C3C696A3F653098
:103440003366035655005A0F0C59590C0F5A005544
:103450005603693C3F6A30656633336665306A3FC0
:103460003C690C595A0F55000356560300550F5A24
:10347000590C0F5A590C56030055550003560C5958
:103480005A0F6A3F3C693366653030656633693C84
:103490003F6A6A3F3C693366653030656633693C34
:1034A0003F6A0F5A590C56030055550003560C59E4
:1034B0005A0F0C595A0F55000356560300550F5A10
:1034C000590C693C3F6A30656633336665306A3F44
:1034D0003C69035655005A0F0C59590C0F5A0055A8
:1034E0005603663330653F6A693C3C696A3F653024
:1034F0003366653033663C696A3F3F6A693C6633D0
:10350000306500555603590C0F5A5A0F0C59035683
:1035100055000000D50F800029128000D10F8000D7
:10352000990E8000A10E8000C5128000E11380007A
:10353000A925800051268000C114800075108000EC
:103540000000000055138000791180000000000089
:10355000000000000000000000000000000000006B
:1035600055128000E90D8000710F8000D913800092
:10357000B8358000001000002000000000020000AC
:10358000100200009800000076000000010000001A
:1035900000000000CA358000000800002000000084
:1035A00000020000100200009800000075000000FA
:1035B0000200000000000000746F73686962615FC0
:1035C00074633538353132667400746F73686962BC
:1035D000615F746364616D3832663100D50F8000BD
:1035E00029128000D10F8000990E8000A10E80006A
:1035F000C5128000E1138000E9228000A52380002D
:10360000C114800075108000000000005513800078
:1036100079118000000000000000000000000000A0
:10362000000000000000000055128000E90D80003D
:10363000710F8000D913800034378000000400002F
:10364000200000000002000010020000EC0000005A
:10365000730000000100000000000000343780000B
:103660000004000020000000000200001002000022
:10367000EC0000003300000001000000000000002A
:103680004437800000080000200000000002000015
:1036900010020000EC0000003500000001000000F6
:1036A00000000000543780000010000020000000DF
:1036B0000002000010020000EC0000007600000094
:1036C00001000000000000005437800000100000DE
:1036D000200000000002000010020000EC000000CA
:1036E0003600000001000000000000006437800088
:1036F0000020000020000000000200001002000076
:10370000EC00000079000000010000000000000053
:10371000733780000010000020000000000200004D
:1037200010020000EC000000460000000200000053
:103730000000000073616D73756E675F6B396632F0
:103740003830380073616D73756E675F6B3966353D
:103750003630380073616D73756E675F6B39663133
:103760003230380073616D73756E675F6B39316726
:1037700030380073616D73756E675F6B396B313212
:10378000313600000000891112239B322446AD57C8
:103790003665BF74488CC19D5AAFD3BE6CCAE5DB99
:1037A0007EE9F7F88110080193331A22A5562C47B9
:1037B000B7753E64C99C408DDBBF52AEEDDA64CB79
:1037C000FFF976E802218B30100299132667AF7655
:1037D0003444BD554AADC3BC588ED19F6EEBE7FA59
:1037E0007CC8F5D983310A2091121803A7772E6679
:1037F000B5543C45CBBD42ACD99E508FEFFB66EA39
:10380000FDD874C904428D5316619F702004A91518
:103810003227BB364CCEC5DF5EEDD7FC6888E19918
:103820007AABF3BA85520C4397711E60A114280538
:10383000B3373A26CDDE44CFDFFD56ECE9986089F8
:10384000FBBB72AA06638F7214409D512225AB34D4
:103850003006B9174EEFC7FE5CCCD5DD6AA9E3B8D8
:10386000788AF19B87730E6295501C41A3352A24F8
:10387000B1163807CFFF46EEDDDC54CDEBB962A8B8
:10388000F99A708B088481951AA793B62CC2A5D398
:103890003EE1B7F04008C919522BDB3A644EED5FA8
:1038A000766DFF7C899400859BB712A6ADD224C3A8
:1038B000BFF136E0C1184809D33B5A2AE55E6C4F88
:1038C000F77D7E6C0AA583B4188691972EE3A7F244
:1038D0003CC0B5D14229CB38500AD91B666FEF7E68
:1038E000744CFD5D8BB502A499961087AFF326E268
:1038F000BDD034C1C3394A28D11A580BE77F6E6E48
:10390000F55C7C4D0CC685D71EE597F42880A19107
:103910003AA3B3B2444ACD5B5669DF78600CE91D27
:10392000722FFB3E8DD604C79FF516E4A990208127
:10393000BBB332A2C55A4C4BD7795E68E11C680D07
:10394000F33F7A2E0EE787F61CC495D52AA1A3B0C3
:103950003882B193466BCF7A5448DD59622DEB3CE7
:10396000700EF91F8FF706E69DD414C5ABB122A0E7
:10397000B9923083C77B4E6AD5585C49E33D6A2CC7
:10398000F11E780F00000000C7B9302049CA51204D
:103990008E736100552D93209294A3001CE7C20002
:1039A000DB5EF2206DE31621AA5A26012429470185
:1039B000E390772138CE8501FF77B5217104D421BA
:1039C000B6BDE4011D7F1D22DAC62D0254B54C029E
:1039D000930C7C2248528E028FEBBE220198DF228C
:1039E000C621EF02709C0B03B7253B2339565A239F
:1039F000FEEF6A0325B19823E208A8036C7BC90394
:103A0000ABC2F923FD470A243AFE3A04B48D5B04A5
:103A100073346B24A86A99046FD3A924E1A0C82445
:103A20002619F80490A41C05571D2C25D96E4D2588
:103A30001ED77D05C5898F250230BF058C43DE0565
:103A40004BFAEE25E038170627812726A9F24626ED
:103A50006E4B7606B515842672ACB406FCDFD5062F
:103A60003B66E5268DDB01274A623107C41150070A
:103A700003A86027D8F692071F4FA227913CC327BF
:103A80005685F3073D362428FA8F140874FC750810
:103A9000B3454528681BB708AFA2872821D1E6287F
:103AA000E668D60850D53209976C0229191F632998
:103AB000DEA6530905F8A129C24191094C32F0094B
:103AC0008B8BC0292049390AE7F0092A6983682AC3
:103AD000AE3A580A7564AA2AB2DD9A0A3CAEFB0ACD
:103AE000FB17CB2A4DAA2F2B8A131F0B04607E0BCA
:103AF000C3D94E2B1887BC0BDF3E8C2B514DED2BC1
:103B000096F4DD0BC0712E0C07C81E2C89BB7F2CD0
:103B10004E024F0C955CBD2C52E58D0CDC96EC0CE6
:103B20001B2FDC2CAD92382D6A2B080DE458690D43
:103B300023E1592DF8BFAB0D3F069B2DB175FA2D32
:103B400076CCCA0DDD0E332E1AB7030E94C4620E66
:103B5000537D522E8823A00E4F9A902EC1E9F12E4C
:103B60000650C10EB0ED250F7754152FF927742F8D
:103B70003E9E440FE5C0B62F2279860FAC0AE70FB0
:103B80006BB3D72FBDD578307A6C4810F41F29104D
:103B900033A61930E8F8EB102F41DB30A132BA30F0
:103BA000668B8A10D0366E11178F5E3199FC3F31CB
:103BB0005E450F11851BFD3142A2CD11CCD1AC1158
:103BC0000B689C31A0AA651267135532E960343244
:103BD0002ED90412F587F632323EC612BC4DA7121A
:103BE0007BF49732CD4973330AF043138483221355
:103BF000433A12339864E0135FDDD033D1AEB13372
:103C00001617811340927214872B423409582334BB
:103C1000CEE1131415BFE134D206D1145C75B01493
:103C20009BCC80342D716435EAC8541564BB3515BE
:103C3000A3020535785CF715BFE5C7353196A63583
:103C4000F62F96155DED6F369A545F1614273E16C3
:103C5000D39E0E3608C0FC16CF79CC36410AAD365D
:103C600086B39D16300E7917F7B7493779C42837D0
:103C7000BE7D18176523EA37A29ADA172CE9BB171D
:103C8000EB508B3780E35C18475A6C38C9290D38E4
:103C90000E903D18D5CECF381277FF189C049E1891
:103CA0005BBDAE38ED004A392AB97A19A4CA1B198E
:103CB00063732B39B82DD9197F94E939F1E7883925
:103CC000365EB8199D9C413A5A25711AD456101A7D
:103CD00013EF203AC8B1D21A0F08E23A817B833A37
:103CE00046C2B31AF07F571B37C6673BB9B5063BD0
:103CF0007E0C361BA552C43B62EBF41BEC98951B63
:103D00002B21A53B7DA4563CBA1D661C346E071CB6
:103D1000F3D7373C2889C51CEF30F53C6143943C10
:103D2000A6FAA41C1047401DD7FE703D598D113DC9
:103D30009E34211D456AD33D82D3E31D0CA0821D14
:103D4000CB19B23D60DB4B1EA7627B3E29111A3EA8
:103D5000EEA82A1E35F6D83EF24FE81E7C3C891E9E
:103D6000BB85B93E0D385D3FCA816D1F44F20C1F03
:103D7000834B3C3F5815CE1F9FACFE3F11DF9F3F4A
:103D8000D666AF1F00220080342200800C22008003
:103D900004220080382200801022008008000048A1
:103DA00040000048000000480C0000484400004863
:103DB00004000048082200803C2200801422008079
:103DC000000000005000004800000000000000302B
:103DD000000000300000003020205155414C434F7E
:103DE0004D4D2041524D505247204964656E7469D3
:103DF0006669636174696F6E20426C6F636B00204B
:103E0000202020436F6D70696C65642041707220C2
:103E1000303420323030362031353A33333A30378F
:103E2000002020202056657273696F6E203D3D2072
:103E300030372E30302E3030424554415F5F3032C3
:103E400000202020204E505247363530302E484535
:103E50005820666F72204D534D36353030204F4E0E
:103E60004C59202D205541525420616E64205553E9
:103E7000420020202020436F7079726967687420A7
:103E80002863292032303036206279205155414C48
:103E9000434F4D4D2C20496E636F72706F72617489
:103EA00065642E20416C6C205269676874732052DF
:103EB000657365727665642E002020456E64206F00
:103EC0006620494420426C6F636B000001000000D3
:103ED000F430800012318000E5198000DD1A800086
:103EE000F91B8000DD1A8000811C8000DD1A800033
:103EF000951C8000DD1A8000411D8000DD1A8000C5
:103F0000A51B8000DD1A8000DD1A8000DD1A80000C
:103F1000DD1A8000DD1A80005D1B8000DD1A800044
:103F2000F11A8000DD1A800041198000DD1A80003E
:103F3000DD1A8000DD1A8000DD1A8000DD1A8000A5
:103F4000DD1A8000DD1A80008D198000DD1A8000E6
:103F50000200000099268000F9238000F5278000E8
:103F6000A9278000D9278000890880001D288000AB
:103F700000C201000000080000000000612B80006A
:103F80003D288000A9298000D9088000692C800084
:103F9000D83D8000FF3D8000213E8000413E8000F2
:083FA000723E8000B93E800072
:040000030080000079
:00000001FF
