:0200000400807A
:10000000F4109FE5F0209FE5EC309FE5E8409FE588
:10001000E4509FE5E0609FE5DC709FE5D8809FE5B8
:10002000D4909FE5D0B09FE5CCC09FE5C8D09FE5B8
:10003000C4E09FE500000FE1801080E301F021E1C2
:10004000D7F021E3B4D09FE5DBF021E3B0D09FE50A
:10005000D2F021E3ACD09FE5D3F021E3A8D09FE517
:10006000A8009FE5010010E3A4E09F15A4E09F0510
:1000700010FF2FE1784700009C009FE5010010E38E
:1000800098E09F1598E09F0510FF2FE1784700004A
:1000900090009FE5100F01EE100F11EE400D80E370
:1000A000100F01EE80009FE510FF2FE1DEEEDEEE87
:1000B000784700000220A0E3101E10EE021001E0BD
:1000C000000051E3FBFFFF1A100E01EE1EFF2FE1AF
:1000D000784700000120A0E3101E10EE021001E09E
:1000E000000051E3FBFFFF0A100E11EE1EFF2FE18F
:1000F000784700000070A0E117FF2FE1EFBEADDEF2
:1001000090B0800090B1800090AF800090A78000F8
:10011000DD0580007500800078008000352D8000AE
:100120008D00800090008000780005000D2C80007C
:1001300010B4042A0ED3031C0B439B070AD108C832
:1001400010C9A34202D1043A042AF8D2A34201D032
:1001500004380439002A02D1002010BC7047D307AC
:1001600001D5013205E003780C7801310130A3425A
:1001700007D103780C7801310130A34201D1023A52
:10018000F1D1181BE9E70000784700000020A0E348
:1001900000402DE90230A0E102C0A0E102E0A0E1B0
:1001A000201051E20C50A0280C50A0282010512201
:1001B000FBFFFF2A011EB0E10C50A0280C00A04854
:1001C0000040BDE80111B0E1042080241EFF2F0192
:1001D0000120C0440120C044400411E30120C014A8
:1001E0001EFF2FE178470000030052E33E00009A13
:1001F00003C010E20800000A0130D1E402005CE311
:100200000C2082E001C0D1940130C0E40130D1342F
:10021000042042E201C0C0940130C034033011E236
:100220001E00000A042052E22F00003A03C031E70A
:10023000020053E30800000A0F00008A2C34A0E1FA
:1002400004C0B1E5042052E20C3C83E1043080E4B8
:10025000F9FFFF2A011081E2230000EA2C38A0E117
:1002600004C0B1E5042052E20C3883E1043080E49C
:10027000F9FFFF2A021081E21B0000EA2C3CA0E1FA
:1002800004C0B1E5042052E20C3483E1043080E480
:10029000F9FFFF2A031081E2130000EA784700000B
:1002A00010402DE9202052E20500003A1850B128F4
:1002B0001850A0281850B1281850A02820205222E9
:1002C000F9FFFF2A02CEB0E11850B1281850A0283B
:1002D0001800B1481800A0481040BDE802CFB0E1B6
:1002E00004309124043080241EFF2F01822FB0E1BE
:1002F0000120D1440130D12401C0D1240120C044C7
:100300000130C02401C0C0241EFF2FE17847000047
:10031000FF3001E20210A0E1032483E1022882E120
:10032000150000EA031C0B439B0770B40FD1104C5F
:10033000E60102E004300431043A042A07D30368DA
:100340000D68AB4203D11D1B9D433540F2D0002AFE
:1003500002D1002070BC704703780C780131013065
:10036000012B03D3A34201D1013AF5D1181BF1E7C8
:1003700001010101784700000020A0E3040051E3DF
:100380000800003A03C010E280FFFF0A04C06CE2DC
:1003900002005CE30120C0E40120C0A40120C0C42D
:1003A0000C1041E079FFFFEA81CFB0E10120C024C9
:1003B0000120C0240120C0441EFF2FE110B5264CAF
:1003C000FF20E1690130432926D012DC202939D0F1
:1003D00006DC012932D00A293CD100F05FFF39E068
:1003E000402928D0412914D0422933D101F002FB01
:1003F00030E044390B292DD201A35B5C5B009F44A4
:100400000E112929240529291417270001F0D2F8F3
:1004100020E001F041FA1DE001F0A0FA1AE001F03D
:1004200009F917E000F0D2FF14E001F023F811E021
:1004300001F070F80EE001F04FF90BE0074801F011
:100440003BFF07E000F0D6FE04E001F0F3FF01E01F
:1004500000F028FDE06110BD1C6D8200A8538200F1
:10046000F7B55C480E1C0068151CC06884B0804756
:10047000594B9969002963D0DC69002C0AD10868BE
:100480009861D961002008601962049A4A608E6000
:10049000CD6099E01F1C206802E00268041C101C5B
:1004A000002814D08268B242F7D38268B24248D1A1
:1004B000027C012A44D0C268AA4241D3AA4233D165
:1004C000049A42608660C5600122027480E0A068E0
:1004D000E2688018B04206D108683B1CB861216010
:1004E00000240C606BE00290301A0190011C02980D
:1004F00004F0DAF8002823D0BA693B1C11680F68B1
:100500009F612260116000240C605060029890602E
:100510000198D0601474586A049A01304A608E6061
:10052000CD6001220A7451E00A683B1CBA61216067
:100530000860C268521BC2608268521982603EE045
:100540002AE0227C012A27D0A2680392E3689E4613
:10055000D21873199C469A4229D90F681E4B3A68E3
:100560009A61039A7346B21AE26052199A1AFA60B3
:1005700021600F6038600498174B48608E60CD6032
:1005800001200874586A013058626046B860F96802
:1005900004F08AF8002802D1002007B0F0BD78608E
:1005A00000200D493874486A0130486210E00A683A
:1005B0003B1CBA6121600860E068401BE060049861
:1005C00048608E60CD6001200874586A013058621E
:1005D0000120E2E78C678000406D820070470000D8
:1005E000F7B515480C1C0068161CC0688047134FEF
:1005F000F86900280ED1B96A0123651A2A1C03F094
:10060000D9FF002806D03868B96A2A1CFFF728FFEE
:1006100000280DD00023321C211C009803F0CAFFD3
:10062000002805D0321C211CFFF71AFF002801D139
:100630000020FEBD0120FCE78C678000406D820039
:100640004B20C00070470000B0B5084D064C281C78
:10065000E18800F04DF8E1886854000A6A1850708B
:10066000881CE080B0BD000090B18000F44782009B
:10067000F8B505241A4BE4011B191B6B1C1C5443D1
:100680004B4325181E181749012048600020486078
:10069000531C07D0124C8034E068291C426B9047F1
:1006A000012801D10120F8BDE0680F4F036B3A1C0F
:1006B000291C984700280D4D01D00B2007E0E06869
:1006C0003A1C436A311C9847002803D00A20A861CD
:1006D0000020E8E703490120486000204860E1E786
:1006E000D850820000340080785682001C6D820051
:1006F00030B50C4D0A4A07E0037853401B06DB0D6A
:10070000EB5A120A5A4001304B1E1B041B0C0C1CE6
:10071000191C002CF0D1D0430004000C30BD0000A7
:10072000FFFF0000745F800030B5D2431204120C4A
:100730000A4D07E0037853401B06DB0DEB5A120A03
:100740005A4001304B1E1B041B0C0C1C191C002CA6
:10075000F0D1D0430004000C30BD0000745F800075
:1007600070B50E4801264660002545600C4C0220FD
:1007700060602560A060E56025616561206A0570A4
:100780000A20E061FFF71AFE044846604560E06910
:10079000002801D0072070BD002070BD003400800B
:1007A0001C6D8200F8B5171C1F4A012555600026F4
:1007B00056601E4C26606660A660E6602661206278
:1007C000A16166614E20E061FFF7F8FD18480068FE
:1007D000416988473860E1691648002920D0A1693D
:1007E000242919D008DC062916D015DD0B2913D0D1
:1007F000222911D1032110E02C290DD004DC252958
:1008000008D0262908D105E0332903D0342903D1A3
:10081000057003E0022100E0042101700720F8BD0B
:1008200006700020FBE70000003400801C6D820091
:100830003450820095B1800070B50E1C051C141C4C
:100840002B49012048600020486004F015F8294930
:100850000020086048608860C86008614861081C22
:10086000056201214902022003220A2E224D3AD2BA
:1008700001A39B5D5B009F44360A0E12161F3604CF
:100880002B27002C01D0287010E0492023E0002CF9
:10089000F9D141201FE0002CF5D142201BE0002CB3
:1008A000F1D1432017E0002C02D12A70072070BD3F
:1008B0008C4205D844200EE0002CF6D08C4201D9A1
:1008C0000120E0E7452006E0002CDCD14C2002E0CE
:1008D000002CD8D14D200749C861FFF76FFD0548AE
:1008E000C069002801D00420CDE7002070BD0000C1
:1008F000003400801C6D820094B18000B0B5154AB0
:1009000001255560134B00225A60134C226062602F
:10091000A260E26022612062A16162614020E06128
:10092000FFF74CFDE069002811D0A0690B490928A8
:1009300007D0232803D0282805D1022004E00D7019
:1009400003E0032000E0042008700720B0BD002071
:10095000B0BD0000003400801C6D820093B18000A7
:1009600070B50025002304E0CE5C2C1C013501335A
:1009700006559342F8DB002070BD00000D4A10B50B
:1009800001215160002151600B4C21606160A16028
:10099000E16021616161226A1170A0614820E0611B
:1009A000FFF70CFDE069002801D0072010BD0020F2
:1009B00010BD0000003400801C6D820080B504F082
:1009C000C3F8002801D1072080BD002080BD0000B1
:1009D000F8B5002412480126466000274760114DF3
:1009E000E9680906090E14E068690006000E490668
:1009F000490F06D03020A8611020A861A861AE611F
:100A000001E002F0DBF9E86801060548090E4660DE
:100A10004760201C0134802801DAC807E4D4F8BDFF
:100A200000340080000C0084F8B54B48012343607B
:100A300000214160494A526AD20771D50226CB2271
:100A4000D205566043604160454881684A0704D535
:100A500004210160052181608168090760D5016B6F
:100A6000446B0C40046308218160A00701D504F0A9
:100A7000DBFCE00706D501220121002004F0BCFBCD
:100A800004F088FA374DD12000012818857B071C17
:100A900068008640311C334E201C08400C3E002864
:100AA0001BD00121281C04F01BFCC068C002C00A36
:100AB000002810DC0121281C04F056FB0121281C11
:100AC00004F076FB00220121281C04F095FB012193
:100AD000281C04F037FB00203070F87B0121214DE9
:100AE000420091400C4001D0B1687160317800291A
:100AF00016D17168371C002912D0002104F0F0FBD8
:100B0000C0680922D201101A0604101C1549683861
:100B10000818B968360C884203D11348281800E039
:100B200018E0011CB860042004F0AEFC002E11D0C7
:100B30000D20000200242D1807E0688B411C6983FA
:100B40007968085C02F03AF90134B442F5DB002020
:100B500068837860F8BD00000034008040000065C4
:100B600040008065FC38870098080000F8B5052132
:100B7000C901051C4018C66A1448012747600021B6
:100B80004160002419E0114847600021416010488D
:100B90000068C0688047211CEA69281C9047831CB4
:100BA0000AD0211CAA6A281C9047002804D00949B1
:100BB000092088610020F8BD0134B442E3DB03481A
:100BC0004760002141600120F5E70000003400800B
:100BD0008C6780001C6D8200F8B5344901204860A4
:100BE0000027081C4760324EF06803F081FE31494F
:100BF000304C48609434E068311C826AC968904780
:100C0000002801D0092034E028480125456000274C
:100C10004760022703E0042F08D0072F06D0F168B1
:100C20003269381CFFF724FD012832D10137082F23
:100C3000F1DB20480521C901143040180090006BF9
:100C4000F1681D4A4843011DE068436A984700283F
:100C50000ED116484560002747600098F168006B88
:100C60004843411CE068436A72689847002803D0F3
:100C70000A20124988610CE00C4C6560676001F045
:100C8000E9FF002805D06560676004F0EFF80128EF
:100C900001D00020F8BD656067603069F168F060E0
:100CA0003161656067600120F4E700000034008076
:100CB00028678000C4508200786882001C6D820022
:100CC000F8B54449012048600025081C4560424CA5
:100CD0004249E068826AC96890470028404F01D0C5
:100CE00009204EE03B480126466000214160042572
:100CF0003A48C1680269281CFFF7BAFC012841D1B3
:100D00000135082DF4DB34480521C9018038451828
:100D10003249286BC9681022484333490230009099
:100D200030480160314941602B4986609439096837
:100D30000C30FFF75AEAE0682A4A436A009998475C
:100D400000281DD123484660002141602349286BBB
:100D5000C968274A4843C11CE068436A984700288D
:100D60000ED11C484660002141601C4A286BD168A6
:100D70004843411CE068436A52689847002802D003
:100D80000A20B86107E0134C66600025656001F039
:100D900061FF002801D10020F8BD0E4C6660201CC8
:100DA0004560144F0C4C1022391C943C2068FFF70E
:100DB000B9FA002803D10F480C30206000E027600A
:100DC000064A1069D168D0600248116146604560EA
:100DD0000120E1E70034008058518200286780003C
:100DE0001C6D8200785682009C120FFAC9B68F5A89
:100DF00078668200105C800010B50024E443011C7A
:100E0000044800F087FFA04203D103490320886112
:100E1000201C10BDA85382001C6D8200B0B51C4D73
:100E2000041CE868016988471A4909694843411C5C
:100E3000E868194D036B2A1C9847002805D017490C
:100E40000B2088610020C043B0BD1022A118A81853
:100E5000FFF768FA002817D1286A216A884213D15F
:100E6000686A616A88420FD11022201C2C300C491C
:100E7000FFF758FA002807D1E96BE06B814203D1F4
:100E8000296C226C914201D00020B0BD8018B0BD09
:100E90005851820028678000785E82001C6D8200B5
:100EA000305C8000F0B5464F002089B00025454AEF
:100EB000BC69079001215160111C48604248CE0D69
:100EC0008068002801D1242059E001F051FF012859
:100ED00056D13E4801F012FE012851D105223B4B6C
:100EE000D201211C9C18062939484AD201A35B5C17
:100EF0005B009F440208121A262C0068FFF77CFF53
:100F0000216B01390DE04068FFF776FF216B626BC2
:100F100089000439514308912DE08068FFF76CFF88
:100F2000216B626B5143089126E008A801F02EFB6B
:100F3000012825D1274801F02BFE012814D02520B7
:100F40001DE0254803250069616B089114E008A99C
:100F500007A800F007FA012812D1079801F018FE3F
:100F6000012801D026200AE0164A01215160002004
:100F70005060FFF741FF0125431C05D10320B861F4
:100F800010E00121B9610DE00E4A012151600021FC
:100F90005160011C0D48009502AB08AA00F01EF834
:100FA000002802D0301C09B0F0BD142202A9386A12
:100FB000FFF71AE9002001301428FCDB0020F2E7DB
:100FC0001C6D820000340080C4508200A85382004F
:100FD000046B8200285C800028678000FFB5051C38
:100FE000FFB0ACB00020A9900E1C0027012000909B
:100FF00001A802F011F80520C0012C18281C80302F
:10100000AA902B490120486000204860AA98311C12
:10101000C068C2699047831C3FD0B49D3AE0244920
:101020000120486000204860FF2128A8626BFFF77C
:1010300070E9206B70434019A8900098002810D0E8
:10104000AA98C068426BA8999047002807D0194910
:1010500033208861FF2001307FB030B0F0BD002028
:101060000090AA9828AAC068036BA8999847AD99E0
:101070000968B94201D9002804D00120AD99A9908E
:101080000F600AE028A901A8626B03F0B7F9606B52
:10109000C7190135206BA842C1DCA9980136012887
:1010A000AFD101A9AE9801F067FF0020D4E700009E
:1010B000003400801C6D8200044980B50220087055
:1010C00003490020086003F0D7FB80BD246780003F
:1010D00034508200024880B500680168884780BDAE
:1010E00034508200F8B50B4C002520680A4E0028C9
:1010F0000ED10021271D381C00F030FD002805D13D
:101100002760002F04D101203070F8BD2560FAE778
:101110003570FAE73450820024678000F8B5051C6A
:1011200000201A4F00903868C1688847041C38684E
:1011300001698847061C38684169884701E06410E6
:101140007600C82CFBDC46430098321C411C2C5412
:101150002004030E6B54130E9C4613021B0E9E4676
:101160001304481C00211E0E17063F0E0AE0421C05
:101170002F54AE54501C73462B54421C501C6346D3
:10118000AB540131A142F2DBF8BD000034508200C3
:10119000F8B5046A476A154E134D20E01449012042
:1011A0004860002048603068C0688047E868211CBB
:1011B000C2699047831C11D0E868211C826A90475D
:1011C000002808D0002C03D13068C068804705E0B3
:1011D000FF200130F8BD3068C06880470134BC4250
:1011E000DCDB0020F6E70000585182008C678000AD
:1011F0000034008080B5002000F002F880BD0000BF
:10120000F8B5041C204801214160002141601F4DB8
:10121000281C00F0A3FC1E49002806D1281CCD6024
:1012200006D11C490220886122E00020C860F8E74E
:101230000E1CC1688847071C174D20E01249012089
:101240004860002048602868C0688047F068211C1A
:10125000C2699047831C11D0F068211C826A9047B4
:10126000002808D0002C03D12868C068804705E01A
:10127000FF200130F8BD2868C06880470134BC42B7
:10128000DCDB0020F6E7000000340080786A820092
:10129000C45082001C6D82008C678000F8B52C4E13
:1012A000012070600020311C48602A4F0520C001D9
:1012B0003C182069CD0D002811D0616B081AFF225F
:1012C00006E021694B1CC919903123610A7001386D
:1012D0000028F6D1381C04F00FFA002832D0012083
:1012E00070601B49002048601B4E0B20194B317861
:1012F000800118182D270D29184A23D201A35B5C01
:101300005B009F441F1F06101F2121161B1F1F215A
:101310002100C068A16B884201DD976112E010498D
:101320000020086110E0C068A16B89008842F4DCED
:101330000AE0FFF7C5FC002806D103E0FFF74CFCEC
:10134000002801D1281CF8BD012030700020FAE7E8
:1013500000340080A8538200286780001C6D820042
:10136000C4508200F3B5041C134881B0006903F037
:10137000BFFA002801D10020FEBD124F0F481022F5
:10138000391C061C0E4DFEF7CDFF002807D00C3788
:10139000391C1022301CFEF7C5FF002805D127603C
:1013A0002869029908600120E6E7002020600649CC
:1013B00026208861DFE700002867800084608200C3
:1013C00078628200105C80001C6D8200F8B5224EAD
:1013D000012070600027301C47602048F40D8068B1
:1013E0001F4D002801D124201BE001F0C1FC012881
:1013F0002AD11C4801F0CCFB012801D0272010E0A5
:10140000154E01207060301C4760174E0021301CC3
:1014100000F080FC0521C90171188861431C02D1CC
:101420000320A86110E00C4E01207060776042023A
:101430000E48296AFEF7D8EE0D49082008700A48C0
:1014400003F02AF8002801D1201CF8BD01207060AB
:1014500077600020F9E7000000340080C45082006B
:101460001C6D8200505C8000A85382007868820066
:1014700028678000F8B5214E012070600027301CDD
:1014800047601F48F40D80681E4D002801D12420BC
:101490001FE001F06DFC012829D11B4801F078FB09
:1014A000012801D02E2014E0144E012070607760D6
:1014B000164E301CFFF75AFB012818D10021301CB2
:1014C00000F028FC0521C90171188861431C02D174
:1014D0000320A8610BE0094E0125756077600C4977
:1014E0000B200870094802F0D7FF002801D1201C0A
:1014F000F8BD756077600020FAE7000000340080D6
:10150000C45082001C6D8200485C8000A853820099
:1015100028678000F8B5214E012070600027301C3C
:1015200047601F48F40D80681E4D002801D124201B
:101530001FE001F01DFC012829D11B4801F028FB08
:10154000012801D02F2014E0144E01207060776034
:10155000164E301CFFF70AFB012818D10421301C5D
:1015600000F0D8FB0521C90171188861431C02D124
:101570000320A8610BE0094E0125756077600C49D6
:101580000C200870094802F087FF002801D1201CB8
:10159000F8BD756077600020FAE700000034008035
:1015A000C45082001C6D8200405C8000A853820001
:1015B00028678000F8B5194E012575600027301C9A
:1015C000476001F0D5FB2C02012821D1144D281CC5
:1015D00001F094FA01281BD11248076112480168F2
:1015E000281C00F097FB0521C90169188861431C7C
:1015F00003D10E49032088610AE0012575607760F8
:101600000B4902200870064802F046FF002801D16D
:10161000201CF8BD756077600020FAE70034008078
:10162000A8538200C4508200046B82001C6D8200AB
:1016300028678000F8B52249012048600027081C6F
:101640004760204ECC0DB0681F4D002801D12420EA
:101650001CE001F08DFB01282BD1306801F098FAD5
:10166000012801D0262011E0154E012070600027CE
:10167000301C4760154F0021381C00F04BFB052142
:10168000C90179188861431C02D10320A86110E0C8
:10169000012070600027776042020D48296AFEF73A
:1016A000A4ED0C4907200870084802F0F5FE002858
:1016B00001D1201CF8BD0120706077600020F9E79F
:1016C00000340080C45082001C6D8200A853820048
:1016D0007866820028678000F8B566490120486076
:1016E0000027081C47606448CD0DC069634E431C49
:1016F00001D12C2086E0614E6149346A206888421D
:1017000009D160496068884205D1A068012802D1EA
:10171000E068102801D928202BE05B4EF0680028F3
:1017200015D1594F0021803F381C00F017FA0028CE
:1017300001D1F76001E00020F060F068002801D1DD
:10174000022016E0381C01F0D9F9012849D1494995
:10175000012048600027081C47604B49C0208039A1
:101760000866F0684A49494A00F086FA431C02D1EB
:101770002220424E46E0414EB06901284ED13E49FA
:10178000C868431C15D1081C0069431C11D1FFF720
:1017900031FDFF38013834D03649012048604F60B0
:1017A00035494042C860086103F012F9002850D161
:1017B00017E0201CFFF732FB431C12D0002811D188
:1017C000FFF718FDFF3801381BD02A490120486077
:1017D0004F6029494042C860086103F0F9F80028C9
:1017E00037D134E0FFF70CFDFF38013809D021492B
:1017F000012048604F60201CFFF7CAFCFF38013809
:1018000002D10920B06122E000201B49C043C8601A
:10181000086103F0DDF800281BD118E01648C16804
:101820004B1C0BD10069431C08D1124901204860B0
:101830004F6003F0CDF800280BD108E00D490120DE
:1018400048604F60201C03F0FBF8002801D1281CE1
:10185000F8BD084E012575607760FF22D132211C4A
:101860000C48FEF71EED0848943885607560776077
:101870000020EDE700340080286780001C6D8200A6
:10188000AA73EE55DBBD5EE35851820038678000D5
:1018900034678000785C8200F8B500252A4B01216E
:1018A00059600024181C446001F062FAFF270137D8
:1018B000012842D1254E301C01F020F901283CD1ED
:1018C00023484168301C00F025FA0521C901711830
:1018D0008861431C01D1032016E01B4B0121596094
:1018E000221C5C60194E041C8036F068211CC26901
:1018F0009047831C01D1013410E0F068211C826AFA
:101900009047002803D009201249886115E001346E
:1019100001350D480121416000224260042DE4DBC5
:10192000094D01246C6000266E600B49032008708D
:10193000064802F0B1FD002801D1381CF8BD6C60EA
:101940006E600020FAE7000000340080A853820097
:10195000046B82001C6D820028678000F8B51F4E62
:10196000012070600027301C47601D48F40D80681E
:101970001C4D002801D124201BE001F0F9F90128B9
:1019800025D1194801F004F9012801D0252010E0E3
:10199000124E01207060301C4760144E0021301C34
:1019A00000F0B8F90521C90171188861431C02D102
:1019B0000320A8610BE0094E0125756077600C4992
:1019C00006200870094802F067FD002801D1201C9C
:1019D000F8BD756077600020FAE7000000340080F1
:1019E000C45082001C6D8200285C8000A8538200D5
:1019F00028678000F8B5184E012575600027301C57
:101A0000476001F0B5F92C0201281FD1134D281CA5
:101A100001F074F8012819D111488168281C00F0E0
:101A200079F90521C90169188861431C03D10D4961
:101A3000032088610AE00125756077600A49052066
:101A40000870064802F028FD002801D1201CF8BDCE
:101A5000756077600020FAE700340080A8538200A8
:101A6000046B82001C6D8200286780000020C04348
:101A700070470000016EC06D081A7047C06E704755
:101A8000F8B50E1C0169041C0025ED438847216E42
:101A9000E26D891A4143B14201D8281CF8BD1E4AA3
:101AA000012111601D4A13688B43194311600A1C00
:101AB0001B49CA611B4A00275771E26D42439019C6
:101AC00044024C6000F030F8154E0320306000F006
:101AD0002BFB00F029F80620306000F0C3FA053433
:101AE000746000F021F80220306000F0BBFAB068AA
:101AF0008821084006D1306A0006000EFF2181438C
:101B000000D00025054A1068400840001060F061D0
:101B1000014A1760C1E70000E8348700E434870019
:101B2000000300640002006406480621C1604068AA
:101B30004007800F05D000220349012048604A6019
:101B4000FCE7704740020084003400800020C0435E
:101B500070470000C06F7047406E7047F3B581B0AA
:101B6000022100912049051C00240120086000F09A
:101B7000A9F9FFF7D9FF1D4E002030601C49086805
:101B8000F061400840000860F061FFF7CDFF0720DA
:101B9000306000F08DFAFFF7C7FF0520306000F0DD
:101BA00061FAFFF7C1FF0620306000F05BFAB06811
:101BB00041000F0E4002060E0B49002008600D493F
:101BC000A0000B58391C321C281C9847002803D150
:101BD00002998035A960FEBD009801348442EEDB95
:101BE0000020C043F7E70000E834870000030064EA
:101BF000E43487004C678000F8B50E1C016EC26D9E
:101C0000051C0124891AB14202D80020C043F8BD46
:101C10000169884703E0013424044010240C0228A1
:101C2000F9D1134F01203860E86D80190934A040C4
:101C3000104C6060FFF778FF0420206000F074FA19
:101C4000FFF772FF0620206000F00CFAA0688821E0
:101C500008400025002801D03D60D6E7FFF764FF6B
:101C60000720206000F024FA00203D60CFE700004C
:101C7000E834870000030064F7B50D1C0024161C2F
:101C800086B00494002703AA211C069800F06EF881
:101C9000012807D101900594C02C11DD0020C0431C
:101CA000306020E00134C02CF8DCECE702AA211CF3
:101CB000069800F05BF8012802D10127049402E0A5
:101CC0000134C02CF2DD01983843E7D00198002898
:101CD00003D0002F09D1059C02E0002F05D0049C01
:101CE0000020C0433460286011E0039802998842C4
:101CF00003D10020C04309B0F0BD884203D9059C40
:101D00003460049C02E0049C3460059C2C6000203C
:101D1000F1E70000FEB5061C002002900F1C002415
:101D2000E543F168301C88470190874218DC0CE0DD
:101D3000211CF269301C9047831C05D00135BD423F
:101D400002D10120029000E001340198844204DABB
:101D50000298002801D1BD42EADB0198844202DBEF
:101D60000020C043FEBD201CFCE70000F7B5C2699F
:101D7000041C0D1C9047831C36D02169201C884709
:101D80004543626B6E1C291C201C904700282BD1F8
:101D9000194F291C236B3A1C201C9847002823D17B
:101DA0001649386888421FD11549786888421BD186
:101DB000B868012818D1311C626B201C904700289C
:101DC00012D1104D311C236B2A1C201C984700286F
:101DD0000AD10D492868884206D10C4968688842B2
:101DE00002D1A868012801D00020FEBDF868029940
:101DF00008600120F9E70000F0368700AC9F56FE2E
:101E00007A127FCDF0348700AA73EE55DBBD5EE316
:101E1000F3B50169041C012781B08847061CA1693C
:101E2000201C8847051C206EE16D029A401A704301
:101E3000904201D80020FEBD1E4801221E490260CA
:101E400008689043104308601C49C861E06D029A1D
:101E50007043801840024860FFF766FE174C01226D
:101E6000226000F0FFF8A0688821084000210028C7
:101E700001D0002713E00020192292060DE08318FC
:101E80001E68731C08D00C4A10684008400010609F
:101E9000E06108480160CDE70430A842EFDB064A64
:101EA0001068400840001060E06102480160381C82
:101EB000C1E70000E8348700E434870000030064D1
:101EC000806F704780B5FEF7BBFB0221044A0843D0
:101ED0001168044B1940044B0143D961106080BD67
:101EE000E4348700A2F8FFFF00030064F3B5FFB0FD
:101EF00084B0C56D066E041C102020660020E065CD
:101F0000201C81AA82A9FFF7B7FE0027FF43B84231
:101F10003ED08198B8423BD080902169201C8847F0
:101F2000809A236B50436A46011C201C9847002866
:101F300007D119490098884203D11849019888426D
:101F400001D0381C00E00398431C21D02169201CDB
:101F500088478199236B4843114A411C201C9847AC
:101F6000002815D10E490F4A0868904210D10E4A38
:101F7000486890420CD18868012809D1201C849AB5
:101F800000F052F8012803D100207FB006B0F0BD68
:101F9000E5652666381CF8E7AC9F56FE7A127FCDC1
:101FA000F0348700AA73EE55DBBD5EE3006F704727
:101FB000F7B5041C0D1C01698847E16D226E521AA9
:101FC0004243AA4202D80020C043FEBD414301273C
:101FD0000F4E48190F4D400237606860FFF7A4FDAF
:101FE0002F6000F03FF8A8680B4900250840002842
:101FF00001D03560E7E76169201C8847021C192180
:1020000089060298FEF7F0E800203560DDE7000061
:10201000E83487000003006448000080803041609D
:1020200070470000406F704770B5041CE56D081CD8
:10203000111C266E00F0E4F800280ED00169E1655D
:1020400041694B1C01D1A06E01E000694018206677
:10205000A16E884201D8012070BDE565266600208A
:1020600070BD000030B503246407002001210D4A33
:102070000D4B01E0013061625568AD0701D4984213
:10208000F8D30224D460526895070024002D074A33
:1020900002DA51605460FCE7984202D1516054600A
:1020A000FCE730BD40020084581B00000034008073
:1020B00070B503235B0700220121174E174801E08A
:1020C0000132596244686407A40F032C01D0B24264
:1020D000F6D306230025B242114C0FD14268920577
:1020E000920D1A4010D0022A04D0042A0CD0062ADD
:1020F00004D009E00B4E726801327260C360406820
:102100004007800F06D002E061606560FCE7616017
:102110006560FCE770BD0000581B000040020084B1
:1021200000340080E834870030B5032464070020C1
:1021300001210F4A0F4B01E00130616255686D07C4
:10214000AD0F032D01D09842F6D30624D460526817
:102150005207950F0024002D074A02D051605460A9
:10216000FCE7984202D351605460FCE730BD0000A8
:1021700040020084581B000000340080F7B5041CA6
:102180000E1C01698847051C206EE16D411A6943E8
:10219000B14202D80020C043FEBD174F0120386075
:1021A0006169201C8847021C192080060299FEF7ED
:1021B0001CE8E06D114C6843801940026060FFF735
:1021C000B3FC03202060FFF7AFFFFFF7ADFC062054
:1021D0002060FFF747FFA0688821084000250028FD
:1021E00001D03D60D6E7FFF79FFC07202060FFF796
:1021F0005FFF00203D60CFE7E83487000003006404
:10220000F3B5061C002481B0C7680CE01C206043B5
:10221000029985191035281C00F00AF8002801D011
:10222000281CFEBD0134BC42F0DB0020F9E70000B1
:1022300080B51022FEF776F8002801D1012080BD7C
:10224000002080BDF3B5051C006881B002990968C3
:10225000884229D1686802994968884224D1A868CF
:102260000299896888421FD1E8680299C968884242
:102270001AD100241BE01C2060430299471946181C
:10228000311C1031381C1030FFF7D2FF00280BD062
:10229000386A316A884207D1786A716A884203D104
:1022A000B86AB16A884201D00020FEBD0134E868F6
:1022B000A042E0D80120F8E7F1B55C4A84B00120E3
:1022C00050600021101C4160594BD8681C6A2618C8
:1022D0001C6920181C685B69001B1D042D0C431928
:1022E00001930523049CDB01E418636A002B02D1EF
:1022F0000123206263624D4A012353604B4900224F
:102300004A60216A814239D0421A171C81420292E6
:102310002AD9192017E0606B2169401AB84200D30E
:10232000381CFF2208E02169013F4B1C2361049BFC
:10233000C91890310A7001380028F4D12069616B06
:10234000884203D91A203A4B986168E088420BD141
:1023500036480121416000214160049803F0CCF926
:1023600000285CD000202061002FD4D10B20049BDA
:10237000800118184168029A891841602B49012090
:10238000486000224A60049B903303933FE0606BF7
:102390002169471AAF420BD92069049B2A1CC01837
:1023A0009030311CFDF720EF20694019206130E0AA
:1023B000AF4206D1002904D0049BC81890302A1CD3
:1023C00007E0AF4210D200290ED0049BC81890300D
:1023D0003A1C311CFDF708EFF619E81B05042D0C1B
:1023E00000200399206104E0311C8619281A050495
:1023F0002D0C0E4A0127576000205060049803F00E
:10240000E1F800280BD009494F6000204860002DFA
:10241000BDD1019B23622069616B884203D9FF20F3
:10242000013005B0F0BD0020FBE700000034008063
:102430001C6D8200B0B5114C11480122A1694260A7
:1024400000224260C00D002903D0012901D02A21B9
:1024500006E00C4DEA69531C06D08A4202D02B21BB
:10246000A161B0BD0020B0BD081CE961064902F0C1
:1024700097FA011CFF390139B0BD00001C6D8200C4
:102480000034008028678000046B8200F8B5214F7B
:102490003868C0688047386801697E208847012510
:1024A00000241FE01F20A04302D13868C068804785
:1024B0001948065D7E2E01D07D2E0CD13868016949
:1024C0007D20884720203968464030060969000E83
:1024D0008847023505E0386801693006000E8847F4
:1024E000013501340D48C0888442DBDB3868C068A0
:1024F0008047386801697E208847681C800607D1BC
:10250000386801697E208847386801697E208847DD
:10251000F8BD00008C678000F447820090B1800015
:10252000B0B5041C17480068C0688047164DEA69BA
:10253000002A25D09168101CA1420BD10168E961E5
:10254000002900D12962A9690160A861696A01397D
:102550006962B0BD0068016802E00B68081C191CC4
:1025600000280DD08368A342F7D10168A9690160F2
:10257000A861696A01396962002AEAD12A62B0BD9C
:102580000020B0BD8C678000406D820070B5061CD5
:1025900014488068FEF730FC134C431C01D1032023
:1025A00019E0124A0521C9015118096B104D414328
:1025B0008032D068036B2A6A9847002801D0332004
:1025C00009E0286A0B4A0168914203D10A4A41682E
:1025D000914203D03420A061002070BD406930607A
:1025E000012070BD046B82001C6D8200A853820024
:1025F000286780003410D773B5EBF40010B50E4C8B
:10260000A078002802D10D490F2005E0FEF7A8F8B8
:10261000002804D00949283102F0AEFB0AE000206E
:10262000A0700749162008700120E080FEF70CF822
:10263000FFF72CFF002010BD90B180004C5A8000A5
:10264000F4478200F8B5C47900201A4D0090A868BC
:10265000012802D018490F2013E00520174F00264B
:102660003E5401301928FBDB211C781D6A46FEF719
:1026700099F8002808D06879042805D10E49283136
:10268000072002F079FB13E0242038707C70687911
:10269000B8700098F8700004000E38717E76BE762F
:1026A000FE763E771D20E880FDF7CEFFFFF7EEFEB9
:1026B0000020F8BD90B180009C5B8000F447820050
:1026C000F8B5041C3A480078002838D12022E01DD3
:1026D0003849FDF72DFD002802D03649913106E03A
:1026E000261C2036307A022803D23249A93105202F
:1026F00028E0A088242803D22E49C531032021E0F8
:102700002D48002505702D4F2A49022038702022BF
:102710002131781CFDF768ED3C1C203403206070EB
:102720000220A070E570042020716571A571E5712B
:1027300025726572A572FEF7CDFC051C05D11D49F9
:102740007531082002F018FB2FE0281C00F006FB72
:102750000206120E381C291C2C30E272FDF744EDE3
:10276000E17A642200252C31481C7A543D54441CE3
:102770003819FEF7D3FC727A0119092002407A5405
:10278000481C0F49C8800121C902884209D909495A
:10279000ED31072002F0F0FA0A480121416045605E
:1027A000FCE7FDF751FFFFF771FE0020F8BD0000C8
:1027B000246780005B58800088668000F4478200B0
:1027C00090B180000034008080B50349052002F0FC
:1027D000D3FA002080BD0000C058800080B50349B6
:1027E0000E2002F0C9FA002080BD0000145A8000BB
:1027F000F8B5051CC67980881E4F083502380404D8
:10280000B868240C012801D01B4904E0F8680128AD
:1028100005D019492C310F2002F0AEFA27E01748F5
:10282000021B2819FF21FDF774ED221C311C281C06
:10283000FEF702F81C2302240028114A0ED0387932
:102840000D495C31042807D0012803D0022801D0AB
:10285000032801D1137004E00720DDE7BE70137078
:1028600000205070FC80FDF7EFFEFFF70FFE002008
:10287000F8BD000090B180001C5B800007040000E0
:10288000F4478200B0B5011C8A881A4CC979023A13
:102890001204A368120C0830012B02D016490F2035
:1028A00016E001235B029A4203D913493431032015
:1028B0000EE0FEF723F802221A25002100280F4B14
:1028C0000DD0E078042806D1E1600B49543107208F
:1028D00002F052FA0CE0E1601D70587003E0012034
:1028E000E0601D705970E280FDF7AEFEFFF7CEFD8F
:1028F0000020B0BD90B18000A05A8000F447820053
:10290000064980B51220087005490120C880054994
:10291000152002F031FA002080BD0000F44782004B
:1029200090B18000FC5980000F4810B581780029D3
:1029300004D00E490F2002F01FFA12E00C210C4ABD
:1029400001241170C480FDF77FFEFFF79FFD094849
:10295000446000214160084800688068804700F0BA
:10296000FBF9002010BD000090B18000B05980003C
:10297000F4478200003400808C67800080B5C07905
:10298000FDF7FCFF002803D0084902F0F5F90AE042
:102990000121074A074B182091601870D180FDF77C
:1029A00053FEFFF773FD002080BD0000845A8000B5
:1029B00090B18000F447820010B5821D80880728FE
:1029C00001D01C4914E09178507809020843D1786D
:1029D00009040843117909060143507993791B02D0
:1029E0001843041C01208002844205D91149183182
:1029F000032002F0C1F91AE00F4804230370537852
:102A0000437093788370D378C37012790271053064
:102A1000221CFDF7A5FF002802D006492C31E8E76B
:102A20000649601DC880FDF70FFEFFF72FFD00204F
:102A300010BD000070598000F447820090B1800002
:102A400080B50349052002F097F9002080BD000001
:102A5000CC59800010B5831D808899780538020410
:102A600058780902120C0843D978090408431979E7
:102A700009060843041C211C581DFDF79FFF002870
:102A800003D00C4902F078F912E00B4808210170DC
:102A90002104090E447081702102090EC170210EBB
:102AA000017106490520C880FDF7CEFDFFF7EEFC59
:102AB000002010BDE8598000F447820090B18000EA
:102AC00010B5811D80880A220131013804040848AC
:102AD000240C0270221C0130FDF786EB0549601CB6
:102AE000C880FDF7B1FDFFF7D1FC002010BD00004C
:102AF000F447820090B1800070470000FEB5051CCD
:102B000001A806221E49FDF770EB1E48062201A906
:102B10000068FDF76AEB1C48012646600027476005
:102B2000E968281C88470521C9016C18E0622969F9
:102B3000281C884720636969281C884760632968C6
:102B4000281C88470B21890169180860226B606B7B
:102B5000131C4343A363E36A534372029042E3634B
:102B600004D90A49062088610020FEBD0648466057
:102B700047606762CF604F608F6027610120F4E794
:102B8000085C800088678000003400801C6D820033
:102B9000F8B50F4C021C0120606000256560606084
:102BA00065600C4E8C200C4980594968FFF73CFA4F
:102BB000012807D1012767606560301CFFF79EFF81
:102BC000012801D00020F8BD676065600120FAE7A8
:102BD00000340080A853820028678000B0B5084CFC
:102BE000206880470128074D05D16068804700288C
:102BF000FBD02C60B0BD044C20688047F9E7000092
:102C0000746780008C678000546780008CB56846CC
:102C100006220D49FDF7E8EA0C48062269460068DD
:102C2000FDF7E2EAFFF768FFFEF746FA08480121E0
:102C3000416000214160FFF7D1FF00F0F7F8FEF797
:102C400051FA00F019F98CBD0C588000886780009B
:102C500000340080F8B532492F4F0522D2010C1CF8
:102C6000386980348D18431C2C4E07D12D49B86922
:102C700001602D494160012181600CE0296B2B4AE4
:102C80004143E068036B9847002801D00B2021E006
:102C9000B869C1680131C1601F48296BC0681E4A0C
:102CA0004143E068436A92699847002801D00A20AE
:102CB00010E01F4801214160002747601648016964
:102CC0004B1C26D141690161E068826A9047002867
:102CD00003D00920B0610020F8BD0F488269D76099
:102CE0002D6B00694543E068291C436A984700281A
:102CF000DDD10F49012048604F60E068064A436A11
:102D00005268691C98470028D1D1094901204860C0
:102D10004F600120E0E70000286780001C6D820002
:102D2000D8508200AC9F56FE7A127FCD7864820024
:102D300000340080054C0020054900E001C48C42AD
:102D4000FCD3044901224A60486070478C678000C8
:102D50002046870000340080FEE70000011C0020B0
:102D600000E001300A780131002AFAD170470000F2
:102D7000F8B50F4E012575600024301C44600D4FDE
:102D80000021381CFEF7EAFE0A498031002801D1F3
:102D9000CF6000E0CC60C868002804D1064902205A
:102DA00088610020F8BD756074600120FAE70000BA
:102DB00000340080A85382001C6D8200B0B5184C0E
:102DC0000025216901312161216A00290BD1616946
:102DD000002903D1134802F0FBFCB0BD21620A6850
:102DE00062618D800D607D2805D07E2806D101F0BE
:102DF000C5FB2570B0BD01202070B0BD216A0A4B13
:102E00008A889A4207D22378002B02D02023584088
:102E1000257052189071888801308880B0BD0000FC
:102E200090B18000A05880000704000070B5002217
:102E30000E49412401200A608A80240183011B1865
:102E40001B015D182E1BCE5001306428AA80F5DBD3
:102E500007480918054824384161826102620270FE
:102E6000C26104490120087070BD0000B4B1800047
:102E70003092010088668000F8B5084F0026064CA5
:102E800001253868C06880476560666000F008F812
:102E900065606660F5E70000003400808C678000A4
:102EA000F8B52D4C2068C06880474DE02B490120C3
:102EB000487020688861002800D1C8610020002780
:102EC0000025206011E024480068C0688047A08881
:102ED000461B802E00DD8026601906303A1C310426
:102EE000090CFDF721FC071CAD19A088A842EADCFB
:102EF0001B48874203D01B4802F06AFC20E0A088F0
:102F00000238A080A079411E232916D816490978D5
:102F1000002901D0012810D114490978002904D0D2
:102F20001349082001F028FF0AE0124980004018E8
:102F30004038C16B201C884702E0201CFFF744FC8E
:102F40000649486920604C6104498C69002CADD168
:102F500000204870F8BD00008C67800090B18000B0
:102F6000470F0000F45B80008866800024678000C3
:102F7000D058800094668000FEB5051C00200C1C13
:102F800001230326191C042800D300218207920F75
:102F900089006158B21AD200D14001AA11540130FF
:102FA0000828EFD30122201C1A4901F027FA194FF3
:102FB000043704E00122391C201C01F01FFA2068AC
:102FC000C005800E3828F5D10822201C01A901F087
:102FD00015FA00208108820789000919920FB21A98
:102FE0008968D200D1402970013501301428F1D30D
:102FF0004021201C1C30FDF7CAE81421201C083099
:10300000FDF7C4E8002102C402C401A802C002C046
:10301000FEBD0000585C800010B5041C9C21FDF72B
:10302000B6E80848A0600848E0600648C043206150
:103030000548C04360610548A061002060602060D1
:1030400010BD00000123456789ABCDEFF0E1D2C38D
:10305000F0B564C80C38C4688FB00194B6460E68E9
:103060000469330EA44634021C43F74B37061C4058
:10307000330AF54E3B43F64333401C430C60019B3F
:1030800076465E402E405E40A4195601D30E33436F
:10309000E418231CED4F6344DC19AB08AE074D6800
:1030A0001E430E950E9B2D021B0E1D43E64BB44690
:1030B0001D400E9B1E061B0A3343E34EF64333406E
:1030C0001D43734666465E4016405E404D60AD1936
:1030D0006601E30E334396079208ED18019B1643F1
:1030E00004968A68EB18DD190D920D9B12021B0ED7
:1030F0001A43D54B1A400D9B1E061B0A3343D24E72
:10310000F64333401A438A60049E63465E4026407D
:103110005E4092196E01EB0E3343D218A308A60746
:10312000CC681E430C940C9B24021B0E1C43C64B04
:1031300072441C400C9BB6461E061B0A3343C24E0B
:10314000D219F64333401C43CC60049B76465E4064
:103150002E405E40A4195601D30E3343E418231CBD
:103160006344DC19AB08AE070D691E430B950B9B3E
:103170002D021B0E1D43B44BB4461D400B9B1E0677
:103180001B0A3343B04EF64333401D437346664635
:103190005E4016405E400D61AD196601E30E33439B
:1031A000049EED18AB1996079208164302964A69D9
:1031B000DD190A920A9B12021B0E1A43A24B1A40F7
:1031C0000A9B1E061B0A33439F4EF64333401A43A5
:1031D0004A61029E63465E4026405E4092196E013F
:1031E000EB0E3343D218A308A6078C691E4309943B
:1031F000099B24021B0E1C43934B72441C40099BE9
:10320000B6461E061B0A33438F4ED219F64333408F
:103210001C438C61029B76465E402E405E40A419A2
:103220005601D30E3343E418231C6344DC19AB0866
:10323000AE07CD691E430895089B2D021B0E1D434A
:10324000814BB4461D40089B1E061B0A33437E4E2D
:10325000F64333401D43734666465E4016405E406B
:10326000CD61AD196601E30E3343029EED18AB1933
:1032700096079208164300960A6ADD190792079B83
:1032800012021B0E1A43704B1A40079B1E061B0AA4
:1032900033436D4EF64333401A430A62009E634641
:1032A0005E4026405E4092196E01EB0E3343D21809
:1032B000A308A6071E4301964C6A7244A6467346AD
:1032C0001B0E24021C43604BD2191C4073461E0681
:1032D0001B0A33435C4EF64333401C434C6200AE42
:1032E00048CE5E402E405E40A4195601D30E3343B3
:1032F000E418231C6344DC19AB08AE078D6A1E4337
:10330000AE4673461B0E2D021D434F4BB4461D4067
:1033100073461E061B0A33434B4EF64333401D4390
:103320008D62019B66465E4016405E40AD196601A7
:10333000E30E3343009EED18AB199607920816432F
:10334000CA6ADD190692069B12021B0E1A433E4BF7
:10335000B6461A40069B1E061B0A33433A4EF643F6
:1033600033401A43634676465E4026405E40CA625A
:1033700092196E01EB0E3343D218019BA607D218A7
:103380003B1CD218A3081E4304960C6B271C3B0E53
:1033900024021C432C4B3E061C403B0A33432A4E5E
:1033A000F64333401C430C63049E73465E402E403C
:1033B0005E40A4195601D30E3343E418231C234C5A
:1033C00063441C19AB08AE071E43351C4E6BB44654
:1033D00063461B0E36021E431B4B1E4063461F06F0
:1033E0001B0A3B43184FFF433B401E434E63049B65
:1033F0002F1C5F4017405F40F6196701E30E3B4307
:10340000F61897079208331C17438A6B73440F4EC4
:1034100096469E1973461B0E12021A430A4BBC466F
:103420001A4073461F061B0A3B43074FFF433B40AE
:1034300067466F401A4327406F408A63D21977016D
:10344000F30E3B43D21803E0FF00FF009979825A44
:10345000049BA707D218F74BD218A308CC6B1F43C5
:103460000594059B24021B0E1C43F34BBE461C40D7
:10347000059B1F061B0A3B43EF4FFF433B401C438A
:10348000634677465F4037405F40CC63E41957019D
:10349000D30E3B43E4186319E64CB5071C19B30877
:1034A0001D432E1C03960B6A4D6B77465D408B685F
:1034B0005D400B685D406E00EB0F1E43351C0D60D8
:1034C000039EE30E7E4016407E40AD1966013343F5
:1034D000ED182B1CD74E63449D199607920816438E
:1034E0008A6B4B6AB4465A40CB685A404B685A4084
:1034F0005600D20F32434A60039B66465E40264028
:103500005E4092196E01EB0E3343D218C94B7244E0
:10351000D218A308A6071E43341CCE6B8B6A5E40EC
:103520000B695E408B685E407700F30F1F433E1CC3
:10353000271C63465F402F405F408E60F61957019D
:10354000D30E3B43F618039BAF07F318B94E9E19F1
:10355000AB081F43CB6A0D68BE465D404B695D40BA
:10356000CB685D406F00EB0F1F433D1C7746674003
:1035700017406740CD60ED197701F30E3B43ED181E
:103580002B1C634497079208AA4D3A4394465D1951
:103590000B6B4A685A408B695A400B695A40570076
:1035A000D20F3A43371C63465F4073465F400A615F
:1035B000D2196F01EB0E3B43D21812199F4BB4077F
:1035C000D218B3081C4303944B6B8C685C40CB69E6
:1035D0005C404B695C406600E30F1E43341C4C6149
:1035E000039B2E1C5E4063465E40A4195601D30E19
:1035F0003343E418231C914C73441C19AB08AE07E9
:103600001E43351CAE46CD688B6B97075D400B6A39
:103610005D408B695D406E00EB0F1E43351C161C30
:1036200073465E408D61039B92085E40AD19660152
:10363000E30E3343ED182B1C6344804E3A4394460B
:103640009D19CB6B0A695A404B6A5A40CB695A4064
:103650005700D20F3A43271C63465F4073465F40D2
:10366000CA61D2196F01EB0E3B43D218039BA70727
:10367000D218A3081F433C1C01940B684C69921993
:103680005C408B6A5C400B6A5C406700E30F1F4341
:103690003C1C0C62019B2F1C5F4063465F40E41999
:1036A0005701D30E3B43E418231C73449C19AB0809
:1036B000AF071F433D1CAE468D694B685D40CB6A2A
:1036C0005D404B6A5D406F00EB0F1F433D1C171CB4
:1036D00073465F404D62019B5F40ED196701E30E49
:1036E0003B43ED182B1C6344970792083A439446DA
:1036F0009D198B68CA695A400B6B5A408B6A5A40B5
:103700005700D20F3A43271C63465F4073465F4021
:103710008A62D2196F01EB0E3B43D218019BA707B7
:10372000D218A3081F433C1C0494CB680C6A92195E
:103730005C404B6B5C40CB6A5C406700E30F1F430F
:103740003C1CCC62049B2F1C5F4063465F40E41925
:103750005701D30E3B43E418231C73449C19AB0858
:10376000AF071F433D1CAE464D6A0B695D408B6B36
:103770005D400B6B5D406F00EB0F1F433D1C171C42
:1037800073465F400D63049B5F40ED196701E30ED4
:103790003B43ED182B1C6344970792083A43944629
:1037A0009D194B698A6A5A40CB6B5A404B6B5A4001
:1037B0005700D20F3A43271C63465F4073465F4071
:1037C0004A63D2196F01EB0E3B43D218049BA70743
:1037D000D218A3081F433C1C02948B69CC6A92192F
:1037E0005C400B685C408B6B5C406700E30F1F43E1
:1037F0003C1C8C63029B2F1C5F4063465F40E419B6
:103800005701D30E3B43E418231C73449C19AB08A7
:10381000AF071F433D1C0395CB690D6B5D404B68A3
:103820005D40CB6B5D406F00EB0F1F433D1CCD63D4
:10383000039B05E09979825AFF00FF00A1EBD96E46
:10384000171C5F40029B5F40ED196701E30E3B438D
:10385000ED182B1C6344970792083A4394469D1930
:103860000B6A4A6B5A408B685A400B685A405700A3
:10387000D20F3A43271C63465F400A60039B5F40B8
:10388000D2196F01EB0E3B43D218029BD21892194A
:10389000A607A3081E43341C8E6B4B6A5E40CB68A0
:1038A0005E404B685E407700F30F1F433E1C2F1CA9
:1038B000674063465F404E60F6195701D30E3B43A5
:1038C000F618039BAF07F318F64E9E19AB081F437B
:1038D0003D1CAE46CD6B8B6A5D400B695D408B68CD
:1038E0005D406F00EB0F1F433D1C171C73465F408C
:1038F00067408D60ED197701F30E3B43ED182B1CEB
:10390000634497079208E74D3A4394465D19CB6AA2
:103910000A685A404B695A40CB685A405700D20F48
:103920003A43371C63465F4073465F40CA60D21912
:103930006F01EB0E3B43D2181219DA4BB407D218C1
:10394000B3081C43271C4C680B6B5C408B695C40C4
:103950000B695C406600E30F1E43341C2E1C7E4046
:1039600063465E400C61A4195601D30E3343E4183C
:10397000231CCC4E73449C19AE07AB081E43351C68
:10398000AE468D684B6B5D40CB695D404B695D40D9
:103990006E00EB0F1E43351C161C73465E407E40C6
:1039A0004D61AD196601E30E3343ED182B1C6344E2
:1039B00096079208BB4D324394465D198B6BCA68DB
:1039C0005A400B6A5A408B695A405600D20F324314
:1039D0006346261C5E4073465E408A6192196E0102
:1039E000EB0E3343D218AF4BD219D218A308A60757
:1039F0001E43341C0194CB6B0C695C404B6A5C40E9
:103A0000CB695C406600E30F1E43341CCC61019B14
:103A10002E1C5E4063465E40A4195601D30E33430C
:103A2000E418231C9F4E73449C19AE07AB081E4339
:103A30000B684D695D408B6A5D400B6A5D406F00AD
:103A4000EB0F1F433D1C0D62019B171C37431F40AA
:103A5000131C33403B43ED18E30E67013B43ED1865
:103A60002B1C6344970792088F4D3A4394465D1987
:103A70004B688A695A40CB6A5A404B6A5A40570091
:103A8000D20F3A43271C63461F43374023403B4332
:103A90004A62D218EB0E6F013B43D218019BA70775
:103AA000D218814BD218A3081F433C1C04948B6886
:103AB000CC695C400B6B5C408B6A5C406700E30F39
:103AC0001F433C1C8C62049B2F1C1F4363461F40FA
:103AD000049B2B403B43E418D30E57013B43E418AF
:103AE000A319714CAE071C19AB081E43351C0E6A96
:103AF000CB685E404B6B5E40CB6A5E407700F30F55
:103B00001F433E1CCE62049B171C2F431F40131CF7
:103B10002B403B43F618E30E67013B43F618331C7A
:103B2000634497079208604E3A4394469E190B6986
:103B30004A6A5A408B6B5A400B6B5A405700D20F5F
:103B40003A43271C63461F432F4023403B430A63ED
:103B5000D218F30E77013B43D218049BD218524B74
:103B6000A707D218A3081F433C1CA6468C6A4B69C2
:103B70005C40CB6B5C404B6B5C406700E30F1F43CA
:103B80003C1C371C73461F4363461F40734633403B
:103B90003B434C63E418D30E57013B43E4186319CD
:103BA000414CB5071C19B3081D4303958B69CD6AB9
:103BB0005D400B685D408B6B5D406E00EB0F1E43FC
:103BC000351C8D63039B161C1E4373461E40039BCE
:103BD00013403343ED18E30E66013343ED182B1CFD
:103BE000314E63449D1996079208324394460A6BFE
:103BF000CB695A404B685A40CB6B5A405600D20FA3
:103C00003243261C63461E43CA63039B1E40634621
:103C100023403343D218EB0E6E013343D218224BAC
:103C20007244D218A308A6071E43341C4E6B0B6ABD
:103C30005E408B685E400B685E407700F30F1F4369
:103C40003E1C2F1C274363461F402B1C23403B4335
:103C50000E60F618D30E57013B43F618039BAF07CF
:103C6000F318114E9E19AB081F433D1CAE468D6BD9
:103C70004B6A5D40CB685D404B685D406F00EB0F69
:103C80001F433D1C171C73461F43274013403B43F3
:103C90004D60ED18F30E77013B43ED182B1C634488
:103CA000014D03E0A1EBD96EDCBC1B8F9707920896
:103CB0003A4394465D198B6ACA6B5A400B695A4065
:103CC0008B685A405700D20F3A43371C63461F4354
:103CD00073461F40634633403B438A60D218EB0E65
:103CE0006F013B43D2181219F74BB407D218B3082F
:103CF0001C430394CB6A0C685C404B695C40CB6806
:103D00005C406600E30F1E43341CCC60039B2E1CFA
:103D10001E4363461E40039B2B403343E418D30EDF
:103D200056013343E418231CE74C73441C19AB08B9
:103D3000AE071E43351C04950B6B4D685D408B69C7
:103D40005D400B695D406E00EB0F1E43351C0D613D
:103D5000049B161C1E43039B1E40049B13403343CD
:103D6000ED18E30E66013343ED182B1CD64D960774
:103D7000920863445D1932438E684B6B5E40CB6999
:103D80005E404B695E407700F30F1F433E1C4E615F
:103D9000049B271C17431F40231C13403B43F6186A
:103DA000EB0E6F013B43F618039BA707F318C64EB3
:103DB0009E19A3081F433C1CA446CC688B6B5C4037
:103DC0000B6A5C408B695C406700E30F1F433C1C3F
:103DD0002F1C63461F4317402B403B438C61E41864
:103DE000F30E77013B43E418049BAF07E318B64C8E
:103DF0001C19AB081F433D1CAE460D69CB6B5D40E3
:103E00004B6A5D40CB695D406F00EB0F1F433D1C6B
:103E1000371C73461F4363461F40734633403B4382
:103E2000CD61ED18E30E67013B43ED18AA18A64BD0
:103E3000B507D218B3081D4303950B684D695D4063
:103E40008B6A5D400B6A5D406E00EB0F1E43351CB4
:103E50000D62039B261C1E4373461E40039B23409A
:103E60003343ED18D30E56013343ED182B1C964EF9
:103E700063449D19A607A3081E43341CA4468C69FD
:103E80004B685C40CB6A5C404B6A5C406600E30F69
:103E90001E43341C161C63461E434C62039B1E408B
:103EA000634613403343E418EB0E6E013343E418CA
:103EB000231C854C9607920873441C193243CE6923
:103EC0008B685E400B6B5E408B6A5E407700F30F41
:103ED0001F433E1C2F1C174363461F402B1C1340DF
:103EE0003B438E62F618E30E67013B43F618039BD3
:103EF000AF07F318744E9E19AB081F433D1CAE4626
:103F00000D6ACB685D404B6B5D40CB6A5D406F00D6
:103F1000EB0F1F433D1C271C73461F4317402340D4
:103F20003B43CD62ED18F30E77013B43ED182B1C9C
:103F3000654D63445D19A308A7071F433C1CA446B5
:103F40004C6A0B695C408B6B5C400B6B5C406700A0
:103F5000E30F1F433C1C371C63465F4073465F40C2
:103F60000C63E4196F01EB0E3B43E418A218B4078D
:103F7000B3081C4303944B698C6A544F5C40CB6B71
:103F8000D2195C404B6B5C406600E30F1E43341C4F
:103F90004C63039B2E1C5E4063465E40A419560191
:103FA000D30E3343E418231C7344DC19AB08AE076B
:103FB0001E43351C04958B69CD6A5D400B685D40DE
:103FC0008B6B5D406E00EB0F1E43351C8D63049BB5
:103FD000161C5E40039B5E40AD196601E30E334341
:103FE000ED182B1C63449607920832439446DD1962
:103FF000CB690A6B5A404B685A40CB6B5A4056000B
:10400000D20F3243261C63465E40CA63049B5E4067
:1040100092196E01EB0E3343D218039B3E1CD2184B
:10402000A308A7071F433C1CA6464C6B0B6A9219BA
:104030005C408B685C400B685C406700E30F1F438B
:104040003C1C2F1C73465F4063465F400C60E419C4
:104050005701D30E3B43E418049BAF07E3189C19A8
:10406000AB081F433D1C02954B6A8D6B5D40CB68CE
:104070005D404B685D406F00EB0F1F433D1C4D6082
:10408000029B171C5F4073465F40ED196701E30E0A
:104090003B43ED182B1C6344970792083A43944620
:1040A0009D198B6ACA6B5A400B695A408B685A40FB
:1040B0005700D20F3A43271C63465F408A60029B39
:1040C0005F40D21904E00000DCBC1B8FD6C162CA7D
:1040D0006F01EB0E3B43D218A308A7071F433C1CFC
:1040E0007244A6460C68CB6A92195C404B695C40EE
:1040F000CB685C406700E30F1F433C1C2F1C7346DA
:104100005F4063465F40CC60E4195701D30E3B43E8
:10411000E418029BAF07E3189C19AB081F433D1C32
:1041200000950B6B4D685D408B695D400B695D4090
:104130006F00EB0F1F433D1C0D61009B171C5F4080
:1041400073465F40ED196701E30E3B43ED182B1CEE
:104150006344970792083A4394469D194B6B8A68CB
:104160005A40CB695A404B695A405700D20F3A43E4
:10417000271C63465F404A61009B5F40D2196F0174
:10418000EB0E3B43D218A308A7071F433C1C724405
:10419000A646CC688B6B92195C400B6A5C408B69BD
:1041A0005C406700E30F1F433C1C2F1C73465F40BD
:1041B00063465F408C61E4195701D30E3B43E4181A
:1041C000009BAF07E3189C19AB081F433D1C0395E8
:1041D000CB6B0D695D404B6A5D40CB695D406F0004
:1041E000EB0F1F433D1CCD61039B171C5F407346C3
:1041F0005F40ED196701E30E3B43ED182B1C634450
:10420000970792083A4394469D190B684A695A40A9
:104210008B6A5A400B6A5A405700D20F3A43271C08
:1042200063465F400A62039B5F40D2196F01EB0E49
:104230003B43D218A308A7071F433C1C00944B68BC
:104240008C6972445C40CB6A92195C404B6A5C405A
:104250006700E30F1F433C1C4C62009B2F1C5F4018
:1042600063465F40E4195701D30E3B43E418039BB8
:10427000E3189C19AE07AB081E43351CCE698B684A
:104280005E400B6B5E408B6A5E407700F30F1F430E
:104290003E1C8E62009B171C6F405F40F619670141
:1042A000E30E3B43F618331C634497079208524EC3
:1042B0003A4394469E19CB680A6A5A404B6B5A405F
:1042C000CB6A5A405700D20F3A43271C63465F40DF
:1042D0006F40CA62D2197701F30E3B43D218009B9C
:1042E000A707D218444BD218A3081F433C1CA6466C
:1042F0004C6A0B695C408B6B5C400B6B5C406700ED
:10430000E30F1F433C1C371C73465F4063465F400E
:104310000C63E4195701D30E3B43E4186319364C80
:10432000B5071C19B3081D4304954B698D6A5D40A0
:10433000CB6B5D404B6B5D406E00EB0F1E43351C3D
:104340004D63049B161C5E4073465E40AD196601CA
:10435000E30E3343ED182B1C274E63449D1996073B
:1043600092083243CE6A8B695E400B685E408B6B6D
:104370005E407700F30F1F433E1C8E63049B271C97
:1043800057405F40F6196F01EB0E3B43F618331CA4
:10439000194E73449E19A308A7071F433C1C0F6BBB
:1043A000CB695F404B685F40CB6B5F403B1CDB0FD2
:1043B0007F001F43CF63291C61405140791877016A
:1043C000F30E3B43C918049BAF07C9180A4BC91821
:1043D000AB081F433D1C07687918016041688919C3
:1043E0004160816849198160C1680919C16001692A
:1043F000891801610FB0F0BDD6C162CAF7B5171CAC
:104400000268051CD005F9005218800E82B02A609F
:104410008A4202D269680131696069687A0F891835
:104420006960C1193F292BD940210A1A141C281888
:104430001C300399FBF7D8EE291C1C31281C0830CE
:104440000190FEF705FE2E1C5C3613E01149012099
:104450004860002048604021301CFBF798EE03982C
:1044600040220119301CFBF7C0EE311C0198FEF709
:10447000EFFD4034201C3F30B842E7D3002000E07D
:10448000002403993A1B281809191C30FBF7ACEEDD
:1044900005B0F0BD00340080F8B5071C051C0B20EA
:1044A0008001011C40397C183E1806E0B068A16B01
:1044B0004018B060A0690130A061A169EA69281CB8
:1044C0009047831CF2D0E06AA169234E814201D358
:1044D000082023E0AA6A281C904700281F4A07D01A
:1044E0001078022819D13220B0611D4901200861DD
:1044F000206BA169E0614143616110780A240D28B5
:1045000016D202A31B5C5B009F4400001223231CF5
:1045100023230A142323232323000920B06107E067
:10452000104A1149381C01F0D5F8002811D1B461A6
:104530000020F8BD0D4A0E49381C01F0CBF80028C8
:10454000F5D006E00B4A0C49381C01F0C3F80028EE
:10455000EDD00120EDE700001C6D8200286780008F
:10456000C4508200BCCE6452DF5DE85FC9B68F5A8A
:104570009C120FFAEBFE6452769834120B4B10B576
:10458000186A0B4C81880022A14201D8032901D26C
:10459000828010BDD969002902D1D861986102E0FA
:1045A0000860186AD8611A6210BD000090B18000DE
:1045B00007040000FFB525480E1C0068151CC068E4
:1045C00081B08047FF212D31214FB86888421CDA25
:1045D00079683A688A4202D1002816D101E00028A1
:1045E00001D1B86AF860F868331A7869D41884423F
:1045F00008D3841A1B1B164C3434E41863199342F5
:1046000006D302E06219824202D9002005B0F0BD53
:104610003B697219D21A9E420BD98B1883423E61B4
:1046200005D9401A0A49101A3431081800E06019F7
:1046300078600498002804D12A1C201C0199FBF7FB
:10464000D4EDB8680130B860201CDFE78C678000CB
:10465000406D820070B5061C11480D1C0068141CCA
:10466000C06880470F4A916800290AD01068B0429C
:1046700007D1D368AB4204D15369161C1A1A94426D
:1046800001DD002070BD00193060984202D105485C
:104690003430306001392819F060B160012070BDFC
:1046A0008C678000406D820070B5051C15480C1C9D
:1046B0000068C0688047FF202D30134EB1688142EA
:1046C0001BDA70683268824201D1002915D1F06886
:1046D000281A75691318AB420BD30B4B0A4D1433D0
:1046E0005B1BC01A084B343318180319934206D3C6
:1046F00003E0181C1A19AA4201D9002070BD01312B
:10470000B16070BD8C678000406D8200F8B5071CF9
:104710000D1C01690026012488470090386EF96D50
:10472000401AA84201D80020F8BD3969381C8847D2
:1047300003E0013424044010240C0228F9D10120A4
:104740001E49A5402C1C00250860F86D00994843BF
:104750001B490019400205304860FDF7E5F918498A
:104760000220086088688007FCD48868C00701D5EB
:104770000126F643086A0006000EFF2801D0012634
:10478000F64301352D042D0C0134022DDDD3FDF748
:10479000CBF90B4D00242C600A490868E8614008F9
:1047A00040000860E861FDF7BFF907202860FDF7C9
:1047B0007FFC0249301C0C60B6E70000E83487003B
:1047C00000030064E4348700F8B5061C006EF26D47
:1047D000801A884202D80020C043F8BD0E4F012045
:1047E00038600C1C3169301C884701E040106400BF
:1047F0000128FBD10025211C301CFDF741F90028C0
:1048000001D13860E9E70120400224180135022D6A
:10481000F1DB00203860DEE7E8348700F8B5051CDE
:10482000144808270026242373431C1863698B420D
:104830001AD1A369934217D1242171430818C06982
:10484000022814D00B495C225C39281CFBF728EDA8
:104850002422211C281C6430FBF722ED0020E8658F
:10486000606828660020F8BD0136BE42DBDB002010
:10487000C043F8E7F45D8000F0B5194801214160BC
:10488000002242601749FF242D34012002250A60CE
:1048900014264643013073181F1C143F8F515A6071
:1048A000DA609A601D74A042F2DB0F484B230918AE
:1048B0000E481B0381610D49C261026234314160BF
:1048C000426201608260C260C91841610261826215
:1048D000C26202630249012048604A60F0BD0000E4
:1048E00000340080741D87005C170000406D82005A
:1048F000F8B5051C0520244CC0012618306B23494F
:104900006843871C012048602048002141608034B2
:10491000E068391C426B9047012829D0E0681C4AA6
:10492000036B391C9847002803D01A490B20886173
:104930001EE0174810220C30071C1749FBF7F2FC49
:10494000002807D0144910220C31381CFBF7EAFC70
:1049500000280DD1306B0D496843C51C012048600B
:1049600000204860E068291C426B9047012801D173
:104970000020F8BDE068094A036B291C984700280D
:10498000D3D10120F5E70000D85082000034008028
:10499000786082001C6D8200105C8000786282006A
:1049A000002801D001280BD1022048600120886036
:1049B0000620C86007200861082048610020704771
:1049C00002492A208861FF20013070471C6D820057
:1049D000F8B5154901204860002048601348016976
:1049E0001348FDF797F913492225431C124CC86060
:1049F0000DD00D4E01207060002777600B48416993
:104A00000B48FDF787F90B49431C486102D1002090
:104A1000A561F8BD01207060776005490748143929
:104A200008600120F5E7000000340080046B82007C
:104A3000D8508200286780001C6D8200105C8000C6
:104A4000F1B505203849C0010F18384E386B31696F
:104A5000354D4843364A411C8035E868036B98471A
:104A60000028344C3FD1B1680098FDF7EBFB0028DB
:104A700001D1232038E0F068431C1ED12E48016983
:104A80002948FDF747F9F060431C0FD02B4901225C
:104A90004A6000224A603169884209D1264841694A
:104AA0002148FDF737F9F060431C01D122201BE0BB
:104AB00022490120486000224A60386B316948432E
:104AC000861CE868311C426B9047174F143F012841
:104AD00001D11B4E1EE0E8681A4D036B2A1C311CE5
:104AE0009847002802D00B20A0611AE0144E281C21
:104AF0000C301022311C051CFBF714FC10490C3142
:104B0000002801D1396006E01022281CFBF70AFCBE
:104B1000002802D13E600120F8BD2620A0610020BF
:104B2000B8600020F8E70000D850820028678000B5
:104B3000785A82001C6D8200046B82000034008071
:104B4000105C800078608200F8B5061C23480C1CBD
:104B50000068151CC068804767192149C86900288A
:104B600019D1081C806AA0420BD0081C006B84423B
:104B700032D32A1C211C301CFBF732FD002826D121
:104B80001EE02A1C211C301C00F02CF8002817D035
:104B9000134887621BE080681149A0421CD8A042DC
:104BA00007D12A1C211C301C00F0B6FD00280ED1B4
:104BB00006E02A1C211C301CFBF712FD002801D145
:104BC0000020F8BD0649886A844200D38F620449F8
:104BD000C86A844200D9CC620120F2E78C67800069
:104BE000406D8200F8B5061C0D480D1C0068171CAE
:104BF000C0688047022000210A4C606021600834B0
:104C0000A3C4183C26620120E061FBF7D7FBE069F2
:104C1000002801D00020F8BD034805630120FAE711
:104C20008C6780001C6D8200406D8200F8B5051C09
:104C30000F1C01690026012488470090286EE96D49
:104C4000401AB84201D80020F8BD2969281C8847BD
:104C500003E0013424044010240C0228F9D11A493D
:104C600001200860E86D0099A7404843174CC0191F
:104C7000400205306060FCF757FF02202060A0680A
:104C80008007FCD4A068C1070120C043002900DAD6
:104C9000061C216A0906090EFF2900D0061CFCF734
:104CA00043FF002525600A490868E061400840008C
:104CB0000860E061FCF738FF07202060FDF7F8F995
:104CC0000149301C0D60BFE7E83487000003006431
:104CD000E4348700F8B5051C006EEA6D0027FF4339
:104CE000801A884201D8381CF8BD0B4E0120306074
:104CF0000C1C2969281C884701E040106400012829
:104D0000FBD1211C281CFCF7BBFE0021002801D18F
:104D10003160E9E73160E6E7E8348700F8B5051C63
:104D2000144804270026242373431C1863698B420C
:104D30001AD1A369934217D1242171430818C0697D
:104D4000022814D00B495C225C39281CFBF7A8EA26
:104D50002422211C281C6430FBF7A2EA0020E8650D
:104D6000606828660020F8BD0136BE42DBDB00200B
:104D7000C043F8E7BC5C800070B50D1C041C081C27
:104D8000FDF7ECFF061C281C00F022FD0C480D214D
:104D900001702104090E447081702102090EC17056
:104DA000210E0171291C321C0530FBF71EEA054952
:104DB000701DC880FBF748FCFDF768FB70BD000064
:104DC000F447820090B180000A4A0021D0680006B2
:104DD000000EC3070BD54006400F07D0302090616E
:104DE0001020906190610120906100E0012108068F
:104DF000000E7047000C00840022012010B5044909
:104E0000044B01E048604A60DC682407FAD510BD15
:104E100000340080000C008410B509480024846030
:104E2000FFF7EAFF064B0121403B064802E05A69C2
:104E300041604460DA68D207F9D4012010BD000057
:104E4000400C00840034008030B500240122054B62
:104E5000054901E05A605C600D6AED07FAD508610A
:104E600030BD000000340080000C0084F8B53D48DF
:104E70000521C90146183C49306B09693B4F48433D
:104E80000090012078600024381C4460354D803546
:104E9000E868426B00999047012801D1302007E073
:104EA000E868334A036B00999847002803D00B2029
:104EB000304A906147E0E8682B49826A0969904767
:104EC00028491439002804D02A4A092090614C60EE
:104ED00039E001207860221C7C6001240F1C2349EA
:104EE0000120486000204860032C11D17868012817
:104EF0002BD11D49306B09691F4A4843C11CE86822
:104F0000436A9847002820D01A4A0A20906118E086
:104F1000022C0ED17868012817D11349306B09692A
:104F2000164A4843811CE868436A98470028EBD139
:104F30000BE00D480169C268201CFBF799FB0128B2
:104F400003D0002078600020F8BD0134082CC6DBB7
:104F5000E868074A436A009998470028D4D17860E6
:104F60000120F1E7D85082002867800000340080DB
:104F7000786482001C6D8200786282007860820012
:104F80000348012141600021416001207047000079
:104F900000340080FEB500260025544801224260FE
:104FA000002141605249692040010C18A778514BFB
:104FB00058681B68002F08D00022A2700B6008718F
:104FC000000A4871000A887139E01F1C00AB9F80FD
:104FD0003F0CDF801881000C58819888FF23033331
:104FE00098420BD0444B984206D0444B984226D16D
:104FF00000AB5D890E1C22E0A27020E000AB188996
:10500000000601D4002100E0012100AB1889394FCE
:1050100000237F6800073F07FF0E000F00292FD0F5
:10502000012901D10223BB40354FBA6B1A4000D091
:10503000BB6300F055F9016849004908016000218F
:10504000002000F0A3F80021002000F0C3F80021A8
:10505000002000F089F80021002000F0A9F829487C
:1050600001680205914301600C300168490D490552
:105070000160A278002A06D000AB5A89891803E0A3
:10508000BA40131CD0E7803101600021002000F0FD
:1050900015F9A078002805D1002D04D02A1C311C58
:1050A00000F028FAFEBD0121002000F019F90121CD
:1050B000002000F06BF80121002000F08BF80121A6
:1050C000002000F051F80121002000F071F80C4F91
:1050D0000220F969014000D1F8610121002000F0AF
:1050E000DBF80121002000F0E9F8DBE70034008064
:1050F000FC3887000010806521200000A1210000FD
:1051000040008065000480650B48D12109014018EA
:1051100070B5807B0222012341008A400025084EA1
:10512000064C01E063606560716A1140FAD10022AB
:10513000012100F061F870BDFC3887000034008068
:105140000008806500224000002903D0012903D116
:10515000022200E0012282400249086B104000D088
:105160000A6370474000806500224000002903D098
:10517000012903D1022200E001228240024908698C
:10518000104000D00A617047400080650022400056
:10519000002903D0012903D1022200E0012282402C
:1051A0000249C869104000D0CA617047400080655C
:1051B00000224000002903D0012903D1022200E08F
:1051C0000122824002494869104000D04A6170477C
:1051D0004000806500224000002903D0012903D14E
:1051E000022200E0012282400249086A104000D0F9
:1051F0000A62704740008065F8B5051C0C1C690008
:10520000012602278F408E400020002C3AD0012C2E
:1052100000D1381C1E4B596B81435963002A2CD096
:105220000020002C30D0012C00D1381C012189072E
:1052300008439862211C281CFFF784FF211C281CAE
:1052400000F04EF8C168490D4905C160480D0CD009
:105250000020002C1AD0012C00D1381C0D49496ABD
:10526000014002D00B494031C860211C281CFFF7C7
:105270008DFF211C281CFFF7ADFF211C281CFFF708
:1052800061FFF8BD301CC5E7301CCFE7301CE5E7F7
:10529000400080650008806500224000002903D09E
:1052A000012903D1022200E0012282400249486B19
:1052B00010434863704700004000806500224000B2
:1052C000002903D0012903D1022200E001228240FB
:1052D0000249886A104000D18A62704740008065A8
:1052E000034A40018018012900D1103070470000A6
:1052F00000048065400070B502240123834084408F
:10530000002200291CD0012900D1221C0F4DA86BBE
:10531000104014D10020002914D0012900D1201CF4
:105320006E6A064000D06862AA63002000290BD094
:10533000012900D1201C696A014000D1686270BD5A
:105340001A1CE3E7181CEBE7181CF4E74000806523
:10535000F8B5314E00207168002900D1F8BD2F4A00
:105360000D210902511800240C834C838C83692180
:10537000490151180925ED0189231B012E1C8C7050
:105380000C80703E11188F19C9183C720130A84268
:105390000C72F7DB2248214903680C39CB60017994
:1053A000161C11714179517180790021907104208E
:1053B000FFF796FFC068D121184A09010004000CCC
:1053C0005118002801D0042000E00220C87388731F
:1053D000C97B1448104E4A000121914001E043600E
:1053E0004460326B01230A4001D01A1C00E0221CE9
:1053F000002AF4D000210020FFF74EFF074E832043
:10540000C000311805480C3881602A1C042000F0C7
:105410003BF80120A2E7000040008065FC388700CF
:10542000686780000034008080B501210020FFF70C
:1054300057FFC068C002C00A002820DC01210020FC
:10544000FFF792FE01210020FFF7B2FE01220121A9
:105450000020FFF7D1FE01210020FFF773FE01219C
:105460000020FFF747FF06494868002807D1054894
:105470006922520180180088002800D0486080BD51
:1054800040008065FC38870070B50D1C041C161C9C
:105490000021FFF725FFC168490D49058919C16041
:1054A0001249E000401805600021201CFFF76EFE45
:1054B0000021201CFFF78EFE0021201CFFF754FE68
:1054C0000021201CFFF774FE61000120884008497C
:1054D00048620021201CFFF735FE0021201CFFF749
:1054E000DBFE0021201CFFF7E9FE70BD800980650E
:1054F00000088065F8B50E1C041C171C0121FFF77D
:10550000EFFE051CC068C00204D001220121201C4E
:10551000FFF772FEE8681349400D4005C019E860C6
:10552000E000401846606100022088400E49486251
:105530000121201CFFF72AFE0121201CFFF74AFE53
:105540000121201CFFF710FE0121201CFFF730FE77
:105550000121201CFFF7A0FE0121201CFFF7AEFE59
:10556000F8BD00008009806500088065F8B5134922
:105570000D2212028C18228B531C52182383107296
:105580007E2819D1228B012A16D00D4F01257D606E
:1055900000267E60D12000010818807B0831FFF7CB
:1055A000A9FF2683054C0C3C2570FBF73DFA7D6076
:1055B0007E6020780028F8D1F8BD0000FC38870014
:1055C00000340080F3B581B0071C02983D1C0090A8
:1055D0000520C0013C186069E16B394E884201D951
:1055E000082053E0E069002813D1364800780228EB
:1055F00003D0042801D0052801D1212046E0A0696C
:105600000130A061381CFEF747FF002801D10020BF
:10561000FEBD2D4801214160002343602B480069F5
:10562000002838D161696B6A029A281C98470028C3
:1056300001D00A202AE024490120486000234B6061
:105640002348021C002103E00023137001320131C2
:10565000636B8B42F8DC61692B6B1D4A281C9847F1
:10566000002801D00B2011E01749012048600023D9
:105670004B600098636B164A00219C4609E0037852
:10568000157801320130AB4202D00C20B061BEE788
:1056900001318C45F3DC0C490120486000234B604C
:1056A0006069013060610B2080013818C168626B4D
:1056B0008918C160E0690138E0610120A8E70000B5
:1056C0001C6D82002867800000340080C450820076
:1056D000785682000B1C064980B54A600B60054A6B
:1056E0000123536000235360FFF76CFF80BD00006F
:1056F000785882000034008010B5041C011C9031E1
:10570000FFF760FF002800D110BD0521C901611815
:1057100000200861012010BDF8B5061C2A480D1CA8
:105720000068141CC0688047284FF869017C002974
:105730003FD1C068A0423CD3221C291C301CFFF77B
:1057400051FA002835D0221C291C3868FEF782FF48
:1057500000282ED0F969C868A0420CD9061B8868B9
:105760000D1C311C0419201CFEF79EFF002820D0C0
:10577000043551C525E0281CFCF7D2FE002818D0BE
:1057800002260674FC692568002C1AD016E0221D3A
:1057900007CAFFF727FA00280BD0A068FCF7C0FE65
:1057A000002806D00674221D07CAFEF753FF002802
:1057B00001D10020F8BD2C1C03D02568207C0128D5
:1057C000E5D00120F6E700008C678000406D820084
:1057D00070B5051CFDF7C2FA041C0A4E0E2030708D
:1057E000221C291C701CFAF700ED601C0004000C40
:1057F000054A0A23411CD1803354FAF725FFFCF7F0
:1058000045FE70BDF447820090B1800044554D4D77
:1058100059000000546F74616C20627974657320C4
:10582000726563642062792041524D5052472030A6
:10583000780041524D5052472073697A65206D734C
:1058400067206F76657272756E0030313233343591
:10585000363738394142434445460051434F4D2085
:105860006661737420646F776E6C6F616420707210
:105870006F746F636F6C20686F73740051434F4D8A
:10588000206661737420646F776E6C6F6164207042
:10589000726F746F636F6C20746172670000000038
:1058A0004552523A2057696E646F77206F76657261
:1058B00072756E2064657465637465642E2E2E00A7
:1058C000496E76616C696420436F6D6D616E640032
:1058D000556E7265636F676E697A656420666C6188
:1058E000736820646576696365000000496E7661BF
:1058F0006C6964206D61676963206E756D626572A5
:1059000000000000496E76616C69642070726F74EB
:105910006F636F6C2076657273696F6E00000000B4
:10592000506172616D657465722052657175657341
:1059300074205061636B6574204C656E67746820D9
:105940004572726F72000000496E7465726E616C10
:10595000206572726F72202D207265706C795F62A3
:105960007566666572206F76657272756E000000EE
:10597000496E76616C6964207061636B6574206C3C
:10598000656E6774680000005061636B6574207415
:105990006F6F206C61726765000000005265616482
:1059A00020756E7375636365737366756C000000B4
:1059B00043616E6E6F7420726573657420626566F4
:1059C0006F726520636C6F736500000053696D70C2
:1059D0006C65207772697465206E6F7420616C6CE1
:1059E0006F77656400000000577269746520756EFA
:1059F0007375636365737366756C0000506F7765CC
:105A000072206F6666206E6F7420737570706F728F
:105A1000746564004475616C20496D616765204E52
:105A2000414E442070726F6772616D6D696E6720C0
:105A30006E6F7420737570706F7274656420286D5A
:105A4000756C7469206F6E6C7929000043616E6E0D
:105A50006F7420636C6F7365207768656E206E6F5E
:105A6000742070726576696F75736C79206F7065DC
:105A70006E656400436C6F7365206661696C656474
:105A80000000000053657420736563757269747952
:105A9000206D6F6465206661696C65642E0000008E
:105AA0004E6F207365637572697479206D6F6465DC
:105AB000207265636569766564206265666F7265EC
:105AC00020706172746974696F6E207461626C65B4
:105AD00000000000506172746974696F6E20746117
