:0200000400807A
:10000000F4109FE5F0209FE5EC309FE5E8409FE588
:10001000E4509FE5E0609FE5DC709FE5D8809FE5B8
:10002000D4909FE5D0B09FE5CCC09FE5C8D09FE5B8
:10003000C4E09FE500000FE1801080E301F021E1C2
:10004000D7F021E3B4D09FE5DBF021E3B0D09FE50A
:10005000D2F021E3ACD09FE5D3F021E3A8D09FE517
:10006000A8009FE5010010E3A4E09F15A4E09F0510
:1000700010FF2FE1784700009C009FE5010010E38E
:1000800098E09F1598E09F0510FF2FE1784700004A
:1000900090009FE5100F01EE100F11EE400D80E370
:1000A000100F01EE80009FE510FF2FE1DEEEDEEE87
:1000B000784700000220A0E3101E10EE021001E0BD
:1000C000000051E3FBFFFF1A100E01EE1EFF2FE1AF
:1000D000784700000120A0E3101E10EE021001E09E
:1000E000000051E3FBFFFF0A100E11EE1EFF2FE18F
:1000F000784700000070A0E117FF2FE1EFBEADDEF2
:10010000BC908000BC918000BC8F8000BC878000C8
:100110000D0580007500800078008000B923800004
:100120008D008000900080007800050099228000FA
:1001300010B4042A0ED3031C0B439B070AD108C832
:1001400010C9A34202D1043A042AF8D2A34201D032
:1001500004380439002A02D1002010BC7047D307AC
:1001600001D5013205E003780C7801310130A3425A
:1001700007D103780C7801310130A34201D1023A52
:10018000F1D1181BE9E7000078470000030052E3B3
:100190003E00009A03C010E20800000A0130D1E4DA
:1001A00002005CE30C2082E001C0D1940130C0E485
:1001B0000130D134042042E201C0C0940130C03487
:1001C000033011E21E00000A042052E22F00003A20
:1001D00003C031E7020053E30800000A0F00008A61
:1001E0002C34A0E104C0B1E5042052E20C3C83E1D0
:1001F000043080E4F9FFFF2A011081E2230000EAC5
:100200002C38A0E104C0B1E5042052E20C3883E1AF
:10021000043080E4F9FFFF2A021081E21B0000EAAB
:100220002C3CA0E104C0B1E5042052E20C3483E18F
:10023000043080E4F9FFFF2A031081E2130000EA92
:100240007847000010402DE9202052E20500003AD6
:100250001850B1281850A0281850B1281850A028BC
:1002600020205222F9FFFF2A02CEB0E11850B12817
:100270001850A0281800B1481800A0481040BDE848
:1002800002CFB0E104309124043080241EFF2F01FE
:10029000822FB0E10120D1440130D12401C0D1240A
:1002A0000120C0440130C02401C0C0241EFF2FE142
:1002B000031C0B439B0770B40FD1104CE60102E006
:1002C00004300431043A042A07D303680D68AB42B2
:1002D00003D11D1B9D433540F2D0002A02D10020DE
:1002E00070BC704703780C7801310130012B03D3C7
:1002F000A34201D1013AF5D1181BF1E70101010137
:1003000010B5214CFF21E0690131422822D010DCD8
:1003100020282FD006DC012828D00A2830D100F070
:1003200037FD2EE040281ED0412829D100F0CEFE16
:1003300027E0452814D006DC43280ED044281FD1DE
:1003400000F0FAFD1DE0482817D04C2818D100F025
:10035000ABFD16E000F032FF13E000F0EDFE10E020
:1003600000F058FD0DE000F02FFE0AE0074801F014
:1003700083FB06E000F0C6FC03E001F02DFC00E08A
:10038000081CE06110BD000040498200D0338200AB
:10039000F7B55C480E1C0068151CC06884B0804727
:1003A000594B9969002963D0DC69002C0AD108688F
:1003B0009861D961002008601962049A4A608E60D1
:1003C000CD6099E01F1C206802E00268041C101C2C
:1003D000002814D08268B242F7D38268B24248D172
:1003E000027C012A44D0C268AA4241D3AA4233D136
:1003F000049A42608660C5600122027480E0A068B1
:10040000E2688018B04206D108683B1CB8612160E0
:1004100000240C606BE00290301A0190011C0298DD
:1004200002F0D4F9002823D0BA693B1C11680F6888
:100430009F612260116000240C60506002989060FF
:100440000198D0601474586A049A01304A608E6032
:10045000CD6001220A7451E00A683B1CBA61216038
:100460000860C268521BC2608268521982603EE016
:100470002AE0227C012A27D0A2680392E3689E46E4
:10048000D21873199C469A4229D90F681E4B3A68B4
:100490009A61039A7346B21AE26052199A1AFA6084
:1004A00021600F6038600498174B48608E60CD6003
:1004B00001200874586A013058626046B860F968D3
:1004C00002F084F9002802D1002007B0F0BD786066
:1004D00000200D493874486A0130486210E00A680B
:1004E0003B1CBA6121600860E068401BE060049832
:1004F00048608E60CD6001200874586A01305862EF
:100500000120E2E7B847800064498200704700009C
:10051000F7B515480C1C0068161CC0688047134FBF
:10052000F86900280ED1B96A0123651A2A1C02F065
:10053000D3F8002806D03868B96A2A1CFFF728FFCC
:1005400000280DD00023321C211C009802F0C4F8B2
:10055000002805D0321C211CFFF71AFF002801D10A
:100560000020FEBD0120FCE7B847800064498200FE
:100570000549322201E00A6232383228FBDC0028C9
:1005800000DD08627047000000020080B0B5084D31
:10059000064C281CE18800F049F8E1886854000AFC
:1005A0006A185070881CE080B0BD0000BC918000CB
:1005B00020288200F8B50524184BE4011B191B6B99
:1005C0001C1C54434B4325181E1815490120C860B4
:1005D000C24207D0114C8034E068291C426B90471E
:1005E000012801D10120F8BDE0680E4F036B3A1CD1
:1005F000291C984700280C4D01D00B2007E0E0682B
:100600003A1C436A311C9847002803D00A20A8618D
:100610000020E8E702490120C860E3E700318200DA
:1006200000540080A03682004049820030B50C4D55
:100630000A4A07E0037853401B06DB0DEB5A120A07
:100640005A4001304B1E1B041B0C0C1C191C002CA7
:10065000F0D1D0430004000C30BD0000FFFF0000CB
:10066000BC3F800030B5D2431204120C0A4D07E0A3
:10067000037853401B06DB0DEB5A120A5A40013037
:100680004B1E1B041B0C0C1C191C002CF0D1D0435E
:100690000004000C30BD0000BC3F800070B50D4E62
:1006A0000125F5600C4C0020022103C4083CE060E9
:1006B000A16020616061216A08700A20E061FFF793
:1006C0001FFEF560E069002801D0072070BD002002
:1006D00070BD0000005400804049820070B50E1CBF
:1006E000051C141C23490120C86002F06BF9224943
:1006F0000020086048608860C86008614861081C84
:1007000005620121490202200322072E1B4D2DD232
:1007100001A39B5D5B009F442903090D111A290069
:10072000002C01D028700CE0412017E0002CF9D1FA
:10073000422013E0002CF5D143200FE0002C02D121
:100740002A70072070BD8C4205D8442006E0002C9A
:10075000F6D08C4201D90120E4E745200649C86162
:10076000FFF7CEFD0448C069002801D00420D9E776
:10077000002070BD0054008040498200C09180007C
:10078000B0B5144A0125D560134C00222260626086
:10079000A260E26022612062A16162614020E061AA
:1007A000FFF7AEFDE069002811D0A0690B490928C8
:1007B00007D0232803D0282805D1022004E00D709B
:1007C00003E0032000E0042008700720B0BD0020F3
:1007D000B0BD00000054008040498200BF918000FD
:1007E00070B50025002304E0CE5C2C1C01350133DC
:1007F00006559342F8DB002070BD00000C4A10B58E
:100800000121D1600B4C002121606160A160E16099
:1008100021616161226A1170A0614820E061FFF7E7
:100820006FFDE069002801D0072010BD002010BD39
:10083000005400804049820080B502F035FA00285B
:1008400001D1072080BD002080BD0000F8B5114F08
:1008500000240126FE60104DA8680106090E12E072
:10086000E8680006000E4906490F06D030202861CE
:100870001020286128612E6101E001F0DDFDA868EB
:100880000106090EFE60201C0134802801DAC80729
:10089000E6D4F8BD0054008000400080F8B5494817
:1008A0000122C2604849496AC90772D547490226F0
:1008B0004E600121C1604548403081684A0704D537
:1008C00004210160052181608168090761D5016B00
:1008D000446B0C40046308218160A00701D502F03D
:1008E0004DFEE00706D501220121002002F02EFD79
:1008F00002F0FEFB364DD12000012F18BD7B6800B1
:100900008640311C324E201C08400C3E00281BD073
:100910000121281C02F08CFDC068C002C00A00281A
:1009200010DC0121281C02F0C9FC0121281C02F066
:10093000E9FC00220121281C02F008FD0121281CED
:1009400002F0AAFC00203070F87B0121204D42000B
:1009500091400C4001D0B16871603178002918D104
:100960007168371C002914D0002102F061FDC068B5
:100970000922D201101A0604101C154968380818FB
:10098000B968360C884201D112482818011CB86099
:1009900000E016E0042002F021FE002E11D00D2010
:1009A000000200242D1807E0688B411C69837968D8
:1009B000085C01F041FD0134B442F5DB002068839E
:1009C0007860F8BD00540080400D00800020008059
:1009D0002015870098080000F8B50521C901051CFD
:1009E0004018C66A11480127C760002417E00F4865
:1009F000C7600F480068C0688047211CEA69281C4E
:100A00009047831C0AD0211CAA6A281C9047002802
:100A100004D00849092088610020F8BD0134B4429F
:100A2000E5DB0248C7600120F7E7000000540080C2
:100A3000B847800040498200F8B52F4E0120F06091
:100A40002E4FF86801F0F6FF2D492D4C4860903488
:100A5000E068391C826AC96890470028294D01D096
:100A6000092031E0244E0120F060022603E0042E2C
:100A700008D0072E06D0F9683A69301CFFF79AFDB6
:100A800001282ED10136082EF1DB1D480521C901B0
:100A900010304618194F306BF9681B4A4843011D46
:100AA000E068436A984700280DD1134F0120F86091
:100AB000306B124EF1684843411CE068436A72682B
:100AC0009847002802D00A20A8610AE00124FC60AF
:100AD00001F004FC002804D0FC6002F07FFA012839
:100AE00001D00020F8BDFC603069F168F060316130
:100AF000FC600120F6E700000054008054478000AD
:100B0000F030820040498200A0468200F8B53E4D98
:100B10000120E8603D4C3E4FE068826AF9689047EA
:100B200000283C4E02D00920B0614AE0364D012138
:100B3000E9600425F9683A69281CFFF73BFD0128A4
:100B40003FD10135082DF5DB30480521C90180383A
:100B500045182F4F286BF968102248432F49871CEE
:100B60002D4801602E49416001218160274990395B
:100B700009680C30FFF70AEBE068274A436A391C22
:100B800098470A2700281BD11F490120C860204927
:100B9000286BC968234A4843C11CE068436A9847E8
:100BA00000280DD118490120C860194A286BD16866
:100BB0004843411CE068436A52689847002801D0C6
:100BC000B76106E0104E0125F56001F087FB0028B3
:100BD00001D10020F8BDF560134F0C4C1022391CD8
:100BE000903C2068FFF764FB002803D10E480C30CE
:100BF000206000E02760064A1069D168D06011616A
:100C0000F5600120E6E7000000540080803182009A
:100C10005447800040498200A03682009C120FFA9F
:100C2000C9B68F5AA0448200C03C8000044980B5F8
:100C30000220087003490020086001F0C3FE80BD57
:100C40005047800060308200024880B5006801682B
:100C5000884780BD60308200F8B50B4C00252068C5
:100C60000A4E00280ED10021271D381C00F05EFB23
:100C7000002805D12760002F04D101203070F8BD75
:100C80002560FAE73570FAE760308200504780004F
:100C9000F8B5051C00201A4F00903868C1688847D5
:100CA000041C386801698847061C38684169884710
:100CB00001E064107600C82CFBDC46430098321C2F
:100CC000411C2C542004030E6B54130E9C4613023B
:100CD0001B0E9E461304481C00211E0E17063F0ED5
:100CE0000AE0421C2F54AE54501C73462B54421C35
:100CF000501C6346AB540131A142F2DBF8BD000049
:100D000060308200F8B51D490120C8601C4F38686A
:100D1000C068804700211B4C201C00F007FB1A49CB
:100D2000002806D1201CCC6006D118490220886119
:100D30001BE00020C860F8E70D1CC1688847061C4E
:100D40000024012715E00D48C7600D480068C06801
:100D50008047E868211CC2699047831C08D0E86876
:100D6000211C826A9047002802D0FF200130F8BD84
:100D70000134B442E7DB0020F9E7000000540080B2
:100D8000B8478000A0488200F030820040498200CD
:100D9000F8B51D4D0120E8601C4F0520C001391831
:100DA0000869EC0D002811D04A6B101AFF2306E0E9
:100DB0000A69561CD21990320E611370013800284E
:100DC000F6D1381C02F01CFD002818D00126EE6078
:100DD0000F4D28780B2812D201A31B5C5B009F44A7
:100DE0000E0E100E1010050A0E0E1000FFF78EFEEC
:100DF000002806D103E0FFF71FFE002801D1201CC8
:100E0000F8BD2E700020FBE700540080D033820034
:100E100054478000F8B51D4F0126FE601C4834027F
:100E200080681C4D002801D1242018E001F0E2FA6E
:100E3000012825D1184801F0F5F9012801D0272013
:100E40000DE00126FE60154E0021301C00F050FB25
:100E50000521C90171188861431C02D10320A861D2
:100E60000EE00126FE6072020D48296AFFF78EE946
:100E70000C4907200870094801F0B8FB002801D18F
:100E8000201CF8BDFE600020FBE70000005400803D
:100E9000F030820040498200E03C8000D033820084
:100EA000A046820054478000F8B51D4E0127F76028
:100EB0001C48F40D80681C4D002801D124201DE041
:100EC00001F098FA012825D1184801F0ABF9012862
:100ED00001D02D2012E00127F760154F381CFFF7D5
:100EE0007BFD012816D10021381C00F001FB0521F3
:100EF000C90179188861431C02D10320A86109E067
:100F00000125F5600B490A200870381C01F06EFBC2
:100F1000002801D1201CF8BDF5600020FBE700008F
:100F200000540080F030820040498200D83C8000AC
:100F3000D033820054478000F8B51D4F0120F8607F
:100F40001C4EFC0DB0681C4D002801D1242018E077
:100F500001F050FA012825D1306801F063F9012829
:100F600001D026200DE00126FE60144E0021301C29
:100F700000F0BEFA0521C90171188861431C02D135
:100F80000320A8610EE00126FE6072020C48296A67
:100F9000FFF7FCE80B4906200870084801F026FB23
:100FA000002801D1201CF8BDFE600020FBE70000F6
:100FB00000540080F030820040498200D03382002B
:100FC000A044820054478000F8B5374F0120F860F4
:100FD0003648FE0D006A3649431C01D12C203BE007
:100FE00033490C6A33492068884209D13249606824
:100FF000884205D1A068012802D1E068102801D9F3
:10100000282028E02D4DE868002815D12B4F00211D
:10101000803F381C00F08AF9002801D1EF6001E020
:101020000020E860E868002801D1022013E0381CA5
:1010300001F0B0F8012826D11B4F0120F8601F49AC
:10104000102080390866E8681E491D4A00F002FA3F
:10105000431C03D122201649886114E01348C1685B
:101060004B1C09D10069431C06D10120F86001F036
:1010700053FD002809D106E00120F860201C01F092
:101080007DFD002801D1301CF8BD0125FD60FF2247
:10109000D132211C0C48FFF7D6E80848903885600B
:1010A000FD600020F0E700000054008054478000FD
:1010B00040498200AA73EE55DBBD5EE380318200B9
:1010C0006447800060478000A03C8200F8B5154F5F
:1010D0000126FE6001F08EF9340201281AD1124D6A
:1010E000281C01F057F8012814D110480168281C69
:1010F00000F0FEF90521C90169188861F04203D1A9
:101100000B490320886105E0FE60281C01F06EFA9F
:10111000002801D1201CF8BD064902200870FE609D
:101120000020F8E700540080D03382002C49820070
:101130004049820054478000F8B51A4E0127F760F5
:101140001948F40D8068194D002801D1242018E0B9
:1011500001F050F9012820D1154801F063F8012869
:1011600001D025200DE00127F760124F0021381C27
:1011700000F0BEF90521C90179188861431C02D12C
:101180000320A86109E00125F5600B4905200870DE
:10119000381C01F02BFA002801D1201CF8BDF560A5
:1011A0000020FBE700540080F030820040498200BC
:1011B000E83C8000D033820054478000F8B5154FDA
:1011C0000126FE6001F016F9340201281DD1124DEE
:1011D000281C00F0DFFF012817D110484168281CA7
:1011E00000F086F90521C90169188861F04203D130
:1011F0000B490320886108E0FE600A49042008705A
:10120000281C01F0F3F9002801D1201CF8BDFE6074
:101210000020FBE700540080D03382002C4982007C
:1012200040498200544780000020C04370470000BE
:10123000016EC06D081A7047C06E7047F8B50F1C7C
:101240000169041C0025ED438847061CE06D216EF2
:10125000091A7143B94201D8281CF8BD224901205E
:10126000086022490A688243104308602049886266
:10127000201C803000900068002100F0E5FAE06D4D
:101280001B497043C01944020C6000F035F8184E39
:101290000320706000F02EFB00F02EF80620706036
:1012A00000F0FEFA0534346000F026F80220706089
:1012B00000F0F6FAB068882108400AD1706A0099F7
:1012C00000040968000C022902D10A49814300D0B8
:1012D000002506490868400840000860B0620249DD
:1012E00000200860B8E7000010118700081187008F
:1012F00000030060FFFF0000064903204861054825
:1013000080308068800703D003490120C860FDE772
:101310007047000000040080005400800020C0439B
:1013200070470000C06F7047406E7047F3B50226EB
:10133000051C00242649012083B0086000F0D0F984
:10134000012000F0CFF9234903204861FFF7D4FFC3
:10135000214A00275760214908689062204B1B688A
:1013600013634008400008609062FFF7C5FF1A4A07
:101370000720506000F094FA02A901A800F0EAF8F2
:101380001849A0000B580199029A281C9847002878
:1013900015D104988035A8602868022800D100E0A3
:1013A000012000F09FF90D490B4A086890620C4B30
:1013B000186810630649381C0F6005B0F0BD013491
:1013C000B442DDDB02490020C0430F60F5E70000B6
:1013D00010118700000400800003006008118700DE
:1013E0000C11870078478000F8B50E1C016EC26DA5
:1013F000051C0124891AB14223D90169884703E0F9
:10140000013424044010240C0228F9D10F4F01208C
:101410003860E86D80190934A0400D4C2060FFF75A
:101420006BFF0420606000F065FAFFF765FF06209F
:10143000606000F035FAA06800213960882108401A
:1014400002D00020C043F8BD0020FCE71011870047
:1014500000030060F7B50D1C0024161C86B0049430
:10146000002703AA211C069800F08EF8012807D156
:1014700001900594C02C11DD0020C043306020E0B5
:101480000134C02CF8DCECE702AA211C069800F01D
:101490007BF8012802D10127049402E00134C02C1A
:1014A000F2DD01983843E7D00198002803D0002FDF
:1014B00009D1059C02E0002F05D0049C0020C04308
:1014C0003460286011E003980299884203D100201B
:1014D000C04309B0F0BD884203D9059C3460049C28
:1014E00002E0049C3460059C2C600020F1E70000C1
:1014F000FEB5061C002002900F1C0024E543F16895
:10150000301C88470190874218DC0CE0211CF269EE
:10151000301C9047831C05D00135BD4202D101200B
:10152000029000E001340198844204DA0298002815
:1015300001D1BD42EADB0198844202DB0020C043B6
:10154000FEBD201CFCE70000011C014870470000A4
:101550004214500470B5051C0E1CFFF7CDFE094C5B
:101560000520606000F09CF9FFF7C6FE0620606071
:1015700000F096F9206A0104090E0006000E2960A9
:10158000306070BD00030060F7B5C269041C0D1C1B
:101590009047831C36D02169201C88474543626BE5
:1015A0006E1C291C201C904700282BD1194F291C88
:1015B000236B3A1C201C9847002823D11649386811
:1015C00088421FD11549786888421BD1B868012824
:1015D00018D1311C626B201C9047002812D1104D8D
:1015E000311C236B2A1C201C984700280AD10D4966
:1015F0002868884206D10C496868884202D1A868E8
:10160000012801D00020FEBDF86802990860012081
:10161000F9E7000014138700AC9F56FE7A127FCDC5
:1016200014118700AA73EE55DBBD5EE3F3B50169C3
:10163000041C012781B08847061CA169201C88472B
:10164000051C206EE16D401A70430299884201D852
:101650000020FEBD1E4801221E490260086890431A
:1016600010431D4A08609062E06D02997043401873
:1016700040021060FFF740FE01205060141C00F093
:101680000FF9A068882108400021002801D0002718
:1016900013E00020032252070DE083181E68731C1C
:1016A00008D00C4A1068400840001060A06208484A
:1016B0000160CDE70430A842EFDB064A106840081D
:1016C00040001060A06202480160381CC1E70000C1
:1016D000101187000811870000030060806F7047B9
:1016E0007047000010B5084A022802D1FF2183315B
:1016F00001E0FF210331054C1160A162FFF724FFD7
:101700005060206310BD00000811870000030060D6
:10171000F3B5FFB084B0C56D066E041C10202066C2
:101720000020E065201C81AA82A9FFF793FE002714
:10173000FF43B8423ED08198B8423BD080902169A7
:10174000201C8847809A236B50436A46011C201C4A
:101750009847002807D119490098884203D11849B1
:101760000198884201D0381C00E00398431C21D026
:101770002169201C88478199236B4843114A411CE9
:10178000201C9847002815D10E490F4A086890423E
:1017900010D10E4A486890420CD18868012809D1BE
:1017A000201C849A00F05EF8012803D100207FB04D
:1017B00006B0F0BDE5652666381CF8E7AC9F56FE1E
:1017C0007A127FCD14118700AA73EE55DBBD5EE35C
:1017D000006F7047F7B5041C0D1C01698847E16D67
:1017E000226E0027521A4243FF43AA4201D8381CF6
:1017F000FEBD414301220F4E48190F4D4002326099
:101800002860FFF779FD6A6000F04AF8A8680B4984
:1018100000250840002801D03560E8E76169201CF8
:101820008847021C032149070298FEF7B0EC00200C
:101830003560DDE71011870000030060C8000080FC
:101840008030416070470000021C022A034802D128
:101850008172C172704741717047000000020060E0
:10186000406F704770B5041CE56D081C111C266E96
:1018700000F0A6F800280ED00169E16541694B1C13
:1018800001D1A06E01E0006940182066A16E884277
:1018900001D8012070BDE5652666002070BD0000FE
:1018A00070B5114D0024A8688007800F0F4E06E028
:1018B00001340120FEF75CFEA8688007800F8007D6
:1018C00001D4B442F4D30849022080394861A868A1
:1018D00082070121002A064801DAC160FDE7B4420F
:1018E00001D3C160FDE770BD80040080581B00007B
:1018F0000054008070B5124D0024A8688007800F46
:10190000104E06E001340120FEF732FEA868800781
:10191000800FC00701D4B442F4D3094903208039B1
:101920004861A8688207920F0121002A064801D069
:10193000C160FDE7B44201D3C160FDE770BD0000A6
:1019400080040080581B000000540080F7B5041C80
:101950000E1C01698847051C206EE16D411A694320
:10196000B14223D9144F012038606169201C884797
:10197000021C032040070299FEF708ECE06D0F4CB3
:101980006843801940022060FFF7B6FC03206060C6
:10199000FFF7B0FFFFF7B0FC06206060FFF780FFA5
:1019A000A068002139608821084002D00020C0438F
:1019B000FEBD0020FCE7000010118700000300605E
:1019C000F3B5061C002481B0C7680CE01C206043FE
:1019D000029985191035281C00F00AF8002801D05A
:1019E000281CFEBD0134BC42F0DB0020F9E70000FA
:1019F00080B51022FEF75CFC002801D1012080BDDB
:101A0000002080BDF3B5051C006881B0029909680B
:101A1000884229D1686802994968884224D1A86817
:101A20000299896888421FD1E8680299C96888428A
:101A30001AD100241BE01C20604302994719461864
:101A4000311C1031381C1030FFF7D2FF00280BD0AA
:101A5000386A316A884207D1786A716A884203D14C
:101A6000B86AB16A884201D00020FEBD0134E8683E
:101A7000A042E0D80120F8E7F1B5554F84B001202D
:101A8000F8605449C8680A6A16180A6910180A6882
:101A90004969801A0D042D0C411901910521049BFF
:101AA000C9015C18616A002902D1012120626162CA
:101AB000474F0121F960216A814237D0421A171C31
:101AC0008142029228D9192017E0606B2169401ADF
:101AD000B84200D3381CFF2208E02169013F4B1CAB
:101AE0002361049BC91890310A7001380028F4D191
:101AF0002069616B884203D91A203649886160E009
:101B0000884209D132490120C860049801F078FE6A
:101B1000002856D000202061002FD6D10B20049B36
:101B2000800118184168029A89184160284F0120E5
:101B3000F8600499903103913BE0606B2169471A8A
:101B4000AF420BD9206904992A1C40189030311CEF
:101B5000FEF71CEB2069401920612CE0AF4206D152
:101B6000002904D0049BC81890302A1C07E0AF421B
:101B700010D200290ED0049BC81890303A1C311C9A
:101B8000FEF704EBF619E81B05042D0C0020039961
:101B9000206104E0311C8619281A05042D0C0C4F15
:101BA0000120F860049801F0B5FD002809D001205B
:101BB000F860002DC1D1019921622069616B8842D2
:101BC00003D9FF20013005B0F0BD0020FBE7000085
:101BD0000054008040498200B0B5104C104A0120EA
:101BE000A169D060FF30002903D0012901D02A214A
:101BF00006E00C4D2A6A531C06D08A4202D02B21E3
:101C0000A161B0BD0020B0BD081C2962064900F0EA
:101C100063FF011CFF390139B0BD0000404982005B
:101C200000540080544780002C498200F8B5214FB1
:101C30003868C0688047386801697E208847012578
:101C400000241FE01F20A04302D13868C0688047ED
:101C50001948065D7E2E01D07D2E0CD138680169B1
:101C60007D20884720203968464030060969000EEB
:101C70008847023505E0386801693006000E88475C
:101C8000013501340D48C0888442DBDB3868C06808
:101C90008047386801697E208847681C800607D124
:101CA000386801697E208847386801697E20884746
:101CB000F8BD0000B847800020288200BC91800059
:101CC000B0B5041C17480068C0688047164DEA6923
:101CD000002A25D09168101CA1420BD10168E9614E
:101CE000002900D12962A9690160A861696A0139E6
:101CF0006962B0BD0068016802E00B68081C191C2D
:101D000000280DD08368A342F7D10168A96901605A
:101D1000A861696A01396962002AEAD12A62B0BD04
:101D20000020B0BDB84780006449820010B50E4C59
:101D3000A078002802D10D490F2005E0FEF7AEFC87
:101D4000002804D00949283101F0D6F80AE0002023
:101D5000A0700749162008700120E080FEF716FCED
:101D6000FFF764FF002010BDBC918000543B800051
:101D700020288200F8B5041C39480078002838D1A2
:101D80002022E01D3749FEF7D3F9002802D035495B
:101D9000913106E0261C2036307A022803D23149E0
:101DA000A931052028E0A088242803D22D49C53177
:101DB000032021E02C48002505702C4F29490220E2
:101DC000387020222131781CFEF7E0E93C1C2034D9
:101DD000032060700220A070E570042020716571FE
:101DE000A571E57125726572A572FEF72DFF051CC0
:101DF00005D11C497531082001F07EF82EE0281C21
:101E000000F0EEFA0206120E381C291C2C30E27289
:101E1000FEF7BCE9E07A642200252C30411C3A54DC
:101E20004C1C38197D54FEF733FF727A01190920D2
:101E300002407A54481C0E49C8800121C9028842D8
:101E400008D90849ED31072001F056F80949012069
:101E5000C860FDE7FEF79AFBFFF7E8FE0020F8BD3B
:101E60005047800063398000D446800020288200DB
:101E7000BC9180000054008080B50349052001F02A
:101E80003BF8002080BD0000C839800080B50349C0
:101E90000E2001F031F8002080BD00001C3B8000C6
:101EA00070B5011CCC7989881A4D083002390A04B2
:101EB000A968120C012901D0174904E0E968012939
:101EC00005D015492C310F2001F016F81FE0211C18
:101ED000FEF704FC1C2302260028104A0ED02879A5
:101EE0000D495C31042807D0012803D0022801D015
:101EF000032801D1137004E00720E5E7AC701370EC
:101F000000205070EE80FEF741FBFFF78FFE0020AF
:101F100070BD0000BC918000243C8000202882001D
:101F2000B0B5011C8A881A4CC979023A1204A36818
:101F3000120C0830012B02D016490F2016E00123A5
:101F40005B029A4203D91349343103200EE0FEF7B5
:101F500017FC02221A25002100280F4B0DD0E07833
:101F6000042806D1E1600B495431072000F0C4FF7A
:101F70000CE0E1601D70587003E00120E0601D700E
:101F80005970E280FEF702FBFFF750FE0020B0BD63
:101F9000BC918000A83B800020288200064980B5C3
:101FA0001220087005490120C8800549152000F05D
:101FB000A3FF002080BD000020288200BC9180008B
:101FC000043B80000E4810B58178002904D00D49EB
:101FD0000F2000F091FF10E00C210B4A012411703A
:101FE000C480FEF7D3FAFFF721FE0848C460084812
:101FF00000688068804700F0F1F9002010BD000003
:10200000BC918000B83A80002028820000540080F3
:10201000B847800080B5C079FEF7F0FB002803D0F8
:10202000084900F069FF0AE00121074A074B182020
:1020300091601870D180FEF7A9FAFFF7F7FD002034
:1020400080BD00008C3B8000BC9180002028820075
:1020500010B5821D8088072801D01C4914E09178B2
:10206000507809020843D178090408431179090618
:102070000143507993791B021843041C012080020C
:10208000844205D911491831032000F035FF1AE0C8
:102090000F48042303705378437093788370D37888
:1020A000C370127902710530221CFEF799FB0028DB
:1020B00002D006492C31E8E70649601DC880FEF7CA
:1020C00065FAFFF7B3FD002010BD0000783A8000EC
:1020D00020288200BC91800080B50349052000F0D3
:1020E0000BFF002080BD0000D43A800010B5831D96
:1020F000808899780538020458780902120C084340
:10210000D97809040843197909060843041C211CDD
:10211000581DFEF791FB002803D00C4900F0ECFE9F
:1021200012E00B48082101702104090E44708170EF
:102130002102090EC170210E017106490520C880D7
:10214000FEF724FAFFF772FD002010BDF03A800080
:1021500020288200BC91800010B5811D80880A2251
:102160000131013804040848240C0270221C01309B
:10217000FEF70CE80549601CC880FEF707FAFFF778
:1021800055FD002010BD000020288200BC91800079
:1021900070470000FEB5051C1E4806220168406815
:1021A000019102901C4801A90068FDF7F0EF1B4F58
:1021B0000126FE60E968281C88470521C9016C18C2
:1021C000E0622969281C884720636969281C8847C0
:1021D00060632968281C88470B21890169180860F9
:1021E000226B606B131C4343A363E36A5343720285
:1021F0009042E36304D90A49062088610020FEBDAD
:10220000FE6000206062C860486088602061012034
:10221000F5E70000B83C8000B4478000005400801F
:102220004049820070B50D4C021C0120E060E06066
:102230000B4D8C200B4940594968FFF713FB0128CF
:1022400006D10126E660281CFFF7A4FF012801D073
:10225000002070BDE660012070BD000000540080C9
:10226000D033820054478000B0B5084C20688047C6
:102270000128074D05D1606880470028FBD02C60FD
:10228000B0BD044C20688047F9E70000A0478000FB
:10229000B8478000804780008CB5684606220C490C
:1022A000FDF774EF0B48062269460068FDF76EEFF4
:1022B000FFF76EFFFEF7BAFC07490120C860FFF781
:1022C000D3FF00F0F1F8FEF7C7FC00F013F98CBD66
:1022D00014398000B447800000540080F8B53149BB
:1022E0002E4F0522D2010C1C386980348D18431CF6
:1022F0002B4E07D12C49F86901602C49416001211E
:1023000081600CE0296B2A4A4143E068036B9847DF
:10231000002801D00B2020E0F869C1680131C160BC
:102320001E48296BC0681D4A4143E068436AD26970
:1023300098470A27002801D0B7610FE01D49012006
:10234000C860164801694B1C25D141690161E068EC
:10235000826A9047002803D00920B0610020F8BDB0
:102360000E490020CA69D0602D6B08694543E068BA
:10237000291C436A98470028DED10E490120C86015
:10238000E068064A436A5268691C98470028D3D11E
:1023900008490120C8600120E1E70000544780009F
:1023A0004049820000318200AC9F56FE7A127FCDF8
:1023B000A042820000540080054C0020054900E046
:1023C00001C48C42FCD304490120C860704700005E
:1023D000B84780004422870000540080FEE70000D8
:1023E000011C002000E001300A780131002AFAD1F6
:1023F0007047000070B50D4D0124EC600C4E0021BB
:10240000301CFEF793FF0A498031002801D1CE60CD
:1024100001E00020C860C868002804D105490220F6
:102420008861002070BDEC60012070BD0054008008
:10243000D033820040498200B0B5184C0025216994
:1024400001312161216A00290BD16169002903D181
:10245000134801F041FAB0BD21620A6862618D80C3
:102460000D607D2805D07E2806D100F019F9257071
:10247000B0BD01202070B0BD216A0A4B8A889A4203
:1024800007D22378002B02D0202358402570521801
:102490009071888801308880B0BD0000BC918000B8
:1024A000A83980000704000070B500220E494124BD
:1024B00001200A608A80240183011B181B015D181A
:1024C0002E1BCE5001306428AA80F5DB074809187E
:1024D000054824384161826102620270C261044988
:1024E0000120087070BD0000E09180003092010072
:1024F000D446800070B5064E044D01243068C06893
:102500008047EC6000F006F8EC60F7E700540080CC
:10251000B8478000F8B52D4C2068C06880474DE072
:102520002B490120487020688861002800D1C861CB
:10253000002000270025206011E024480068C068C2
:102540008047A088461B802E00DD8026601906305B
:102550003A1C3104090CFEF785F8071CAD19A08858
:10256000A842EADC1B48874203D01B4801F0B4F9BB
:1025700020E0A0880238A080A079411E1B2916D82F
:1025800016490978002901D0012810D11449097889
:10259000002904D01349082000F0AEFC0AE01249DB
:1025A000800040184038C16B201C884702E0201C86
:1025B000FFF762FC0649486920604C6104498C6958
:1025C000002CADD100204870F8BD0000B847800055
:1025D000BC918000470F0000A43C8000D4468000DE
:1025E00050478000D8398000E0468000F8B5071CCD
:1025F000051C0B208001011C40397C183E1806E0A8
:10260000B068A16B4018B060A0690130A061A169F9
:10261000EA69281C9047831CF2D0E06AA1691A4E2F
:10262000814201D3082005E0AA6A281C90470028AF
:1026300002D00920B0611BE0206BA169E061414339
:102640001248616100780A240B2811D201A31B5C97
:102650005B009F440D16161616050F16161616006B
:102660000B4A0C49381C01F0BBF8002809D1B461B1
:102670000020F8BD084A0949381C01F0B1F80028CB
:10268000F5D00120F5E70000404982005447800062
:10269000BCCE6452DF5DE85FC9B68F5A9C120FFA58
:1026A0000B4B10B5186A0B4C81880022A14201D84F
:1026B000032901D2828010BDD969002902D1D861D5
:1026C000986102E00860186AD8611A6210BD0000C3
:1026D000BC91800007040000FFB525480E1C00686F
:1026E000151CC06881B08047FF212D31214FB8688B
:1026F00088421CDA79683A688A4202D1002816D1E9
:1027000001E0002801D1B86AF860F868331A7869E6
:10271000D418844208D3841A1B1B164C3434E41892
:102720006319934206D302E06219824202D9002063
:1027300005B0F0BD3B697219D21A9E420BD98B18B5
:1027400083423E6105D9401A0A49101A34310818EB
:1027500000E0601978600498002804D12A1C201C2D
:102760000199FDF714EDB8680130B860201CDFE76F
:10277000B84780006449820070B5061C11480D1CE2
:102780000068141CC06880470F4A916800290AD06D
:102790001068B04207D1D368AB4204D15369161C0C
:1027A0001A1A944201DD002070BD00193060984271
:1027B00002D105483430306001392819F060B16029
:1027C000012070BDB84780006449820070B5051CC7
:1027D00015480C1C0068C0688047FF202D30134E40
:1027E000B16881421BDA70683268824201D10029E7
:1027F00015D1F068281A75691318AB420BD30B4B2F
:102800000A4D14335B1BC01A084B343318180319D4
:10281000934206D303E0181C1A19AA4201D90020DA
:1028200070BD0131B16070BDB8478000644982005D
:10283000FEB5071C0E1C0169002401258847019084
:10284000386EF96D401AB04201D80020FEBD3969DA
:10285000381C884703E001352D0440102D0C022858
:10286000F9D12A490120AE40351C0860391C0026E8
:1028700080310291F86D0199484325494019400281
:1028800005300860FEF738FD21490220486088685D
:102890008007FCD48868C00701D50124E443486A56
:1028A000029900040968000C022903D119498842E1
:1028B00004D001E0FF2801D00124E44301363604AE
:1028C000360C0135022ED5D3FEF716FD104E00252D
:1028D000756002990868022800D100E00120FEF727
:1028E00001FF0D490868B0620C4A12683263400863
:1028F00040000860B062FEF7FFFC07207060FEF742
:10290000CFFF0249201C0D60A0E7000010118700D6
:1029100000030060FFFF0000081187000C11870012
:10292000F8B5061C006EF26D801A884202D80020AD
:10293000C043F8BD0E4F012038600C1C3169301CBB
:10294000884701E0401064000128FBD10025211CCC
:10295000301CFEF773FC002801D13860E9E7012044
:10296000400224180135022DF1DB00203860DEE73B
:1029700010118700F8B5124F0826051C00202423EB
:102980004343DC1963698B4214D1A369934211D18B
:102990000B495C225C39281CFDF754EC2422211CD5
:1029A000281C6430FDF74EEC0020E865606828665E
:1029B0000020F8BD0130B042E1DB0020C043F8E761
:1029C0004C3E8000F0B517490120C860002216492E
:1029D000FF242D3402250A60142646430130731863
:1029E0001F1C143F8F515A60DA609A601D74A04218
:1029F000F2DB0E484B2309180D481B0381610C497B
:102A0000C261026234314160426201608260C26030
:102A1000C918416102618262C262026301490120F8
:102A2000C860F0BD0054008098F986005C17000073
:102A300064498200F8B5051C0520214CC001261808
:102A4000306B20496843871C0120C8608034E068EF
:102A5000391C426B9047012827D0E0681A4A036B63
:102A6000391C9847002803D018490B2088611CE0C6
:102A7000154810220C30071C1549FDF719FC0028D9
:102A800007D0134910220C31381CFDF711FC002827
:102A90000BD1306B0B496843C51C0120C860E0684E
:102AA000291C426B9047012801D10020F8BDE06845
:102AB000084A036B291C98470028D5D10120F5E767
:102AC0000031820000540080A03E82004049820014
:102AD000C03C8000A0408200C0B500270126032230
:102AE0000223002808D001280ED1404281C10839B4
:102AF0000A61CB608E6005E004200861CA608B60CB
:102B00004E600F600020C0BD02492A208861FF206E
:102B10000130C0BD40498200F8B512490120C860AB
:102B20001148C1681148FEF7E3FC11492225431CF6
:102B3000104CC8600BD00B4F0126FE600A4801699B
:102B40000A48FEF7D5FC0A49F042486102D100204C
:102B5000A561F8BDFE60054A0748103A10608E6115
:102B60000120F6E7005400802C49820000318200E9
:102B70005447800040498200C03C8000F1B50520E8
:102B80004149C0010F18414E386B31693E4D4843F1
:102B90003F4A411C8035E868036B984700283D4C4C
:102BA00052D1B1680098FEF72DFF002816D1A06918
:102BB000012811D1FEF7A6F8FF38013801D109200C
:102BC00043E035490120C8604042F0603061FFF7C2
:102BD000A3FF002856D04FE0232036E00020B0614C
:102BE000F068431C1AD12D48C1682748FEF780FCC5
:102BF000F060431C0DD0284A0121D1603169884220
:102C000009D1264801692048FEF772FCF060431C98
:102C100001D1222019E0204A0121D160386B3169AD
:102C20004843861CE868311C426B9047164F103FA2
:102C3000012801D11A4E1EE0E8681A4D036B2A1CC8
:102C4000311C9847002802D00B20A0611AE0144ED6
:102C5000281C0C301022311C051CFDF729FB1049E3
:102C60000C31002801D1396006E01022281CFDF744
:102C70001FFB002802D13E600120F8BD2620A06184
:102C80000020B8600020F8E700318200544780003F
:102C9000A03A820040498200005400802C49820002
:102CA000C03C8000A03E8200F8B5061C23480C1CE6
:102CB0000068151CC068804767192149C869002849
:102CC00019D1081C806AA0420BD0081C006B8442FA
:102CD00032D32A1C211C301CFDF71AFC002826D1F7
:102CE0001EE02A1C211C301C00F02CF8002817D0F4
:102CF000134887621BE080681149A0421CD8A0429B
:102D000007D12A1C211C301C00F08AFD00280ED19E
:102D100006E02A1C211C301CFDF7FAFB002801D11B
:102D20000020F8BD0649886A844200D38F620449B6
:102D3000C86A844200D9CC620120F2E7B84780001B
:102D400064498200F8B5061C0D480D1C0068171C6C
:102D5000C0688047022000210A4C6060216008346E
:102D6000A3C4183C26620120E061FDF7C9FAE069BE
:102D7000002801D00020F8BD034805630120FAE7D0
:102D8000B84780004049820064498200F8B5051CBC
:102D90000F1C01690026012488470090286EE96D08
:102DA000401AB84201D80020F8BD2969281C88477C
:102DB00003E0013424044010240C0228F9D12349F3
:102DC00001200860E86D0099A7404843204CC019D5
:102DD000400205302060FEF78FFA02206060A06894
:102DE0008007FCD4A0680121C943C007002800DA8D
:102DF0000E1C606A80352A680004000C022A03D188
:102E0000144A904203D001E0FF2800D00E1CFEF7C8
:102E100073FA002767602868022800D100E00120CB
:102E2000FEF760FC0C490868A0620C4A1268226335
:102E3000400840000860A062FEF75EFA072060606C
:102E4000FEF72EFD0149301C0F60ADE71011870021
:102E500000030060FFFF0000081187000C118700CD
:102E6000F8B5051C006EEA6D0027FF43801A884202
:102E700001D8381CF8BD0B4E012030600C1C2969AC
:102E8000281C884701E0401064000128FBD1211C68
:102E9000281CFEF7D3F90021002801D13160E9E7B1
:102EA0003160E6E710118700F8B5124F0326051CC4
:102EB000002024234343DC1963698B4214D1A369A6
:102EC000934211D10B495C225C39281CFDF7BAE909
:102ED0002422211C281C6430FDF7B4E90020E86599
:102EE000606828660020F8BD0130B042E1DB0020B8
:102EF000C043F8E74C3D800070B50D1C041C081C55
:102F0000FFF76EFA061C281C00F0E6FC0C480D21A9
:102F100001702104090E447081702102090EC170F4
:102F2000210E0171291C321C0530FDF730E90549DD
:102F3000701DC880FDF72AFBFEF778FE70BD00000B
:102F400020288200BC9180000A4A00219068000677
:102F5000000EC3070BD54006400F07D0302010618C
:102F60001020106110610120106100E001210806AD
:102F7000000E70470040008004490120044A00E030
:102F8000C86093681B07FBD57047000000540080A1
:102F90000040008010B5074C0020A063FFF7ECFF55
:102FA0000548012101E0E268C160A268D207FAD4B5
:102FB000012010BD004000800054008010B5054B7A
:102FC0000122054900E0DA604C69E407FBD5C860DE
:102FD00010BD00000054008000400080F8B53A4960
:102FE0000520C0010E183949306B0969384F484334
:102FF00001240090FC60344D8035E868426B0099F4
:103000009047012801D12E2007E0E868314A036B80
:1030100000999847002803D00B202F4A906144E084
:10302000E8682A49826A09699047274910390028C7
:1030300005D0294A092090610020486035E0201C15
:10304000FC6001240F1C22490120C860032C11D10F
:10305000786801282BD11D49306B09691F4A484304
:10306000C11CE868436A9847002820D01A4A0A2001
:10307000906118E0022C0ED17868012817D113490D
:10308000306B0969164A4843811CE868436A9847CF
:103090000028EBD10BE00D480169C268201CFDF748
:1030A00089FA012803D0002078600020F8BD01349F
:1030B000082CC8DBE868074A436A0099984700284B
:1030C000D4D178600120F1E70031820054478000BC
:1030D00000540080A042820040498200A04082004B
:1030E000A03E820001490120C86070470054008062
:1030F000FEB50026002553480122C260524F6920C8
:1031000040013C18A378514948680968002B08D051
:103110000022A27039603871000A7871000AB87113
:1031200038E000AB9980090CD9801881000C5881D7
:103130009888FF23033398420BD0454B984206D022
:10314000444B984226D100AB5D893E1C22E0A27020
:1031500020E000AB1889000601D4002100E0012125
:1031600000AB1889394F00237F6800073F07FF0E27
:10317000000F00292FD0012901D10223BB40364F77
:10318000BA6B1A4000D0BB6300F052F901684900E5
:10319000490801600021002000F0A2F80021002071
:1031A00000F0C2F80021002000F088F80021002083
:1031B00000F0A8F8294801680205914301600C302D
:1031C0000168490D49050160A278002A06D000ABCC
:1031D0005A89891803E0BA40131CD0E78031016096
:1031E0000021002000F012F9A078002805D1002D60
:1031F00004D02A1C311C00F027FAFEBD012100205A
:1032000000F016F90121002000F06AF801210020E9
:1032100000F08AF80121002000F050F80121002080
:1032200000F070F80C4F0220F969014000D1F861FC
:103230000121002000F0D8F80121002000F0E6F87C
:10324000DBE700000054008020158700003000807C
:1032500021200000A12100004020008000240080E7
:103260000A48D12109014018B0B5807B0123022210
:1032700041008A40074D064C00E0E360696A114056
:10328000FBD10022012100F061F8B0BD20158700BC
:10329000005400800028008000224000002903D054
:1032A000012903D1022200E0012282400249086B79
:1032B000104000D00A637047402000800022400088
:1032C000002903D0012903D1022200E0012282401B
:1032D00002490869104000D00A6170474020008010
:1032E00000224000002903D0012903D1022200E07E
:1032F000012282400249C869104000D0CA6170476B
:103300004020008000224000002903D0012903D181
:10331000022200E00122824002494869104000D0A8
:103320004A6170474020008000224000002903D0FD
:10333000012903D1022200E0012282400249086AE9
:10334000104000D00A62704740200080F8B5051C8C
:103350000C1C6900012602278F408E400020002CA3
:1033600037D0012C00D1381C1D4B596B8143596358
:10337000002A29D00020002C2DD0012C00D1381C8F
:10338000D863211C281CFFF787FF211C281C00F094
:103390004FF8C168490D4905C160480D0CD00020A7
:1033A000002C1AD0012C00D1381C0E49496A01406A
:1033B00002D00C494031C860211C281CFFF790FF47
:1033C000211C281CFFF7B0FF211C281CFFF764FFFD
:1033D000F8BD301CC8E7301CD2E7301CE5E7000020
:1033E000402000800028008000224000002903D0F7
:1033F000012903D1022200E0012282400249486BE8
:1034000010434863704700004020008000224000C5
:10341000002903D0012903D1022200E001228240C9
:103420000249886A104000D18A62704740200080BB
:10343000034A40018018012900D110307047000074
:10344000002400804000F0B5022401238340844022
:10345000002200291FD0012900D1221C114EB56B7A
:10346000281C104016D10020002916D0012900D1B7
:10347000201C776A074000D070621543281CB06397
:10348000002000290BD0012900D1201C716A0140C5
:1034900000D17062F0BD1A1CE0E7181CE9E7181CA7
:1034A000F4E7000040200080F8B5304E002071683D
:1034B000002900D1F8BD2E4A0D210902511800241F
:1034C0000C834C838C836921490151180925ED0136
:1034D00089231B012E1C8C700C80703E11188F19D3
:1034E000C9183C720130A8420C72F7DB2148204910
:1034F00003680C39CB600179161C11714179517147
:103500008079002190710420FFF792FFC068D121DB
:10351000174A09010004000C5118002801D00420AA
:1035200000E00220C8738873C97B13480F4E4A001D
:103530000121914000E0C360326B01230A4001D0B9
:103540001A1C00E0221C002AF5D000210020FFF701
:103550004BFF074E8320C000311805480C388160AE
:103560002A1C042000F03AF80120A3E74020008044
:1035700020158700944780000054008080B5012109
:103580000020FFF755FFC068C002C00A002820DCF9
:1035900001210020FFF792FE01210020FFF7B2FE7B
:1035A000012201210020FFF7D1FE01210020FFF7B9
:1035B00073FE01210020FFF745FF064948680028F7
:1035C00007D105486922520180180088002800D0E0
:1035D000486080BD402000802015870070B50D1C1C
:1035E000041C161C0021FFF723FFC168490D490583
:1035F0008919C1601249E000401805600021201CB3
:10360000FFF76EFE0021201CFFF78EFE0021201C1C
:10361000FFF754FE0021201CFFF774FE610001201B
:103620008840084948620021201CFFF735FE002130
:10363000201CFFF7D9FE0021201CFFF7E7FE70BD1C
:103640008029008000280080F8B50E1C041C171C7F
:103650000121FFF7EDFE051CC068C00204D0012265
:103660000121201CFFF772FEE8681349400D400558
:10367000C019E860E0004018466061000220884000
:103680000E4948620121201CFFF72AFE0121201C5F
:10369000FFF74AFE0121201CFFF710FE0121201C2C
:1036A000FFF730FE0121201CFFF79EFE0121201CA8
:1036B000FFF7ACFEF8BD00008029008000280080E4
:1036C000124B0D21090270B55C18218B4A1CC918D8
:1036D000228308727E2818D1228B012A15D00C4E25
:1036E0000125F560D12000011818191C0831807BD4
:1036F000FFF7AAFF00202083044C0C3C2570FDF747
:10370000CDF8F56020780028F9D170BD201587002C
:1037100000540080F8B5071C051C0520C0012C18BA
:1037200060690E1CE16B884201D908203DE0E06928
:10373000002813D127480078022803D0032801D09D
:10374000042801D1212030E0A0690130A061381C9B
:10375000FEF74CFF002801D10020F8BD61696B6ABB
:10376000321C281C9847002801D00A201DE00020A8
:103770000023194902E00B7001310130626B824273
:10378000F9DC61692B6B144A281C9847002801D08A
:103790000B200AE010490020626B0AE033780D78B4
:1037A00001310136AB4203D00C200C498861D3E7CC
:1037B00001308242F2DC6069013060610B208001DF
:1037C0003818C1688918C160E0690138E0610120DA
:1037D000C3E7000054478000A036820040498200C1
:1037E0000B1C054980B54A600B60044B0122DA606E
:1037F000FFF790FF80BD0000A038820000540080D9
:1038000010B5041C011C9031FFF784FF002800D183
:1038100010BD0521C901611800200861012010BDFB
:10382000F8B5061C2A480D1C0068141CC0688047A7
:10383000284FF869017C00293FD1C068A0423CD3E1
:10384000221C291C301CFFF77DFA002835D0221CD1
:10385000291C3868FEF790FF00282ED0F969C86847
:10386000A0420CD9061B88680D1C311C0419201CB1
:10387000FEF7ACFF002820D0043551C525E0281CF8
:10388000FEF71EFA002818D002260674FC69256887
:10389000002C1AD016E0221D07CAFFF753FA0028A1
:1038A0000BD0A068FEF70CFA002806D00674221D83
:1038B00007CAFEF761FF002801D10020F8BD2C1CCB
:1038C00003D02568207C0128E5D00120F6E7000020
:1038D000B84780006449820070B5051CFEF780FD82
:1038E000041C0A4E0E203070221C291C701CFCF790
:1038F0004EEC601C0004000C054A0A23411CD180D8
:103900003354FCF743FEFEF791F970BD2028820086
:10391000BC91800044554D4D59000000546F7461B6
:103920006C2062797465732072656364206279200B
:1039300041524D5052472030780041524D5052472D
:103940002073697A65206D7367206F766572727572
:103950006E003031323334353637383941424344E2
:1039600045460051434F4D206661737420646F7764
:103970006E6C6F61642070726F746F636F6C20681F
:103980006F73740051434F4D206661737420646FF0
:10399000776E6C6F61642070726F746F636F6C20F0
:1039A00074617267000000004552523A2057696EF8
:1039B000646F77206F76657272756E2064657465CA
:1039C000637465642E2E2E00496E76616C696420E6
:1039D000436F6D6D616E6400556E7265636F676EE7
:1039E000697A656420666C617368206465766963D2
:1039F00065000000496E76616C6964206D616769DD
:103A000063206E756D62657200000000496E76611C
:103A10006C69642070726F746F636F6C207665726E
:103A200073696F6E00000000506172616D657465AE
:103A3000722052657175657374205061636B657493
:103A4000204C656E677468204572726F72000000CA
:103A5000496E7465726E616C206572726F72202D92
:103A6000207265706C795F627566666572206F762C
:103A7000657272756E000000496E76616C69642033
:103A80007061636B6574206C656E6774680000001C
:103A90005061636B657420746F6F206C6172676531
:103AA000000000005265616420756E737563636584
:103AB000737366756C00000043616E6E6F742072E4
:103AC00065736574206265666F726520636C6F73E1
:103AD0006500000053696D706C65207772697465CC
:103AE000206E6F7420616C6C6F776564000000005D
:103AF000577269746520756E737563636573736659
:103B0000756C0000506F776572206F6666206E6F6F
:103B10007420737570706F72746564004475616CA5
:103B200020496D616765204E414E442070726F6779
:103B300072616D6D696E67206E6F74207375707041
:103B40006F7274656420286D756C7469206F6E6C7B
:103B50007929000043616E6E6F7420636C6F73652A
:103B6000207768656E206E6F742070726576696F5D
:103B700075736C79206F70656E656400436C6F734C
:103B800065206661696C65640000000053657420FF
:103B90007365637572697479206D6F646520666101
:103BA000696C65642E0000004E6F2073656375724A
:103BB000697479206D6F64652072656365697665E7
:103BC00064206265666F72652070617274697469E1
:103BD0006F6E207461626C65000000005061727449
:103BE0006974696F6E207461626C65206C656E67C4
:103BF000746820657863656564656400556E6B6EF6
:103C00006F776E206572726F722061636365707486
:103C1000696E6720706172746974696F6E20746177
:103C2000626C65004E6F20736563757269747920EC
:103C30006D6F646520726563656976656420626591
:103C4000666F7265206F70656E206D756C746900AB
:103C50004E6F20706172746974696F6E2074616256
:103C60006C65207265636569766564206265666F60
:103C70007265206F70656E206D756C746900000050
:103C80004F70656E206D756C7469206661696C6536
:103C9000642C20756E6B6E6F776E206572726F721A
:103CA000000000004552523A2043524320696E768C
:103CB000616C69640000000044554D4D59000000DE
:103CC000303A4F454D53424C31000000303A4F4599
:103CD0004D53424C32000000303A4546533200000A
:103CE000303A414D53530000303A514353424C0057
:103CF00029138000DD16800025138000311280001A
:103D000039128000D1178000611880008D2D80004D
:103D1000612E80004D198000E91380000000000032
:103D2000D51780002D168000000000000000000064
:103D300000000000000000000000000011178000DB
:103D4000291280001D13800041188000B83D8000BA
:103D5000001000002000000000020000100200001F
:103D60009800000076000000010000000000000044
:103D7000CA3D800000080000200000000002000092
:103D80001002000098000000750000000200000012
:103D900000000000DC3D800000100000200000005A
:103DA0000002000010020000980000004600000021
:103DB0000200000000000000746F73686962615FB8
:103DC00074633538353132667400746F73686962B4
:103DD000615F746364616D3832663100746F73685B
:103DE0006962615F7463353864646D3932663200CC
:103DF00029138000DD168000251380003112800019
:103E000039128000D11780006118800031288000AD
:103E1000212980004D198000E91380000000000076
:103E2000D51780002D168000000000000000000063
:103E300000000000000000000000000011178000DA
:103E4000291280001D138000411880006C3F800003
:103E5000000400002000000000020000100200002A
:103E6000EC000000730000000100000000000000F2
:103E70006C3F8000000400002000000000020000F1
:103E800010020000EC000000330000000100000000
:103E9000000000007C3F80000008000020000000BF
:103EA0000002000010020000EC00000035000000DD
:103EB00001000000000000008C3F800000100000A6
:103EC000200000000002000010020000EC000000D2
:103ED0007600000001000000000000008C3F800020
:103EE000001000002000000000020000100200008E
:103EF000EC0000003600000001000000000000009F
:103F00009C3F800000200000200000000002000014
:103F100010020000EC000000790000000100000029
:103F2000000000009C3F80000020000020000000F6
:103F30000002000010020000EC0000007800000009
:103F40000100000000000000AB3F800000100000F6
:103F5000200000000002000010020000EC00000041
:103F600046000000020000000000000073616D7355
:103F7000756E675F6B3966323830380073616D7308
:103F8000756E675F6B3966353630380073616D73F7
:103F9000756E675F6B3966313230380073616D73EF
:103FA000756E675F6B39316730380073616D73759B
:103FB0006E675F6B396B313231360000000089115A
:103FC00012239B322446AD573665BF74488CC19D81
:103FD0005AAFD3BE6CCAE5DB7EE9F7F88110080161
:103FE00093331A22A5562C47B7753E64C99C408D61
:103FF000DBBF52AEEDDA64CBFFF976E802218B30FD
:10400000100299132667AF763444BD554AADC3BC40
:10401000588ED19F6EEBE7FA7CC8F5D983310A2020
:1040200091121803A7772E66B5543C45CBBD42AC20
:10403000D99E508FEFFB66EAFDD874C904428D53B8
:1040400016619F702004A9153227BB364CCEC5DF00
:104050005EEDD7FC6888E1997AABF3BA85520C43E0
:1040600097711E60A1142805B3373A26CDDE44CFE0
:10407000DFFD56ECE9986089FBBB72AA06638F727C
:1040800014409D512225AB343006B9174EEFC7FEC0
:104090005CCCD5DD6AA9E3B8788AF19B87730E62A0
:1040A00095501C41A3352A24B1163807CFFF46EEA0
:1040B000DDDC54CDEBB962A8F99A708B0884819548
:1040C0001AA793B62CC2A5D33EE1B7F04008C91990
:1040D000522BDB3A644EED5F766DFF7C8994008550
:1040E0009BB712A6ADD224C3BFF136E0C118480970
:1040F000D33B5A2AE55E6C4FF77D7E6C0AA583B4EC
:10410000188691972EE3A7F23CC0B5D14229CB384F
:10411000500AD91B666FEF7E744CFD5D8BB502A40F
:1041200099961087AFF326E2BDD034C1C3394A282F
:10413000D11A580BE77F6E6EF55C7C4D0CC685D7A7
:104140001EE597F42880A1913AA3B3B2444ACD5B0F
:104150005669DF78600CE91D722FFB3E8DD604C7CF
:104160009FF516E4A9902081BBB332A2C55A4C4BEF
:10417000D7795E68E11C680DF33F7A2E0EE787F66B
:104180001CC495D52AA1A3B03882B193466BCF7ACF
:104190005448DD59622DEB3C700EF91F8FF706E68F
:1041A0009DD414C5ABB122A0B9923083C77B4E6AAF
:1041B000D5585C49E33D6A2CF11E780F00000000E1
:1041C000C7B9302049CA51208E736100552D932004
:1041D0009294A3001CE7C200DB5EF2206DE316217F
:1041E000AA5A260124294701E390772138CE850178
:1041F000FF77B5217104D421B6BDE4011D7F1D22D6
:10420000DAC62D0254B54C02930C7C2248528E0221
:104210008FEBBE220198DF22C621EF02709C0B03B8
:10422000B7253B2339565A23FEEF6A0325B198235D
:10423000E208A8036C7BC903ABC2F923FD470A243B
:104240003AFE3A04B48D5B0473346B24A86A990473
:104250006FD3A924E1A0C8242619F80490A41C0552
:10426000571D2C25D96E4D251ED77D05C5898F2557
:104270000230BF058C43DE054BFAEE25E038170609
:1042800027812726A9F246266E4B7606B515842689
:1042900072ACB406FCDFD5063B66E5268DDB012754
:1042A0004A623107C411500703A86027D8F6920765
:1042B0001F4FA227913CC3275685F3073D3624287C
:1042C000FA8F140874FC7508B3454528681BB708B5
:1042D000AFA2872821D1E628E668D60850D5320952
:1042E000976C0229191F6329DEA6530905F8A12935
:1042F000C24191094C32F0098B8BC0292049390AFF
:10430000E7F0092A6983682AAE3A580A7564AA2A2E
:10431000B2DD9A0A3CAEFB0AFB17CB2A4DAA2F2B23
:104320008A131F0B04607E0BC3D94E2B1887BC0B5E
:10433000DF3E8C2B514DED2B96F4DD0BC0712E0C16
:1043400007C81E2C89BB7F2C4E024F0C955CBD2CE0
:1043500052E58D0CDC96EC0C1B2FDC2CAD92382D2D
:104360006A2B080DE458690D23E1592DF8BFAB0DF8
:104370003F069B2DB175FA2D76CCCA0DDD0E332E7E
:104380001AB7030E94C4620E537D522E8823A00EDA
:104390004F9A902EC1E9F12E0650C10EB0ED250FB7
:1043A0007754152FF927742F3E9E440FE5C0B62F82
:1043B0002279860FAC0AE70F6BB3D72FBDD57830C3
:1043C0007A6C4810F41F291033A61930E8F8EB1066
:1043D0002F41DB30A132BA30668B8A10D0366E1195
:1043E000178F5E3199FC3F315E450F11851BFD3102
:1043F00042A2CD11CCD1AC110B689C31A0AA6512A0
:1044000067135532E96034322ED90412F587F6323B
:10441000323EC612BC4DA7127BF49732CD4973339E
:104420000AF0431384832213433A12339864E0134F
:104430005FDDD033D1AEB1331617811340927214C1
:10444000872B423409582334CEE1131415BFE134CD
:10445000D206D1145C75B0149BCC80342D716435B8
:10446000EAC8541564BB3515A3020535785CF71509
:10447000BFE5C7353196A635F62F96155DED6F363B
:104480009A545F1614273E16D39E0E3608C0FC16AB
:10449000CF79CC36410AAD3686B39D16300E7917EA
:1044A000F7B7493779C42837BE7D18176523EA372F
:1044B000A29ADA172CE9BB17EB508B3780E35C1814
:1044C000475A6C38C9290D380E903D18D5CECF38D3
:1044D0001277FF189C049E185BBDAE38ED004A3978
:1044E0002AB97A19A4CA1B1963732B39B82DD919A3
:1044F0007F94E939F1E78839365EB8199D9C413AD5
:104500005A25711AD456101A13EF203AC8B1D21A8C
:104510000F08E23A817B833A46C2B31AF07F571BF9
:1045200037C6673BB9B5063B7E0C361BA552C43B6C
:1045300062EBF41BEC98951B2B21A53B7DA4563C0C
:10454000BA1D661C346E071CF3D7373C2889C51C7E
:10455000EF30F53C6143943CA6FAA41C1047401D83
:10456000D7FE703D598D113D9E34211D456AD33DC6
:1045700082D3E31D0CA0821DCB19B23D60DB4B1E24
:10458000A7627B3E29111A3EEEA82A1E35F6D83EB8
:10459000F24FE81E7C3C891EBB85B93E0D385D3F5D
:1045A000CA816D1F44F20C1F834B3C3F5815CE1F30
:1045B0009FACFE3F11DF9F3FD666AF1F20205155B5
:1045C000414C434F4D4D2041524D5052472049647C
:1045D000656E74696669636174696F6E20426C6FA1
:1045E000636B0A20202020436F6D70696C65642026
:1045F0004A756C20313820323030352031353A322E
:10460000373A35310A2020202056657273696F6E63
:10461000203D3D2030392E30302E30350A202020EC
:10462000204E505247363830302E48455820666F5D
:1046300072204D534D36383030204F4E4C59202D7E
:10464000205541525420616E64205553420A202067
:10465000202020204D756C74692D496D616765209F
:10466000426F6F7420537570706F7274206F6E6C30
:10467000790A20202020436F70797269676874205E
:1046800028632920323030342D32303035206279A1
:10469000205155414C434F4D4D2C20496E636F7254
:1046A000706F72617465642E20416C6C2052696772
:1046B0006874732052657365727665642E0A2020D3
:1046C000456E64206F6620494420426C6F636B0A1C
:1046D00000000000010000001C3980003A39800011
:1046E000751D8000791E800051208000791E800099
:1046F000D9208000791E8000ED208000791E800086
:1047000059218000791E8000C51F8000791E80001D
:10471000791E8000791E8000791E8000791E80003D
:104720009D1F8000791E80008D1E8000791E8000F4
:104730002D1D8000791E800015208000791E8000CC
:10474000211F8000791E8000A11E8000791E80003C
:104750000200000001000000A03C8200A03A82009C
:10476000FFFFFFFFFFFFFFFFFFFFFFFF0100000054
:10477000A0428200FFFFFFFFA92E80007529800064
:10478000952F8000492F8000792F80004D088000F0
:10479000BD2F800000C201000000080000000000E2
:1047A000A9348000E5308000613280009D088000DF
:0847B000C1368000BC45800009
:040000030080000079
:00000001FF
