:0200000400807A
:10000000E8109FE5E4209FE5E0309FE5DC409FE5B8
:10001000D8509FE5D4609FE5D0709FE5CC809FE5E8
:10002000C8909FE5C4B09FE5C0C09FE5BCD09FE5E8
:10003000B8E09FE500000FE1801080E301F021E1CE
:10004000D7F021E3A8D09FE5DBF021E3A4D09FE522
:10005000D2F021E3A0D09FE5D3F021E39CD09FE52F
:100060009C009FE5010010E398E09F1598E09F0534
:1000700010FF2FE17847000090009FE5010010E39A
:100080008CE09F158CE09F0510FF2FE17847000062
:1000900084009FE5100F01EE100F11EE400D80E37C
:1000A000100F01EE74009FE510FF2FE1DEEEDEEE93
:1000B000784700000220A0E3101E10EE021001E0BD
:1000C000000051E3FBFFFF1A100E01EE1EFF2FE1AF
:1000D000784700000120A0E3101E10EE021001E09E
:1000E000000051E3FBFFFF0A100E11EE1EFF2FE18F
:1000F000EFBEADDE607F800060808000607E8000AB
:1001000060768000B1048000750080007800800077
:10011000C51780008D0080009000800078000500E9
:100120007D17800010B4042A0ED3031C0B439B07D9
:100130000AD108C810C9A34202D1043A042AF8D24D
:10014000A34201D004380439002A02D1002010BC97
:100150007047D30701D5013205E003780C780131EF
:100160000130A34207D103780C7801310130A3425A
:1001700001D1023AF1D1181BE9E7000078470000ED
:10018000030052E33E00009A03C010E20800000A98
:100190000130D1E402005CE30C2082E001C0D19484
:1001A0000130C0E40130D134042042E201C0C094E7
:1001B0000130C034033011E21E00000A042052E274
:1001C0002F00003A03C031E7020053E30800000AA1
:1001D0000F00008A2C34A0E104C0B1E5042052E2F3
:1001E0000C3C83E1043080E4F9FFFF2A011081E236
:1001F000230000EA2C38A0E104C0B1E5042052E25B
:100200000C3883E1043080E4F9FFFF2A021081E218
:100210001B0000EA2C3CA0E104C0B1E5042052E23E
:100220000C3483E1043080E4F9FFFF2A031081E2FB
:10023000130000EA7847000010402DE9202052E228
:100240000500003A1850B1281850A0281850B128BD
:100250001850A02820205222F9FFFF2A02CEB0E138
:100260001850B1281850A0281800B1481800A0480C
:100270001040BDE802CFB0E1043091240430802466
:100280001EFF2F01822FB0E10120D1440130D12483
:1002900001C0D1240120C0440130C02401C0C024C9
:1002A0001EFF2FE1B0B5214C214DE26900200F2A3D
:1002B000E96936D201A39B5C5B009F4432120D3288
:1002C000320D323232071A3225280A0000F0A6FB1E
:1002D00029E000F011FC26E0002924D000F0DCFA2F
:1002E00021E0002902D100F045FC1CE000F00AFDED
:1002F00019E0002902D100F0F3FA01E000F046FB1A
:10030000E96C2965A1610EE000F0BAFD0BE000295F
:1003100002D102F079F906E0286D296A02F040F96D
:1003200001E0FF200130E061B0BD00002C27820019
:10033000BC1E8200F7B55C480E1C0068151CC06826
:1003400084B08047594B9969002963D0DC69002C3F
:100350000AD108689861D961002008601962049A7E
:100360004A608E60CD6099E01F1C206802E0026840
:10037000041C101C002814D08268B242F7D3826893
:10038000B24248D1027C012A44D0C268AA4241D379
:10039000AA4233D1049A42608660C5600122027489
:1003A00080E0A068E2688018B04206D108683B1C73
:1003B000B861216000240C606BE00290301A01905B
:1003C000011C029801F0FEFB002823D0BA693B1CF7
:1003D00011680F689F612260116000240C605060FA
:1003E000029890600198D0601474586A049A0130A1
:1003F0004A608E60CD6001220A7451E00A683B1C9D
:10040000BA6121600860C268521BC26082685219DA
:1004100082603EE02AE0227C012A27D0A268039273
:10042000E3689E46D21873199C469A4229D90F68F0
:100430001E4B3A689A61039A7346B21AE2605219E7
:100440009A1AFA6021600F6038600498174B486070
:100450008E60CD6001200874586A01305862604691
:10046000B860F96801F0AEFB002802D1002007B0A7
:10047000F0BD786000200D493874486A0130486248
:1004800010E00A683B1CBA6121600860E068401B0C
:10049000E060049848608E60CD6001200874586A5E
:1004A000013058620120E2E7583680005027820070
:1004B00070470000F7B515480C1C0068161CC06892
:1004C0008047134FF86900280ED1B96A0123651AD5
:1004D0002A1C01F0FDFA002806D03868B96A2A1CE7
:1004E000FFF728FF00280DD00023321C211C0098A4
:1004F00001F0EEFA002805D0321C211CFFF71AFF8C
:10050000002801D10020FEBD0120FCE75836800004
:10051000502782000C207047B0B5084D064C281CAF
:10052000618800F00DF861886854000A6A185070FC
:10053000881C6080B0BD000060808000BC16820016
:1005400030B50C4D0A4A07E0037853401B06DB0D1B
:10055000EB5A120A5A4001304B1E1B041B0C0C1C98
:10056000191C002CF0D1D0430004000C30BD000059
:10057000FFFF0000FC2B800030B5D2431204120CA8
:100580000A4D07E0037853401B06DB0DEB5A120AB5
:100590005A4001304B1E1B041B0C0C1C191C002C58
:1005A000F0D1D0430004000C30BD0000FC2B8000D3
:1005B000031C164830B5164C98430BE00D78830D9C
:1005C000083A6B401B069B0DE3581204000258408A
:1005D000120C0131082AF1D2002A13D009780D4DEE
:1005E000890508E0031C4B409B0002D54000684091
:1005F00000E040004900531E1B041B0C141C1A1C75
:10060000002CEFD1C0438000800830BDFFFFFF3FCA
:10061000FC2D8000C7B9306070B50E480126067009
:10062000002505700C4C022060602560A060E5602C
:10063000256165610A20E0612562FFF733FE054808
:1006400006700570E069002801D0072070BD002009
:1006500070BD0000000700802C278200B0B5041C8C
:1006600014480121017000250570002C1AD001F0FA
:10067000B5FB291C104D092068602960A860E9605D
:10068000286168612962022C0ED1E861FFF70AFE39
:10069000E869002806D10220E861FFF703FEE86957
:1006A000002805D00720B0BD012CFBD10E20ECE7BF
:1006B0000020B0BD000700802C27820070B5002507
:1006C000002304E0CE5C2C1C013501330655934217
:1006D000F8DB002070BD000080B501F0BBFB0028F6
:1006E00001D1072080BD002080BD0000F8B50024A6
:1006F0000F4801260670002707700E4D297910E07B
:10070000287A4906490F06D0302028731020287314
:1007100028732E7301E001F083F8297904480670EC
:100720000770201C0134802801DAC807E8D4F8BD1E
:1007300000070080100F008070B500241F480121C1
:100740000170002101701E480078012823D001F0BB
:1007500001FE1C49087805280BD108690078C006FD
:1007600019D5886D012201888805800F8000164BFD
:100770000CE0062810D10869007880060BD5C86DFA
:1007800003220188C805C00F104B80004906490E9E
:10079000185801F02BFD70BD0B28FCD101F0E4FCD2
:1007A000051CF8D0074EA43605E0305D01F038F89E
:1007B00001342404240CAC42F7D370BD0007008040
:1007C00061808000FCEE86001C368000FC358000D5
:1007D000044980B50220087003490020086001F038
:1007E000FDFA80BDB0338000C81E8200024880B58B
:1007F00000680168884780BDC81E8200B0B5074CFC
:10080000074D2068002806D100F060FC2060002819
:1008100001D1012000E000202870B0BDC81E820078
:10082000B0338000F8B5051C00201A4F00903868DE
:10083000C1688847041C386801698847061C386805
:100840004169884701E064107600C82CFBDC464310
:100850000098321C411C2C542004030E6B54130EC0
:100860009C4613021B0E9E461304481C00211E0EBC
:1008700017063F0E0AE0421C2F54AE54501C73461C
:100880002B54421C501C6346AB540131A142F2DB95
:10089000F8BD0000C81E8200F8B50F4D00210124EC
:1008A0002C7000202A1C10700C4EF068C269904712
:1008B000831C08D02C700027391C2F70F068C26A86
:1008C0009047002802D0FF200130F8BD2C702F7017
:1008D000F06B70600020F8E700070080BC1E82000B
:1008E000F8B52749012008700024081C0470254E23
:1008F0003068002812D0F16B224F351C081A583787
:10090000FF2204E029684B1C2B607A540138002830
:10091000F8D1012101F05AFF00282CD0184D0127F1
:100920002F702C7001F056F8002824D02F70002072
:1009300028701549F06C134C4861B069182258347E
:100940000861201CFFF71CEC2F7000202870201C71
:10095000F16B18301839FF2202E0027001300139C2
:100960000029FAD1281C2F7001700022201C01F0F0
:10097000CFFE002802D1FF200130F8BD0020FCE7A7
:1009800000070080BC1E820014238200F8B5214EAF
:10099000012030700025301C05701F4C211C206880
:1009A000C96B88422CD8002814D01B4F081AFF228C
:1009B000583704E021684B1C23607A540138002822
:1009C000F8D10120307035700121002001F0FEFEC9
:1009D000002815D0211C246A012715E00E4A0E4973
:1009E00000205832C96B01E0155401308842FBDB0E
:1009F000377035700121002001F0E8FE002802D197
:100A0000FF200130F8BD0134102CE7DB3770357062
:100A10000020F7E700070080BC1E8200FEB501A899
:100A200006222E49FFF7ACEB2D48062201A90068EB
:100A3000FFF7A6EB2B4901200870002008702A4C14
:100A4000E06100F043FBE060002839D00321890712
:100A5000E164C16888476063E06801698847A06312
:100A6000E06841698847E063E06801688847A064FE
:100A7000A06BE26B011C51431A4E2164616B414330
:100A80000125616435700027301C0770A760A761DD
:100A9000276167612760E562676002E0E06A013014
:100AA000E062E068C269E16A9047831CF6D0357065
:100AB0003770E06A0130A06200F0A6FF002802D182
:100AC000FF200130FEBD35703770084908480160CD
:100AD00008494160022181600020F3E76C2B80000F
:100AE0004036800000070080BC1E82005EDBE348C9
:100AF0001423820073AA55EE70B51C4D0120287096
:100B000000262E7000F0E2FA194C0028E06001D1B6
:100B1000E80D70BD03218907E164C16888476063FF
:100B2000E06801698847A063E06841698847E0633D
:100B3000E06801688847A064A06BE26B011C514328
:100B40002164616B41430120E06126626164287089
:100B50002E70A660A661266166612660A662666048
:100B6000666228702E70002070BD000000070080B3
:100B7000BC1E8200FEB55F4801210170002101709A
:100B80005D48C268036A9D1803699A180368406942
:100B9000D61A0404240C3019019058488268002A9F
:100BA00004D101228260564AD6600663514B01226D
:100BB0001A700022191C0A705048016BB14238D0DB
:100BC000771A02978E426DD32CE04C48C16B0268B5
:100BD0008E46891AB94200D3391CFF22031C8C4669
:100BE00009E01868013F411C1960444958310A5412
:100BF00060460138844660460028F2D118681A1C05
:100C000070454FD870450DD13A480121017000213F
:100C100001700121301C01F0D9FD002842D0374A73
:100C200000211160002FD0D134490869029FC019FA
:100C30000861304801210170002101704CE02F4A09
:100C40001068D16B0F1AA7420CD92C48161C3168BA
:100C500058304018221C291CFFF792EA306800190E
:100C600030603BE0A74207D1244A002804D0234942
:100C700058310818221C08E0A74214D21F4A002845
:100C800011D01E49583108183A1C291CFFF778EA80
:100C90001A48ED195830E11B0C04240C174A0021A6
:100CA000116005E021E0281C6D18611A0C04240C69
:100CB000104F012139703A1C002111700122311CA2
:100CC00001F026FD002810D001213970381C0021C8
:100CD00001700A4AD06B3618002CB0D1074E01982B
:100CE00030633068F16B884202D9FF200130FEBDCD
:100CF0000020FCE7000700802C278200BC1E820039
:100D000014238200FEB55B4A012010700027101CDE
:100D100007705948C168026A55180269511802687B
:100D20008A1A0292406955490404240C1019009053
:100D30008868002803D101208860029A0A634D4A1E
:100D4000012010700027101C07704C49086B029A94
:100D5000904235D0029A161A0196824265D30F1C32
:100D600028E0F86B3A688446801A391CB04200D3F8
:100D7000301CFF230F1C07E03968013E4A1C3A6013
:100D80003E4A5832535401380028F5D138683A1C8D
:100D900060454AD8171C60450CD1364801210170C6
:100DA000002101700121029801F010FD00283CD0C3
:100DB00000213960002ED4D13869019E8019386134
:100DC0002C4801210170002707702C4E45E0306847
:100DD000F16B0F1AA7420BD92848316858304018D8
:100DE000221C291CFFF7CCE930680019306036E07E
:100DF000A74206D1002804D0204958310818221CE7
:100E000007E0A74212D2002810D01C495831081818
:100E10003A1C291CFFF7B4E91848ED195830E11BBA
:100E20000C04240C0027376005E01EE0281C6D1818
:100E3000611A0C04240C0F4901220A7000270F705C
:100E4000029901F065FC00280FD00A4801220270C7
:100E50000770029AF06B12180292002CB7D100981A
:100E600030633068F16B884202D9FF200130FEBD4B
:100E70000020FCE7000700802C278200BC1E8200B7
:100E80000548064948650A6902604A6942608969FD
:100E900081600020704700002C278200BC1E820069
:100EA000F8B5214F3868C0688047386801697E20EE
:100EB0008847012500241FE01F20A04302D1386885
:100EC000C06880471948065D7E2E01D07D2E0CD16A
:100ED000386801697D2088472020396846403006FF
:100EE0000969000E8847023505E038680169300657
:100EF000000E8847013501340D4840888442DBDB11
:100F00003868C0688047386801697E208847681C57
:100F1000800607D1386801697E20884738680169F2
:100F20007E208847F8BD000058368000BC1682003D
:100F300060808000B0B5041C17480068C068804716
:100F4000164DEA69002A25D09168101CA1420BD1E8
:100F50000168E961002900D12962A9690160A861DD
:100F6000696A01396962B0BD0068016802E00B6816
:100F7000081C191C00280DD08368A342F7D1016812
:100F8000A9690160A861696A01396962002AEAD128
:100F90002A62B0BD0020B0BD5836800050278200C4
:100FA000F8B50F1C01690026F64388470005B842D2
:100FB00001D8301CF8BD0120204C8003606040083F
:100FC0006060FFF7A7FA02210843012108431C498A
:100FD0001C4D4860A88300201B497F0248716F6048
:100FE000600C6060400860600320287000F05EF9CB
:100FF000600C6060400860600620287000F036F9E0
:1010000005376F60600C60604008606002212970E5
:1010100000F02CF9A8688821084006D10948203042
:101020000078FF21814300D00026FFF773FA0221E8
:10103000084303490860A883BBE70000800C0080D8
:10104000F4EE86000003006400020064F8B51C4E54
:10105000041C0020307001201A4D8003686047088E
:101060006F60FFF757FA0221084317490860B08301
:101070000720307000F0FAF8680C68606F606860F4
:101080006F600520307000F0F1F8680C68606F60E8
:101090000620307000F0EAF8B5686168201C8847C7
:1010A0006900090E884208D1A168201C884769029E
:1010B000090E884201D10020F8BD0020C043FBE7A3
:1010C00000030064800C0080F4EE860070B5094EC9
:1010D00000240725502060438019416A8847002872
:1010E00003D150206043801970BD0134AC42F1DB64
:1010F000002070BDB4338000F8B5061C0124200523
:101100000D1C814227D2FFF705FA0221084314493A
:10111000144F0860B8833169301C884703E00134FC
:1011200024044010240C0228F9D10934A5407D6024
:101130000D4C45036560060366600420387000F0BE
:10114000B5F8656066600620387000F08FF8B86802
:101150008821084002D00020C043F8BD0020FCE7F1
:10116000F4EE860000030064800C0080F8B5041CD7
:101170000E1C016901258847071CA169201C8847AE
:10118000041C3805B04226D91A4AA8035060410809
:101190005160FFF7BFF9022101430120164A0143C4
:1011A000164F5160B98371027960124A8103516010
:1011B00041035160387000F059F8B8688821084040
:1011C00001D000250CE000201921890606E0421814
:1011D0001268531C01D00020F8BD0430A042F6DB99
:1011E000FFF798F90221084303490860B883281CD7
:1011F000F2E70000800C0080F4EE8600000300643B
:10120000F8B50C1C0169171C88470026F643000539
:10121000A04217D9FFF77EF9022108430F49104D6C
:101220000860A8836002686001210E48890341605C
:10123000810C41600120287000F018F8A8680A4964
:10124000084001D0301CF8BD012219218906520244
:10125000381CFEF796EF0020F5E70000F4EE86005C
:1012600000030064800C0080C800008070B50E4E42
:101270000C4D0B4C0023094A09E001334620111C98
:10128000824200DB011C2180401A0028F7DC6868DC
:10129000800401D4B342F0D370BD0000C32A000023
:1012A00020000060800C0080581B000070B50F4EBD
:1012B0000D4D0C4C00230A4A09E001334620111C55
:1012C000824200DB011C2180401A0028F7DC68689C
:1012D0004004800F032801D0B342EED370BD00005C
:1012E000C32A000020000060800C0080581B000012
:1012F000F8B50D1C0169161C88470005A84224D9C1
:10130000FFF708F9022108431249134C0860A08333
:1013100001225202311C19208006FEF732EF6802CA
:10132000606001260D4DB6036E60AF0C6F60032048
:101330002070FFF7BBFF6E606F6006202070FFF724
:1013400095FFA0688821084002D00020C043F8BD66
:101350000020FCE7F4EE860000030064800C0080AF
:1013600010B50F4C6068012802D00E490F2005E02F
:10137000FFF752F9002804D00A49283100F0FAFD9D
:101380000BE000206060A060074916200870012073
:101390006080FFF7C1F8FFF783FD002010BD00005B
:1013A00060808000202B8000BC168200F8B5041CF1
:1013B00036480078002835D12022E01D3449FEF758
:1013C000B1FE002807D1261C2036F079022802D170
:1013D000307A022803D02E499031052025E0A088DC
:1013E000242803D22A49B83103201EE029480027C7
:1013F000294C27490770022520222131601C2570C5
:10140000FEF7BEEE20346570A570E77004202071F1
:101410006771A771E77127726772A772FFF7E6F924
:10142000051C05D11A497431082000F0A3FD2BE0FA
:10143000281C00F0EBF90206174F120E291C381C6D
:101440002C30E272FEF79CEEE17A642200252C310A
:10145000481C7A543D54441C3819FFF7E3F901192C
:10146000707A4207520F7A54481C0C494880012177
:10147000C902884204D90A48012101700570FCE7BD
:10148000FFF74AF8FFF70CFD0020F8BDB0338000ED
:10149000EC28800054338000BC16820060808000FD
:1014A0000007008080B50349052000F063FD00209F
:1014B00080BD000050298000B0B5174DC479686820
:1014C00001280AD1A868A04202D014490F2013E0D5
:1014D0001248243001F0E8F91CE0022C04D0012C61
:1014E00002D00E49503106E0201CFFF7B7F8002863
:1014F00005D00A496431072000F03CFD0AE00120D4
:101500006860074AAC60142111706880FFF704F826
:10151000FFF7C6FC0020B0BD60808000B02A8000CC
:10152000BC1682000D4980B5122008700C490120BC
:1015300048804868012804D10A490F2000F01AFDAC
:1015400009E0FEF7E9FFFFF7ABFC07480068806899
:10155000804700F049F9002080BD0000BC168200E1
:1015600060808000902A8000583680000F4810B5B7
:101570004168012904D10E490F2000F0FBFC12E064
:101580000C210C4A012411704480FEF7C5FFFFF7BF
:1015900087FC0948047000210170084800688068D1
:1015A000804700F031F9002010BD0000608080000D
:1015B0000C2A8000BC16820000070080583680008C
:1015C00010B5821D8088072801D01C4914E091784D
:1015D000507809020843D1780904084311790906B3
:1015E0000143507993791B021843041C01208002A7
:1015F000844205D911491831032000F0BBFC1AE0E0
:101600000F48042303705378437093788370D37822
:10161000C370127902710530221CFFF74FF80028C1
:1016200002D006492C31E8E70649601D4880FEF7E4
:1016300073FFFFF735FC002010BD0000CC298000AF
:10164000BC1682006080800080B50349052000F050
:1016500091FC002080BD0000282A8000B0B5831DC9
:1016600080889978234D0538020458780902120CB5
:101670000843D97809040843197909060843041C6A
:101680006868002802D0A868002802D11A490F20F3
:1016900018E001280ED11948844203D31849A01834
:1016A000884203D914491C3102200BE001200004B8
:1016B000211800E0211C581DFFF70EF8002804D067
:1016C0000D49383100F056FC11E00E480821017038
:1016D0002104090E447081702102090EC170210E8F
:1016E000017105206880FEF717FFFFF7D9FB002086
:1016F000B0BD000060808000442A80000000FFFF31
:10170000FF7FFFFFBC16820010B5811D80880A2272
:101710000131013804040848240C0270221C0130F5
:10172000FEF72EED0549601C4880FEF7F5FEFFF739
:10173000B7FB002010BD0000BC1682006080800056
:1017400001490D20087070475C368000B0B5084C28
:10175000206880470128074D05D160688047002830
:10176000FBD02C60B0BD044C20688047F9E7000036
:101770002C36800058368000E43580008CB56846F1
:1017800006220D49FEF7FCEC0C480622694600686B
:10179000FEF7F6ECFFF7D4FFFFF71AF8084801212F
:1017A000017000210170FFF7D1FF00F06DF8FFF725
:1017B00025F800F08FF88CBDE428800040368000CA
:1017C00000070080054C0020054900E001C48C4260
:1017D000FCD3044901220A70087070475836800013
:1017E0002CF08600000700800548002281690A600D
:1017F000006A082101600349012008700A70FCE7B3
:10180000FC31800000070080FEE70000011C002082
:1018100000E001300A780131002AFAD17047000057
:10182000B0B5164C0025A16900290BD1E16800294B
:1018300003D1134801F038F8B0BDA1610A68E26035
:101840008D800D607D2805D07E2806D100F024F91A
:101850002570B0BD01202070B0BDA169094B8A88F8
:101860009A4207D22378002B02D0202358402570BB
:1018700052189071888801308880B0BD60808000E7
:10188000302980000704000070B500220E49412471
:1018900001200A608A80240183011B181B015D1846
:1018A0002E1BCE5001306428AA80F5DB07480918AA
:1018B00005481C38C16002618261027042610449BE
:1018C0000120087070BD00007C8080003092010013
:1018D00054338000F8B5084F0026064C01253868BF
:1018E000C06880472570267000F008F825702670C3
:1018F000F5E700000007008058368000F8B52D4C51
:101900002068C06880474DE02B490120487020685E
:101910000861002800D148610020002700252060D0
:1019200011E024480068C0688047A088461B802ECC
:1019300000DD8026601906303A1C3104090CFEF7E0
:101940001BFE071CAD19A088A842EADC1B48874291
:1019500003D01B4800F0A8FF20E0A0880238A08038
:10196000A079411E152916D816490978002901D0F9
:10197000012810D114490978002904D013490820FE
:1019800000F0F8FA0AE01249800040184038C16BB4
:10199000201C884702E0201CFFF784FD0649C86828
:1019A0002060CC6004490C69002CADD10020487047
:1019B000F8BD00005836800060808000470F0000AE
:1019C000582B800054338000B033800060298000A1
:1019D0005833800010B50B4CE16AA162E068C2691F
:1019E0009047002805D1E068C26AA16A90470028A4
:1019F00001D0002010BDA06BA16A606041430120AE
:101A0000616210BDBC1E820010B5104C06E060691A
:101A1000216C40186061A06A0130A062E068C26970
:101A2000A16A9047831CF2D0606BA16A814204D204
:101A3000E068C26A9047002801D0002010BDA06B6A
:101A4000A16A606041430120616210BDBC1E82003A
:101A500010B5104C03E06069216C40186061A16A08
:101A60000131A162E068C2699047831CF3D0606BCA
:101A7000A16A814204D2E068C26A9047002801D07E
:101A8000002010BDA06BA16A60604143012061622B
:101A900010BD0000BC1E82000B4B10B598690B4CAA
:101AA00081880022A14201D8032901D2828010BD81
:101AB0005969002902D15861186102E008609869EB
:101AC00058619A6110BD000060808000070400002A
:101AD000FFB525480E1C0068151CC06881B0804702
:101AE000FF212D31214FB86888421CDA79683A68A5
:101AF0008A4202D1002816D101E0002801D1B86A3B
:101B0000F860F868331A7869D418844208D3841AC4
:101B10001B1B164C3434E4186319934206D302E0BD
:101B20006219824202D9002005B0F0BD3B697219EA
:101B3000D21A9E420BD98B1883423E6105D9401AB6
:101B40000A49101A3431081800E0601978600498C6
:101B5000002804D12A1C201C0199FEF712EBB8685A
:101B60000130B860201CDFE7583680005027820023
:101B700070B5061C11480D1C0068141CC068804715
:101B80000F4A916800290AD01068B04207D1D36883
:101B9000AB4204D15369161C1A1A944201DD00208D
:101BA00070BD00193060984202D105483430306071
:101BB00001392819F060B160012070BD58368000ED
:101BC0005027820070B5051C15480C1C0068C068C1
:101BD0008047FF202D30134EB16881421BDA7068B8
:101BE0003268824201D1002915D1F068281A75693E
:101BF0001318AB420BD30B4B0A4D14335B1BC01AAB
:101C0000084B343318180319934206D303E0181C09
:101C10001A19AA4201D9002070BD0131B16070BD0E
:101C20005836800050278200012040037047000092
:101C3000202070477920704700487047EC2B8000C7
:101C4000EC20704701204002704700002120000175
:101C500070470000012000037047000020207047FB
:101C60000120400270470000212000017047000061
:101C70003620704700487047D82B80007620704788
:101C800000487047C42B80003320704700487047DD
:101C90009C2B8000012080027047000020207047AC
:101CA0007320704700487047882B8000EC207047F5
:101CB0000120400270470000212000017047000011
:101CC0000120C00270470000202070473520704777
:101CD00000487047B02B8000EC2070470120400284
:101CE000704700002120000170470000EC20704781
:101CF000F8B5061C0F1C0169002501248847200542
:101D0000874201D30020F8BDFEF704FC02210843FE
:101D100020490860204988833169301C884703E0E6
:101D2000013424044010240C0228F9D11A4BA74096
:101D3000002120331E1C8A1E381C0224203E47022C
:101D4000053777603470B768BF07FCD4B768FF0702
:101D500000D5151C1F78FF2F00D0151C0131090478
:101D6000090C01300229EAD30020307007203070BE
:101D7000FEF7D0FB074920430860B083321C90680F
:101D80008007FCD10521117090680840FCD1281C07
:101D9000B9E70000F4EE860000030064F8B5061C05
:101DA00001200005814215D20C1C3169301C884786
:101DB00001E0401064000228FBD100250702211C2D
:101DC000301CFFF7EDF8002800D1F8BDE41901350B
:101DD000022DF4DB0020C043F7E70000F0B51948FE
:101DE00001210170002202701749FF242D340120C7
:101DF00002250A6014264643013073181F1C143F45
:101E00008F515A60DA609A601D74A042F2DB0F486D
:101E10004B2309180E481B0381610D49C261026200
:101E200034314160426201608260C260C918416120
:101E300002618262C26202630249012008700A7074
:101E4000F0BD00000007008084D786005C1700000A
:101E500050278200F8B5061C23480C1C0068151C8E
:101E6000C068804767192149C869002819D1081C32
:101E7000806AA0420BD0081C006B844232D32A1C1B
:101E8000211C301CFEF716FB002826D11EE02A1C60
:101E9000211C301C00F02CF8002817D01348876252
:101EA0001BE080681149A0421CD8A04207D12A1C1F
:101EB000211C301C00F09CFC00280ED106E02A1CDE
:101EC000211C301CFEF7F6FA002801D10020F8BDD5
:101ED0000649886A844200D38F620449C86A8442F2
:101EE00000D9CC620120F2E75836800050278200EA
:101EF000F8B5061C0D480D1C0068171CC06880470B
:101F0000022000210A4C606021600834A3C4183C00
:101F100026620120E061FEF7C5F9E069002801D0E2
:101F20000020F8BD034805630120FAE75836800019
:101F30002C278200502782000120C04370470000F8
:101F40000020C043704700000120000370470000DC
:101F5000202070477620704700487047742B80001F
:101F600098207047012040027047000021200001A6
:101F70007047000070B50D1C041C081CFFF746FCE0
:101F8000061C281C00F090FC0C480D210170210457
:101F9000090E447081702102090EC170210E017179
:101FA000291C321C0530FEF7ECE80549701D4880FD
:101FB000FEF7B2FAFEF774FF70BD0000BC16820097
:101FC00060808000094A00211079C3070BD54006C4
:101FD000400F07D0302010731020107310730120B1
:101FE000107300E001210806000E7047100F0080FA
:101FF0000022012010B50449044B01E008700A706A
:102000001C792407FAD510BD00070080100F00804E
:1020100010B5094800240471FFF7EAFF064B0121BF
:10202000303B064802E01A7A017004701A79D20730
:10203000F9D4012010BD0000400F0080000700808F
:1020400030B500230121074C054A01E011701370DF
:102050002578ED07FAD503491039087230BD000024
:1020600000070080200F00800F4A10B5D0690024BF
:102070000178C90603D50520107002200DE0007814
:10208000800603D506201070032006E000F020F83B
:10209000002804D00B2010700A205070012400F09A
:1020A00059F9201C10BD0000FCEE8600011C0748F9
:1020B000406D0078022905D0032902D12021084073
:1020C000401170470C21084080107047FCEE8600DC
:1020D0000548C06C01888805800D03D1490501D5EC
:1020E0000120800270470000FCEE860030B503320C
:1020F00092081B4C01252570002525708C07A40F24
:1021000007D0012C03D0022C1BD0032C24D1002497
:1021100014E0002402E020C8013420C19442FADB1C
:102120001AE020C80D7001312D0A0D7001312D0A01
:102130000D7001312D0A0D70013101349442F0DB34
:102140000AE0002406E020C80D8002312D0C0D802D
:10215000023101349442F6DB0248806B038030BDCB
:1021600000070080FCEE860070B51E4D0024FFF7CE
:10217000AFFF021C33D0402A01D940220EE0A86CE8
:1021800000880005F3D4296C04200880A86C01881D
:102190004905FCD500888205920D01241149A4311E
:1021A000D01C8308002003E06E690130366840C10E
:1021B0009842F9DB0C480126067000210170002CC2
:1021C0000DD0A86C0088000506D5FFF781FFB1028D
:1021D000884201D1286C0680296C08200880101CD8
:1021E00070BD0000FCEE860000070080F8B5171CEB
:1021F0000E1C051C084801210170002101700024FB
:1022000003E0285DFFF70CFB0134B442F9DB03481F
:10221000806B0780F8BD000000070080FCEE8600A0
:10222000F0B5D41CE517AD0F2C19A4101E4D0126D6
:102230002E7000262E708D07AD0F07D0012D03D014
:10224000022D1ED0032D28D1002517E0002502E025
:1022500040C9013540C0A542FADB1EE00E780131CD
:102260000F7801313F02BE190F7801313F04BE19CA
:102270000F7801313F06BE1940C00135A542EDDBA4
:102280000BE0002507E00E8802310F8802313F0481
:10229000BE1940C00135A542F5DB04491002496B67
:1022A00018430880F0BD000000070080FCEE8600A7
:1022B000134930B58A07920F1302114D0343643D51
:1022C0006C6C23800330002A07D004239A1A801AEA
:1022D000801001300204120C00E08208880881009E
:1022E00000206C6902E008C9013023609042FADBEB
:1022F000E96B00200880E96A8020088030BD00007A
:1023000060EF8600114830B541780125002302298D
:102310000F4C01D1102102E0032902D14021426D6E
:1023200010E00A290BD1006D01888905890D04E0B0
:1023300001888905890D257023700029F8D130BDE9
:102340002570237010780840FAD030BDFCEE86006E
:1023500000070080F0B5264C2448E1690988C905CA
:1023600028D5A16800250D80E268168802230B801D
:10237000E268128804270F80E268128806220A8029
:10238000E1680A881B4B01211970002119701B4B51
:1023900019499E421FD01A4B9E420CD0184B8033D5
:1023A0009E4205D020690078400601D5A06B0780C9
:1023B000206B0580F0BD0223FFF732FF00207D2156
:1023C000C900E26904E0002001308842FCDB10888B
:1023D000C007EDD4F7E7226E044812881030D20609
:1023E000D20E0523FFF782FEE2E700004003006201
:1023F000FCEE86000007008020F08600212000000F
:10240000A121000030B50024002500F02DF813486C
:1024100000890006000E01281DD0114B01201A6A08
:10242000002111805A6A11809A6A11800D4A115553
:1024300001340A2CFBDBC22454700124947008245C
:1024400094715C6B06222280092222809A6B118093
:102450000221118030BD281C30BD00000004006244
:10246000FCEE860020F086001849194830B58160DE
:102470000439C16015490C390161F03141611349DA
:1024800018398161C161043901621049143941620E
:10249000043181620D492C3028310A1C0B1C0C1CA4
:1024A0001C3C203B243A1EC03C380C31C163074918
:1024B00040310D1C0164143D456410398164C564CC
:1024C000291F0165283954301EC030BD1C0400622C
:1024D000FCEE8600F0B52D4F00223B6900241988E0
:1024E0007E68751C7D606437B855294F01263E70A3
:1024F00000263E707E280AD126480678002E01D09C
:10250000002602E0012401220126067002E0402D8F
:1025100000D10122002A0AD01C48002646604078DB
:102520002A04120C0A2803D1101CFFF7C1FEF0BDCB
:10253000022812D1012002E038703E701988490744
:10254000FAD50220FFF7B2FD80001349002C08588D
:1025500001D0082315E0072313E00328E7D1012069
:1025600002E038703E7019880907FAD50320FFF79A
:102570009DFD80000949002C085801D00B2300E084
:102580000A2302496431FFF74BFEF0BDFCEE8600E2
:1025900000070080F83580000C368000043680008B
:1025A000F3B50F1C1549012081B008700020087098
:1025B0008905134D0024134EE96414E0E868321CC9
:1025C000436B211C9847002813D1E86BC004020C10
:1025D000E86C311CFDF7ECFFE86408490120087045
:1025E000002008700134BC42E8DB0198E96C8842A5
:1025F00002D0FF200130FEBD0020FCE70007008074
:10260000BC1E82002C258200F8B53B4D01202870AD
:1026100000262E70394C01E0A06A0130A062E0680B
:10262000C269A16A9047831CF6D0A06A616B884298
:102630005CD2A26B271C5043011CE068304C436BFA
:10264000221C9847002851D1012028702E702D4956
:10265000206888424AD12C496068884246D1A068E7
:10266000022843D16069009024698807F864B86A39
:102670000130B862F868C269B96A9047831CF6D025
:10268000B86A796B884231D22AE0B86BBE6A464399
:10269000002518E0F8681D4A436B311C9847002854
:1026A00024D1F86B1949C004020CF86CFDF780FFC7
:1026B000F86411490120087000200870F86B241A92
:1026C00004D001360135B86B8542E3DB3D1CA86AB6
:1026D0000130A862E868C269A96A9047831CF6D0F5
:1026E000002CD2D10098F96C884202D0FF20013032
:1026F000F8BD0020FCE7000000070080BC1E82003F
:102700002C2382005EDBE34873AA55EE2C25820061
:10271000F7B52C4D041C081C696A6A6C91422FD8CD
:10272000696800290AD1FF26E9690136012903D029
:10273000FFF78EF9002801D1301CFEBDE868221C8D
:10274000836A696A984700281AD11F4E311C0022FB
:1027500002E00A7001310130EB6B9842F9DBE86866
:10276000321C436B696A9847002809D1201C00215C
:10277000EA6B08E00378377801360130BB4201D0BC
:102780000020DAE701319142F4DB029801280AD1F6
:10279000D004020CE86C211CFDF70AFFE864A8696C
:1027A000E96B4018A861E869012802D1286A013064
:1027B0002862686A013068626868013868600120D0
:1027C000BBE70000BC1E8200142182000A1C011C11
:1027D00080B50648FFF79CFF002800D180BD034963
:1027E000002058390860012080BD0000141F8200BD
:1027F000F8B5061C2A480D1C0068141CC0688047E8
:10280000284FF869017C00293FD1C068A0423CD321
:10281000221C291C301CFFF76BFB002835D0221C22
:10282000291C3868FFF7A4F900282ED0F969C86878
:10283000A0420CD9061B88680D1C311C0419201CF1
:10284000FFF7C0F9002820D0043551C525E0281C29
:10285000FEF770FB002818D002260674FC69256874
:10286000002C1AD016E0221D07CAFFF741FB0028F2
:102870000BD0A068FEF75EFB002806D00674221D70
:1028800007CAFFF775F9002801D10020F8BD2C1CFC
:1028900003D02568207C0128E5D00120F6E7000060
:1028A000583680005027820070B5051CFEF7AEFF39
:1028B000041C0A4E0E203070221C291C701CFDF7CF
:1028C00060EC601C0004000C054A0A23411C518086
:1028D0003354FDF721FEFEF7E3FA70BDBC1682000B
:1028E0006080800044554D4D5900000051434F4DCC
:1028F000206661737420646F776E6C6F6164207002
:10290000726F746F636F6C20686F73740051434F04
:102910004D206661737420646F776E6C6F61642004
:1029200070726F746F636F6C207461726700000067
:102930004552523A2057696E646F77206F76657200
:1029400072756E2064657465637465642E2E2E0046
:10295000496E76616C696420436F6D6D616E6400D1
:10296000556E7265636F676E697A656420666C6127
:10297000736820646576696365000000496E76615E
:102980006C6964206D61676963206E756D62657244
:102990002F70726F746F636F6C2076657273696FDE
:1029A0006E000000506172616D6574657220526541
:1029B0007175657374205061636B6574204C656E2E
:1029C000677468204572726F72000000496E76610C
:1029D0006C6964207061636B6574206C656E6774EC
:1029E000680000005061636B657420746F6F206C29
:1029F00061726765000000005265616420756E7346
:102A000075636365737366756C00000043616E6E79
:102A10006F74207265736574206265666F726520DD
:102A2000636C6F736500000053696D706C6520778F
:102A300072697465206E6F7420616C6C6F77656469
:102A40000000000043616E6E6F74207772697465D8
:102A5000206265666F7265206F70656E0000000011
:102A6000426F6F74206C6F61646572206164647280
:102A700065737320696E76616C696400577269745E
:102A80006520756E7375636365737366756C00009E
:102A900043616E6E6F7420706F77657220646F771C
:102AA0006E206265666F726520636C6F73650000EF
:102AB000416C7265616479206F70656E6564206930
:102AC0006E20646966666572656E74206D6F6465FC
:102AD00000000000416C7265616479206F70656E62
:102AE00065642C2069676E6F72696E67206F706510
:102AF0006E20696E2073616D65206D6F64650000E6
:102B0000496E76616C6964204F70656E204D6F640C
:102B1000650000004F70656E206661696C65640039
:102B200043616E6E6F7420636C6F736520776865A8
:102B30006E206E6F742070726576696F75736C7934
:102B4000206F70656E656400436C6F73652066610D
:102B5000696C6564000000004552523A20435243BC
:102B600020696E76616C69640000000044554D4D2B
:102B700059000000746F73686962615F746335386F
:102B8000353132667400000073616D73756E675F76
:102B90006B396632383038753062000073616D739E
:102BA000756E675F6B39663238303871306200009D
:102BB00073616D73756E675F6B396635363038716A
:102BC0003062000073616D73756E675F6B396631DB
:102BD000323038753061000073616D73756E675FF8
:102BE0006B396631323038713061000073616D735A
:102BF000756E675F4B394B314730380000008911E3
:102C000012239B322446AD573665BF74488CC19D54
:102C10005AAFD3BE6CCAE5DB7EE9F7F88110080134
:102C200093331A22A5562C47B7753E64C99C408D34
:102C3000DBBF52AEEDDA64CBFFF976E802218B30D0
:102C4000100299132667AF763444BD554AADC3BC14
:102C5000588ED19F6EEBE7FA7CC8F5D983310A20F4
:102C600091121803A7772E66B5543C45CBBD42ACF4
:102C7000D99E508FEFFB66EAFDD874C904428D538C
:102C800016619F702004A9153227BB364CCEC5DFD4
:102C90005EEDD7FC6888E1997AABF3BA85520C43B4
:102CA00097711E60A1142805B3373A26CDDE44CFB4
:102CB000DFFD56ECE9986089FBBB72AA06638F7250
:102CC00014409D512225AB343006B9174EEFC7FE94
:102CD0005CCCD5DD6AA9E3B8788AF19B87730E6274
:102CE00095501C41A3352A24B1163807CFFF46EE74
:102CF000DDDC54CDEBB962A8F99A708B088481951C
:102D00001AA793B62CC2A5D33EE1B7F04008C91963
:102D1000522BDB3A644EED5F766DFF7C8994008523
:102D20009BB712A6ADD224C3BFF136E0C118480943
:102D3000D33B5A2AE55E6C4FF77D7E6C0AA583B4BF
:102D4000188691972EE3A7F23CC0B5D14229CB3823
:102D5000500AD91B666FEF7E744CFD5D8BB502A4E3
:102D600099961087AFF326E2BDD034C1C3394A2803
:102D7000D11A580BE77F6E6EF55C7C4D0CC685D77B
:102D80001EE597F42880A1913AA3B3B2444ACD5BE3
:102D90005669DF78600CE91D722FFB3E8DD604C7A3
:102DA0009FF516E4A9902081BBB332A2C55A4C4BC3
:102DB000D7795E68E11C680DF33F7A2E0EE787F63F
:102DC0001CC495D52AA1A3B03882B193466BCF7AA3
:102DD0005448DD59622DEB3C700EF91F8FF706E663
:102DE0009DD414C5ABB122A0B9923083C77B4E6A83
:102DF000D5585C49E33D6A2CF11E780F00000000B5
:102E0000C7B9302049CA51208E736100552D9320D7
:102E10009294A3001CE7C200DB5EF2206DE3162152
:102E2000AA5A260124294701E390772138CE85014B
:102E3000FF77B5217104D421B6BDE4011D7F1D22A9
:102E4000DAC62D0254B54C02930C7C2248528E02F5
:102E50008FEBBE220198DF22C621EF02709C0B038C
:102E6000B7253B2339565A23FEEF6A0325B1982331
:102E7000E208A8036C7BC903ABC2F923FD470A240F
:102E80003AFE3A04B48D5B0473346B24A86A990447
:102E90006FD3A924E1A0C8242619F80490A41C0526
:102EA000571D2C25D96E4D251ED77D05C5898F252B
:102EB0000230BF058C43DE054BFAEE25E0381706DD
:102EC00027812726A9F246266E4B7606B51584265D
:102ED00072ACB406FCDFD5063B66E5268DDB012728
:102EE0004A623107C411500703A86027D8F6920739
:102EF0001F4FA227913CC3275685F3073D36242850
:102F0000FA8F140874FC7508B3454528681BB70888
:102F1000AFA2872821D1E628E668D60850D5320925
:102F2000976C0229191F6329DEA6530905F8A12908
:102F3000C24191094C32F0098B8BC0292049390AD2
:102F4000E7F0092A6983682AAE3A580A7564AA2A02
:102F5000B2DD9A0A3CAEFB0AFB17CB2A4DAA2F2BF7
:102F60008A131F0B04607E0BC3D94E2B1887BC0B32
:102F7000DF3E8C2B514DED2B96F4DD0BC0712E0CEA
:102F800007C81E2C89BB7F2C4E024F0C955CBD2CB4
:102F900052E58D0CDC96EC0C1B2FDC2CAD92382D01
:102FA0006A2B080DE458690D23E1592DF8BFAB0DCC
:102FB0003F069B2DB175FA2D76CCCA0DDD0E332E52
:102FC0001AB7030E94C4620E537D522E8823A00EAE
:102FD0004F9A902EC1E9F12E0650C10EB0ED250F8B
:102FE0007754152FF927742F3E9E440FE5C0B62F56
:102FF0002279860FAC0AE70F6BB3D72FBDD5783097
:103000007A6C4810F41F291033A61930E8F8EB1039
:103010002F41DB30A132BA30668B8A10D0366E1168
:10302000178F5E3199FC3F315E450F11851BFD31D5
:1030300042A2CD11CCD1AC110B689C31A0AA651273
:1030400067135532E96034322ED90412F587F6320F
:10305000323EC612BC4DA7127BF49732CD49733372
:103060000AF0431384832213433A12339864E01323
:103070005FDDD033D1AEB133161781134092721495
:10308000872B423409582334CEE1131415BFE134A1
:10309000D206D1145C75B0149BCC80342D7164358C
:1030A000EAC8541564BB3515A3020535785CF715DD
:1030B000BFE5C7353196A635F62F96155DED6F360F
:1030C0009A545F1614273E16D39E0E3608C0FC167F
:1030D000CF79CC36410AAD3686B39D16300E7917BE
:1030E000F7B7493779C42837BE7D18176523EA3703
:1030F000A29ADA172CE9BB17EB508B3780E35C18E8
:10310000475A6C38C9290D380E903D18D5CECF38A6
:103110001277FF189C049E185BBDAE38ED004A394B
:103120002AB97A19A4CA1B1963732B39B82DD91976
:103130007F94E939F1E78839365EB8199D9C413AA8
:103140005A25711AD456101A13EF203AC8B1D21A60
:103150000F08E23A817B833A46C2B31AF07F571BCD
:1031600037C6673BB9B5063B7E0C361BA552C43B40
:1031700062EBF41BEC98951B2B21A53B7DA4563CE0
:10318000BA1D661C346E071CF3D7373C2889C51C52
:10319000EF30F53C6143943CA6FAA41C1047401D57
:1031A000D7FE703D598D113D9E34211D456AD33D9A
:1031B00082D3E31D0CA0821DCB19B23D60DB4B1EF8
:1031C000A7627B3E29111A3EEEA82A1E35F6D83E8C
:1031D000F24FE81E7C3C891EBB85B93E0D385D3F31
:1031E000CA816D1F44F20C1F834B3C3F5815CE1F04
:1031F0009FACFE3F11DF9F3FD666AF1F00120080DD
:10320000341200800C1200800412008038120080FA
:10321000101200800800005860000058000000589C
:103220000C00005864000058040000580812008088
:103230003C12008014120080000000007000005852
:1032400000000000081700800817008008170080A1
:103250000000000000000000000000002020515588
:10326000414C434F4D4D2041524D505247204964EF
:10327000656E74696669636174696F6E20426C6F14
:10328000636B0020202020436F6D70696C656420A3
:1032900046656220313620323030342031343A31C4
:1032A000333A3338002020202056657273696F6EE0
:1032B000203D3D2030362E30352E3030002020206D
:1032C000204E505247363130302E48455820666FD8
:1032D00072204D534D363130302F36333030204F41
:1032E0004E4C59202D205541525420616E6420557A
:1032F00053420020202020436F7079726967687400
:103300002028632920323030322D32303033206291
:1033100079205155414C434F4D4D2C20496E636FE0
:1033200072706F72617465642E20416C6C205269FA
:10333000676874732052657365727665642E002029
:1033400020456E64206F6620494420426C6F636B99
:103350000000000001000000AD138000A5148000F3
:10336000C1158000A514800049168000A5148000B6
:103370005D168000A514800009178000A514800048
:103380006D158000A5148000A5148000A514800090
:10339000A5148000A514800025158000A5148000C8
:1033A000B9148000A514800061138000A51480006A
:1033B00002000000591F8000611F8000551F80001F
:1033C000491F8000511F8000651F80006D1F800015
:1033D000391F8000411F80004D108000F1128000D5
:1033E000F910800000000000011280006D118000C3
:1033F00000000000000000000000000000000000CD
:1034000000000000A51C8000AD1C8000A11C8000F5
:10341000951C80009D1C8000B11C8000B91C8000A0
:10342000F11C80009D1D80004D108000F112800075
:10343000F910800000000000011280006D11800072
:10344000000000000000000000000000000000007C
:10345000000000008D1C8000AD1C8000891C8000D5
:10346000951C80009D1C8000B11C8000B91C800050
:10347000F11C80009D1D80004D108000F112800025
:10348000F910800000000000011280006D11800022
:10349000000000000000000000000000000000002C
:1034A00000000000D11C8000D91C8000CD1C8000D1
:1034B000C11C8000C91C8000DD1C8000E51C800050
:1034C000F11C80009D1D80004D108000F1128000D5
:1034D000F910800000000000011280006D118000D2
:1034E00000000000000000000000000000000000DC
:1034F00000000000811C8000ED1C80007D1C80000D
:10350000551C80005D1C8000611C8000691C8000CF
:10351000F11C80009D1D80004D108000F112800084
:10352000F910800000000000011280006D11800081
:10353000000000000000000000000000000000008B
:1035400000000000751C8000ED1C8000711C8000D4
:10355000551C80005D1C8000611C8000691C80007F
:10356000F11C80009D1D80004D108000F112800034
:10357000F910800000000000011280006D11800031
:10358000000000000000000000000000000000003B
:1035900000000000391C8000411C8000351C8000A8
:1035A000291C8000311C8000451C80004D1C8000BF
:1035B000F11C80009D1D80004D108000F1128000E4
:1035C000F910800000000000011280006D118000E1
:1035D00000000000000000000000000000000000EB
:1035E0000000000011208000C51F8000F11F800036
:1035F000ED0680004120800001000000C002006252
:10360000000300624002006280020062400000622B
:1036100080000062C00000620001006240010062A0
:1036200080010062C0010062000200620524800087
:10363000692080000523800039078000D5248000A0
:103640005C32800083328000A5328000BD32800071
:08365000F33280003F338000DB
:040000030080000079
:00000001FF
