:040000050080000077
:0200000400807A
:10000000F4109FE5F0209FE5EC309FE5E8409FE588
:10001000E4509FE5E0609FE5DC709FE5D8809FE5B8
:10002000D4909FE5D0B09FE5CCC09FE5C8D09FE5B8
:10003000C4E09FE500000FE1801080E301F021E1C2
:10004000D7F021E3B4D09FE5DBF021E3B0D09FE50A
:10005000D2F021E3ACD09FE5D3F021E3A8D09FE517
:10006000A8009FE5010010E3A4E09F15A4E09F0510
:1000700010FF2FE1784700009C009FE5010010E38E
:1000800098E09F1598E09F0510FF2FE1784700004A
:1000900090009FE5100F01EE100F11EE010A80E3B2
:1000A000100F01EE80009FE510FF2FE1DEEEDEEE87
:1000B000784700000220A0E3101E10EE021001E0BD
:1000C000000051E3FBFFFF1A100E01EE1EFF2FE1AF
:1000D000784700000120A0E3101E10EE021001E09E
:1000E000000051E3FBFFFF0A100E11EE1EFF2FE18F
:1000F000784700000070A0E117FF2FE1EFBEADDEF2
:10010000C0C08000C0C18000C0BF8000C0B78000F8
:100110004D08800075008000780080003953800011
:100120008D0080009000800078000500E95180007B
:10013000203052E20400005A203062E21112A0E1A5
:10014000301381E11002A0E11EFF2FE11013A0E1A6
:100150000000A0E31EFF2FE1042A10B40ED3031CFD
:100160000B439B070AD108C810C9A34202D1043A25
:10017000042AF8D2A34201D004380439002A02D15B
:1001800010BC00207047D30701D0013205E003788E
:100190000C7801310130A34207D103780C7801318A
:1001A0000130A34201D1023AF1D1181B10BC7047B3
:1001B0000020A0E3201051E200402DE902E0A0E180
:1001C0000230A0E102C0A0E10C50A0280C50A028F1
:1001D00020105122FBFFFF2A011EB0E10C50A02885
:1001E0000C00A0480111B0E10040BDE804208024CB
:1001F0001EFF2F010120C0440120C044010111E372
:100200000120C0141EFF2FE1030052E33D00009ABD
:1002100003C010E20800000A0130D1E402005CE3F0
:100220000C2082E001C0D1940130C0E40130D1340F
:1002300001C0C094042042E20130C034033011E216
:100240001D00000A042052E22E00003A03C031E7EC
:10025000020053E30800000A0F00008A2C34A0E1DA
:1002600004C0B1E5042052E20C3C83E1043080E498
:10027000F9FFFF2A011081E2220000EA2C38A0E1F8
:1002800004C0B1E5042052E20C3883E1043080E47C
:10029000F9FFFF2A021081E21A0000EA2C3CA0E1DB
:1002A00004C0B1E5042052E20C3483E1043080E460
:1002B000F9FFFF2A031081E2120000EA202052E237
:1002C00010402DE90500003A1850B1281850A02818
:1002D0001850B1281850A02820205222F9FFFF2AD8
:1002E00002CEB0E11850B1281850A0281800B1482B
:1002F0001800A04802CFB0E11040BDE804309124BE
:10030000043080241EFF2F01822FB0E10120D14450
:100310000130D12401C0D1240120C0440130C024C7
:1003200001C0C0241EFF2FE1031C0B4370B49B07C8
:100330000FD1114CE60102E004300431043A042AE2
:1003400007D303680D68AB4203D11D1B9D433540A5
:10035000F2D0002A02D170BC0020704703780C78DC
:1003600001310130012B03D3A34201D1013AF5D170
:10037000181B70BC704700000101010101C05EE55F
:100380000C0053E10330DE370C30DE2783C08EE0F3
:100390001CFF2FE10000A0E3160F07EE1EFF2FE168
:1003A0007AFF17EEFDFFFF1A1EFF2FE11F2000E26C
:1003B000021081E01F00C0E3360F07EE200080E24C
:1003C000201051E2FBFFFFCA1EFF2FE10000A0E357
:1003D000150F07EE1EFF2FE1D8019FE5100F01EE6C
:1003E000100F11EE010A80E3100F01EE0000A0E3F0
:1003F0001EFF2FE10010A0E304A0A0E3B8019FE5D9
:10040000C12EA0E3022082E3016AA0E1026086E13E
:10041000910A04E0046080E7011CA0E3016AA0E106
:10042000026086E1910A04E0046080E7061CA0E314
:10043000016AA0E1026086E1910A04E0046080E7BD
:10044000021BA0E3016AA0E1026086E1910A04E0D8
:10045000046080E70EF0A0E1F05F2DE954019FE514
:10046000100F01EE50019FE5100F02EE500100FA4F
:100470000000E0E3100F03EE0000A0E3170F07EE0B
:100480000000A0E3170F08EE0000A0E3100F0DEE30
:10049000100F11EE010080E3100F01EE100F11EEAE
:1004A000040080E3010A80E3100F01EE0000A0E3E6
:1004B000F09FBDE800300FE1C00083E300F021E1D0
:1004C0000000A0E3170F07EE0000A0E3170F08EEEF
:1004D000E0009FE5100F01EE03F021E11EFF2FE188
:1004E00000300FE1C00083E300F021E10000A0E351
:1004F000100F0DEE100F11EE010080E3100F01EE52
:10050000100F11EE040080E3010A80E3100F01EEEA
:1005100003F021E11EFF2FE1100F11EE0100C0E3F7
:10052000100F01EE1EFF2FE1100F11EE010080E30E
:10053000100F01EE1EFF2FE13E0F07EE1EFF2FE111
:10054000011080E01F00C0E3010050E13E0F07BE34
:10055000200080B2FBFFFFBA1EFF2FE1360F07EE2F
:100560001EFF2FE1011080E01F00C0E3010050E1F9
:10057000360F07BE200080B2FBFFFFBA1EFF2FE13F
:100580003A0F07EE1EFF2FE1011080E01F00C0E3CD
:10059000010050E13A0F07BE200080B2FBFFFFBA16
:1005A0001EFF2FE114109FE50000A0E39A0F07EE55
:1005B000000081E51EFF2FE17820050000C08700C4
:1005C00008B68700FF5F2DE90100BDE8101F12EE9D
:1005D0002117A0E10117A0E12029A0E10320C2E337
:1005E000013082E1004093E50450A0E1044084E33F
:1005F000004083E5161F08EE9A4F07EE0010A0E3B7
:100600000120A0E3001080E5002080E5001080E5D7
:10061000002080E59A4F07EE001080E5002080E57D
:10062000001080E5002080E59A4F07EE005083E53A
:10063000FE9FBDE810B5234CFF20E3690130432B3A
:100640001CD012DC202B2FD006DC012B28D00A2B4B
:1006500035D102F003FB32E0402B1ED0412B2ED0CF
:10066000422B2CD102F09AFD29E0443BFFF786EEA5
:100670000A090C08081F0822250F120802F050FD75
:100680001DE002F093FC1AE002F034FB17E002F0E8
:1006900005FC14E002F046FC11E002F0C9FC0EE09B
:1006A000094803F0ADFD0AE002F092FA07E003F01A
:1006B0005BFE04E002F0AAFB01E002F061FBE061F6
:1006C00010BD00009C7D8200E4638200F7B55D48A8
:1006D0000E1C0068151CC06884B080475A4B99698D
:1006E000002979D0DC69002C0AD1086898610020C3
:1006F000D96108601962049A4A60CD608E609AE000
:1007000020681F1C02E00268041C101C002814D082
:100710008268B242F7D38268B24247D1027C012A92
:1007200071D0C268AA426ED3AA4233D1049A426001
:10073000C56001228660027481E0A068E2688018CA
:10074000B04206D108683B1CB861216000240C60EF
:100750006CE00290301A011C0190029805F060F8DC
:10076000002850D0BA693B1C11680F689F61226055
:10077000002411600C605060029890600198D06075
:100780001474586A049A01304A60CD6001228E6068
:100790000A7452E00A683B1CBA6121600860C268B2
:1007A000521BC2608268521982603FE0227C012A9B
:1007B00029D0A2680392E368D2189E4673199A4220
:1007C0009C462BD90F68204B3A689A61039A73466E
:1007D000B21AE260521900E015E09A1AFA6021603C
:1007E0000F6038600498184B4860CD6001208E601F
:1007F0000874586A013058626046B860F96805F0BC
:100800000FF8002802D1002007B0F0BD78600E4933
:1008100000203874486A0130486210E00A683B1CC6
:10082000BA6121600860E068401BE060049848609D
:10083000CD6001208E600874586A01305862012032
:10084000E2E700007473800050748000704700007D
:10085000F7B515480D1C0068171CC0688047134C7D
:10086000E06900280ED1A16A6E1A321C012304F03F
:100870005BFF002806D02068A16A321CFFF726FF24
:1008800000280DD03A1C291C0098002304F04CFFCE
:10089000002805D03A1C291CFFF718FF002801D1B9
:1008A0000020FEBD0120FEBD7473800050748000E6
:1008B00010B5074C0748E18800F046F8E188054A82
:1008C0005054000A52185070881CE08010BD00007F
:1008D0007873800000588200F8B5164B164E5B699D
:1008E0001C1C544359432718081801250090F56033
:1008F000531C06D0114C391C206B426B90470128C9
:1009000001D10120F8BD206B0D4A036B391C9847BB
:1009100000280C4F01D00B2007E0206B084A436AE7
:1009200000999847002803D00A20B8610020F8BD3C
:10093000F560E6E7B0638200000100B870618200F4
:10094000D86682009C7D820030B50A4C0A4D221C7C
:1009500007E0037853401B06DB0DEB5A120A5A409E
:1009600001300B1C01390904090C002BF1D194430F
:10097000201C30BDFFFF0000A46B800030B50B4C85
:10098000D2430B4D224007E0037853401B06DB0D9A
:10099000EB5A120A5A4001300B1C01390904090CA8
:1009A000002BF1D19443201C30BD0000FFFF00005C
:1009B000A46B800000B504F00BFC034804F0EAFDD2
:1009C00002490120C86000BDF46A8000000100B83F
:1009D000FFB5071C00208FB00890A820C4593969C2
:1009E000161C1D1C381C8847F96D0AAA484310992B
:1009F00009AB4118381C02F0EFFE2B1C0A99099A2A
:100A0000201C03F0C9F80024A5E0A048A10040681C
:100A100003AA081850509EA20CCA00211940104089
:100A200001919D490090200140180E909BA1051C4A
:100A30000CC9083003C810401940019B009A1943A3
:100A40001043E960A86092A20CCA00211940301C32
:100A50001040019193490090600140188FA1051C3E
:100A60000CC9083003C81040009A1940019B10437C
:100A70001943A860E9601898FF38FF380238002849
:100A8000079029DD82A20CCAF01DFF300021194019
:100A9000FA3010400191009080A10CC9E969A86961
:100AA00019401040009A019B104319430C910D907E
:100AB0000798C1172022FFF73CEB78A20CCA104020
:100AC00019400191009072A00CC80C990D98194022
:100AD0001040009A019B19E06DA20CCAF01DFF3076
:100AE00000211940FA301040019100906BA10CC90F
:100AF000A869E9691040009A1940019B1043194305
:100B000063A20CCA1940104067A20CCA10431943D3
:100B1000A861E9610E9D5EA269680CCA18980B91E4
:100B2000361828681940051C1040202158A2884317
:100B30000CCA002119401040019158A100900CC925
:100B40000B9915401940019B009A281C0E9D1043DB
:100B5000194303C501347969381C8847C117C90D89
:100B600008184012A04200DD4FE77969381C884719
:100B70000121490288424F4B4D4A186820D180001C
:100B800011580123DB0719431150434840A4416821
:100B9000636800680D1C226819400121061C104082
:100BA0004905084300211040041C19403BA0019155
:100BB0000CC816401D40291C301C019B221C1EE045
:100BC0008000115832A64900490811503248736814
:100BD000416800680C1C326819400121051C104056
:100BE0004905884300211040061C19402BA00191A3
:100BF0000CC815401C40019B211C281C321C1943A9
:100C00001043254A03C22A4803F02EFE002801D1D2
:100C1000013808907969381C8847C117C90D081830
:100C200044122EE0A00003A90858FF2100681131EA
:100C3000014003D14004400FA04203D00020C04334
:100C4000089020E014492001451811A20CCA6968D7
:100C500028680E1C071C1040194020210CA20843D4
:100C60000CCA10400021194000900CA001910CC842
:100C700017401E40019B311C009A1943381C104339
:100C800003C5013CCED5089813B0F0BD9874800020
:100C9000FFFFFFFF00000000F07580000000000073
:100CA000FFFFFFFF707680000000000000000000E2
:100CB0006C548700B874800000238900002806D097
:100CC000012814D1900208180A4943180FE0002A9D
:100CD00007D0012A07D0022A07D0032A07D10648E5
:100CE00004E0064802E0064800E006480B18181C1D
:100CF00070470000000040B0000C70A9000040A93F
:100D0000000450A9000860A900228900002803D02F
:100D1000012803D1024800E002480A18101C70475D
:100D2000400240B0400240A900228900002803D0C0
:100D3000012803D1024800E002480A18101C70473D
:100D4000800240B0800240A900228900002803D020
:100D5000012803D1024800E002480A18101C70471D
:100D6000C00240B0C00240A900238900002806D07C
:100D7000012814D1900208180A4943180FE0002AEC
:100D800007D0012A07D0022A07D0032A07D1064834
:100D900004E0064802E0064800E006480B18181C6C
:100DA00070470000800040B0800C70A9800040A90E
:100DB000800450A9800860A900238900002806D07B
:100DC000012814D1900208180A4943180FE0002A9C
:100DD00007D0012A07D0022A07D0032A07D10648E4
:100DE00004E0064802E0064800E006480B18181C1C
:100DF00070470000C00040B0C00C70A9C00040A9FE
:100E0000C00450A9C00860A900238900002806D0AA
:100E1000012814D1900208180A4943180FE0002A4B
:100E200007D0012A07D0022A07D0032A07D1064893
:100E300004E0064802E0064800E006480B18181CCB
:100E400070470000000140B0000D70A9000140A9EA
:100E5000000550A9000960A900238900002806D0D8
:100E6000012814D1900208180A4943180FE0002AFB
:100E700007D0012A07D0022A07D0032A07D1064843
:100E800004E0064802E0064800E006480B18181C7B
:100E900070470000400140B0400D70A9400140A9DA
:100EA000400550A9400960A900238900002806D008
:100EB000012814D1900208180A4943180FE0002AAB
:100EC00007D0012A07D0022A07D0032A07D10648F3
:100ED00004E0064802E0064800E006480B18181C2B
:100EE00070470000800140B0800D70A9800140A9CA
:100EF000800550A9800960A900238900002806D038
:100F0000012814D1900208180A4943180FE0002A5A
:100F100007D0012A07D0022A07D0032A07D10648A2
:100F200004E0064802E0064800E006480B18181CDA
:100F300070470000C00140B0C00D70A9C00140A9B9
:100F4000C00550A9C00960A90023002810D188005D
:100F5000002A07D0012A07D0022A07D0032A07D186
:100F6000044904E0044902E0044900E0044943184C
:100F7000181C7047000F70A9000340A9000750A972
:100F8000000B60A900238900002806D0012814D195
:100F9000900208180A4943180FE0002A07D0012AD6
:100FA00007D0022A07D0032A07D1064804E00648E2
:100FB00002E0064800E006480B18181C70470000C5
:100FC000400040B0400C70A9400040A9400450A926
:100FD000400860A900238900002806D0012814D108
:100FE000900208180A4943180FE0002A07D0012A86
:100FF00007D0022A07D0032A07D1064804E0064892
:1010000002E0064800E006480B18181C7047000074
:10101000000240B0000E70A9000240A9000650A9CD
:10102000000A60A900228900002803D0012803D10A
:10103000024800E002480A18101C7047A00340B0A4
:10104000A00340A900228900002803D0012803D171
:10105000024800E002480A18101C7047B00340B074
:10106000B00340A900228900002803D0012803D141
:10107000024800E002480A18101C7047C00340B044
:10108000C00340A9011C0020002903D0012900D180
:101090000148704701487047D00340B0D00340A9D1
:1010A000011C0020002903D0012900D1014870470C
:1010B00001487047EC0340B0EC0340A9011C00203C
:1010C000002903D0012900D1014870470148704729
:1010D000F00340B0F00340A9011C0020002903D018
:1010E000012900D10148704701487047E00340B032
:1010F000E00340A9011C0020002903D0012900D1F0
:101100000148704701487047E40340B0E40340A938
:10111000011C0020002903D0012900D1014870479B
:1011200001487047E80340B0E80340A900220028C6
:1011300005D001280CD188020949421808E000298D
:1011400008D0012908D0022908D0032900D1054A76
:10115000101C7047044AFBE7044AF9E7044AF7E722
:10116000800340B0800F70A9800340A9800750A978
:10117000800B60A910B5164C01202168002903D10D
:1011800004F0D0FA0004000C124B19684903490B13
:101190002022114319602168002903D1002801D1C0
:1011A00004F0BEFA21680120002903D104F0BAFA44
:1011B0000004000C08490A691206120E0A6121682F
:1011C000002903D1002801D104F0AAFA10BD0000C3
:1011D000F06A8000000060A8000260A870B50C4DA5
:1011E0000324296824020120002903D104F09AFA7B
:1011F0000004000C074A1169FF23194021431161C3
:101200002968002903D1002801D104F089FA70BDB2
:10121000F06A8000000260A8F8B5071C0E1C151CBF
:10122000022842D2324833497843334A4018D42105
:1012300071430C1801682834914236D1002E34DBFA
:101240008068B04231DD2A68042A2ED2A8680138AD
:1012500004282AD22078022801D0032825D1E0686A
:10126000824203D0311C381C00F048F8606B0068E3
:10127000A16908200A6801380028FBDC2A1C311CFF
:10128000381C00F0A3FC00280FD0E06BA96888424E
:1012900023D000280FDD00260AE00C20704300193F
:1012A000403004F007FA002801DD0020F8BD0136C7
:1012B000E06BB042F1DCA8680026E06306E00C2099
:1012C00070430019403004F011FA0136E06BB0426F
:1012D000F5DC201C703004F009FAE86AA42100044F
:1012E000000C2061A86A0851032020700120F8BD7D
:1012F000680D0000E8558700444D4F56F8B5264B61
:10130000051C0E1C25495843171C4018D421714355
:1013100044182834311C281CFFF734FE0028A06133
:1013200001D12070F8BD3A1C311C281CFFF7C4FC09
:101330003A1C311C6061281CFFF716FD3A1C311C59
:10134000E061281CFFF738FD3A1C311C2062281C84
:10135000FFF75AFD3A1C311C6062281CFFF77CFD28
:101360003A1C311CA062281CFFF79EFD3A1C311C60
:10137000E062281CFFF7C0FD3A1C311C2063281CCA
:10138000FFF728FE3A1C311C6063281CFFF7DCFDC8
:10139000A0630120E760F8BD680D0000E8558700F4
:1013A000F3B581B001980F1C022830D2234B01986D
:1013B000234958434618002F29DBB068B84226DD80
:1013C000D420784384192834207803281FD1606BF7
:1013D00000680090C000800F19D1201C703004F00C
:1013E00069F9002813D1002508E00C206843001992
:1013F000403004F05FF9002809D10135E06BA842C4
:10140000F3DC0198391C00F05DFC002801D10020BC
:10141000FEBD0098400F01E0A1690968011C013878
:101420000029F9DCE0681036805D002801D1062033
:1014300000E00A2020700120FEBD0000680D0000C1
:10144000E8558700F8B5061C0D1C00F097FF002832
:101450002DD0022E2BD21F481F4970434418A1687B
:10146000002008E0D4224243121928321278063AAA
:10147000072A1CD901308142F4DC0021217128782F
:10148000012814D10122002022712F187F78002F0B
:1014900002D12318197401E023181A7401300428AA
:1014A000F3DB291C301C00F061FC002801D1002076
:1014B000F8BD0020022105E0D42242431219203257
:1014C00001301172A2688242F6DC044820600120DB
:1014D000F8BD0000680D0000E8558700444D4F56E8
:1014E000F0B5041CA1B00EA84C210D90FEF760EEE3
:1014F000012508AB04201D76587603200027987636
:10150000DF761F7710AB0D221D7012071292082292
:101510002907119113921D74169118AB1792159704
:1015200005211D70490719912B2189061A911B92DB
:101530001D74381C1D9189001E910D9920901F92D9
:10154000FFF780FF00287AD001A830210090FEF735
:1015500030EE05266B46029601971F820021059703
:10156000009A00200B9403950C97FFF755FE002876
:10157000E9D000210020FFF713FF0028E3D00098F6
:101580003021FEF716EE60206B4602960197188216
:10159000022005900121009A00200B9403950C97DE
:1015A000FFF73AFE0028CED001210020FFF7F8FE19
:1015B0000028C8D000983021FEF7FAED02206B46D3
:1015C0000296019718820C2005900221009A0020B3
:1015D0000B9403950C97FFF71FFE0028B3D0022150
:1015E0000020FFF7DDFE0028ADD000983021FEF787
:1015F000E0ED80206B46029601971882322005901C
:101600000321009A00200B9403950C97FFF704FE2A
:10161000002898D003210020FFF7C2FE002892D0B6
:1016200000983021FEF7C4ED032606206B46029099
:1016300001961F8205970B9403950C9700E03AE200
:101640000421009A0020FFF7E7FD002890D0042134
:101650000020FFF7A5FE00288AD000983021FEF771
:10166000A8ED06206B460290019618820220059094
:101670000521009A00200B9403950C97FFF7CCFDF1
:10168000002890D005210020FFF78AFE00288AD08C
:1016900000983021FEF78CED0620029020206B464A
:1016A000019618820C20059001203D1C0621039014
:1016B000009A00200B940C97FFF7AEFD00288DD008
:1016C00006210020FFF76CFE002887D0009830210B
:1016D000FEF76EED062708206B46029701961882EA
:1016E00032200590012007210390009A00200B94DE
:1016F0000C95FFF791FD00288BD007210020FFF704
:101700004FFE002885D000983021FEF752ED6B4641
:10171000019602971D82C0200590012008210390A8
:10172000009A00200B940C95FFF776FD00288DD0D1
:1017300008210020FFF734FE002887D000983021D0
:10174000FEF736ED03200190029700266B463D1C04
:101750001E820002012705900921009A00200397AC
:101760000B940C96FFF758FD00288AD00921002021
:10177000FFF716FE002884D000983021FEF718ED00
:10178000032001906B4602951E82B80205900A2143
:10179000009A00200B940C960397FFF73DFD00285C
:1017A0008DD00A210020FFF7FBFD002887D000988C
:1017B0003021FEF7FEEC6B46029501961E820B214E
:1017C0000596009A00200B940C960397FFF724FDD2
:1017D000002891D00B210020FFF7E2FD00288BD0DC
:1017E00000983021FEF7E4EC02256B460195029744
:1017F0001E8228050C210C900596009A00200B945F
:101800000397FFF709FD002891D00C210020FFF776
:10181000C7FD00288BD000983021FEF7CAEC6B463C
:10182000019502951E8228050D210C900596009ABF
:1018300000200B940397FFF7EFFC002895D00D21B3
:101840000020FFF7ADFD00288FD000983021FEF773
:10185000B0EC02200325019000206B46029518820F
:101860003E1C039777050590009A0E210C970B9468
:10187000FFF7D2FC002893D00E210020FFF790FD47
:1018800000288DD000983021FEF792EC022004252C
:10189000019000206B46029518820590009A0F2156
:1018A0000B9403960C97FFF7B7FC002891D00F21FB
:1018B0000020FFF775FD00288BD00D984C21FEF716
:1018C00078EC08AB1E765D7603259D760027DD76E5
:1018D0001F7710AB0D211E7009071291082113917B
:1018E00011971E74B1210906159159214906301C22
:1018F00018AB1790169118701991B32109061A9117
:101900001B9018741D912D2189061E910D991F9011
:101910002097FFF797FD002890D000983021FEF720
:1019200048EC6B46019502961F8200210597009AAC
:1019300001200B9403960C97FFF76EFC00289AD0B9
:1019400000210120FFF72CFD002894D000983021C1
:10195000FEF72EEC022002906B4601951F820121BA
:101960000597009A01200B9403960C97FFF754FCFF
:10197000002886D001210120FFF712FD002895D014
:1019800000983021FEF714EC6B46019502951F82FA
:1019900002210597009A01200B9403960C97FFF7FC
:1019A0003BFC002888D002210120FFF7F9FC002829
:1019B000B2D000983021FEF7FCEB019504256B4670
:1019C00002951F8203210597009A01200B9403962C
:1019D0000C97FFF721FC00286DD003210120FFF7B1
:1019E000DFFC002867D000983021FEF7E2EB0625E7
:1019F0006B46029501971F8204210597009A0120EA
:101A00000B9403960C97FFF707FC002853D0042192
:101A10000120FFF7C5FC00284DD000983021FEF7CB
:101A2000C8EB072002906B4601961F82052105979F
:101A3000009A01200B9403960C97FFF7EDFB00280A
:101A400039D005210120FFF7ABFC002833D00098E6
:101A50003021FEF7AEEB052002906B4601971F8206
:101A600006210597009A01200B9403960C97FFF727
:101A7000D3FB00281FD006210120FFF791FC00288E
:101A800019D000983021FEF794EB082102916B46A3
:101A900001971F8207210597009A01200B94039656
:101AA0000C97FFF7B9FB002805D007210120FFF7AD
:101AB00077FC002802D1002021B0F0BD0120FBE717
:101AC00070B51E4C01202168002903D103F02AFEC5
:101AD0000004000C1A4DA9680903090BA9602168CC
:101AE000002903D1002801D103F01AFE216801204A
:101AF000002903D103F016FE0004000C114AD16B3B
:101B00000321D1632168002903D1002801D103F00A
:101B100007FE21680120002903D103F003FE000421
:101B2000000CA968084A1140A9602168002903D166
:101B3000002801D103F0F4FD70BD0000F06A8000C0
:101B4000804000B0004800B0FFFF170010B50C4CFB
:101B500001202168002903D103F0E4FD0004000CFA
:101B6000084B9968C902C90A0122D204114399603D
:101B70002168002903D1002801D103F0D1FD10BD57
:101B8000F06A8000804000B0F8B500260D480E498C
:101B900070434518287901280FD100242F1C1037D5
:101BA000D420604340192830C168C95D002901D0A4
:101BB00000F0E2F90134102CF2DB0136022EE5DBF5
:101BC000F8BD0000680D0000E8558700F0B5022858
:101BD0000DD229231B0143432F4C1D192B78022BB7
:101BE00005D31668042E02D25368102B01D30020AF
:101BF000F0BD24234B435C195034E3691B68DF07B5
:101C0000264B5843264BC018002F05D0D4235943E8
:101C10004018406C0068EAE7A66051680023E16064
:101C200091896161D16A01220E0C36042661007926
:101C30000121022801D1012000E00020A768013520
:101C40007D57002D0CD10120350200D50123F5026E
:101C500000D50021B50200D50022750200D5002074
:101C6000E668BD073607360FAD0E354366693604A4
:101C70002E430125ED023543002B09D1C907C90DBB
:101C8000D207120E2943C007400E11430843051C1A
:101C9000A06905600120F0BDC4A38700680D0000A5
:101CA000E855870029231B0158432423044A59433C
:101CB00080184018C06E02210160012070470000AA
:101CC000C4A387002922120142430C4BD2182423BB
:101CD0004B43D218D26E1368DB070AD0084B094A6F
:101CE0005843D423594380184018406C00680020A2
:101CF000704700201060012070470000C4A38700D7
:101D0000680D0000E855870029231B015843164B36
:101D100010B514788900C0180818002C03D1006A87
:101D2000002101601EE051680B020DD193681C0276
:101D30000AD1994208D2D268012A07D0022A05D0D6
:101D4000042A03D0082A01D0002010BD090E1B0E62
:101D50001B0609041207120F19431143026A11608E
:101D6000006A0068012010BDC4A38700FEB5071CEF
:101D70000E1C022857D22920000178432B49441811
:101D8000207800284FD0002F06D1FFF727FAFFF761
:101D9000F1F910210A2007E0012F44D1FFF7D6FE08
:101DA000FFF78EFE082100200290002010E0242280
:101DB000424300231219503293600F23D360D56938
:101DC00002232B60FF23903301939269136001304B
:101DD0008842ECDB0025280182190832291C381CB6
:101DE000FFF792FF00281ED00135042DF3DB019B85
:101DF000A06803600299012001318840B16C01386C
:101E0000C0430840A1680860002031180123C9566A
:101E1000042908D82218013004285170F5DB02206B
:101E200020700120FEBD0020FEBD0000C4A387007D
:101E3000F8B529231B01071C584338494518191CBC
:101E4000281CFEF7B6E90024002F2C7001D11020C9
:101E500002E0012F5FD108200090381CFFF712F933
:101E60000028A86057D0381CFFF736F9E860381C06
:101E7000FFF732F9E860381CFFF73CF92861381C9D
:101E8000FFF746F96861381CFFF70AF9A861381CAA
:101E9000FFF714F9E86100202A1800210130042816
:101EA0005170F9DB0024211C381CFFF7BBF8A1009E
:101EB0004E19211C3062381CFFF7C4F8211C306316
:101EC000381CFFF7CFF80134042C3064EBDB00261C
:101ED0001BE02421714300206C185034A0600F20B7
:101EE000E060311C6660381C2760FEF70DFF00289B
:101EF000A06110D0311C381CFEF716FF311CE061C8
:101F0000381CFEF721FF0136206200988642E0DB94
:101F100001202870F8BD0020F8BD0000C4A3870090
:101F200010B502684168022A1BD2114B5A43114B6B
:101F3000D218002915DB93688B4212DDD423594354
:101F40008A18283211780A290BD18168002908DB08
:101F5000D36B994205DAC168490702D1017C89082F
:101F600001D0002010BD011C101C00F02BF910BD89
:101F7000680D0000E855870070B50678051C301C18
:101F80000A38042814D2012400E00024281C00F0A0
:101F90004BF90028F9D1281C00F0E4F80028F2D110
:101FA000002CF0D00B2E03D16868A96800F088F9E6
:101FB00070BD0000F8B5224B061C58432149441857
:101FC000191C201CFEF7F4E81F480027002E206093
:101FD00004D11020A0600A20E06004E0012E04D1AA
:101FE0000820A060E760002503E0A7600020E7600C
:101FF000F8BD291C301CFFF799F8A90009194861A0
:1020000060190135042D0774F3DB0020411E012205
:1020100008E0D42343431B1928339860D9605E60DD
:1020200001301A70A3688342F3DC05E0D4214143F8
:102030000919203101300F721028F7DB0120F8BD9B
:10204000680D0000E8558700BBB2B0A9F7B5404B5A
:10205000404A5843D423594380180D1828352E1C64
:102060008036012082B030710498B0600020810079
:102070004919CA691268803101300628CA60F6DB46
:10208000F06B2F1C0130F063281C883070370190F2
:102090000CE0E269002A05D0216A01989047706B34
:1020A000013070632C48211C03F029FB381C03F01D
:1020B00003FB041CEDD128780D282AD100271FE04E
:1020C00026482749A0620020820012190130062804
:1020D000D162F9DBE269002A08D0201C216A28308D
:1020E00090470020A062706B013070631A48211C79
:1020F00003F005FB009803F0DFFA041CE0D1013780
:10210000E86BB84205DD0C20784340194030009060
:10211000F0E70498000707D514202870281CC03069
:1021200001680131016008E028780C2801D00D28F1
:1021300003D10A20287005B0F0BD746A002CFAD0D3
:102140000022F3686868A968D243A047F3E700005B
:10215000680D0000E8558700B8A3870004000080E0
:10216000EFEEEEDE70B5041C00780A2801D00B28D3
:1021700011D1606B0068C0070DD0002508E00C206D
:1021800068430019403003F097FA002805D1013563
:10219000E06BA842F3DC002070BD027E416992072B
:1021A0005208C90811430D1C011C201C703003F09B
:1021B000A6FA606905608034E06A0130E0620120BF
:1021C00070BD000070B5051C15480E1C03F074FAB4
:1021D000041C09D1C035E86812490130E86048683C
:1021E00001304860002070BD2022311C201C0830C6
:1021F000FEF764E80020606020690C235843401912
:102200004030211C03F07BFA281C8030816A0131A8
:102210008162281CFFF7A6FF0028FAD1012070BDBB
:10222000B8A3870074778000F8B5051C806906683C
:10223000002E01DB0020F8BD2F1C8037386B0130E9
:1022400038637007810F02D12969C90334D531077A
:10225000890F05D06868A968321CFFF7F7FE2BE0EC
:1022600000213971810F281C7030002904D003F03F
:1022700023FA041C012003E003F00CFA041C0020E4
:10228000002C009004D1C03528690130286113E08A
:10229000A662E269002A08D0201C216A28309047F3
:1022A0000021A162786B013078630098002803D088
:1022B0000248211C03F023FA0120F8BDB8A38700CF
:1022C000F8B52C4B061C0F1C2B4958434018D42141
:1022D00079430C18283420780B280ED0142827D0E6
:1022E000042020708034636A002B05D0421F301C0C
:1022F000391C1C1C0023A047F8BD002508E00C2059
:1023000068430019403003F0D5F90028F4D10135B5
:10231000E06BA842F3DC201C703003F0CBF90028FE
:10232000EAD1606B0068C100890FE5D1400FE3D1AD
:10233000391C301CFFF7B6FC002802D104202070A5
:1023400005E020780B2802D10320207008E0A420AB
:102350000559002D04D0391C301C00220023A84749
:10236000E36F002BC8D08034391C2268301C98479A
:10237000F8BD0000680D0000E8558700F8B5194E5B
:102380003078002801D00120F8BD00207060164888
:1023900003F0ACF9154F002444206043C519291CF3
:1023A000281C03F0A8F91048291C03F0A8F90134EF
:1023B000C02CF1DB01250024201CFFF739FD00288B
:1023C00000D10025201CFFF7F5FD002800D10025D5
:1023D0000134022CF0DB002D01D10020F8BD0120DA
:1023E0003070D0E774778000B8A38700B87087009A
:1023F00070B50D4E0125F5600C4C02210020616086
:102400002060E06020616061A160216A08700A209C
:10241000E061FEF70FF9F560E069002801D00720C0
:1024200070BD002070BD0000000100B89C7D8200DE
:10243000F7B50D1C2948141C0127C76003F068FA82
:10244000274E002030607060B060F06030617061D5
:1024500000982B1C306278020222224D0321FDF7E6
:102460008EEF0B36070D11151F2B3636362536002D
:10247000002C01D02A702CE0412022E0002CF9D160
:1024800042201EE0002CF5D143201AE0002C01D19F
:1024900029701EE0844201D92F701AE0442010E018
:1024A000002CF5D08442F7D845200AE0002CEFD06C
:1024B0008442F1D84A2004E0002CE9D08442EBD8D1
:1024C0004B20F061FEF7B6F8F069002803D0042035
:1024D00028700720FEBD0020FEBD0000000100B8EE
:1024E0009C7D82007D73800070B5144A0125D56003
:1024F000134C002222606260A260E26022612062CE
:102500004020E061A1616261FEF794F8E069002873
:1025100011D0A0690B49092807D0232803D0282807
:1025200005D1022004E00D7003E0032000E0042048
:102530000870072070BD002070BD0000000100B8C9
:102540009C7D82007C73800070B50024002304E031
:10255000CE5C251C0134013346559342F8DB002044
:1025600070BD00000C4A012110B5D1600B4C002158
:1025700021606160A160E16021616161226A117086
:10258000A0614820E061FEF755F8E069002801D01D
:10259000072010BD002010BD000100B89C7D820006
:1025A00010B503F02BFB002801D1072010BD00203F
:1025B00010BD0000F8B5114F00240126FE60104D3B
:1025C000A8680106090E12E0E8680006000E490638
:1025D000490F06D0302028611020286128612E6123
:1025E00001E002F0E5FEA8680106090EFE60201C6D
:1025F0000134802801DAC807E6D1F8BD000100B82F
:102600000000A0A9F8B543488068800772D5424809
:102610000226466041480127C7603F484030816834
:102620004A0704D5042101600521816081680907FA
:102630006ED5016B456B0D40056308218160A807CD
:1026400001D503F0AFFEE80706D0012201210020EA
:1026500003F0A4FD03F07AFC314CA07F41008E40D2
:10266000321C291C2F4E11401BD00121009003F079
:1026700007FEC068C002C00A002810DC00980121D3
:1026800003F044FD0098012103F064FD002200984E
:10269000012103F083FD0098012103F025FD0020B6
:1026A0003070E07F42009740391C294001D0B1686A
:1026B0007160317800292BD17168371C002927D02F
:1026C000002103F0DDFD0922D201C068131C101A9D
:1026D00006041548B968683BC018360C814200D121
:1026E0001248011CB860042003F08AFE002E0FD0AF
:1026F000002508E00CE0608B411C61837968085C70
:1027000002F056FE0135B542F5DB002060837860AB
:10271000F8BD0000000080A9001080A9000100B8E9
:10272000E4B5870090778000E4A887007CB187003B
:10273000F8B50B218901051C4018066911480127CD
:10274000C760002417E00F48C7600F480068C068E2
:102750008047EA69211C281C9047831C0AD0AA6A7A
:10276000211C281C9047002804D0084909208861B2
:102770000020F8BD0134B442E5DB0248C760012007
:10278000F8BD0000000100B8747380009C7D8200D9
:10279000F8B52B4E0120F0602A4FF86803F0EEF8F0
:1027A000294C3862206BF968826A90470028274DCF
:1027B00001D009202DE0224E0120F060022603E026
:1027C000042E08D0072E06D0F9683A69301CFEF7AF
:1027D00083F801282AD10136082EF1DB1C4E194F4F
:1027E0007069F9681B4A4843011D206B436A98478A
:1027F00000280DD1124F0120F8607069114EF16868
:1028000072684843411C206B436A9847002802D0F5
:102810000A20A8610AE00124FC6002F009FD0028FA
:1028200004D0FC6003F012FB012801D00020F8BDA9
:10283000FC60F06831693061F160FC600120F8BD36
:10284000000100B81C748000706182009C7D8200D1
:10285000B0638200D8768200F8B52A4E0120F0607D
:10286000294FF86803F08AF8284C3862206BF96821
:10287000826A90470028264D01D009202BE0214E86
:102880000120F060022601E0062E06D0F9683A69C0
:10289000301CFEF721F801282AD10136082EF3DB7F
:1028A0001C4E194F7069F9681B4A4843811D206B03
:1028B000436A984700280DD1124F0120F8607069D3
:1028C000114EF16872684843411C206B436A984777
:1028D000002802D00A20A8610AE00124FC6003F06D
:1028E000B5FA012804D1FC6002F0A2FC002801D155
:1028F0000020F8BDFC60F06831693061F160FC6077
:102900000120F8BD000100B81C74800070618200D5
:102910009C7D8200B0638200D87A8200F8B52A4E8E
:102920000120F060294FF86803F028F8284C38623D
:10293000206BF968826A90470028264D01D0092053
:102940002BE0214E0120F060022601E0052E06D08A
:10295000F9683A69301CFDF7BFFF01282AD101361A
:10296000082EF3DB1C4E194F7069F9681B4A484367
:10297000411D206B436A984700280DD1124F01205A
:10298000F8607069114EF16872684843411C206B11
:10299000436A9847002802D00A20A8610AE001246F
:1029A000FC6002F045FC002804D0FC6003F04EFA05
:1029B000012801D00020F8BDFC60F0683169306169
:1029C000F160FC600120F8BD000100B81C748000BB
:1029D000706182009C7D8200B0638200D8788200A2
:1029E000F8B5384D0120E860374C384F206BF96856
:1029F000826A90470028364E02D00920B0614CE030
:102A0000304D0120E8600425F9683A69281CFDF77B
:102A100063FF012841D10135082DF5DB2D4D2B49F0
:102A20006869CA6850432D4A871C2B4802602C4AAB
:102A3000426001228260102289690C30FDF7E4EBCC
:102A4000206B254A436A391C98470A2700281BD166
:102A50001C490120C8601D496869C968214A48436A
:102A6000C11C206B436A984700280DD115490120ED
:102A7000C8606869154DE9686A684843411C206B65
:102A8000436A9847002801D0B76106E00D4E012443
:102A9000F46002F0CDFB002801D10020F8BDF46005
:102AA000A869102210A1FDF73FFC002801D111A058
:102AB00000E00DA0A861E86829692861E960F46078
:102AC0000120F8BD000100B8706182001C74800014
:102AD0009C7D8200B0638200D86682009C120FFA4F
:102AE000C9B68F5AD8748200303A4F454D53424C84
:102AF00031000000303A4F454D53424C3200000047
:102B00000449022010B508700020486002F000FF60
:102B100010BD000014748000014840680168084737
:102B20001474800070B50B4C0025606800280ED12D
:102B30000948002100F072FB002806D10648002851
:102B4000606004D10120207070BD6560FAE72570D7
:102B500070BD00001474800040608200F8B5041C51
:102B60001A4800274068C1688847051C1748406814
:102B700001698847061C154840684169884701E09B
:102B80006D107600C82DFBDC4643791C321CE555E0
:102B90002B126354130E9C4613021B0E9E46130405
:102BA000481C00211E0E17063F0E0CE0021C0130CF
:102BB000A754421C26547346A354501C021C0130D7
:102BC00063460131A354A942F0DBF8BD14748000C0
:102BD000F8B51D4D0127EF601C4F3868C06880476D
:102BE00000211B4800F01AFB1A49002807D1184899
:102BF0000028C86206D11849022088611BE0002025
:102C0000C862F8E7C1688847061C00240127114DF7
:102C100015E00D48C7600D480068C0688047E86A45
:102C2000211CC2699047831C08D0E86A211C826A73
:102C30009047002802D0FF200130F8BD0134B44293
:102C4000E7DB0020F8BD0000000100B874738000CD
:102C5000D87C82001C7480009C7D8200F8B5214DD8
:102C60000124EC60204A506B002814D0111C403124
:102C700089691E4F081AFF2306E0516B4E1CC919C3
:102C8000A031566301380B750028F6D1174803F0C0
:102C9000C3FC00281FD0EC60154D2B78FDF76EEBC0
:102CA0000D0C0C0C0C1E1E080D12170C1E1E0C0019
:102CB000FFF796FE002811D10DE0FFF769FD00280F
:102CC0000CD108E0FFF72AFE002807D103E0FFF748
:102CD000C3FD002802D1FF200130F8BD00202C7078
:102CE000F8BD0000000100B864668200E463820061
:102CF0001C748000F8B51A4E0125F560194F1A4C66
:102D0000786A002801D1242014E002F031FB012868
:102D100020D116A002F024FA012801D0272009E0D2
:102D2000F5601448002101F0C0F81349431CC86342
:102D300002D10320A0610DE0F56001220F48216A55
:102D40005202FDF762EA072038700A4802F032FCAE
:102D5000002802D1FF200130F8BDF5600020F8BD49
:102D6000000100B81C7480009C7D8200303A414D07
:102D700053530000E463820064668200D8768200C8
:102D8000F8B51A4E0125F560194F1A4C786A0028DB
:102D900001D1242014E002F0EBFA012820D116A082
:102DA00002F0DEF9012801D0272009E0F56014487F
:102DB000002101F07AF81349431CC86302D10320B3
:102DC000A0610DE0F56001220F48216A5202FDF773
:102DD0001CEA092038700A4802F0ECFB002802D1F6
:102DE000FF200130F8BDF5600020F8BD000100B8FB
:102DF0001C7480009C7D8200303A4150505300008A
:102E0000E463820064668200D87A8200F8B51A4EC4
:102E10000125F560194F1A4C786A002801D1242049
:102E200014E002F0A5FA012820D116A002F098F9CA
:102E3000012801D0272009E0F5601548002101F0A4
:102E400034F81449431CC86302D10320A0610DE08B
:102E5000F56001221048216A5202FDF7D6E90820E8
:102E600038700B4802F0A6FB002802D1FF20013089
:102E7000F8BDF5600020F8BD000100B81C748000AA
:102E80009C7D8200303A41505053424C000000007B
:102E9000E463820064668200D8788200F8B51A4E36
:102EA0000125F560194F1A4C786A002801D12420B9
:102EB00019E002F05DFA01281FD116A002F050F9C6
:102EC000012801D02F200EE0F5601448FFF730FCF8
:102ED000012812D11148002100F0E7FF1049431CDE
:102EE000C86302D10320A06107E0F5600B203870B1
:102EF0000A4802F05FFB002802D1FF200130F8BD34
:102F0000F5600020F8BD0000000100B81C748000CE
:102F10009C7D8200303A454653320000E4638200D3
:102F200064668200F8B51A4E0125F560194F1A4CF7
:102F3000786A002801D1242019E002F019FA01284A
:102F40001FD116A002F00CF9012801D030200EE0AC
:102F5000F5601448FFF7ECFB012812D1114800215D
:102F600000F0A3FF1049431CC86302D10320A061F5
:102F700007E0F5600C2038700A4802F01BFB0028BF
:102F800002D1FF200130F8BDF5600020F8BD00003F
:102F9000000100B81C7480009C7D8200303A464FCE
:102FA00054410000E463820064668200F8B51A4F61
:102FB0000126FE60194D1A4C686A002801D12420B0
:102FC00014E002F0D5F9012820D1A86902F0C8F870
:102FD000012801D0262009E0FE601248002100F0FF
:102FE00064FF1149431CC86302D10320A0610DE0B6
:102FF000FE6001220D48216A5202FDF706E9062013
:103000002870084802F0D6FA002802D1FF200130CB
:10301000F8BDFE600020F8BD000100B81C748000FF
:103020009C7D8200E463820064668200D874820022
:10303000F8B5344F0126FE60334D3449286B431CEC
:1030400001D12C203AE031490C6A3149206888428C
:1030500009D130496068884205D1A068012802D1B1
:10306000E068102801D9282027E02B4D286B002884
:1030700015D10021281C803800F0D0F8002802D19A
:10308000281C803800E000200028286301D102209D
:1030900013E02148803802F01BF8012823D1FE609C
:1030A0001D49194A1020803908661032286B111FFB
:1030B00000F0AEFE431C03D122201449886112E0C7
:1030C000114DE868431C08D12869431C05D1FE60F6
:1030D00002F0C8FC002809D105E0FE60201C02F0C7
:1030E000F3FC002802D1FF200130F8BDFE60FF2272
:1030F000D1320A48211CFDF7E2E86E62FE60002032
:10310000F8BD0000000100B81C7480009C7D8200A6
:10311000AA73EE55DBBD5EE370618200D86C82005D
:10312000F8B5174E0125F560164F174C786A002840
:1031300001D1242014E002F01BF901281AD113A0B8
:1031400002F00EF8012801D0252009E0F5601148B1
:10315000002100F0AAFE1049431CC86302D10320DD
:10316000A06107E0F560052038700A4802F022FAF5
:10317000002802D1FF200130F8BDF5600020F8BD25
:10318000000100B81C7480009C7D8200303A5143DD
:1031900053424C00E46382006466820070B5144DB3
:1031A0000124EC6002F0E4F8260201281AD111484B
:1031B00001F08EFF012815D10F4841680D4800F03D
:1031C00074FE0E49431CC86303D10D490320886176
:1031D00008E0EC600B4904200870064802F0EAF9A8
:1031E000002801D1301C70BDEC60002070BD0000D3
:1031F000000100B8E4638200887D8200646682007A
:103200009C7D82001C748000016EC06D081A70479E
:10321000C06E7047C06F7047406E7047F0B50D1CB0
:10322000022189B00A02061C0591291C00240120F4
:1032300000F0B8FE6B49012008606B48FDF7C2E959
:1032400001F0C6F8012809D16848664940094001E3
:1032500048606648403040094001886064486549DC
:10326000AF000560C95966A2C16063490968016180
:1032700062490B2008605B485B4940680290280166
:10328000089040180CCA10400021194000905EA020
:1032900001910CC85E48C16A806A19401040009ACA
:1032A000019B10435A4A19439062D162594854A273
:1032B000416B006B0CCA1040194057A20CCA104356
:1032C000544A1943106351634DA20CCA029800215D
:1032D000104019400691079000904BA001910CC836
:1032E0004C48C16B806B19401040009A019B104301
:1032F000484A19439063D163494841A24169006932
:103300000CCA1040194044A20CCA1043444A194345
:10331000106151610698079901903BA000910CC87B
:103320003F48C16980691940019B1040009A1943C8
:1033300010433B4A90613B48D16101F095FA30A0BF
:103340000CC83448416B006B1940104036A20CCABF
:103350001043304A1943106329A051630CC8304808
:1033600041690069194010402FA20CCA10432C4A31
:10337000194310615161029800680106090E0004AA
:10338000000E049003911749A0000C310B580399CB
:10339000049A301C984700281BD1301C803085626D
:1033A000326F0068291C00F0FDFD21480E4A089983
:1033B000C059243A891808620E48C05948620E491B
:1033C000086809495C31C86206490020086009B0F4
:1033D000F0BD059801348442D5DB02490020086025
:1033E0000138F4E7987480002400A0A04F458700BE
:1033F00024758000907480008474800018758000AB
:10340000FFFFFFFF0000000000000000FFFFFFFFC4
:1034100038758000F0758000000000004000A0A01A
:103420003076800054548700000000001400A0A0F3
:1034300088748000F0B5051C00208BB00E1C06902F
:103440002969281C8847E86D296E2F1C8037091AC6
:10345000BC6AB14203D80020C0430BB0F0BD29695B
:103460008619281C884701E0401076000128FBD10E
:10347000311C281C04AA03AB00F0AEF938680128FF
:1034800001D1FF2000E07D487D4E05900120306095
:10349000201C0499039A332300F07EFB706879A303
:1034A00002901A6877A35B6800211940002410403D
:1034B0000A90099134E075492001461871A20CCA9E
:1034C000306871681040194071A20CCA104319434A
:1034D0003060716009990A9F01916FA10CC9F16870
:1034E000B06819401040019B3843B0601943F16047
:1034F00064A26B480CCA0068002119401040019179
:103500006849061C6001471863A10CC9F968B868CE
:103510001940019B104030431943B8600134F960F1
:103520006969281C8847C117C90D08184012A042B4
:10353000C1DC5D4F53A42268386963687969104023
:10354000194053A20CCA1043194338617961099894
:103550000A990190009150A63268B8697368F969B8
:103560001040009A1940019B10431943B861F9615A
:103570006969281C88470121490288424C4B4B4A03
:1035800018681BD1800011580123DB071943115023
:103590003E48226841686368089100681940071C2A
:1035A0001040012149056368084300212268194041
:1035B0001040019100900CCE089919E0800011583C
:1035C00049004908115031482268416863680791F1
:1035D00000681940071C10400121490563688843B1
:1035E0000021226819401040019100900CCE0799EB
:1035F0001940019B1740009A381C19431043234A75
:1036000003C22A4801F030F9002801D101380690A0
:10361000002628A40EE01D493001471819A00CC847
:10362000386879681040194063682268194310436C
:1036300003C701366969281C8847C117C90D0818D6
:103640004012B042E7DC184F0EA00CC83869796907
:10365000104019400CCC104319433861796102982D
:1036600005990068000C814302D00120C0430690F8
:10367000034E002030600698EFE60000FFFF0000D8
:1036800098748000FFFFFFFF00000000F0758000CD
:10369000000000001800A0A000000000FFFFFFFFD6
:1036A000B474800070768000307680001C558700EE
:1036B000C0748000000000001400A0A01CB501AA86
:1036C0006B4600F089F804490198486000988860CA
:1036D000024801F0C9F81CBD04528700B4548700A9
:1036E000F0B50F1CA821095885B00391016EC26D79
:1036F000061C01250024891AB94202D8601E05B0B3
:10370000F0BD0169884703E001352D0440102D0C00
:103710000228F9D1F06D284AC119A940254D012090
:1037200028600398052386009059071C1B0718433F
:103730009051002203983A2300F02EFA68681FA2E5
:1037400002900CCA002119401040051C1DA00491D4
:1037500001910CC81D48C16B806B194010401B4A79
:10376000019B284319439063D163049915A00191EB
:103770000CC81748C16980691940019B1040144A60
:103780001943284390611348D16101F06DF8002876
:1037900000D1441E0749002008600298FF210068FC
:1037A0001131084001D00024E443034A201C975102
:1037B000A5E700009874800090748000FFFFFFFF71
:1037C0000000000000000000FFFFFFFFF075800018
:1037D000307680000855870070B50C1C4169151CB7
:1037E0001E1C88470122D2020121904205D12004EB
:1037F0002860200C05D1002103E020022860200E63
:10380000F9D0316070BD0000F3B5051C2D4885B0BE
:103810008268A8200292465929690124281C8847F9
:103820000190A969281C88478710286EE96D401A05
:10383000019948430699884202D8002007B0F0BD9C
:10384000214BB60099592148049182591D4B012002
:10385000039218600F23DB05994303231B061943CA
:10386000194B995101048A431143194A11401122FD
:1038700092011143814308431449212288511201C6
:10388000281C0092029A06993423FDF7A1F800281B
:1038900000D000240B4B00201860631C05D007E00B
:1038A000029A810051584B1C01D0002402E00130E3
:1038B000B842F5DB044804998151039A03488251C8
:1038C000201CBBE79874800088748000907480008E
:1038D0003F00FFFFF3B5061C00208DB00390301CA5
:1038E00080300C90806A0E9A0290F06D316E091A49
:1038F000914203D80020C0430FB0F0BD0E9A316949
:103900008718301C884701E040107F000128FBD158
:103910000298714D81000B916A580F250592ED05B3
:103920006E48AA43032543582D066D4C2A436A4D21
:103930000120049320606A50020493431A43694BA8
:103940009A4311239B011A4382431043634A505008
:10395000A068002100F012F900220021029837230C
:1039600000F01AF960A31A685FA35B686068002121
:103970001940002410400A9009912EE05848002177
:1039800080682022FCF7D4EB59A20CCA10401940E1
:1039900001910090584920014518089052A00CC888
:1039A0002868696810401940019B009A1943104328
:1039B00003C509980A990190009150490898451843
:1039C0004BA10CC9A868E9681040009A1940019BF6
:1039D00010431943A8600134E9607169301C8847BD
:1039E000C117C90D08184012A042C7DC0999444804
:1039F00001913FA4C1698069226863680A9D1040F3
:103A00001940019B3E4A284319439061D161716975
:103A1000301C88470121490288423B4B394A1868CB
:103A20001BD1800011580123DB0719431150334883
:103A30002DA241680CCA079100681940051C10406E
:103A4000012129A249050CCA084300211940104050
:103A5000019100900CCC079919E0800011584900A1
:103A600049081150254820A241680CCA06910068F7
:103A70001940051C104001211BA249050CCA8843AE
:103A8000002119401040019100900CCC069915407E
:103A9000009A281C1940019B1043184A194303C27D
:103AA0000C98391CC26A301C90470B99059A0A4839
:103AB00042500B99049B094843500E99301CFFF764
:103AC000B9FC831C02D00020C043039004490020AD
:103AD0000860039810E700008874800090748000EC
:103AE00098748000C0FF0000FFFFFFFF000000008F
:103AF00000000000FFFFFFFFF0768000F0758000FF
:103B000030768000B4548700BC748000F7B501693A
:103B1000051CFFB0161C93B08847296EEA6D00247F
:103B2000891A48439399884203D8601E7FB016B023
:103B3000F0BDF00605D002A81F3047097F0101241F
:103B400000E0371C0C4901200860420200923A1C38
:103B5000281C93993323FCF73BFF051C002C05D050
:103B600001225202391C301CFCF74EEB02490020A6
:103B70000860281CDAE7000098748000C21DFF323C
:103B8000FA3251719172D172117051700170FF301F
:103B9000C13001744174704770B51C1C114B1A4E32
:103BA00059609A60D860104A1C60810052580F4BCF
:103BB00000011A600E4A51580FA259600D490CCAF3
:103BC0004018002119400D1C1040041C0CA00CC80A
:103BD000F168B0681940294310402043B060F1609B
:103BE00070BD00000452870088748000C474800097
:103BF000907480002000A0A0FFFFFFFF00000000E5
:103C000000000000FFFFFFFFC0758000F0B50E1C34
:103C10000169171C051C8DB0884708906969281C2C
:103C20008847A820445900200790E86D296E089A1B
:103C3000091A5143B14279D9089A09AB50430AAAEB
:103C40008119281CFFF7C8FD674901200860201C66
:103C50000A99099A3623FFF79FFF00243BE0624947
:103C6000A000496803AA41180C9111500021381C8A
:103C70002022FCF75EEA5DA20CCA104019400191B7
:103C800000905C49200146180B905BA00CC830687E
:103C9000716810401940019B009A1943104303C6F4
:103CA00055A20CCA0C9800211940104001910090B7
:103CB0000B985349FF3746184CA10CC9B068F168FE
:103CC0001040009A1940019B1043FF3719430237F7
:103CD000B0600134F1606969281C8847C117C90DBB
:103CE00008184012A042BADC43A6326873680398F1
:103CF000002119401040071C019142483BA4C169B2
:103D000080692268636810401940019B3D4A38432E
:103D100019439061D1616969281C884701214902D2
:103D200088423A4B384A186814D100E03AE08000E3
:103D300011580123DB071943115031482EA2416865
:103D400000680E1C0CCA071C1940012149051040CF
:103D5000084310E0800011584900490811502848D4
:103D600025A2416800680E1C0CCA071C19400121DD
:103D700049051040884320A20CCA00211940104078
:103D8000009001910CCC17401E40019B311C009A01
:103D90001943381C10431A4A03C21B4800F064FD43
:103DA000002803D10020C0430DB0F0BD0E49002013
:103DB00008606969281C8847C117C90D0818401296
:103DC0000138FF23113303AA09E081005158096823
:103DD000194003D00020C043079002E001380028BA
:103DE000F3DA0798E0E70000987480000000000014
:103DF000FFFFFFFFF0768000FFFFFFFF00000000E5
:103E0000F075800030768000B4548700BC74800068
:103E1000F7B50D1C0024161C86B0002704940698E4
:103E2000211C03AA00F06AF8012807D1C02C0190D8
:103E3000059411DD0020C043306020E00134C02C27
:103E4000EDDDF7E70698211C02AA00F057F80128DB
:103E500002D10127049402E00134C02CF2DD019864
:103E60003843E7D00198002803D0002F09D1059CE2
:103E700002E0002F05D0049C0020C043346028607D
:103E800011E003980299884203D10020C04309B091
:103E9000F0BD884203D9059C3460049C02E0049C78
:103EA0003460059C2C600020F1E7F3B50E1C002463
:103EB000651E002081B000900198C1688847071CEA
:103EC000864216DC0CE00198211CC2699047831CD5
:103ED00005D00135B54202D10120009000E0013447
:103EE000BC4204DA0098002801D1B542EBDBBC42A9
:103EF00002DB0020C043FEBD201CFEBDF8B50D1C3A
:103F0000041C161CC2699047831C36D02169201CF2
:103F100088474543626B6F1C291C201C9047002872
:103F20002BD1236B291C184A201C9847002824D128
:103F3000154D1649286888421FD11549686888427E
:103F40001BD1A868012818D1626B391C201C90472E
:103F5000002812D1236B391C0E4A201C98470028D8
:103F60000BD10C480C4A0168914206D10B4A4168BA
:103F7000914202D18068012801D00020F8BDE86894
:103F800030600120F8BD0000F04F8700AC9F56FE66
:103F90007A127FCDF04D8700AA73EE55DBBD5EE34C
:103FA000806F7047F0B58B002049204C59180834B9
:103FB0001B191F4C1D4D0C601E4C043D1C601D2424
:103FC0002C60022401270526F6057F022506BA4249
:103FD0000A6816D127073A430A601A68E7033A438A
:103FE00001281A60086805D130430860FF2118686D
:103FF000813117E0284308601868402108432043B6
:1040000011E00D4F3A4301280A6003D13243101CDE
:10401000086005E02A43101C0860186820431860F7
:104020000649186808431860F0BD000088748000D5
:10403000000054803C000400C000002840740000D0
:10404000F3B5FFB084B0C56D066E041C1020206669
:104050000020E065201C81AA82A9FFF7D9FE002775
:10406000FF43431C3DD08198431C3AD08090216986
:10407000201C88478099236B4143201C6A4698473F
:10408000002807D119490098884203D1184901989E
:10409000884201D0381C00E00398431C21D02169DC
:1040A000201C88478199236B4843124A411C201CDD
:1040B0009847002815D10F490F4A0868904210D13F
:1040C0000E4A486890420CD18868012809D1849A28
:1040D000201C00F01CF8012803D100207FB006B09E
:1040E000F0BDE565381C2666F8E70000AC9F56FE7B
:1040F0007A127FCDF04D8700AA73EE55DBBD5EE3EB
:10410000006F7047803041627047406F704770B5F4
:10411000041C081CE56D266E111C00F015F8002823
:104120000ED00169E16541694B1C01D1A06E01E02F
:10413000006940182066A16E884201D8012070BD38
:10414000E5650020266670BDF3B5051CC668002431
:1041500081B00CE01C206043029947191037381CCD
:1041600000F009F8002801D0381CFEBD0134B4422B
:10417000F0DB0020FEBD10B51022FCF7D5F80028BA
:1041800001D1012010BD002010BDF3B581B002990E
:10419000051C00680968884229D102996868496845
:1041A000884224D10299A868896888421FD102995F
:1041B000E868C96888421AD100241BE01C206043CB
:1041C000029947194618311C1031381C1030FFF77E
:1041D000D2FF00280BD0386A316A884207D1786A4A
:1041E000716A884203D1B86AB16A884201D000205E
:1041F000FEBD0134E868A042E0D80120FEBD000009
:10420000F1B55749012284B0CA60564BD8681C6A80
:1042100026181C6920181C685B69001B1D042D0CE6
:1042200043190093049C0B239B01E31803939B68A1
:10423000002B03D1039B9A60039B586048490122DD
:10424000CA600399049B05224968D2019C188142E7
:1042500035D0471A814201972AD9192019E00399CC
:104260008869616B401AB84200D3381CFF2208E00D
:10427000616B013F4B1C6363049BC918A03101387B
:104280000A750028F4D10399606B8969884203D9C3
:104290001A20344B98615DE0884209D130490120F1
:1042A000C860049802F0B8F9002853D00020606379
:1042B000002FD4D10399019F886AC0198862284FC2
:1042C0000120F8600498B430029039E003998869BD
:1042D000616B471AAF420AD9606B02992A1C4018D9
:1042E000311CFBF792EF606B401960632AE0AF422C
:1042F00005D1002903D0029808182A1C06E0AF4215
:104300000FD200290DD0029808183A1C311CFBF777
:104310007CEFF619E81B05042D0C02990020606360
:1043200004E0311C8619281A05042D0C0C4F0120BD
:10433000F860049802F0FEF800280BD00120F86025
:10434000002DC3D10399009B4B600399606B896971
:10435000884203D9FF20013005B0F0BD0020FBE703
:10436000000100B89C7D820070B50F4C0F4AA16916
:104370000120D0600002002903D0012901D02A21A8
:1043800006E00B4D2A6B531C06D08A4202D02B212B
:10439000A16170BD002070BD081C2963054901F0B2
:1043A00047FBC11FF93970BD9C7D8200000100B838
:1043B0001C748000887D820010B50C1C011C201C20
:1043C0001C222430FBF77AEF01202034207010BD2E
:1043D00010B5084C2078012804D00020FDF780F8A3
:1043E000002801D1002010BD00F006F80120207047
:1043F00010BD000030778000F0B5FD48FD4D40094C
:10440000400185B068600490FBA63268A86A7368B2
:10441000E96A10401940FAA20CCA1043A862194375
:10442000E96273683268002119400191281C6030EC
:10443000F5A710407B68696B041C286B3A6819402B
:10444000019B104020431943286369633268A86BBD
:104450007368E96B10401940EDA20CCA1043A863C1
:104460001943E96373683268002119400191281CDF
:104470005C3010407B68696C041C286C3A681940F9
:10448000019B1040204328641943281C69640021C3
:1044900058302022FBF74CEE7B683A6819400191B6
:1044A00010407368E96C041CA86C32681940019BC9
:1044B00010402043A8641943E9640CCE281C6430E2
:1044C000104000211940041C286D3A680E1C696DCB
:1044D0007B6810402043286519403143281C6965DA
:1044E00001212830C008C9074018291C0024086091
:1044F000C049A0007431401800212022FBF718EEBB
:10450000C1A20CCA104019400F1CBA49061C200158
:1045100088314518B8A00CC828686968104019404F
:10452000394330430134052C03C5E1DBB148002198
:1045300020302022FBF7FCEDB3A463682268194009
:10454000AC4F01918037ACA510406B68F96C061C2C
:10455000B86C2A681940019B10403043B864194375
:10456000F9646B682A68002119400191381C5830A1
:1045700010406368796D061C386D22681940019BF4
:104580001040304338651943796599482A686B684B
:104590004338104000211940061C96480F1C416A00
:1045A000006A226863681040924A304310621940E2
:1045B0003943101C5162002168302022FBF7B8ED0E
:1045C0006368226819400191934E10406B68716ACC
:1045D000071C306A2A681940019B1040384330623A
:1045E0001943301C7162002194382022FBF7A0EDA2
:1045F0006368226819400391019110406B68716BE8
:10460000071C306B2A681940019B10403843306307
:1046100077481943716300212F382022FBF788ED7A
:104620006368226819401040009001912A68306840
:104630006B6871681040009A1940019B104330600C
:104640001943301C71600021EC382022FBF770ED1B
:104650006368226819401040009001912A6830690F
:104660006B6871691040009A1940019B10433061DA
:104670001943301C7161002190382022FBF758ED5E
:1046800063682268194010400090019180363068BC
:104690002A6871686B681040009A1940019B1043AA
:1046A000194330607160039901916B68716A2A68DF
:1046B000306A1940019B10403843194330627162DF
:1046C0000CCD04980021194010400CCC051CB06B97
:1046D0000F1C1040F16B2843B06319403943301C64
:1046E000F1634E49F838C0080860301C5038321C5D
:1046F000603AC008D20848608A60321CD70801229C
:10470000D207BA18BC46454FC8600292331C18370E
:104710000A61414C703BDB0800220021E408151CB3
:10472000AD0001327C51551C9200BB506A1C3A4EC0
:10473000AD0078514D01C036AD19EE08551C920000
:10474000BE50354E0A0140369219D6086A1CAD009B
:1047500000297E5102D1274E551EB5600131042932
:10476000DDDB9100C9194039CA6B0125ED072A43E9
:10477000CA632A49294DB43188604B600C60029AA3
:10478000CA60002200216035161CB6000132AC510F
:10479000561C9200224FAB500A01D219D708721C46
:1047A000B600AF51561C9200A850721CB600674666
:1047B0000029AF5102D10F4F561EFE60013104296E
:1047C000E2DB910049194039CA6B0125ED072A4304
:1047D000CA63124D00220021C835161CB6000132F2
:1047E000AC51561C9200AB50721CB600A85119E097
:1047F00033528700B0748000FFFFFFFF000000000D
:10480000000000000001A0A000000000FFFFFFFF6B
:10481000000000004000A0A0B07580005454870044
:10482000F07680000E4F4E01F619F708561C9200E4
:10483000AF50721CB60067460029AF5102D1094F34
:10484000561E3E6101310429C7DB900040194038F3
:10485000C16B0125ED072943C16305B0F0BD000020
:1048600070768000B0748000F8B51B4A0021C943FF
:10487000184D0B1CD208D20001339C00065916516A
:104880000459002C02DB1E2BF6DB1FE01E2B1DDA69
:10489000124C0027261C2036A461E2603770201CD1
:1048A0006162FDF73DFB002810D002E0013DFDF7FD
:1048B0006BF93078002801D1002DF7D1307800282D
:1048C00004D03770606A0007800F01D00020F8BD67
:1048D0000120F8BD20A107006755870034778000CC
:1048E000F8B5214F3868C0688047386801697E2074
:1048F0008847012500241FE0E043C00602D1386844
:10490000C06880471948065D7E2E01D07D2E0CD1EF
:10491000386801697D20884739682020704009691E
:104920000006000E8847023505E03968300609693F
:10493000000E8847013501340D48C0888442DBDB16
:104940003868C0688047386801697E208847681CDD
:10495000800607D1386801697E2088473868016978
:104960007E208847F8BD00007473800000588200E4
:104970007873800070B5041C17480068C0688047D1
:10498000164DEA69002A25D09168101CA1420BD16E
:1049900001680029E96100D12962A9690160A86163
:1049A000696A0139696270BD0068016802E00B68DC
:1049B000081C191C00280DD08368A342F7D1016898
:1049C000A9690160A861696A0139002A6962EAD1AE
:1049D0002A6270BD002070BD747380005074800026
:1049E00010B50E4CE078002802D10F200CA104E095
:1049F000FDF7FEFC002803D013A101F0B7F90AE08F
:104A000000201549E070162008700120E080FBF7B7
:104A10004FFFFFF765FF002010BD00007873800096
:104A200043616E6E6F7420636C6F73652077686589
:104A30006E206E6F742070726576696F75736C7915
:104A4000206F70656E656400436C6F7365206661EE
:104A5000696C65640000000000588200F8B5041C11
:104A600037480078002835D120223649E01DFBF771
:104A700073FB002801D034A105E0261C2036307AD3
:104A8000022802D236A1052026E0A088242802D2DE
:104A900003203AA120E043480025434F29494570AF
:104AA0000220202221313870781CFBF7AEEB3C1C31
:104AB0002034032060700220A0700420E570207173
:104AC0006571A571E57125726572A572FEF724F80E
:104AD000031C04D1082035A101F048F92DE0181C71
:104AE00000F03DFC02063048120E191C2C30E27218
:104AF000FBF78AEBE07A6422011C2C31481C7A54C3
:104B0000441C3D543819FEF729F8717A092200191E
:104B10001140421C39542348C2800120C002824205
:104B200007D9072028A101F021F931490120C860E7
:104B3000FDE7FBF7BDFEFFF7D3FE0020F8BD000048
:104B4000147480003D678000496E76616C69642052
:104B50006D61676963206E756D62657200000000AB
:104B6000496E76616C69642070726F746F636F6CEC
:104B70002076657273696F6E00000000506172618B
:104B80006D6574657220526571756573742050612E
:104B9000636B6574204C656E677468204572726F34
:104BA000720000007873800000588200556E7265B4
:104BB000636F676E697A656420666C6173682064F0
:104BC0006576696365000000496E7465726E616C9C
:104BD000206572726F72202D207265706C795F6231
:104BE0007566666572206F76657272756E0000007C
:104BF000000100B810B50349052001F0B7F8002006
:104C000010BD00008067800010B50E2002A101F0E9
:104C1000ADF8002010BD00004475616C20496D6145
:104C20006765204E414E442070726F6772616D6DF2
:104C3000696E67206E6F7420737570706F72746523
:104C40006420286D756C7469206F6E6C7929000082
:104C500070B5011CCD798988194C083002390A04D5
:104C6000A168120C012901D016A103E0E168012915
:104C700004D01FA10F2001F079F81EE0291CFDF7D8
:104C8000D7FB1C220223264900280DD06079042876
:104C900007D0012803D0022801D0032801D10A70CF
:104CA00005E007201FA1E6E7E57000200A704870C4
:104CB000E380FBF7FDFDFFF713FE002070BD000051
:104CC000787380004E6F2073656375726974792004
:104CD0006D6F6465207265636569766564206265E1
:104CE000666F7265206F70656E206D756C746900FB
:104CF0004E6F20706172746974696F6E20746162A6
:104D00006C65207265636569766564206265666FAF
:104D10007265206F70656E206D756C74690000009F
:104D2000005882004F70656E206D756C7469206646
:104D300061696C65642C20756E6B6E6F776E206593
:104D400072726F720000000070B5011C8A88194CE5
:104D50000830023AA3681204120CC979012B02D060
:104D60000F2015A114E001235B029A4202D903200F
:104D70001EA10DE0FDF7B8FB02221A250021234BEE
:104D800000280BD02079E160042804D1072020A15D
:104D900000F0ECFF0BE01D70587003E00120E060B4
:104DA0001D705970E280FBF783FDFFF799FD00202D
:104DB00070BD0000787380004E6F2073656375725C
:104DC000697479206D6F64652072656365697665C5
:104DD00064206265666F72652070617274697469BF
:104DE0006F6E207461626C65000000005061727427
:104DF0006974696F6E207461626C65206C656E67A2
:104E00007468206578636565646564000058820095
:104E1000556E6B6E6F776E206572726F7220616374
:104E200063657074696E6720706172746974696F0C
:104E30006E207461626C65000649122010B508701E
:104E400005490120C880152004A100F08FFF002033
:104E500010BD00000058820078738000506F7765A5
:104E600072206F6666206E6F7420737570706F723B
:104E7000746564000E4810B5C178002904D00F2075
:104E80000CA100F073FF10E0114A0C2101241170F5
:104E9000C480FBF70DFDFFF723FD0E48C4600E48EC
:104EA00000688068804700F059FA002010BD0000BB
:104EB0007873800043616E6E6F74207265736574E1
:104EC000206265666F726520636C6F736500000019
:104ED00000588200000100B87473800010B5C079DA
:104EE000FDF740FB002803D008A100F03FFF0AE0D7
:104EF0000D4A01210D4B182091601870D180FBF7ED
:104F0000D7FCFFF7EDFC002010BD000053657420B6
:104F10007365637572697479206D6F64652066616D
:104F2000696C65642E000000787380000058820070
:104F3000821D10B58088072801D01BA113E091784D
:104F40005078137909020843D1781B0609041943E4
:104F50009379014350791B021843041C01208002FD
:104F6000844204D916A1032000F000FF19E019487B
:104F7000042303705378437093788370D378C3709D
:104F8000127902710530221CFDF7DEFA002801D0EB
:104F900011A1E9E71549601DC880FBF789FCFFF7FF
:104FA0009FFC002010BD0000496E76616C69642092
:104FB0007061636B6574206C656E677468000000D7
:104FC0005061636B657420746F6F206C61726765EC
:104FD00000000000005882005265616420756E7305
:104FE00075636365737366756C0000007873800089
:104FF00010B5052002A100F0B9FE002010BD000090
:1050000053696D706C65207772697465206E6F747A
:1050100020616C6C6F77656400000000831D10B523
:10502000808899781C79053802045878090224068A
:105030000843D978120C090421430843041C211C9D
:10504000581DFDF7ADFA002803D00BA100F08EFE2D
:1050500010E00E4808210170210A44708170210C73
:10506000C170210E01710A490520C880FBF720FCA0
:10507000FFF736FC002010BD577269746520756E0D
:105080007375636365737366756C00000058820006
:1050900078738000811D10B580880A2201310138A3
:1050A00004040848240C0270221C0130FBF7ACE811
:1050B0000549601CC880FBF7FBFBFFF711FC0020D3
:1050C00010BD000000588200787380007047000017
:1050D000FEB5051C1DA003C801901E480291006882
:1050E000062201A9FBF790E81B4F0126FE60E96844
:1050F000281C88470B2189016C1820612969281C0C
:10510000884760616969281C8847A0612968281C54
:10511000884760626069A169021C4A43E2612269B2
:10512000504320627002814204D90C4906208861F4
:105130000020FEBDFE600020A06005212063C901A3
:10514000A0626918E06248630120FEBD44554D4DE0
:1051500059000000BC778000000100B89C7D8200EF
:1051600070B50C4D021C0124EC60EC600A480B4940
:10517000006B4968FEF7CBFF012806D1EC600648BA
:105180008038FFF7A5FF012801D0002070BDEC603A
:10519000012070BD000100B8646482001C748000AE
:1051A00070B5084C206880470128074D05D160681C
:1051B00080470028FBD02C6070BD044C20688047DD
:1051C000F9E70000A8778000747380007C77800086
:1051D000012304491B03002000220130984204C12E
:1051E000FBDB704700C087001CB50DA003C8009012
:1051F0000D480191006806226946FBF706E8FFF7B3
:1052000065FFFDF77DFC09490120C860FFF7C8FF75
:1052100000F014F9FDF786FC00F032F91CBD000027
:1052200044554D4D59000000BC778000000100B886
:10523000F8B530492D4F0B22386992010C1C80348F
:105240008D182B4E431C07D12B49B86A01602B499E
:105250004160012181600CE06969294A4143206B6A
:10526000036B9847002801D00B201FE0B86AC16883
:1052700001311E4FC1606969F868BA6A4143206B09
:10528000436A98470A27002801D0B7610FE01D49FB
:105290000120C860154801694B1C25D14169016195
:1052A000206B826A9047002803D00920B06100205B
:1052B000F8BD0E4900208A6AD0606D6908694543CF
:1052C000206B291C436A98470028DED10D49012034
:1052D000C860206B054A436A5268691C98470028D9
:1052E000D3D108490120C8600120F8BD1C7480009A
:1052F0009C7D8200F0608200AC9F56FE7A127FCDCA
:10530000D8728200000100B870B501684268090DCA
:105310005418084D122609E0C36882685B011A43DD
:105320000B0533431A438B000131EA50A142F3D3FA
:1053300070BD000000C08700054C0649002000E059
:1053400001C48C42FCD304490120C86070470000AE
:10535000C077800000008800000100B8FEE700214F
:1053600000E0013102780130002AFAD1081C7047B0
:1053700070B50C4D0124EC600B480021FDF74EFF89
:1053800009498031002801D1074800E000200028A9
:10539000086304D1054902208861002070BDEC60DB
:1053A000012070BD000100B8E46382009C7D820092
:1053B00070B5184C0025216901312161A16A0029CD
:1053C0000BD1E169002903D113A001F091F970BD5F
:1053D000A1620A68E2618D800D607D2805D07E287B
:1053E00006D100F03DF9257070BD0120207070BD20
:1053F000A16A114B8A889A4207D22378002B02D0E7
:1054000020235840257006315054A06A818801310C
:10541000818070BD787380004552523A2057696E82
:10542000646F77206F76657272756E20646574653F
:10543000637465642E2E2E000704000070B50D4ABB
:1054400000214124012011602401918083011B1857
:105450001B019D182E1B0130D6506428A980F5DB56
:105460000648054A01628162C26101704162012100
:10547000417070BDC0C18000F0538200787380001D
:1054800070B5064E044D01243068C0688047EC605A
:1054900000F006F8EC60F7E7000100B874738000D4
:1054A0002C48F8B50068C06880472B4F4CE00120BD
:1054B000B87020680028386200D17862002020602F
:1054C0000025009011E023480068C0688047A0884C
:1054D000461B802E00DD80263104090C6019009ADD
:1054E0000630FBF74BFAAD190090A088A842EADC21
:1054F0001A490098884203D019A001F0F9F820E079
:10550000A0880238A080A079411E1B2916D879787E
:10551000002901D0012811D116490978002904D0A9
:10552000082015A100F022FC0BE00B4980002C3173
:1055300040184038C16B201C884702E0201CFFF750
:1055400059FBF8692060FC613C6A002CAFD1002057
:10555000B870F8BD7473800078738000470F000046
:105560004552523A2043524320696E76616C696419
:105570000000000014748000556E7265636F676EE2
:10558000697A656420666C61736820646576696316
:105590006500000070B5041C054D012604E0EE60B6
:1055A000201C1034FFF7B0FE2068431CF7D170BDFB
:1055B000000100B8F8B5061C0B208001011C403921
:1055C0007418351806E0E86AE9694018E862E06B8B
:1055D0000130E063F269E16B301C9047831CF2D02C
:1055E000E16B2869184F814201D3082005E0B26AB7
:1055F000301C9047002802D00920B86119E0E16B07
:1056000068694143A163286010480A240378FAF7C7
:10561000B6EE0D10191919190812191919101919BE
:1056200010000B4A0B49301C00F0E8FF002809D19C
:10563000BC610020F8BD084A0849301C00F0DEFFBC
:105640000028F5D00120F8BD9C7D82001C748000EC
:10565000BCCE6452DF5DE85FC9B68F5A9C120FFA68
:105660000A4A10B5906A0A4C818800230339A14286
:1056700001D3838010BD516A002902D150621062AB
:1056800002E00860906A5062936210BD78738000F7
:105690000504000070B5041C002500F043F8A26862
:1056A0002168002A00DD0D1C002801D100F038F827
:1056B000281C70BD8068704770B5041C002500F080
:1056C00031F8A2682168002A0ADD0B6823600B68A4
:1056D000A34200D16460013AA26000220D1C0A605E
:1056E000002801D100F01CF8281C70BD00600021CA
:1056F000406081607047081C00210160704770B5F0
:10570000041C0D1C00F00EF82C6061680D606560D3
:10571000A16801310028A16001D100F001F870BD3D
:105720000020704700207047FFB524480D1C00681A
:10573000161CC06881B08047FF212D31204FB8680A
:1057400088421BDA79683A688A4202D1002815D16A
:1057500001E0002801D1B86AF860F8682B1A78696E
:10576000D418844207D3841A1B1B164CE418A319BF
:10577000934206D302E0A219824202D9002005B06A
:10578000F0BD3B69AA19D21A9D420AD98B188342EF
:105790003D6104D9401A0B49101A081800E0A019FD
:1057A00078600498002804D1321C0199201CFAF773
:1057B0002CEDB8680130B860201CE0E774738000FD
:1057C00050748000C07D820070B5061C11480D1C0D
:1057D0000068141CC06880470F4A916800290AD0ED
:1057E0001068B04207D1D368AB4204D15369161C8C
:1057F0001A1A944201DD002070BD001998423060F1
:1058000001D10648306001392819F0600120B160EB
:1058100070BD00007473800050748000C07D8200F1
:1058200070B5051C15480C1C0068C0688047FF2037
:105830002D30134EB16881421ADA706832688242A4
:1058400001D1002914D1F068281A75691318AB42E8
:105850000AD30B4B0A4D14335B1BC01A094B1818A3
:105860000319934206D303E0181C1A19AA4201D95E
:10587000002070BD0131B16070BD00007473800004
:1058800050748000C07D8200F3B5094E0D1C0024C9
:10589000032781B02D19F76205490F204039486070
:1058A0000198291CFDF70AFF0134022CF2DBFEBD32
:1058B000400500B8F8B5144F0726051C0020442306
:1058C0004343DC1963698B4217D1A369934214D116
:1058D0000D495C225C39281CFAF7F0EC4422211CAB
:1058E000281C6430FAF7EAEC0020E8656068286656
:1058F00006488035E8620020F8BD0130B042DEDBAA
:105900000020C043F8BD0000146980008958800061
:10591000F0B515490120C860144A0021FF242D3438
:1059200002251160142646430130B3181F1C143F92
:1059300097515960D9609960A0421D74F2DB0D4AFD
:105940000B48D161116290610B48506051629160C7
:10595000D1601060116105489162D162506111639C
:1059600001490120C860F0BD000100B8C02D8700CA
:105970001C45870050748000C07D8200F8B5204E21
:10598000051C70691F496843871C0120C8601E4CB4
:10599000391C206B426B9047012826D0206B1B4A94
:1059A000036B391C98470B27002802D018488761E1
:1059B0001BE0164817A10C3010220090FAF7B4FC37
:1059C000002806D00098102215A1FAF7ADFC002897
:1059D0000BD170690B496843C51C0120C860206B5E
:1059E000291C426B9047012801D10020F8BD206B93
:1059F0000E4A036B291C98470028D7D10120F8BD17
:105A0000B0638200000100B870618200D86E82002D
:105A10009C7D8200303A4F454D53424C310000008E
:105A2000303A4F454D53424C32000000D87082004E
:105A3000002801D001280CD10020C04308600020BC
:105A40004860012088600220C860032008610020AF
:105A5000704703492A208861FF2001307047000009
:105A60009C7D8200F8B5104D0124EC600F48C168A0
:105A70000F48FEF71AFA0F4922270F4E431CC86041
:105A800009D0EC60094801690948FEF70EFA094996
:105A9000431C486102D10020B761F8BDEC6007A04B
:105AA00088610120CC61F8BD000100B8887D8200CA
:105AB000F06082001C7480009C7D8200303A4F456B
:105AC0004D53424C31000000F1B53E4F3E4E7869D7
