:0200000400807A
:10000000F4109FE5F0209FE5EC309FE5E8409FE588
:10001000E4509FE5E0609FE5DC709FE5D8809FE5B8
:10002000D4909FE5D0B09FE5CCC09FE5C8D09FE5B8
:10003000C4E09FE500000FE1801080E301F021E1C2
:10004000D7F021E3B4D09FE5DBF021E3B0D09FE50A
:10005000D2F021E3ACD09FE5D3F021E3A8D09FE517
:10006000A8009FE5010010E3A4E09F15A4E09F0510
:1000700010FF2FE1784700009C009FE5010010E38E
:1000800098E09F1598E09F0510FF2FE1784700004A
:1000900090009FE5100F01EE100F11EE400D80E370
:1000A000100F01EE80009FE510FF2FE1DEEEDEEE87
:1000B000784700000220A0E3101E10EE021001E0BD
:1000C000000051E3FBFFFF1A100E01EE1EFF2FE1AF
:1000D000784700000120A0E3101E10EE021001E09E
:1000E000000051E3FBFFFF0A100E11EE1EFF2FE18F
:1000F000784700000070A0E117FF2FE1EFBEADDEF2
:10010000008680000087800000858000007D8000E0
:10011000BD0580007500800078008000551D8000BE
:100120008D00800090008000780005000D1D80008B
:1001300010B4042A0ED3031C0B439B070AD108C832
:1001400010C9A34202D1043A042AF8D2A34201D032
:1001500004380439002A02D1002010BC7047D307AC
:1001600001D5013205E003780C7801310130A3425A
:1001700007D103780C7801310130A34201D1023A52
:10018000F1D1181BE9E7000078470000030052E3B3
:100190003E00009A03C010E20800000A0130D1E4DA
:1001A00002005CE30C2082E001C0D1940130C0E485
:1001B0000130D134042042E201C0C0940130C03487
:1001C000033011E21E00000A042052E22F00003A20
:1001D00003C031E7020053E30800000A0F00008A61
:1001E0002C34A0E104C0B1E5042052E20C3C83E1D0
:1001F000043080E4F9FFFF2A011081E2230000EAC5
:100200002C38A0E104C0B1E5042052E20C3883E1AF
:10021000043080E4F9FFFF2A021081E21B0000EAAB
:100220002C3CA0E104C0B1E5042052E20C3483E18F
:10023000043080E4F9FFFF2A031081E2130000EA92
:100240007847000010402DE9202052E20500003AD6
:100250001850B1281850A0281850B1281850A028BC
:1002600020205222F9FFFF2A02CEB0E11850B12817
:100270001850A0281800B1481800A0481040BDE848
:1002800002CFB0E104309124043080241EFF2F01FE
:10029000822FB0E10120D1440130D12401C0D1240A
:1002A0000120C0440130C02401C0C0241EFF2FE142
:1002B00030B4441C810708D001780130002902D1F4
:1002C000001B30BC70478107F6D10B4AD50102C82C
:1002D0008B1A8B432B40FAD0001B0A0601D103383E
:1002E000EFE70A04120E01D10238EAE70902090E0B
:1002F000E7D10138E5E7000001010101031C0B43D0
:100300009B0770B40FD1104CE60102E004300431B9
:10031000043A042A07D303680D68AB4203D11D1BBE
:100320009D433540F2D0002A02D1002070BC7047B6
:1003300003780C7801310130012B03D3A34201D1A2
:10034000013AF5D1181BF1E701010101F0B4031CDA
:10035000041C0C43A4070CD1104DEF0102E0043142
:10036000043A10C3042A04D30C68661BA6433E401B
:10037000F5D0002A07D00C7801311C700133002C15
:1003800003D0013AF7D1F0BC7047012AFBD9511EC6
:1003900000221A7001330139FBD1F4E70101010198
:1003A000B0B5254C254DE26900200A2AE96926D01E
:1003B0000ADC012A1BD0022A14D0052A12D0092AED
:1003C00035D100F02DFC34E00C2A23D00D2A24D0A6
:1003D0000E2A04D0202A2AD100F038FB29E000F0B0
:1003E00097FC26E0002924D000F00CFB21E0002936
:1003F00002D101F003F81CE001F0C8F819E000296F
:1004000002D100F06FFB01E000F0C2FBE96C29654E
:10041000A1610EE001F078F90BE0002902D102F0B1
:1004200025FC06E0286D296A02F0EAFB01E0FF20C6
:100430000130E061B0BD00009C2E8200A02582004A
:10044000F7B55C480E1C0068151CC06884B0804776
:10045000594B9969002963D0DC69002C0AD10868DE
:100460009861D961002008601962049A4A608E6020
:10047000CD6099E01F1C206802E00268041C101C7B
:10048000002814D08268B242F7D38268B24248D1C1
:10049000027C012A44D0C268AA4241D3AA4233D185
:1004A000049A42608660C5600122027480E0A06800
:1004B000E2688018B04206D108683B1CB861216030
:1004C00000240C606BE00290301A0190011C02982D
:1004D00001F044FE002823D0BA693B1C11680F6864
:1004E0009F612260116000240C605060029890604F
:1004F0000198D0601474586A049A01304A608E6082
:10050000CD6001220A7451E00A683B1CBA61216087
:100510000860C268521BC2608268521982603EE065
:100520002AE0227C012A27D0A2680392E3689E4633
:10053000D21873199C469A4229D90F681E4B3A6803
:100540009A61039A7346B21AE26052199A1AFA60D3
:1005500021600F6038600498174B48608E60CD6052
:1005600001200874586A013058626046B860F96822
:1005700001F0F4FD002802D1002007B0F0BD786042
:1005800000200D493874486A0130486210E00A685A
:100590003B1CBA6121600860E068401BE060049881
:1005A00048608E60CD6001200874586A013058623E
:1005B0000120E2E7FC3C8000C02E82007047000072
:1005C000F7B515480C1C0068161CC0688047134F0F
:1005D000F86900280ED1B96A0123651A2A1C01F0B6
:1005E00043FD002806D03868B96A2A1CFFF728FFA7
:1005F00000280DD00023321C211C009801F034FD8E
:10060000002805D0321C211CFFF71AFF002801D159
:100610000020FEBD0120FCE7FC3C8000C02E8200D3
:100620004B20C00070470000B0B5084D064C281C98
:10063000618800F00DF861886854000A6A185070EB
:10064000881C6080B0BD000000878000601D8200B3
:1006500030B50C4D0A4A07E0037853401B06DB0D0A
:10066000EB5A120A5A4001304B1E1B041B0C0C1C87
:10067000191C002CF0D1D0430004000C30BD000048
:10068000FFFF0000E034800030B5D2431204120CAA
:100690000A4D07E0037853401B06DB0DEB5A120AA4
:1006A0005A4001304B1E1B041B0C0C1C191C002C47
:1006B000F0D1D0430004000C30BD0000E0348000D5
:1006C000031C164830B5164C98430BE00D78830D8B
:1006D000083A6B401B069B0DE35812040002584079
:1006E000120C0131082AF1D2002A13D009780D4DDD
:1006F000890508E0031C4B409B0002D54000684080
:1007000000E040004900531E1B041B0C141C1A1C63
:10071000002CEFD1C0438000800830BDFFFFFF3FB9
:10072000E0368000C7B9306070B50E4801264660DB
:10073000002545600C4C022060602560A060E560EB
:10074000256165610A20E0612562FFF729FE054801
:1007500046604560E069002801D0072070BD002098
:1007600070BD0000003400809C2E82000C4910B542
:1007700001204860002048600A4C092103C4083C5D
:10078000E060A1602161206261612020E061FFF7EB
:1007900007FEE069002801D0072010BD002010BD31
:1007A000003400809C2E8200B0B5041C1448012146
:1007B000416000254560002C1AD001F0B5FD291CD0
:1007C000104D092068602960A860E96028616861AF
:1007D0002962022C0ED1E861FFF7E2FDE8690028EA
:1007E00006D10220E861FFF7DBFDE869002805D0AB
:1007F0000720B0BD012CFBD10E20ECE70020B0BDDE
:10080000003400809C2E820070B50025002304E097
:10081000CE5C2C1C0135013306559342F8DB0020D9
:1008200070BD000080B501F0BBFD002801D107209C
:1008300080BD002080BD0000F8B5002412480126CC
:10084000466000274760114DE9680906090E14E06B
:1008500068690006000E4906490F06D03020A861DD
:100860001020A861A861AE6101E001F0A1FAE8687A
:1008700001060548090E46604760201C01348028A7
:1008800001DAC807E4D4F8BD00340080000C00840D
:10089000F8B5214801214160002141601F480078DE
:1008A000012838D001F018FF1D4DD12000012E186D
:1008B000F07B002102F026F800282CD02C1FF07BC2
:1008C0002768002102F056F8C0680922D201101AE8
:1008D0000604101C6838291C0818291F0968360CE2
:1008E000884201D10F482818011C2060042002F022
:1008F000ADF8002E0FD00D20000200242D1806E0C8
:10090000688B411C6983385C01F052FA0134B442AF
:10091000F6DB00206883F8BD00340080018780008A
:1009200048FA860098080000044980B50220087043
:1009300003490020086001F0F7FC80BDB83C80004E
:10094000AC258200024880B500680168884780BDF8
:10095000AC258200F8B50B4C002520680A4E002813
:100960000ED10A4F0021381C00F00AFB002805D1E7
:100970002760002F04D101203070F8BD2560FAE710
:100980003570FAE7AC258200B83C8000F829820077
:10099000F8B5051C00201A4F00903868C1688847D8
:1009A000041C386801698847061C38684169884713
:1009B00001E064107600C82CFBDC46430098321C32
:1009C000411C2C542004030E6B54130E9C4613023E
:1009D0001B0E9E461304481C00211E0E17063F0ED8
:1009E0000AE0421C2F54AE54501C73462B54421C38
:1009F000501C6346AB540131A142F2DBF8BD00004C
:100A0000AC258200F8B50F4D002101246C60002058
:100A10002A1C50600C4EF068C2699047831C08D0B5
:100A20006C600027391C6F60F068826A904700286C
:100A300002D0FF200130F8BD6C606F60F06B706019
:100A40000020F8E700340080A0258200F8B5214896
:100A500001214160002646601F4C0021201C00F04F
:100A60008FFA1E49002816D1201CCC6028D00D1CFE
:100A7000C16888476863E86801698847A863E868CF
:100A800041698847E863E8680168884700240127CE
:100A9000A864104E18E0CE6012E07760002070600D
:100AA0000F480068C0688047E868211CC269904709
:100AB000831C08D0E868211C826A9047002802D075
:100AC000FF200130F8BD0134686B8442E5DB002073
:100AD000F8E7000000340080F8298200A025820099
:100AE000FC3C8000F8B52749012048600024081C20
:100AF0004460254E3068002812D0F16B224F351C1F
:100B0000081A5837FF2204E029684B1C2B607A54DE
:100B100001380028F8D1012102F08AF900282CD0F0
:100B2000184D01276F606C6001F020FA002824D076
:100B30006F60002068601549F06C134C4861B06923
:100B4000182258340861201CFFF720EB6F6000204A
:100B50006860201CF16B18301839FF2202E0027027
:100B6000013001390029FAD1281C6F604160002250
:100B7000201C02F0FFF8002802D1FF200130F8BD50
:100B80000020FCE700340080A0258200842A820037
:100B9000F8B5214E012070600025301C45601F4CC7
:100BA000211C2068C96B88422CD8002814D01B4F08
:100BB000081AFF22583704E021684B1C23607A543E
:100BC00001380028F8D101207060756001210020F3
:100BD00002F02EF9002815D0211C246A012715E007
:100BE0000E4A0E4900205832C96B01E015540130FD
:100BF0008842FBDB776075600121002002F018F964
:100C0000002802D1FF200130F8BD0134102CE7DBB1
:100C1000776075600020F7E700340080A02582002F
:100C2000FEB501A806223349FFF7B0EA3248062292
:100C300001A90068FFF7AAEA3049012048600025B1
:100C4000081C45602E4C00202E4EE0610021301C17
:100C500000F096F9002829D1301CE6603AD0032133
:100C60008907E164C16888476063E0680169884773
:100C7000A063E06841698847E063E06801688847ED
:100C8000A064A06BE26B011C51431C4F2164616B9B
:100C90004143012661647E60381C4560A560A56102
:100CA0002561656125606560E66204E0E56011E04C
:100CB000E06A0130E062E068C269E16A9047831C43
:100CC000F6D07E607D60E06A0130A06201F068F9D4
:100CD000002802D1FF200130FEBD7E607D60094802
:100CE00009498C300160094941600221816000207E
:100CF000F2E7000068328000F83C80000034008099
:100D0000A0258200F82982005EDBE34873AA55EE35
:100D100070B5214E01207060002575601F4C0021C8
:100D2000201C00F02DF91E49002807D1201CCC60A2
:100D30000C1C002804D1FF20013070BDCD60FAE703
:100D400003218907E164C16888476063E06801693D
:100D50008847A063E06841698847E063E06801680C
:100D60008847A064A06BE26B011C51432164616B56
:100D700041430120E0612562616470607560A56097
:100D8000A561256165612560A56265606562706029
:100D90007560002070BD000000340080F8298200DA
:100DA000A0258200FFB50D1C161C81B003D00720C2
:100DB000C04305B0F0BD281CFFF77AFA102802D90D
:100DC0000920C043F5E71F4C6068012805D1A068E1
:100DD000102802DB0820C043EBE700241A4F0CE088
:100DE0001C206043C0191030291C00F0FDFA0128B6
:100DF00002D10B20C043DCE70134F868A042EFD8F1
:100E0000104C6068002806D110483860104878609F
:100E10000120B8606060A0681C2358431022C019EC
:100E20001030291CFFF792FAA0681C214143C91910
:100E30008E62049A01300A620A9A4A62A060002017
:100E4000B7E7000068F6860074F88600AA73EE55CE
:100E5000DBBD5EE3016EC06D081A7047C06E70475F
:100E6000F8B50D1C0169071C0026F6438847396E4A
:100E70004143A94201D8301CF8BD224901220A6031
:100E8000214B0421D9600221D960204B1C68944376
:100E900022431F4C1A60E2611E4A00235371FA6D0F
:100EA0004243501947026760174D0420E860E9602B
:100EB0000320206000F044FA0420E8600221E96089
:100EC0000620206000F028FA053767600420E860FB
:100ED0000221E960216000F01FFAA0688821084023
:100EE00006D1206A0006000EFF21814300D00026B3
:100EF000064B1868400840001860E0610148002374
:100F00000360B8E768F686004002008464F6860055
:100F10000003006400020064F8B5041C012500E031
:100F20000135291CE269201C9047831CF8D000265B
:100F3000A06EF643A84215DDE06E626B6843451C67
:100F4000291C201C9047002802D10A20C043F8BD6C
:100F5000074F084AB868291CD060636A201C98476C
:100F6000002801D0301CF2E700207860B860EEE77E
:100F700068F6860074F88600C06F7047406E704750
:100F8000F3B581B0022100912349051C0024012002
:100F9000086000F0EDF8214900200860204E042789
:100FA000F7600220F0601F4A1068C86140084000E6
:100FB0001060C8610720086000F0AEF9F7600220F9
:100FC000F06016490520086000F0A6F9F7600220DD
:100FD000F06012490620086000F09EF90F48806812
:100FE00041000F0E4002060E0B49002008600E491A
:100FF000A0000B58391C321C281C9847002803D12C
:1010000002998035A960FEBD009801348442EEDB70
:101010000020C043F7E7000068F686000003006484
:101020004002008464F68600BC3C8000F8B50E1CCB
:10103000016E051C0124B14226D90169884703E0ED
:10104000013424044010240C0228F9D11149012054
:101050000860E86D80190934A0400F4C60600F4DA6
:101060000426EE600227EF60266000F069F9EE606A
:10107000EF600620206000F04FF9A068054A0021CB
:1010800011608821084002D00020C043F8BD002034
:10109000FCE7000068F6860000030064400200845C
:1010A000F3B50169051C012781B08847061CA969B1
:1010B000281C8847041C286E029B7043984201D864
:1010C0000020FEBD01202549254B04220860DA607E
:1010D0000220191CC860234B19684A0852000121DC
:1010E0000A431A60204BDA61EA6D029B7243D21800
:1010F0001D4B52025A601A4B0422DA601A1CD0604F
:10110000194B196000F008F9174B986888210840BE
:101110000021002801D0002714E0002019229206A7
:101120000EE083181D686B1C09D00E4B0E4A186820
:10113000400840001860D06108480160C0E70430F2
:10114000A042EEDB074B084A1868400840001860D0
:10115000D06102480160381CB3E7000068F68600E1
:101160004002008464F6860000030064806F7047CC
:1011700080B5FFF755FA0221044A08431168044B71
:101180001940044B0143D961106080BD64F68600AC
:10119000A2F8FFFF00030064F0B50D1C09780027DA
:1011A000061C3029F5B002D0B81F75B0F0BD6978C3
:1011B0003A2902D00620C043F7E701A900F026F83B
:1011C0000028F2D1002402350AE01C20604301A966
:1011D00040181030291C00F007F9012807D001340D
:1011E0000498A042F1D8002F01D1381FDDE71C2060
:1011F000604301A94018016AF165016A406A081854
:1012000030660020D1E70000006F7047F3B5041C82
:10121000012581B000E00135291CE269201C9047BE
:10122000831CF8D00026A06EF643A84212DDE06EC3
:10123000626B6843451C291C201C9047012801D182
:101240000638FEBD114F291C236B3A1C201C984701
:10125000002801D0301CF4E70D4A3868391C904250
:1012600003D10C4A4868904202D00C20C043E8E702
:101270008868012802D00D20C043E2E7FF22D13266
:101280000298FEF7E0EF0020DBE7000074F686002E
:10129000AA73EE55DBBD5EE3F7B5041C0D1C0169B6
:1012A0008847216E00274143FF43A94201D8381CDB
:1012B000FEBD124E01213160E26D42435019104DC6
:1012C000400268600F4A0420D0600220D06029608C
:1012D00000F022F8A8680C4900250840002801D039
:1012E0003560E4E76169201C8847021C19218906E2
:1012F0000298FEF74CEF00203560D9E768F68600CB
:101300000003006440020084C80000808030416017
:1013100070470000406F70470321490730B5002037
:101320000122064C044B01E001304A625D68AD07C2
:1013300001D4A042F8D330BD40020084581B000005
:101340000321490730B500200122074C054B01E07D
:1013500001304A625D686D07AD0F032D01D0A042D8
:10136000F6D330BD40020084581B0000F8B50E1CB7
:101370000169041C171C8847216E051C4143B142BA
:1013800027D91649012008606169201C8847021C82
:101390001920391C8006FEF7FAEEE06D104C684308
:1013A0008019400260600F4D0426EE600227EF6056
:1013B00003202060FFF7C4FFEE60EF60062020608E
:1013C000FFF7AAFFA068054A0021116088210840A4
:1013D00002D00020C043F8BD0020FCE768F686007C
:1013E000000300644002008480B51022FEF786FFEF
:1013F000002801D1012080BD002080BDFEB55F48DE
:1014000001214160002141605D48C268036A9D1866
:1014100003699A1803684069D61A0404240C301929
:10142000019058488268002A04D101228260564AFD
:10143000D6600663514B01225A600022191C4A6093
:101440005048016BB14238D0771A02978E426DD363
:101450002CE04C48C16B02688E46891AB94200D311
:10146000391CFF22031C8C4609E01868013F411C0F
:101470001960444958310A54604601388446604630
:101480000028F2D118681A1C70454FD870450DD14C
:101490003A4801214160002141600121301C01F0E6
:1014A000C7FC002842D0374A00211160002FD0D15C
:1014B00034490869029FC019086130480121416020
:1014C000002141604CE02F4A1068D16B0F1AA742EF
:1014D0000CD92C48161C316858304018221C291C85
:1014E000FEF754EE3068001930603BE0A74207D1A8
:1014F000244A002804D0234958310818221C08E047
:10150000A74214D21F4A002811D01E49583108188A
:101510003A1C291CFEF73AEE1A48ED195830E11B27
:101520000C04240C174A0021116005E021E0281C5E
:101530006D18611A0C04240C104F012179603A1CBB
:10154000002151600122311C01F014FC002810D050
:1015500001217960381C002141600A4AD06B36189D
:10156000002CB0D1074E019830633068F16B88428F
:1015700002D9FF200130FEBD0020FCE700340080CE
:101580009C2E8200A0258200842A8200FEB55B4A40
:10159000012050600027101C47605948C168026A4A
:1015A00055180269511802688A1A02924069554911
:1015B0000404240C101900908868002803D101202D
:1015C0008860029A0A634D4A012050600027101C6F
:1015D00047604C49086B029A904235D0029A161A1D
:1015E0000196824265D30F1C28E0F86B3A68844666
:1015F000801A391CB04200D3301CFF230F1C07E0B7
:101600003968013E4A1C3A603E4A58325354013808
:101610000028F5D138683A1C60454AD8171C604547
:101620000CD136480121416000214160012102981E
:1016300001F0FEFB00283CD000213960002ED4D1FF
:101640003869019E801938612C48012141600027CA
:1016500047602C4E45E03068F16B0F1AA7420BD95A
:101660002848316858304018221C291CFEF78EED9E
:1016700030680019306036E0A74206D1002804D057
:10168000204958310818221C07E0A74212D200282E
:1016900010D01C49583108183A1C291CFEF776ED69
:1016A0001848ED195830E11B0C04240C0027376052
:1016B00005E01EE0281C6D18611A0C04240C0F496B
:1016C00001224A6000274F60029901F053FB002875
:1016D0000FD00A48012242604760029AF06B12184C
:1016E0000292002CB7D1009830633068F16B8842C9
:1016F00002D9FF200130FEBD0020FCE7003400804D
:101700009C2E8200A02582000548064948650A698A
:1017100002604A6942608969816000207047000068
:101720009C2E8200A0258200F8B5214F3868C06841
:101730008047386801697E208847012500241FE022
:101740001F20A04302D13868C06880471948065D51
:101750007E2E01D07D2E0CD1386801697D2088470E
:1017600020203968464030060969000E8847023556
:1017700005E0386801693006000E884701350134FC
:101780000D4840888442DBDB3868C0688047386891
:1017900001697E208847681C800607D13868016986
:1017A0007E208847386801697E208847F8BD0000A0
:1017B000FC3C8000601D820000878000B0B5041CE6
:1017C00017480068C0688047164DEA69002A25D08E
:1017D0009168101CA1420BD10168E961002900D178
:1017E0002962A9690160A861696A01396962B0BDAD
:1017F0000068016802E00B68081C191C00280DD065
:101800008368A342F7D10168A9690160A861696A88
:1018100001396962002AEAD12A62B0BD0020B0BD58
:10182000FC3C8000C02E820010B50F4C606801287F
:1018300002D00E490F2005E0FEF776FF002804D005
:101840000A49283100F0C4FE0BE000206060A0606F
:1018500007491620087001206080FEF7E5FEFFF7BB
:1018600063FF002010BD000000878000CC318000A5
:10187000601D820010B5114CA068002801D01049ED
:1018800005E010480078012805D10D4920310F20CE
:1018900000F09EFE10E0FEF769FF002803D0084923
:1018A0003C310720F4E708491E20087001206080C1
:1018B000FEF7BAFEFFF738FF002010BD008780005A
:1018C00004328000343C8000601D8200F8B5041CA6
:1018D00036480078002835D12022E01D3449FEF733
:1018E00027FC002807D1261C2036F079022802D1D7
:1018F000307A022803D02E499131052025E0A088B6
:10190000242803D22A49B93103201EE029480027A0
:10191000294C27490770022520222131601C25709F
:10192000FEF734EC20346570A570E7700420207158
:101930006771A771E77127726772A772FFF702F8E4
:10194000051C05D11A497531082000F041FE2BE035
:10195000281C00F023FA0206174F120E291C381C0F
:101960002C30E272FEF712ECE17A642200252C3171
:10197000481C7A543D54441C3819FFF709F80119E2
:10198000707A4207520F7A54481C0C494880012152
:10199000C902884204D90A48012141604560FCE738
:1019A000FEF742FEFFF7C0FE0020F8BDB83C800005
:1019B000972F8000343C8000601D820000878000EB
:1019C0000034008080B50349052000F001FE0020AE
:1019D00080BD0000FC2F8000B0B5174DC479686849
:1019E00001280AD1A868A04202D014490F2013E0B0
:1019F0001248243001F08AFA1CE0022C04D0012C99
:101A000002D00E49503106E0201CFEF7CDFE002822
:101A100005D00A496431072000F0DAFD0AE0012010
:101A20006860074AAC60142111706880FEF7FCFD05
:101A3000FFF77AFE0020B0BD008780005C31800097
:101A4000601D82000D4980B5122008700C490120EC
:101A500048804868012804D10A490F2000F0B8FDE9
:101A600009E0FEF7E1FDFFF75FFE074800688068C8
:101A7000804700F081F9002080BD0000601D8200D9
:101A8000008780003C318000FC3C8000104810B58D
:101A90004168012904D10F490F2000F099FD14E09D
:101AA0000C210D4A012411704480FEF7BDFDFFF7A3
:101AB0003BFE00F0F1F8094844600021416008480D
:101AC00000688068804700F067F9002010BD0000C2
:101AD00000878000B8308000601D820000340080E4
:101AE000FC3C800010B5821D8088072801D01C496D
:101AF00014E09178507809020843D178090408432A
:101B0000117909060143507993791B021843041C8B
:101B100001208002844205D911491831032000F0C8
:101B200057FD1AE00F4804230370537843709378ED
:101B30008370D378C370127902710530221CFEF7CE
:101B400063FE002802D006492C31E8E70649601DF3
:101B50004880FEF769FDFFF7E7FD002010BD00009B
:101B600078308000601D82000087800080B50349C6
:101B7000052000F02DFD002080BD0000D430800045
:101B8000B0B5831D80889978234D053802045878B4
:101B90000902120C0843D978090408431979090687
:101BA0000843041C6868002802D0A868002802D1F5
:101BB0001A490F2018E001280ED11948844203D396
:101BC0001849A018884203D914491C3102200BE09F
:101BD00001200004211800E0211C581DFEF722FE00
:101BE000002804D00D49383100F0F2FC11E00E4815
:101BF000082101702104090E447081702102090E30
:101C0000C170210E017105206880FEF70DFDFFF700
:101C10008BFD0020B0BD000000878000F030800008
:101C20000000FFFFFF7FFFFF601D820010B5811DD8
:101C300080880A220131013804040848240C02700B
:101C4000221C0130FEF7A2EA0549601C4880FEF71D
:101C5000EBFCFFF769FD002010BD0000601D820055
:101C60000087800070470000B0B5084C20688047AE
:101C70000128074D05D1606880470028FBD02C6003
:101C8000B0BD044C20688047F9E70000E43C8000C8
:101C9000FC3C8000C43C8000F8B5184F1C257868D7
:101CA00000F07CF8164E041C021C301C7968FEF70C
:101CB0006EEA1549231C08331248C96815E0402C08
:101CC0000BDBB86800F06AF8051C021C301CB96810
:101CD000FEF75CEA0020705509E00A1CEA40120792
:101CE000120F825C043D325501349C42E7DB002038
:101CF0003055301C01F00AF9F8BD0000343C80007A
:101D000060258200862F8000008780008CB56846A1
:101D100006220D49FEF73AEA0C4806226946006899
:101D2000FEF734EAFFF79EFFFEF7FEFD08480121AB
:101D3000416000214160FFF797FF00F071F8FEF766
:101D400009FE00F093F88CBD482F8000F83C80001D
:101D500000340080054C0020054900E001C48C429D
:101D6000FCD3044901224A6048607047FC3C800073
:101D70006C078700003400800548002201680A6073
:101D80008068082101600349012048604A60FCE73F
:101D9000E03A800000340080FEE70000011C0020D3
:101DA00000E001300A780131002AFAD170470000C2
:101DB000B0B5184C0025E1680131E160E169002906
:101DC0000BD12169002903D1134801F09FF8B0BD60
:101DD000E1610A6822618D800D607D2805D07E2832
:101DE00006D100F025F92570B0BD01202070B0BDEE
:101DF000E1690A4B8A889A4207D22378002B02D0E5
:101E000020235840257052189071888801308880AE
:101E1000B0BD000000878000DC2F800007040000B8
:101E200070B500220E49412401200A608A802401F5
:101E300083011B181B015D182E1BCE500130642836
:101E4000AA80F5DB0748091805482038016142617E
:101E5000C2610270826104490120087070BD0000F7
:101E60002087800030920100343C8000F8B5084F94
:101E70000026064C01253868C068804765606660AA
:101E800000F008F865606660F5E700000034008047
:101E9000FC3C8000F8B52D4C2068C06880474DE0C0
:101EA0002B490120487020684861002800D18861D2
:101EB000002000270025206011E024480068C06849
:101EC0008047A088461B802E00DD802660190630E2
:101ED0003A1C3104090CFEF7D7FB071CAD19A0888A
:101EE000A842EADC1B48874203D01B4801F00EF8E9
:101EF00020E0A0880238A080A079411E1D2916D8B4
:101F000016490978002901D0012810D1144909780F
:101F1000002904D01349082000F05AFB0AE01249B6
:101F2000800040184038C16B201C884702E0201C0C
:101F3000FFF748FD0649086920600C6104494C69B7
:101F4000002CADD100204870F8BD0000FC3C8000A2
:101F500000878000470F000054328000343C80002E
:101F6000B83C80000C308000403C800010B50B4C29
:101F7000E16AA162E068C2699047002805D1E06883
:101F8000826AA16A9047002801D0002010BDA06B92
:101F9000A16A606041430120616210BDA0258200FA
:101FA00010B5104C06E06069216C40186061A06AB1
:101FB0000130A062E068C269A16A9047831CF2D038
:101FC000606BA16A814204D2E068826A904700286F
:101FD00001D0002010BDA06BA16A606041430120C8
:101FE000616210BDA025820010B5104C03E060694D
:101FF000216C40186061A16A0131A162E068C26988
:102000009047831CF3D0606BA16A814204D2E068E0
:10201000826A9047002801D0002010BDA06BA16A01
:10202000606041430120616210BD0000A025820074
:102030000B4B10B5D8690B4C81880022A14201D806
:10204000032901D2828010BD9969002902D19861CB
:10205000586102E00860D8699861DA6110BD00003B
:102060000087800007040000FFB525480E1C0068AB
:10207000151CC06881B08047FF212D31214FB86801
:1020800088421CDA79683A688A4202D1002816D15F
:1020900001E0002801D1B86AF860F868331A78695D
:1020A000D418844208D3841A1B1B164C3434E41809
:1020B0006319934206D302E06219824202D90020DA
:1020C00005B0F0BD3B697219D21A9E420BD98B182C
:1020D00083423E6105D9401A0A49101A3431081862
:1020E00000E0601978600498002804D12A1C201CA4
:1020F0000199FEF74CE8B8680130B860201CDFE7B2
:10210000FC3C8000C02E820070B5061C11480D1CDE
:102110000068141CC06880470F4A916800290AD0E3
:102120001068B04207D1D368AB4204D15369161C82
:102130001A1A944201DD002070BD001930609842E7
:1021400002D105483430306001392819F060B1609F
:10215000012070BDFC3C8000C02E820070B5051CC3
:1021600015480C1C0068C0688047FF202D30134EB6
:10217000B16881421BDA70683268824201D100295D
:1021800015D1F068281A75691318AB420BD30B4BA5
:102190000A4D14335B1BC01A084B3433181803194B
:1021A000934206D303E0181C1A19AA4201D9002051
:1021B00070BD0131B16070BDFC3C8000C02E82005A
:1021C000F3B50169061C0025012481B08847071C6E
:1021D000306E0299884201D80020FEBD3169301C62
:1021E000884703E0013424044010240C0228F9D16C
:1021F0001E490120086002990022A140C343F06DEE
:102200007843401844021A480534446002240460AC
:102210008468A407FCD48468E40700D51D1C046A04
:102220002406240EFF2C00D01D1C01321204120CB7
:102230000131022AE3D30E4900220A600D4F042621
:10224000FE600224FC600C4B1A68CA615108490008
:102250001960C16107210160FFF75EF8FE60FC6054
:10226000024900200860281CB7E7000068F68600D5
:10227000000300644002008464F68600F8B5061C82
:10228000006E884202D80020C043F8BD0E4F0120E6
:1022900038600C1C3169301C884701E04010640034
:1022A0000128FBD10025211C301CFEF7D9FD002898
:1022B00001D13860E9E70120400224180135022DE0
:1022C000F1DB00203860DEE768F68600F8B5051C13
:1022D000144807270026242373431C1863698B4284
:1022E0001AD1A369934217D1242171430818C069F8
:1022F000022814D00B495C225C39281CFDF7A2EFA0
:102300002422211C281C6430FDF79CEF0020E86586
:10231000606828660020F8BD0136BE42DBDB002085
:10232000C043F8E794338000F0B5194801214160BB
:10233000002242601749FF242D34012002250A6043
:1023400014264643013073181F1C143F8F515A60E6
:10235000DA609A601D74A042F2DB0F484B23091823
:102360000E481B0381610D49C26102623431416034
:10237000426201608260C260C9184161026182628A
:10238000C26202630249012048604A60F0BD000059
:1023900000340080F4DE86005C170000C02E82004E
:1023A000F8B5061C23480C1C0068151CC068804743
:1023B00067192149C869002819D1081C806AA04200
:1023C0000BD0081C006B844232D32A1C211C301C09
:1023D000FEF7F6F8002826D11EE02A1C211C301C2E
:1023E00000F02CF8002817D0134887621BE08068A3
:1023F0001149A0421CD8A04207D12A1C211C301C24
:1024000000F028FD00280ED106E02A1C211C301CFB
:10241000FEF7D6F8002801D10020F8BD0649886AE9
:10242000844200D38F620449C86A844200D9CC62D6
:102430000120F2E7FC3C8000C02E8200F8B5061CAB
:102440000D480D1C0068171CC06880470220002141
:102450000A4C606021600834A3C4183C2662012045
:10246000E061FDF79DFFE069002801D00020F8BD84
:10247000034805630120FAE7FC3C80009C2E8200A3
:10248000C02E8200F8B5061C0F1C0169002501242E
:1024900088470090306EB84201D80020F8BD3169FD
:1024A000301C884703E0013424044010240C022827
:1024B000F9D11B4901200860F06D0099A7404843FD
:1024C0001849C01940020530486002240C60886831
:1024D0008007FCD48868C2070120C043002A00DAC4
:1024E000051C0A6A1206120EFF2A00D0051C0020E5
:1024F00008600D4F0426FE60FC600C4A1068C8613D
:10250000400840001060C86107200860FEF704FF23
:10251000FE60FC60024900200860281CBEE7000045
:1025200068F68600000300644002008464F68600BA
:10253000F8B5051C006E0027FF43884201D8381CFF
:10254000F8BD0B4E012030600C1C2969281C8847FF
:1025500001E0401064000128FBD1211C281CFEF77B
:102560007FFC0021002801D13160E9E73160E6E716
:1025700068F68600F8B5051C1448022700262423B7
:1025800073431C1863698B421AD1A369934217D114
:10259000242171430818C069022814D00B495C2219
:1025A0005C39281CFDF74EEE2422211C281C6430C7
:1025B000FDF748EE0020E865606828660020F8BD59
:1025C0000136BE42DBDB0020C043F8E7CC3280009E
:1025D00070B50D1C041C081CFFF7E0FB061C281C32
:1025E00000F094FC0C480D2101702104090E447088
:1025F00081702102090EC170210E0171291C321C4B
:102600000530FDF7C4ED0549701D4880FEF70CF854
:10261000FFF78AF870BD0000601D8200008780000F
:102620000A4A0021D0680006000EC3070BD54006F9
:10263000400F07D030209061102090619061012000
:10264000906100E001210806000E7047000C008434
:102650000022012010B50449044B01E048604A60A3
:10266000DC682407FAD510BD00340080000C00841B
:1026700010B5094800248460FFF7EAFF064B0121EA
:10268000403B064802E05A6941604460DA68D2077C
:10269000F9D4012010BD0000400C008400340080FB
:1026A00030B500240122054B054901E05A605C6009
:1026B0000D6AED07FAD5086130BD000000340080D6
:1026C000000C008403480121416000214160012089
:1026D0007047000000340080F0B50026002500217E
:1026E000002095B0504F00F00DF9002873D04F48EE
:1026F00001214160002343604D486921490144188C
:10270000A278391C0431002A09D0A3703A6802600B
:1027100009680171090A4171090A817115E03A6875
:1027200000AB9A80120CDA8009681981090C598172
:102730009988404B994206D03F4B994205D100AB56
:102740005D89061C01E00121A170A0783B4F0028A3
:102750002FD1B96B02200843B863002D1DD0012191
:10276000002000F007F9011C4068CB220004000C97
:10277000D2058018CA68530D5B055B19D218CA6070
:102780002A1C311C00F0F0F90121002000F0FCF8B7
:102790000121002000F0CAF807E00121002000F02C
:1027A000E9F80121002000F0EFF80121002000F0FD
:1027B000CFF80021002000F063F80021002000F095
:1027C0006BF81F4801680205914301600C300168F5
:1027D000490D490500E024E00160A278002A03D0F9
:1027E00000AB5A89891800E0803101600021002087
:1027F00000F0AEF8A078002813D17D25ED0003E0AD
:1028000000200130A842FCDB0121002000F07AF812
:102810000028F5D07868002803D12088002800D04F
:10282000786015B0F0BD00000010806500340080B5
:1028300048FA860021200000A121000040008065A8
:10284000000480650448D1210901401880B5807BCF
:10285000012100F06DF980BD48FA86000022400099
:10286000002903D0012903D1022200E00122824085
:102870000249086B104000D00A6370474000806531
:1028800041000120034A8840D169014000D0D06155
:10289000704700004000806541000120034A8840E5
:1028A000116A014000D0106270470000400080654E
:1028B000F0B5450001240226AE40AC4000230029BB
:1028C00018D0012900D1331C0C4F7D6B9D437D63D3
:1028D000002A0CD0002200290ED0012900D1321C80
:1028E000074B5B6A134002D0054B4033DA60FFF7B9
:1028F000B5FFF0BD231CE7E7221CF1E7400080652F
:102900000008806500224000002903D0012903D17E
:10291000022200E0012282400348006B104001D0F7
:102920000120704700207047400080650022400071
:10293000002903D0012903D1022200E001228240B4
:102940000249486B104348637047000040008065AF
:1029500000224000002903D0012903D1022200E017
:10296000012282400249886A104000D18A62704781
:1029700040008065034A40018018012900D11030D1
:10298000704700000004806541000220034A88402F
:10299000D169014000D1D0617047000040008065DE
:1029A00070B5274900204968002900D170BD254D28
:1029B0000D210902691800220A834A838A8369214A
:1029C0004901691889231B018A70412424010A8066
:1029D00029180E193272C9180A720921C901013069
:1029E0008842F5DB1848174E0168043E7160017992
:1029F00029714179697180790021A8710420FFF75C
:102A0000B9FFC068D1210901321D0004000C54181F
:102A1000002801D0042000E00220E073A073E07BD6
:102A20000021FFF76FFF0028F9D08320C00029188C
:102A3000021C68320420316000F008F8012070BDEB
:102A40004000806548FA8600D83C800070B50D1CB7
:102A5000041C161C0021FFF701FF0021201CFFF7BA
:102A60000FFF0021201CFFF717FF0D49E000401861
:102A700005600021201CFFF77DFFC168490D490555
:102A80008919C1600120610088400649486200211F
:102A9000201CFFF74BFF0021201CFFF759FF70BDE2
:102AA0008009806500088065F8B51D4B0D2109027D
:102AB0005D18298B4A1CC9182A8308727E282ED1DA
:102AC0002E8B012E2BD0174901204860154800217C
:102AD0004160D12000011F18BC7B181C08300090F9
:102AE0000121201CFFF746FFC1680F4A8919C16008
:102AF000E1000098891848606100022088400B4975
:102B000048620121201CFFF711FF0121201CFFF763
:102B10001FFF00212983B87B012100F009F8F8BDCF
:102B200048FA8600003400808009806500088065CE
:102B300000224000002980B503D0012903D10222E0
:102B400000E001228240064B586A1040FCD1054843
:102B5000D12212018018807B0022FFF7A9FE80BDE0
:102B60000008806548FA8600033292088B079B0FA5
:102B700030B507D0012B0DD0022B20D0032B08D16C
:102B8000002339E0002302E010C9013310C0934252
:102B9000FADB30BD00230FE00C7801310D780131F4
:102BA0002D022C190D7801312D042C190D780131CD
:102BB0002D062C1910C001339342EDDB30BD0023EC
:102BC00007E00C8802310D8802312D042C1910C049
:102BD00001339342F5DB30BD0C7801310D780131C2
:102BE0002D022C190D7801312D042C190D7801318D
:102BF0002D062C1910C001339342EDDB30BD0000CF
:102C0000F3B50F1C1649012081B0486000204860D0
:102C100003218907134D0024134EE96414E0E8688A
:102C2000321C036B211C9847002813D1E86BC004A9
:102C3000020CE86C311CFDF743FDE86408490120F3
:102C40004860002048600134BC42E8DB0198E96C30
:102C5000884202D0FF200130FEBD0020FCE70000CA
:102C600000340080A02582009C2C8200F8B53B4DEA
:102C70000120686000266E60394C01E0A06A0130D6
:102C8000A062E068C269A16A9047831CF6D0A06A7E
:102C9000616B88425CD2A26B271C5043011CE06828
:102CA000304C036B221C9847002851D101206860EA
:102CB0006E602D49206888424AD12C49606888425C
:102CC00046D1A068022843D1606900902469880732
:102CD000F864B86A0130B862F868C269B96A9047A6
:102CE000831CF6D0B86A796B884231D22AE0B86B7F
:102CF000BE6A4643002518E0F8681D4A036B311C84
:102D00009847002824D1F86B1949C004020CF86CCC
:102D1000FDF7D6FCF86411490120486000204860A6
:102D2000F86B241A04D001360135B86B8542E3DB19
:102D30003D1CA86A0130A862E868C269A96A904788
:102D4000831CF6D0002CD2D10098F96C884202D0B6
:102D5000FF200130F8BD0020FCE7000000340080B7
:102D6000A02582009C2A82005EDBE34873AA55EE10
:102D70009C2C8200F7B52C4D041C081C696A6A6CF7
:102D800091422FD8696800290AD1FF26E9690136E6
:102D9000012903D0FFF728F9002801D1301CFEBD1E
:102DA000E868221C436A696A984700281AD11F4EB6
:102DB000311C002202E00A7001310130EB6B9842B5
:102DC000F9DBE868321C036B696A9847002809D16F
:102DD000201C0021EA6B08E00378377801360130C7
:102DE000BB4201D00020DAE701319142F4DB0298C6
:102DF00001280AD1D004020CE86C211CFDF760FC0C
:102E0000E864A869E96B4018A861E869012802D163
:102E1000286A01302862686A01306862686801388F
:102E200068600120BBE70000A0258200F82782002F
:102E30000A1C011C80B50648FFF79CFF002800D142
:102E400080BD0349002058390860012080BD000082
:102E5000F8258200F8B5061C2A480D1C0068141CD1
:102E6000C0688047284FF869017C00293FD1C068BD
:102E7000A0423CD3221C291C301CFFF7DFFA00289B
:102E800035D0221C291C3868FFF73EF900282ED0C7
:102E9000F969C868A0420CD9061B88680D1C311C52
:102EA0000419201CFFF75AF9002820D0043551C519
:102EB00025E0281CFEF782FC002818D002260674A4
:102EC000FC692568002C1AD016E0221D07CAFFF7FE
:102ED000B5FA00280BD0A068FEF770FC002806D0D9
:102EE0000674221D07CAFFF70FF9002801D1002040
:102EF000F8BD2C1C03D02568207C0128E5D00120DA
:102F0000F6E70000FC3C8000C02E820070B5051C76
:102F1000FEF744FF041C0A4E0E203070221C291CB0
:102F2000701CFDF734E9601C0004000C054A0A23FC
:102F3000411C51803354FDF777FBFEF7F5FB70BD64
:102F4000601D82000087800044554D4D59000000EF
:102F5000546F74616C206279746573207265636468
:102F60002062792041524D50524720307800415222
:102F70004D5052472073697A65206D7367206F76D4
:102F8000657272756E003031323334353637383908
:102F90004142434445460051434F4D20666173749E
:102FA00020646F776E6C6F61642070726F746F63F2
:102FB0006F6C20686F73740051434F4D20666173CE
:102FC0007420646F776E6C6F61642070726F746FC1
:102FD000636F6C2074617267000000004552523AC2
:102FE0002057696E646F77206F76657272756E20F8
:102FF00064657465637465642E2E2E00496E766177
:103000006C696420436F6D6D616E6400556E72650E
:10301000636F676E697A656420666C6173682064AB
:103020006576696365000000496E76616C696420AD
:103030006D61676963206E756D6265722F70726F66
:10304000746F636F6C2076657273696F6E00000039
:10305000506172616D65746572205265717565733A
:1030600074205061636B6574204C656E67746820D2
:103070004572726F72000000496E76616C6964205F
:103080007061636B6574206C656E67746800000026
:103090005061636B657420746F6F206C617267653B
:1030A000000000005265616420756E73756363658E
:1030B000737366756C00000043616E6E6F742072EE
:1030C00065736574206265666F726520636C6F73EB
:1030D0006500000053696D706C65207772697465D6
:1030E000206E6F7420616C6C6F7765640000000067
:1030F00043616E6E6F7420777269746520626566D5
:103100006F7265206F70656E00000000426F6F7413
:10311000206C6F61646572206164647265737320F2
:10312000696E76616C696400577269746520756EAA
:103130007375636365737366756C000043616E6ECF
:103140006F7420706F77657220646F776E20626590
:10315000666F726520636C6F73650000416C726509
:10316000616479206F70656E656420696E206469A2
:1031700066666572656E74206D6F646500000000A0
:10318000416C7265616479206F70656E65642C2096
:1031900069676E6F72696E67206F70656E20696E09
:1031A0002073616D65206D6F64650000496E766106
:1031B0006C6964204F70656E204D6F64650000007F
:1031C0004F70656E206661696C65640043616E6E68
:1031D0006F7420636C6F7365207768656E206E6F07
:1031E000742070726576696F75736C79206F706585
:1031F0006E656400436C6F7365206661696C65641D
:103200000000000045726173652072637664207768
:1032100068696C65206D6F6465206973206F7065E7
:103220006E6564005061726D2072657120636D641B
:10323000206E6F74207965742072637664000000DC
:10324000457261736520466C617368206661696CC4
:10325000656400004552523A2043524320696E761D
:10326000616C69640000000044554D4D5900000038
:103270007D0F80006D118000790F8000550E800059
:103280005D0E8000091280001513800085248000E7
:10329000312580006D1380002D108000000000009B
:1032A00099128000A11080000000000000000000C2
:1032B00000000000000000000000000099118000E4
:1032C000A50D8000190F80000D13800014338000BD
:1032D00000100000200000000002000010020000AA
:1032E00098000000760000000100000000000000CF
:1032F00026338000000800002000000000020000CB
:10330000100200009800000075000000020000009C
:1033100000000000746F73686962615F7463353820
:10332000353132667400746F73686962615F74630B
:1033300064616D38326631007D0F80006D11800050
:10334000790F8000550E80005D0E8000091280000C
:1033500015138000C12180007D2280006D13800044
:103360002D1080000000000099128000A110800044
:10337000000000000000000000000000000000004D
:103380000000000099118000A50D8000190F800039
:103390000D13800090348000000400002000000025
:1033A0000002000010020000EC00000073000000AA
:1033B00001000000000000009034800000040000C4
:1033C000200000000002000010020000EC000000DD
:1033D000330000000100000000000000A034800065
:1033E00000080000200000000002000010020000A1
:1033F000EC000000350000000100000000000000AB
:10340000B034800000100000200000000002000026
:1034100010020000EC000000760000000100000037
:1034200000000000B0348000001000002000000008
:103430000002000010020000EC0000003600000056
:103440000100000000000000C034800000200000E7
:10345000200000000002000010020000EC0000004C
:10346000790000000100000000000000CF3480005F
:103470000010000020000000000200001002000008
:10348000EC00000046000000020000000000000008
:1034900073616D73756E675F6B39663238303800F3
:1034A00073616D73756E675F6B39663536303800E2
:1034B00073616D73756E675F6B39663132303800DA
:1034C00073616D73756E675F6B3931673038007388
:1034D000616D73756E675F6B396B31323136000029
:1034E0000000891112239B322446AD573665BF7404
:1034F000488CC19D5AAFD3BE6CCAE5DB7EE9F7F8B4
:103500008110080193331A22A5562C47B7753E64E3
:10351000C99C408DDBBF52AEEDDA64CBFFF976E893
:1035200002218B30100299132667AF763444BD55C3
:103530004AADC3BC588ED19F6EEBE7FA7CC8F5D973
:1035400083310A2091121803A7772E66B5543C45A3
:10355000CBBD42ACD99E508FEFFB66EAFDD874C953
:1035600004428D5316619F702004A9153227BB3683
:103570004CCEC5DF5EEDD7FC6888E1997AABF3BA33
:1035800085520C4397711E60A1142805B3373A2663
:10359000CDDE44CFDFFD56ECE9986089FBBB72AA13
:1035A00006638F7214409D512225AB343006B91743
:1035B0004EEFC7FE5CCCD5DD6AA9E3B8788AF19BF3
:1035C00087730E6295501C41A3352A24B116380723
:1035D000CFFF46EEDDDC54CDEBB962A8F99A708BD3
:1035E000088481951AA793B62CC2A5D33EE1B7F003
:1035F0004008C919522BDB3A644EED5F766DFF7CB3
:10360000899400859BB712A6ADD224C3BFF136E0E2
:10361000C1184809D33B5A2AE55E6C4FF77D7E6C92
:103620000AA583B4188691972EE3A7F23CC0B5D1C2
:103630004229CB38500AD91B666FEF7E744CFD5D72
:103640008BB502A499961087AFF326E2BDD034C1A2
:10365000C3394A28D11A580BE77F6E6EF55C7C4D52
:103660000CC685D71EE597F42880A1913AA3B3B282
:10367000444ACD5B5669DF78600CE91D722FFB3E32
:103680008DD604C79FF516E4A9902081BBB332A262
:10369000C55A4C4BD7795E68E11C680DF33F7A2E12
:1036A0000EE787F61CC495D52AA1A3B03882B19342
:1036B000466BCF7A5448DD59622DEB3C700EF91FF2
:1036C0008FF706E69DD414C5ABB122A0B992308322
:1036D000C77B4E6AD5585C49E33D6A2CF11E780FD2
:1036E00000000000C7B9302049CA51208E73610024
:1036F000552D93209294A3001CE7C200DB5EF220BC
:103700006DE31621AA5A260124294701E390772167
:1037100038CE8501FF77B5217104D421B6BDE4010F
:103720001D7F1D22DAC62D0254B54C02930C7C225B
:1037300048528E028FEBBE220198DF22C621EF0293
:10374000709C0B03B7253B2339565A23FEEF6A03BF
:1037500025B19823E208A8036C7BC903ABC2F92307
:10376000FD470A243AFE3A04B48D5B0473346B249B
:10377000A86A99046FD3A924E1A0C8242619F804E3
:1037800090A41C05571D2C25D96E4D251ED77D05EF
:10379000C5898F250230BF058C43DE054BFAEE2527
:1037A000E038170627812726A9F246266E4B7606B3
:1037B000B515842672ACB406FCDFD5063B66E5265B
:1037C0008DDB01274A623107C411500703A8602727
:1037D000D8F692071F4FA227913CC3275685F307BF
:1037E0003D362428FA8F140874FC7508B345452823
:1037F000681BB708AFA2872821D1E628E668D6085B
:1038000050D53209976C0229191F6329DEA6530986
:1038100005F8A129C24191094C32F0098B8BC029CE
:103820002049390AE7F0092A6983682AAE3A580A1A
:103830007564AA2AB2DD9A0A3CAEFB0AFB17CB2AB2
:103840004DAA2F2B8A131F0B04607E0BC3D94E2B5E
:103850001887BC0BDF3E8C2B514DED2B96F4DD0B06
:10386000C0712E0C07C81E2C89BB7F2C4E024F0C3A
:10387000955CBD2C52E58D0CDC96EC0C1B2FDC2CE2
:10388000AD92382D6A2B080DE458690D23E1592DAE
:10389000F8BFAB0D3F069B2DB175FA2D76CCCA0D46
:1038A000DD0E332E1AB7030E94C4620E537D522ED2
:1038B0008823A00E4F9A902EC1E9F12E0650C10E1A
:1038C000B0ED250F7754152FF927742F3E9E440F26
:1038D000E5C0B62F2279860FAC0AE70F6BB3D72F5E
:1038E000BDD578307A6C4810F41F291033A61930F2
:1038F000E8F8EB102F41DB30A132BA30668B8A102A
:10390000D0366E11178F5E3199FC3F315E450F1135
:10391000851BFD3142A2CD11CCD1AC110B689C317D
:10392000A0AA651267135532E96034322ED9041209
:10393000F587F632323EC612BC4DA7127BF49732A1
:10394000CD4973330AF0431384832213433A12336D
:103950009864E0135FDDD033D1AEB1331617811315
:1039600040927214872B423409582334CEE1131449
:1039700015BFE134D206D1145C75B0149BCC8034F1
:103980002D716435EAC8541564BB3515A30205359D
:10399000785CF715BFE5C7353196A635F62F961535
:1039A0005DED6F369A545F1614273E16D39E0E3681
:1039B00008C0FC16CF79CC36410AAD3686B39D16C9
:1039C000300E7917F7B7493779C42837BE7D1817F5
:1039D0006523EA37A29ADA172CE9BB17EB508B372D
:1039E00080E35C18475A6C38C9290D380E903D1891
:1039F000D5CECF381277FF189C049E185BBDAE3829
:103A0000ED004A392AB97A19A4CA1B1963732B39F4
:103A1000B82DD9197F94E939F1E78839365EB8199C
:103A20009D9C413A5A25711AD456101A13EF203A28
:103A3000C8B1D21A0F08E23A817B833A46C2B31A60
:103A4000F07F571B37C6673BB9B5063B7E0C361B6C
:103A5000A552C43B62EBF41BEC98951B2B21A53BB4
:103A60007DA4563CBA1D661C346E071CF3D7373C48
:103A70002889C51CEF30F53C6143943CA6FAA41C90
:103A80001047401DD7FE703D598D113D9E34211DBC
:103A9000456AD33D82D3E31D0CA0821DCB19B23DF4
:103AA00060DB4B1EA7627B3E29111A3EEEA82A1E40
:103AB00035F6D83EF24FE81E7C3C891EBB85B93EE8
:103AC0000D385D3FCA816D1F44F20C1F834B3C3F94
:103AD0005815CE1F9FACFE3F11DF9F3FD666AF1F2C
:103AE0005C0100846801008450010084740100843A
:103AF000600100846C01008454010084780100841A
:103B00000800004860000048000000480000000075
:103B10000C00004864000048040000480000000059
:103B20006401008470010084580100847C010084D9
:103B300000000000700000480000000000000000CD
:103B400020205155414C434F4D4D2041524D505234
:103B500047204964656E74696669636174696F6E54
:103B600020426C6F636B0A20202020436F6D7069C8
:103B70006C6564204170722030372032303035203F
:103B800030383A32303A32390A20202020566572D5
:103B900073696F6E203D3D2030372E30302E30312E
:103BA0000A202020204E505247363235302E4845CC
:103BB0005820666F72204D534D36323530204F4EAF
:103BC0004C59202D205541525420616E642055538C
:103BD000420A20202020436F707972696768742040
:103BE00028632920323030322D323030352062794E
:103BF000205155414C434F4D4D2C20496E636F72FF
:103C0000706F72617465642E20416C6C205269671C
:103C10006874732052657365727665642E0A20207D
:103C2000456E64206F6620494420426C6F636B0AC6
:103C30000000000001000000502F80006E2F800067
:103C4000CD188000C5198000E51A8000C5198000D4
:103C50006D1B8000C5198000811B8000C519800084
:103C60002D1C8000C51980008D1A8000C5198000A8
:103C7000C5198000C5198000C5198000C5198000CC
:103C8000451A8000C5198000D9198000C519800027
:103C900029188000C5198000C5198000C519800049
:103CA000C5198000C5198000C5198000C51980009C
:103CB00075188000C519800002000000752580007D
:103CC000CD228000712680002126800051268000B0
:103CD00039088000A126800000C201000000080011
:103CE00000000000A1298000C52680004528800032
:0C3CF00091088000A92A8000403B800061
:040000030080000079
:00000001FF
