:0200000400807A
:10000000F4109FE5F0209FE5EC309FE5E8409FE588
:10001000E4509FE5E0609FE5DC709FE5D8809FE5B8
:10002000D4909FE5D0B09FE5CCC09FE5C8D09FE5B8
:10003000C4E09FE500000FE1801080E301F021E1C2
:10004000D7F021E3B4D09FE5DBF021E3B0D09FE50A
:10005000D2F021E3ACD09FE5D3F021E3A8D09FE517
:10006000A8009FE5010010E3A4E09F15A4E09F0510
:1000700010FF2FE1784700009C009FE5010010E38E
:1000800098E09F1598E09F0510FF2FE1784700004A
:1000900090009FE5100F01EE100F11EE400D80E370
:1000A000100F01EE80009FE510FF2FE1DEEEDEEE87
:1000B000784700000220A0E3101E10EE021001E0BD
:1000C000000051E3FBFFFF1A100E01EE1EFF2FE1AF
:1000D000784700000120A0E3101E10EE021001E09E
:1000E000000051E3FBFFFF0A100E11EE1EFF2FE18F
:1000F000784700000070A0E117FF2FE1EFBEADDEF2
:10010000908B8000908C8000908A8000908280008C
:1001100079068000750080007800800061208000F2
:100120008D00800090008000780005001120800084
:1001300010B4042A0ED3031C0B439B070AD108C832
:1001400010C9A34202D1043A042AF8D2A34201D032
:1001500004380439002A02D1002010BC7047D307AC
:1001600001D5013205E003780C7801310130A3425A
:1001700007D103780C7801310130A34201D1023A52
:10018000F1D1181BE9E7000078470000030052E3B3
:100190003E00009A03C010E20800000A0130D1E4DA
:1001A00002005CE30C2082E001C0D1940130C0E485
:1001B0000130D134042042E201C0C0940130C03487
:1001C000033011E21E00000A042052E22F00003A20
:1001D00003C031E7020053E30800000A0F00008A61
:1001E0002C34A0E104C0B1E5042052E20C3C83E1D0
:1001F000043080E4F9FFFF2A011081E2230000EAC5
:100200002C38A0E104C0B1E5042052E20C3883E1AF
:10021000043080E4F9FFFF2A021081E21B0000EAAB
:100220002C3CA0E104C0B1E5042052E20C3483E18F
:10023000043080E4F9FFFF2A031081E2130000EA92
:100240007847000010402DE9202052E20500003AD6
:100250001850B1281850A0281850B1281850A028BC
:1002600020205222F9FFFF2A02CEB0E11850B12817
:100270001850A0281800B1481800A0481040BDE848
:1002800002CFB0E104309124043080241EFF2F01FE
:10029000822FB0E10120D1440130D12401C0D1240A
:1002A0000120C0440130C02401C0C0241EFF2FE142
:1002B00078470000FF3001E20210A0E1032483E14F
:1002C000022882E13D0000EA30B4441C810708D0D6
:1002D00001780130002902D1001B30BC7047810732
:1002E000F6D10B4AD50102C88B1A8B432B40FAD0AA
:1002F000001B0A0601D10338EFE70A04120E01D1F0
:100300000238EAE70902090EE7D10138E5E7000003
:1003100001010101031C0B439B0770B40FD1104C6A
:10032000E60102E004300431043A042A07D30368EA
:100330000D68AB4203D11D1B9D433540F2D0002A0E
:1003400002D1002070BC704703780C780131013075
:10035000012B03D3A34201D1013AF5D1181BF1E7D8
:1003600001010101F0B4031C041C0C43A4070CD1CF
:10037000104DEF0102E00431043A10C3042A04D303
:100380000C68661BA6433E40F5D0002A07D00C78C7
:1003900001311C700133002C03D0013AF7D1F0BCBD
:1003A0007047012AFBD9511E00221A70013301390E
:1003B000FBD1F4E701010101784700000020A0E330
:1003C000040051E30800003A03C010E20D00000AE7
:1003D00004C06CE202005CE30120C0E40120C0A480
:1003E0000120C0C40C1041E0060000EA81CFB0E15A
:1003F0000120C0240120C0240120C0441EFF2FE1A1
:10040000784700000020A0E300402DE90230A0E181
:1004100002C0A0E102E0A0E1201051E20C50A028AF
:100420000C50A02820105122FBFFFF2A011EB0E132
:100430000C50A0280C00A0480040BDE80111B0E11C
:10044000042080241EFF2F010120C0440120C0444D
:10045000400411E30120C0141EFF2FE1B0B5254C6C
:10046000254DE26900200A2AE96926D00ADC012A22
:100470001BD0022A14D0052A12D0092A35D100F047
:10048000E5FC34E00C2A23D00D2A24D00E2A04D017
:10049000202A2AD100F080FB29E000F047FD26E069
:1004A000002924D000F058FB21E0002902D101F0FE
:1004B0006BF91CE001F022FA19E0002902D100F0EA
:1004C000ADFB01E000F0F8FBE96C2965A1610EE0ED
:1004D00001F0C6FA0BE0002902D102F0FFFD06E0B0
:1004E000286D296A02F0C8FD01E0FF200130E061BB
:1004F000B0BD000030348200302B8200F7B55C487C
:100500000E1C0068151CC06884B08047594B99695F
:10051000002963D0DC69002C0AD108689861D96190
:10052000002008601962049A4A608E60CD6099E0EC
:100530001F1C206802E00268041C101C002814D054
:100540008268B242F7D38268B24248D1027C012A63
:1005500044D0C268AA4241D3AA4233D1049A42602D
:100560008660C5600122027480E0A068E26880189D
:10057000B04206D108683B1CB861216000240C60C1
:100580006BE00290301A0190011C029801F068FFA4
:10059000002823D0BA693B1C11680F689F61226054
:1005A000116000240C605060029890600198D06047
:1005B0001474586A049A01304A608E60CD6001223A
:1005C0000A7451E00A683B1CBA6121600860C26885
:1005D000521BC2608268521982603EE02AE0227C8F
:1005E000012A27D0A2680392E3689E46D2187319A5
:1005F0009C469A4229D90F681E4B3A689A61039A21
:100600007346B21AE26052199A1AFA6021600F60BA
:1006100038600498174B48608E60CD6001200874E4
:10062000586A013058626046B860F96801F018FFF6
:10063000002802D1002007B0F0BD786000200D49ED
:100640003874486A0130486210E00A683B1CBA619D
:1006500021600860E068401BE060049848608E609C
:10066000CD6001200874586A013058620120E2E729
:10067000884280005434820070470000F7B5154866
:100680000C1C0068161CC0688047134FF8690028CE
:100690000ED1B96A0123651A2A1C01F067FE0028F1
:1006A00006D03868B96A2A1CFFF728FF00280DD049
:1006B0000023321C211C009801F058FE002805D0B0
:1006C000321C211CFFF71AFF002801D10020FEBDBB
:1006D0000120FCE78842800054348200FFB58C463C
:1006E00000210D1C0C1C96460F4F002281B0835C2C
:1006F000FB5C9E06B60E74405B0606D513061B0E09
:100700005940DB435D402D062D0E01321204120CC0
:10071000802AECD373466246281C02F0FDF8049848
:10072000047005B0F0BD00008236800000B50A20DC
:1007300001F090FC00BD0000B0B5084D064C281C2F
:10074000618800F00DF861886854000A6A185070DA
:10075000881C6080B0BD0000908C8000F022820078
:1007600030B50C4D0A4A07E0037853401B06DB0DF9
:10077000EB5A120A5A4001304B1E1B041B0C0C1C76
:10078000191C002CF0D1D0430004000C30BD000037
:10079000FFFF0000583A800030B5D2431204120C1B
:1007A0000A4D07E0037853401B06DB0DEB5A120A93
:1007B0005A4001304B1E1B041B0C0C1C191C002C36
:1007C000F0D1D0430004000C30BD0000583A800046
:1007D000031C164830B5164C98430BE00D78830D7A
:1007E000083A6B401B069B0DE35812040002584068
:1007F000120C0131082AF1D2002A13D009780D4DCC
:10080000890508E0031C4B409B0002D5400068406E
:1008100000E040004900531E1B041B0C141C1A1C52
:10082000002CEFD1C0438000800830BDFFFFFF3FA8
:10083000583C8000C7B9306070B50C4E0125F56397
:100840000B4C0020022103C4083CE060A160206141
:10085000606120620A20E061FFF700FEF563E06955
:10086000002801D0072070BD002070BD0005008069
:1008700030348200B0B5041C13490120C863002C39
:100880001AD001F0E7FE114D0920002168602960AF
:10089000A860E960286168612962022C0ED1E861D4
:1008A000FFF7DCFDE869002806D10220E861FFF7C8
:1008B000D5FDE869002805D00720B0BD012CFBD18B
:1008C0000E20ECE70020B0BD00050080303482002F
:1008D00070B50025002304E0CE5C2C1C01350133EB
:1008E00006559342F8DB002070BD000080B501F092
:1008F000E9FE002801D1072080BD002080BD000056
:10090000F8B50E4F00240126FE630D4DA9680EE0D8
:10091000E8684906490F06D0302028611020286178
:1009200028612E6101E001F0C9FBA968FE63201C6B
:100930000134802801DAC807EAD4F8BD0005008038
:10094000004E0080F8B54848406AC00771D5474856
:100950000226466046480121C16344484030816810
:100960004A0704D5042101600521816081680907D7
:100970005FD5016B446B0C40046308218160A007C4
:1009800001D502F0ADFAE00706D5012201210020D1
:1009900002F094F902F06AF8364DD12000012F18C8
:1009A000BD7B68008640311C324E201C08400C3E46
:1009B00000281BD00121281C02F0F2F9C068C002F7
:1009C000C00A002810DC0121281C02F02FF90121A7
:1009D000281C02F04FF900220121281C02F06EF9B8
:1009E0000121281C02F010F900203070F87B012151
:1009F000204D420091400C4001D0B16871603178C7
:100A0000002916D17168371C002912D0002102F08C
:100A1000C7F9C0680922D201101A0604101C154932
:100A200068380818B968360C884203D1124828186B
:100A300000E018E0011CB860042002F081FA002EEA
:100A400011D00D20000200242D1807E0688B411CF6
:100A500069837968085C01F031FB0134B442F5DB4D
:100A6000002068837860F8BD400F0080002000807F
:100A700000050080E8FF860098080000044980B562
:100A80000220087003490020086001F0E3FD80BDEA
:100A9000304280003C2B8200024880B5006801682B
:100AA000884780BD3C2B8200F8B50B4C00252068A0
:100AB0000A4E00280ED10A4F0021381C00F084FB9A
:100AC000002805D12760002F04D101203070F8BD27
:100AD0002560FAE73570FAE73C2B8200304280004F
:100AE000882F8200F8B5051C00201A4F0090386846
:100AF000C1688847041C386801698847061C386843
:100B00004169884701E064107600C82CFBDC46434D
:100B10000098321C411C2C542004030E6B54130EFD
:100B20009C4613021B0E9E461304481C00211E0EF9
:100B300017063F0E0AE0421C2F54AE54501C734659
:100B40002B54421C501C6346AB540131A142F2DBD2
:100B5000F8BD00003C2B8200F8B50D4E00240125A5
:100B6000F5630C4F211CF868C2699047831C06D0BE
:100B7000F563F868211C826A9047002802D0FF20A4
:100B80000130F8BDF563F86B78600020F9E70000EC
:100B900000050080302B8200F8B51D4E0120F06367
:100BA0001C4C0021201C00F00FFB1B49002815D114
:100BB000201CCC6022D00D1CC16888476863E8689F
:100BC00001698847A863E86841698847E863E8687D
:100BD0000168884700240127A86413E00020C8604A
:100BE0000CE0F763E868211CC2699047831C08D0B9
:100BF000E868211C826A9047002802D0FF2001305B
:100C0000F8BD0134686B8442EBDB0020F8E700009C
:100C100000050080882F8200302B8200F8B5234C1D
:100C20000120E063224DE70D2868002811D0E96B10
:100C30001F4E081A5836FF2204E029684B1C2B600F
:100C4000725401380028F8D1012102F023FB00285A
:100C500028D00126E66301F00BFB002822D01349BF
:100C6000CE631449E86C124C4861A86918225834C4
:100C70000861201CFFF78AEA0C490120C863201C88
:100C8000E96B18301839FF2202E002700130013997
:100C90000029FAD10548C6630022201C02F09CFA04
:100CA000002801D1381CF8BD0020FCE700050080B9
:100CB000302B820018308200F8B51C4D0127EF63FD
:100CC0001B4C211C2068C96B884226D8184E583608
:100CD00000280FD0081AFF2204E021684B1C236073
:100CE000725401380028F8D1EF63012102F0D2FAE2
:100CF000002812D0211C246A13E00D490020002294
:100D0000C96B01E0325401308842FBDBEF63012103
:100D1000002002F0BFFA002802D1FF200130F8BD08
:100D20000134102CE9DBEF630020F8E700050080B8
:100D3000302B820070B5FF26051C0C1C8B1C4A1C36
:100D40004E71FFF7CBFCA31D221DE11C281C803037
:100D5000FFF7C4FC231C0933281CFF305A1EE11D79
:100D60000130FFF7BBFC231C0C335A1E281CFF303C
:100D7000511E8130FFF7B2FC6673A673E67370BD37
:100D8000F8B5041C007861781022800389010843BB
:100D9000A1780843051CE078217980038901084384
:100DA000A1790843061CE079217A80038901084370
:100DB000617A0843071CA07AE17A8003890108431D
:100DC000217B08430090FF21201CFFF774EA280BC9
:100DD00060702805000E20702801310C0843E07077
:100DE0003004000EA0706671380B20713805000EBB
:100DF000E07100983901000C0843A07100980004CC
:100E0000000E607200982072F8BD00001FB5041C2F
:100E10001022011C6846FFF7BAE900AB5878207031
:100E200018786070D878A0709878E0705879207140
:100E3000987A60711879A071D879E07198792072E8
:100E4000587A6072187AA0721FBD0000FEB501A822
:100E500006222F49FFF79AE92E48062201A90068C9
:100E6000FFF794E92C490120C86300252B4C2C4E38
:100E70000021301CE56100F0A7F9002827D1301CC3
:100E8000E66037D003218907E164C1688847606361
:100E9000E06801698847A063E06841698847E063CA
:100EA000E06801688847A064A06BE26B011C5143B5
:100EB000194F2164616B414301266164FE63A560A3
:100EC000A5612561656125606560E66204E0E56015
:100ED00010E0E06A0130E062E068C269E16A9047D0
:100EE000831CF6D0FE63E06A0130A06201F0DAF9FB
:100EF000002802D1FF200130FEBDFE6308480949E9
:100F00009030016008494160022181600020F3E7D0
:100F10007C3680007042800000050080302B82000B
:100F2000882F82005EDBE34873AA55EE70B51F4D33
:100F30000120E8631E4C0021201C00F045F900262A
:100F400000281C4907D1201CCC600C1C002804D1AF
:100F5000FF20013070BDCE60FAE703218907E1640C
:100F6000C16888476063E06801698847A063E068FA
:100F700041698847E063E06801688847A064A06B26
:100F8000E26B011C51432164616B41430120E0612C
:100F900026626164E863A660A661266166612660D8
:100FA000A66266606662E863002070BD000500808E
:100FB000882F8200302B8200FFB50D1C161C81B0DB
:100FC00003D00720C04305B0F0BD281CFFF77CF913
:100FD000102802D90920C043F5E71F4C20680128DA
:100FE00005D16068102802D30820C043EBE7002435
:100FF0001A4F0CE01C206043C0191030291C00F06F
:10100000B9FB012802D10B20C043DCE70134F868AA
:10101000A042EFD8104C2068002806D11048386054
:10102000104878600120B860206060681C23584335
:101030001022C0191030291CFFF794F960681C2198
:101040004143C9198E62049A01300A620A9A4A62BF
:1010500060600020B7E7000004FC86000CFE8600FC
:10106000AA73EE55DBBD5EE3416E006E081A704751
:10107000006F7047F8B50F1C0169041C0025ED4393
:101080008847061C206E616E091A7143B94201D867
:10109000281CF8BD23490120086023490A688243BF
:1010A000104308602149C861201C803000904068CE
:1010B000002100F0C7FA206E1C497043C019440299
:1010C0004C6000F037F8194E0320306000F0EEFA63
:1010D00000F030F80620306000F0C2FA0534746089
:1010E00000F028F80220306000F0BAFAB0688821D9
:1010F00008400CD1706A00994968022903D10C4953
:10110000814304D002E0FF21814300D0002506493D
:101110000868400840000860F0610249002008604B
:10112000B6E7000000FC8600F8FB860000030060C4
:10113000FFFF000003200749400348600548403096
:1011400080694004800F03D003490120C863FDE794
:10115000704700000009008000050080F8B5041CFD
:10116000012500E00135291CE269201C9047831C01
:10117000F8D00026E06EF643A84215D9206F626BC6
:101180006843451C291C201C9047002802D10A20D6
:10119000C043F8BD074F084A7868291CD060636ACD
:1011A000201C9847002801D0301CF2E7002038604E
:1011B0007860EEE704FC86000CFE86008030006854
:1011C00070470000806E7047F3B50226051C0024AE
:1011D0002449012083B0086000F052F9012000F09A
:1011E00051F9FFF7A7FF204A002717601F49086839
:1011F000D0611F4B1B681362400840000860D0613B
:10120000FFF798FF184A0720106000F029FA02A99A
:1012100001A800F069F81749A0000B580199029A3B
:10122000281C9847002815D104988035E860686824
:10123000022800D100E0012000F024F90B490A4AFD
:101240000868D0610A4B186810620649381C0F60A4
:1012500005B0F0BD0134B442DDDB02490020C043DB
:101260000F60F5E700FC860000030060F8FB8600D5
:10127000FCFB860034428000F8B50E1C416E026E05
:10128000051C0124891AB14223D90169884703E06A
:10129000013424044008240C0228F9D10F4F012006
:1012A0003860286E80190934A0400D4C6060FFF74B
:1012B00041FF0420206000F0F9F9FFF73BFF062012
:1012C000206000F0CDF9A068002139608821084035
:1012D00002D00020C043F8BD0020FCE700FC8600DF
:1012E000000300600120704770B5051C0E1CFFF75D
:1012F00021FF0A4C0520206000F0B2F9FFF71AFF29
:10130000FFF718FF0620206000F0AAF9A06841004E
:10131000090E4002000E2960306070BD00030060BD
:10132000F7B5051C2649161C086801224008400034
:101330000024104384B0234F0860F8612969281CF9
:101340008847296E48430599401840027860FFF7A6
:10135000F1FE0120386000F083F96969281C884794
:10136000021C7905301CFEF712EF15490868400889
:1013700040000860F8616946301CFFF7DBFC6846F6
:10138000FFF7FEFC80356868012802D16846FFF748
:101390003DFD0D4A00206946095883181B685940D5
:1013A00004D04B1E1940214306D1013404301028CB
:1013B000F1D30120012C00D0002007B0F0BD0000C7
:1013C000F8FB86000003006000020060F3B50169CD
:1013D000041C012781B08847061CA169201C88478E
:1013E000051C606E216E401A70430299884201D834
:1013F0000020FEBD1E4801221E490260086890437D
:1014000010431D4A0860D061206E02997043401855
:1014100040025060FFF78EFE01201060141C00F0A7
:101420001FF9A068882108400021002801D000276A
:1014300013E00020032252070DE083181E68731C7E
:1014400008D00C4A1068400840001060E06108486D
:101450000160CDE70430A842EFD3064A1068400887
:1014600040001060E06102480160381CC1E70000E4
:1014700000FC8600F8FB860000030060C06F704728
:10148000704700000849022801D1622200E0422290
:10149000131C0A60054AD361022801D1044800E008
:1014A0000448486010627047F8FB86000003006043
:1014B000639C710663145406F0B50D1C097800276F
:1014C000061C3029F5B002D0B81F75B0F0BD6978A0
:1014D0003A2902D00620C043F7E701A900F026F818
:1014E0000028F2D1002402350AE01C20604301A943
:1014F00040181030291C00F03DF9012807D00134B4
:101500000498A042F1D8002F01D1381FDDE71C203C
:10151000604301A94018016A3166016A406A0818EF
:1015200070660020D1E70000406F7047F3B5041CDF
:10153000012581B000E00135291CE269201C90479B
:10154000831CF8D00026E06EF643A84212D9206F23
:10155000626B6843451C291C201C9047012801D15F
:101560000638FEBD114F291C236B3A1C201C9847DE
:10157000002801D0301CF4E70D4A3868391C90422D
:1015800003D10C4A4868904202D00C20C043E8E7DF
:101590008868012802D00D20C043E2E7FF22D13243
:1015A0000298FEF750EE0020DBE700000CFC8600FE
:1015B000AA73EE55DBBD5EE3F8B50D1C0169041C92
:1015C000161C8847216E626E521A4243AA4202D804
:1015D0000020C043F8BD164F012241433A60154A2E
:1015E000481940025060FFF7A5FD124A0120106023
:1015F00000F036F80F4A90680F4A011C11400BD0DA
:10160000002806DA321C291C201CFFF789FE00285E
:1016100002D100203860DBE76169201C8847032184
:101620004907021C301CFEF7B2ED00203860D1E7FC
:1016300000FC86000003006048000080803081606C
:1016400070470000021C022A034802D18172C17255
:10165000704741717047000000020060806F704762
:1016600070B5104E0E4D002403E001340120FFF749
:101670005DF8A869800401D4B442F6D3012008497A
:10168000400340394860A86982040121002A0648C5
:1016900001DAC163FDE7B44201D1C163FDE770BD6A
:1016A00040090080581B00000005008070B5124EF4
:1016B000104D002403E001340120FFF737F8A8693A
:1016C0004004800F032801D0B442F4D30320094919
:1016D000400340394860A8694004820F0121002A74
:1016E000064801D0C163FDE7B44201D1C163FDE703
:1016F00070BD000040090080581B000000050080FC
:10170000F7B5041C0E1C01698847051C606E216E2C
:10171000411A6943B14223D9144F012038606169ED
:10172000201C8847021C032040070299FEF72EED7B
:10173000206E0F4C6843801940026060FFF7FAFC8E
:1017400003202060FFF7B2FFFFF7F4FC06202060C3
:10175000FFF786FFA068002139608821084002D089
:101760000020C043FEBD0020FCE7000000FC860016
:101770000003006080B51022FEF7CCFD002801D1E7
:10178000012080BD002080BDFEB558490120C863FE
:101790005748C168026A55180269511802684069C1
:1017A0008E1A0404240C30190190524881680029D3
:1017B00004D1012181605049CE6006634B4A01216A
:1017C000D1634C48016BB14236D0771A02978E42F2
:1017D00069D32AE04748C16B02688E46891AB9422C
:1017E00000D3391CFF22031C8C4609E01868013F16
:1017F000411C19603F4958310A54604601388446FB
:1018000060460028F2D118681A1C70454BD8704504
:101810000BD136490120C8630121301C01F03AFD8B
:10182000002840D0334A00201060002FD2D1314927
:101830000869029FC01908612C490120C86346E06D
:101840002C4A1068D16B0F1AA7420CD92948161CD4
:10185000316858304018221C291CFEF798EC30687B
:101860000019306035E0A74207D1224A002804D091
:10187000204958310818221C08E0A74214D21D4AFA
:10188000002811D01B49583108183A1C291CFEF7B2
:101890007EEC1848ED195830E11B0C04240C154A55
:1018A0000021116005E01BE0281C6D18611A0C0472
:1018B000240C0E4F0121F9630122311C01F08CFC34
:1018C00000280DD00121F9630A4AD06B3618002C8C
:1018D000B6D1084E019830633068F16B884202D966
:1018E000FF200130FEBD0020FCE700000005008065
:1018F00030348200302B820018308200FEB555490A
:101900000120C8635448C168026A55180269511819
:1019100002688A1A0292406950490404240C101982
:1019200000908868002803D101208860029A0A6329
:10193000484A0120D063086B029A0F1C904234D0B1
:10194000029A391C161A0196824271D30F1C26E0A6
:10195000F86B3A688446801A391CB04200D3301CB8
:10196000FF230F1C07E03968013E4A1C3A603B4ADE
:101970005832535401380028F5D138683A1C604574
:1019800056D8171C60450AD132490120C86301218D
:10199000029801F07FFC00284AD000203860002E19
:1019A000D6D13869019E801938612A490120C8635F
:1019B00043E03868F96B0E1AA6420BD927483968FC
:1019C00058304018221C291CFEF7E0EB386800193B
:1019D000386034E0A64206D1002804D01F495831AF
:1019E0000818221C07E0A64211D200280FD01B497C
:1019F00058310818321C291CFEF7C8EB1748AD19DE
:101A00005830A11B0C04240C0021396004E0281C70
:101A10006D18611A0C04240C0E4E0121F163012291
:101A2000029901F0D9FB002802D00121F16300E006
:101A30000BE0029AF86B12180292002CB9D10098B0
:101A400038633868F96B884202D9FF200130FEBD47
:101A50000020FCE70005008030348200302B82003B
:101A60000548064948650A6902604A694260896911
:101A7000816000207047000030348200302B8200EB
:101A8000F8B5214F3868C0688047386801697E2002
:101A90008847012500241FE01F20A04302D1386899
:101AA000C06880471948065D7E2E01D07D2E0CD17E
:101AB000386801697D208847202039684640300613
:101AC0000969000E8847023505E03868016930066B
:101AD000000E8847013501340D4840888442DBDB25
:101AE0003868C0688047386801697E208847681C6C
:101AF000800607D1386801697E2088473868016907
:101B00007E208847F8BD000088428000F0228200D5
:101B1000908C8000B0B5041C17480068C0688047EE
:101B2000164DEA69002A25D09168101CA1420BD1FC
:101B30000168E961002900D12962A9690160A861F1
:101B4000696A01396962B0BD0068016802E00B682A
:101B5000081C191C00280DD08368A342F7D1016826
:101B6000A9690160A861696A01396962002AEAD13C
:101B70002A62B0BD0020B0BD88428000543482008B
:101B800010B50F4C6068012802D00E490F2005E007
:101B9000FEF752FE002804D00A49283100F0EEFE7C
:101BA0000BE000206060A06007491620087001204B
:101BB0006080FEF7C1FDFFF763FF002010BD00004D
:101BC000908C800030368000F0228200F8B5041C32
:101BD00036480078002835D12022E01D3449FEF730
:101BE000A7FA002807D1261C2036F079022802D156
:101BF000307A022803D02E499131052025E0A088B3
:101C0000242803D22A49B93103201EE0294800279D
:101C1000294C27490770022520222131601C25709C
:101C2000FEF7B4EA20346570A570E77004202071D7
:101C30006771A771E77127726772A772FEF72CFFB1
:101C4000051C05D11A497531082000F097FE2AE0DD
:101C5000281C00F029FA0206174F120E291C381C06
:101C60002C30E272FEF792EAE07A64222C30411CBA
:101C70003A54002078544C1C3819FEF733FF0119F0
:101C8000707A4207520F7A54481C0C49488001214F
:101C9000C902884203D90A490120C863FDE7FEF75B
:101CA0004BFDFFF7EDFE0020F8BD00003042800044
:101CB000FB338000CC418000F0228200908C8000B9
:101CC0000005008080B50349052000F057FE002084
:101CD00080BD000060348000B0B5174DC4796868DD
:101CE00001280AD1A868A04202D014490F2013E0AD
:101CF0001248243001F03CFB1CE0022C04D0012CE3
:101D000002D00E49503106E0201CFEF7B3FD00283A
:101D100005D00A496431072000F030FE0AE00120B6
:101D20006860074AAC60142111706880FEF704FDFA
:101D3000FFF7A6FE0020B0BD908C8000C03580006B
:101D4000F02282000D4980B5122008700C49012054
:101D500048804868012804D10A490F2000F00EFE8F
:101D600009E0FEF7E9FCFFF78BFE07480068806892
:101D7000804700F087F9002080BD0000F02282003B
:101D8000908C8000A0358000884280000F4810B5FC
:101D90004168012904D10E490F2000F0EFFD12E047
:101DA0000C210C4A012411704480FEF7C5FCFFF79A
:101DB00067FE00F0F3F80848C463084800688068CC
:101DC000804700F06FF9002010BD0000908C80006B
:101DD0001C358000F02282000005008088428000CF
:101DE00010B5821D8088072801D01C4914E0917825
:101DF000507809020843D17809040843117909068B
:101E00000143507993791B021843041C012080027E
:101E1000844205D911491831032000F0AFFD1AE0C2
:101E20000F48042303705378437093788370D378FA
:101E3000C370127902710530221CFEF749FD00289B
:101E400002D006492C31E8E70649601D4880FEF7BC
:101E500073FCFFF715FE002010BD0000DC3480008D
:101E6000F0228200908C800080B50349052000F0AC
:101E700085FD002080BD000038358000B0B5831D91
:101E800080889978234D0538020458780902120C8D
:101E90000843D97809040843197909060843041C42
:101EA0006868002802D0A868002802D11A490F20CB
:101EB00018E001280ED11948844203D31849A0180C
:101EC000884203D914491C3102200BE00120000490
:101ED000211800E0211C581DFEF708FD002804D041
:101EE0000D49383100F04AFD11E00E48082101701B
:101EF0002104090E447081702102090EC170210E67
:101F0000017105206880FEF717FCFFF7B9FD00207E
:101F1000B0BD0000908C8000543580000000FFFFB1
:101F2000FF7FFFFFF022820010B5811D80880A220A
:101F30000131013804040848240C0270221C0130CD
:101F4000FEF724E90549601C4880FEF7F5FBFFF722
:101F500097FD002010BD0000F0228200908C8000D0
:101F600001491120087070478C428000B0B5084CC0
:101F7000206880470128074D05D160688047002808
:101F8000FBD02C60B0BD044C20688047F9E700000E
:101F90005C428000884280003C428000F8B5184FC7
:101FA0001C25786800F080F8164E041C021C301CBA
:101FB0007968FEF7ECE81549231C08331248C96814
:101FC00015E0402C0BDBB86800F06EF8051C021C15
:101FD000301CB968FEF7DAE80020705509E00A1CE9
:101FE000EA401207120F825C043D325501349C42D4
:101FF000E7DB00203055301C01F0BAF9F8BD0000D5
:10200000CC418000F02A8200EA338000908C80006E
:102010008CB5684606220C49FEF7B8E80B48062244
:1020200069460068FEF7B2E8FFF79AFFFEF726FD63
:1020300007490120C863FFF799FF00F077F8FEF722
:1020400033FD00F099F88CBDAC3380007042800005
:102050000005008000E001380028FCD17047000036
:10206000054C0020054900E001C48C42FCD3044922
:102070000120C86370470000884280000C0D870073
:1020800000050080054900208A691060096A08205F
:10209000086003490120C863FDE700005840800044
:1020A00000050080FEE70000011C002000E0013078
:1020B0000A780131002AFAD170470000B0B5184CF7
:1020C0000025E1680131E160E16900290BD1216956
:1020D000002903D1134801F04BF9B0BDE1610A6852
:1020E00022618D800D607D2805D07E2806D100F00C
:1020F00021F92570B0BD01202070B0BDE1690A4B07
:102100008A889A4207D22378002B02D02023584095
:10211000257052189071888801308880B0BD000009
:10212000908C8000403480000704000070B50022CD
:102130000E49412401200A608A80240183011B1872
:102140001B015D182E1BCE5001306428AA80F5DBE0
:10215000074809180548203801614261C2610270D0
:10216000826104490120087070BD0000B08C8000BD
:1021700030920100CC41800070B5064E044D012420
:102180003068C0688047EC6300F006F8EC63F7E75E
:102190000005008088428000F8B52D4C2068C0689A
:1021A00080474DE02B490120487020684861002895
:1021B00000D18861002000270025206011E024481C
:1021C0000068C0688047A088461B802E00DD8026FE
:1021D000601906303A1C3104090CFEF7DDFA071CC1
:1021E000AD19A088A842EADC1B48874203D01B48EF
:1021F00001F0BEF820E0A0880238A080A079411E3E
:10220000152916D816490978002901D0012810D1BE
:1022100014490978002904D01349082000F0AEFBC6
:102220000AE01249800040184038C16B201C8847E2
:1022300002E0201CFFF746FD0649086920600C619A
:1022400004494C69002CADD100204870F8BD000055
:1022500088428000908C8000470F00006836800024
:10226000CC4180003042800070348000D841800032
:1022700010B50B4CE16AA162E068C2699047002882
:1022800005D1E068826AA16A9047002801D0002049
:1022900010BDA06BA16A606041430120616210BD66
:1022A000302B820010B5104C06E06069216C40189C
:1022B0006061A06A0130A062E068C269A16A9047CB
:1022C000831CF2D0606BA16A814204D2E068826A0A
:1022D0009047002801D0002010BDA06BA16A60606B
:1022E00041430120616210BD302B820010B5104CBB
:1022F00003E06069216C40186061A16A0131A1624C
:10230000E068C2699047831CF3D0606BA16A814288
:1023100004D2E068826A9047002801D0002010BDF6
:10232000A06BA16A606041430120616210BD0000A2
:10233000302B82000B4B10B5D8690B4C81880022E2
:10234000A14201D8032901D2828010BD99690029D8
:1023500002D19861586102E00860D8699861DA6139
:1023600010BD0000908C800007040000FFB52548D8
:102370000E1C0068151CC06881B08047FF212D31FC
:10238000214FB86888421CDA79683A688A4202D1DB
:10239000002816D101E0002801D1B86AF860F86879
:1023A000331A7869D418844208D3841A1B1B164C3C
:1023B0003434E4186319934206D302E0621982426E
:1023C00002D9002005B0F0BD3B697219D21A9E42B5
:1023D0000BD98B1883423E6105D9401A0A49101A5D
:1023E0003431081800E0601978600498002804D19E
:1023F0002A1C201C0199FDF7CAEEB8680130B860AC
:10240000201CDFE7884280005434820070B5061C2F
:1024100011480D1C0068141CC06880470F4A916861
:1024200000290AD01068B04207D1D368AB4204D16A
:102430005369161C1A1A944201DD002070BD001960
:102440003060984202D10548343030600139281993
:10245000F060B160012070BD884280005434820079
:1024600070B5051C15480C1C0068C0688047FF202B
:102470002D30134EB16881421BDA70683268824297
:1024800001D1002915D1F068281A75691318AB42DB
:102490000BD30B4B0A4D14335B1BC01A084B343360
:1024A00018180319934206D303E0181C1A19AA42FC
:1024B00001D9002070BD0131B16070BD884280003B
:1024C00054348200FEB5071C0E1C0169002401254E
:1024D00088470190786E396E401AB04201D80020CA
:1024E000FEBD3969381C884703E001352D044008DA
:1024F0002D0C0228F9D129490120AE40351C086075
:10250000391C002680310291386E019948432449D4
:102510004019400205304860FEF70CFE20490220B9
:10252000086088688007FCD48868000701D501240A
:10253000E443486A02994968022903D1194988424B
:1025400004D001E0FF2801D00124E4430136360421
:10255000360C0135022ED7D3FEF7ECFD104E0025C8
:10256000356002994868022800D100E00120FEF79A
:1025700089FF0D490868F0610C4A12683262400810
:1025800040000860F061FEF7D5FD07203060FFF7DE
:1025900067F80249201C0D60A2E7000000FC8600DD
:1025A00000030060FFFF0000F8FB8600FCFB8600D4
:1025B000F8B5061C406E326E801A884202D80020A0
:1025C000C043F8BD0E4F012038600C1C3169301C2F
:1025D000884701E0400864000128FBD10025211C48
:1025E000301CFEF747FD002801D13860E9E70120E3
:1025F000400224180135022DF1DB00203860DEE7AF
:1026000000FC8600F8B5124F0826051C0020242384
:102610004343DC1963698B4214D1A369934211D1FE
:102620000B4960226039281CFDF70CEE2422211C86
:10263000281C6830FDF706EE002028666068686692
:102640000020F8BD0130B042E1DB0020C043F8E7D4
:10265000E8388000F0B517490120C8630022164908
:10266000FF242D3402250A601426464301307318D6
:102670001F1C143F8F515A60DA609A601D74A0428B
:10268000F2DB0E484B2309180D481B0381610C49EE
:10269000C261026234314160426201608260C260A4
:1026A000C918416102618262C2620263014901206C
:1026B000C863F0BD0005008088E486005C17000058
:1026C00054348200F8B5061C23480C1C0068151C05
:1026D000C068804767192149C869002819D1081CBA
:1026E000806AA0420BD0081C006B844232D32A1CA3
:1026F000211C301CFDF7C2FF002826D11EE02A1C39
:10270000211C301C00F02CF8002817D013488762D9
:102710001BE080681149A0421CD8A04207D12A1CA6
:10272000211C301C00F0C8FD00280ED106E02A1C38
:10273000211C301CFDF7A2FF002801D10020F8BDAC
:102740000649886A844200D38F620449C86A844279
:1027500000D9CC620120F2E7884280005434820024
:10276000F8B5061C0D480D1C0068171CC068804792
:10277000022000210A4C606021600834A3C4183C88
:1027800026620120E061FDF769FEE069002801D0C2
:102790000020F8BD034805630120FAE78842800065
:1027A0003034820054348200F8B5051C0F1C0169D6
:1027B0000026012488470090686E296E401AB842AE
:1027C00001D80020F8BD2969281C884703E001349E
:1027D00024044008240C0228F9D12449012008606F
:1027E000286E0099A7404843214CC019400205308B
:1027F0006060FEF79FFC02202060A0688007FCD488
:10280000A0680121C9430007002800DA0E1C606A95
:1028100080356A68022A03D1164A904203D001E04B
:10282000FF2800D00E1CFEF785FC00272760FEF76E
:1028300081FC6868022800D100E00120FEF722FE3A
:102840000D490868E0610D4A1268226240084000A4
:102850000860E061FEF76EFC07202060FEF700FFD5
:10286000FEF768FC0149301C0F60ABE700FC8600F6
:1028700000030060FFFF0000F8FB8600FCFB860001
:10288000F8B5051C406E2A6E0027FF43801A884267
:1028900001D8381CF8BD0B4E012030600C1C296992
:1028A000281C884701E0400864000128FBD1211C56
:1028B000281CFEF7DFFB0021002801D13160E9E789
:1028C0003160E6E700FC8600F8B5124F0326051CD0
:1028D000002024234343DC1963698B4214D1A3698C
:1028E000934211D10B4960226039281CFDF7AAECF4
:1028F0002422211C281C6830FDF7A4EC0020286647
:10290000606868660020F8BD0130B042E1DB00205D
:10291000C043F8E7E4378000F0B5202540240026C6
:102920001E7016700F1C274002D017782F431770A7
:102930006D08071C274002D017782F431770013607
:102940003606360E6D086408032EEBD38022002570
:102950000E1C264002D01E7816431E705208061C1C
:10296000264002D01E7816431E7001352D062D0E0E
:1029700052086408042DEBD3F0BD000070B50D1CA7
:10298000041C081CFFF790FB061C281C00F0F0FC40
:102990000C480D2101702104090E44708170210240
:1029A000090EC170210E0171291C321C0530FDF782
:1029B000EEEB0549701D4880FDF7BEFEFFF760F89D
:1029C00070BD0000F0228200908C80000A4A002135
:1029D00090680006000EC3070BD54006400F07D0D5
:1029E000302010611020106110610120106100E0A2
:1029F00001210806000E7047004E008004490120A6
:102A0000044A00E0C86393681B07FBD570470000C9
:102A100000050080004E008010B5074C0020A06328
:102A2000FFF7ECFF0548012101E0E268C163A268FD
:102A3000D207FAD4012010BD004E008000050080AE
:102A400010B5054B0122054900E0DA634C69E40743
:102A5000FBD5C86010BD000000050080004E00805E
:102A600001490120C863704700050080FEB50026BB
:102A7000002553480122C263524F692040013C188F
:102A8000A378514948680968002B08D00022A27039
:102A900039603871000A7871000AB87138E000AB0B
:102AA0009980090CD9801881000C58819888FF23DF
:102AB000033398420BD0454B984206D0444B984282
:102AC00026D100AB5D893E1C22E0A27020E000AB65
:102AD0001889000601D4002100E0012100AB18890B
:102AE000394F00237F6800073F07FF0E000F0029C2
:102AF0002FD0012901D10223BB40364FBA6B1A40B7
:102B000000D0BB6300F04CF901684900490801603E
:102B10000021002000F09CF80021002000F0BCF80B
:102B20000021002000F082F80021002000F0A2F82F
:102B3000294801680205914301600C300168490D84
:102B400049050160A278002A06D000AB5A8989188D
:102B500003E0BA40131CD0E780310160002100205F
:102B600000F00CF9A078002805D1002D04D02A1C13
:102B7000311C00F01BFAFEBD0121002000F010F90D
:102B80000121002000F064F80121002000F084F809
:102B90000121002000F04AF80121002000F06AF82D
:102BA0000C4F0220F969014000D1F8610121002099
:102BB00000F0D2F80121002000F0E0F8DBE700008F
:102BC00000050080E8FF8600003000802120000022
:102BD000A121000040200080002400800848D1216D
:102BE0000901401880B5807B0222064B41008A40D3
:102BF000596A1140FCD10022012100F05FF880BD2C
:102C0000E8FF86000028008000224000002903D051
:102C1000012903D1022200E0012282400249086B0F
:102C2000104000D00A63704740200080002240001E
:102C3000002903D0012903D1022200E001228240B1
:102C400002490869104000D00A61704740200080A6
:102C500000224000002903D0012903D1022200E014
:102C6000012282400249C869104000D0CA61704701
:102C70004020008000224000002903D0012903D118
:102C8000022200E00122824002494869104000D03F
:102C90004A6170474020008000224000002903D094
:102CA000012903D1022200E0012282400249086A80
:102CB000104000D00A62704740200080F8B5051C23
:102CC0000C1C6900012602278F408E400020002C3A
:102CD00037D0012C00D1381C1D4B596B81435963EF
:102CE000002A29D00020002C2DD0012C00D1381C26
:102CF000D863211C281CFFF787FF211C281C00F02B
:102D00004FF8C168490D4905C160480D0CD000203D
:102D1000002C1AD0012C00D1381C0E49496A014000
:102D200002D00C494031C860211C281CFFF790FFDD
:102D3000211C281CFFF7B0FF211C281CFFF764FF93
:102D4000F8BD301CC8E7301CD2E7301CE5E70000B6
:102D5000402000800028008000224000002903D08D
:102D6000012903D1022200E0012282400249486B7E
:102D7000104348637047000040200080002240005C
:102D8000002903D0012903D1022200E00122824060
:102D90000249886A104000D18A6270474020008052
:102DA000034A40018018012900D11030704700000B
:102DB000002400804000F0B50224012383408440B9
:102DC000002200291FD0012900D1221C114EB56B11
:102DD000281C104016D10020002916D0012900D14E
:102DE000201C776A074000D070621543281CB0632E
:102DF000002000290BD0012900D1201C716A01405C
:102E000000D17062F0BD1A1CE0E7181CE9E7181C3D
:102E1000F4E7000040200080F8B52E4B00205968F0
:102E2000002900D1F8BD2C4A0D21090251180024B7
:102E30000C834C838C836921490151180925ED01CC
:102E400089231B012E1C8C700C80703E11188F1969
:102E5000C9183C720130A8420C72F7DB1F481E4EA5
:102E600001680C3EF1600179171C117141795171B3
:102E70008079002190710420FFF792FFC068164A04
:102E80000104D12000011018090C002901D00421EF
:102E900000E00221C1738173C07B01210D4B420010
:102EA000081C90401A6B024001D00A1C00E0221C52
:102EB000002AF7D000210020FFF74EFF064F8320A5
:102EC000C00039182A1C0420B16000F039F8012034
:102ED000A8E7000040200080E8FF86005042800004
:102EE00080B501210020FFF75BFFC068C002C00A67
:102EF000002820DC01210020FFF798FE012100209E
:102F0000FFF7B8FE012201210020FFF7D7FE0121C3
:102F10000020FFF779FE01210020FFF74BFF064953
:102F20004868002807D105486922520180180088A6
:102F3000002800D0486080BD40200080E8FF860067
:102F400070B50D1C041C161C0021FFF729FFC16879
:102F5000490D49058919C1601249E0004018056012
:102F60000021201CFFF774FE0021201CFFF794FEB7
:102F70000021201CFFF75AFE0021201CFFF77AFEDB
:102F8000610001208840084948620021201CFFF7A9
:102F90003BFE0021201CFFF7DFFE0021201CFFF775
:102FA000EDFE70BD8029008000280080F8B50E1C61
:102FB000041C171C0121FFF7F3FE051CC068C002AA
:102FC00004D001220121201CFFF778FEE868134994
:102FD000400D4005C019E860E000401846606100FF
:102FE000022088400E4948620121201CFFF730FE74
:102FF0000121201CFFF750FE0121201CFFF716FEC7
:103000000121201CFFF736FE0121201CFFF7A4FE42
:103010000121201CFFF7B2FEF8BD000080290080CE
:1030200000280080124B0D210902B0B55C18218BDD
:103030004A1CC918228308727E2817D1228B012AC4
:1030400014D00C480125C563D12000011818191CA3
:103050000831807BFFF7AAFF00202083044C0C3C42
:103060002570FDF76FFC20780028FAD1B0BD000074
:10307000E8FF860000050080F3B50F1C144901200D
:1030800081B0C86303208007124D0024124EE8640B
:1030900012E0E868321C036B211C9847002811D10C
:1030A000E86BC004020CE86C311CFDF791FBE8648E
:1030B00007490120C8630134BC42EADB0198E96C8E
:1030C000884202D0FF200130FEBD0020FCE7000056
:1030D00000050080302B820030328200F8B5384E77
:1030E0000125F563374CA56202E0A06A0130A062B9
:1030F000E068C269A16A9047831CF6D0A06A616B40
:10310000884258D2A26B271C5043011CE0682E4C09
:10311000036B221C984700284DD1F5632B4920688A
:10312000884248D12A496068884244D1A068022870
:1031300041D16069009024698807F864B86A013059
:10314000B862F868C269B96A9047831CF6D0B86A59
:10315000796B88422FD228E0B86BBE6A46430025BF
:1031600016E0F8681B4A036B311C9847002822D1EF
:10317000F86B1849C004020CF86CFDF729FBF864E1
:103180000F490120C863F86B241A04D001360135B9
:10319000B86B8542E5DB3D1CA86A0130A862E8688F
:1031A000C269A96A9047831CF6D0002CD4D100983C
:1031B000F96C884202D0FF200130F8BD0020FCE706
:1031C00000050080302B8200303082005EDBE34857
:1031D00073AA55EE30328200F7B52C4D041C081C42
:1031E000696A6A6C91422FD8696800290AD1FF2662
:1031F000E9690136012903D0FFF778F8002801D1E9
:10320000301CFEBDE868221C436A696A98470028A2
:103210001AD11F4E311C002202E00A700131013028
:10322000EB6B9842F9DBE868321C036B696A9847DC
:10323000002809D1201C0021EA6B08E003783778C8
:1032400001360130BB4201D00020DAE70131914262
:10325000F4DB029801280AD1D004020CE86C211C8E
:10326000FDF7B6FAE864A869E96B4018A861E86957
:10327000012802D1286A01302862686A0130686238
:103280006868013868600120BBE70000302B8200CD
:10329000882D82000A1C011C80B50648FFF79CFFA0
:1032A000002800D180BD0349002058390860012062
:1032B00080BD0000882B8200F8B5061C2A480D1C32
:1032C0000068141CC0688047284FF869017C0029F9
:1032D0003FD1C068A0423CD3221C291C301CFFF700
:1032E0003FFA002835D0221C291C3868FFF78EF8D9
:1032F00000282ED0F969C868A0420CD9061B88683E
:103300000D1C311C0419201CFFF7AAF8002820D03E
:10331000043551C525E0281CFEF7FCFB002818D019
:1033200002260674FC692568002C1AD016E0221DBE
:1033300007CAFFF715FA00280BD0A068FEF7EAFBD2
:10334000002806D00674221D07CAFFF75FF8002880
:1033500001D10020F8BD2C1C03D02568207C012859
:10336000E5D00120F6E70000884280005434820056
:1033700070B5051CFEF798FE041C0A4E0E20307036
:10338000221C291C701CFCF702EF601C0004000CBE
:10339000054A0A23411C51803354FDF7CDF9FEF74D
:1033A0006FFB70BDF0228200908C800044554D4D23
:1033B00059000000546F74616C2062797465732049
:1033C000726563642062792041524D50524720302B
:1033D000780041524D5052472073697A65206D73D1
:1033E00067206F76657272756E0030313233343516
:1033F000363738394142434445460051434F4D200A
:103400006661737420646F776E6C6F616420707294
:103410006F746F636F6C20686F73740051434F4D0E
:10342000206661737420646F776E6C6F61642070C6
:10343000726F746F636F6C207461726700000000BC
:103440004552523A2057696E646F77206F766572E5
:1034500072756E2064657465637465642E2E2E002B
:10346000496E76616C696420436F6D6D616E6400B6
:10347000556E7265636F676E697A656420666C610C
:10348000736820646576696365000000496E766143
:103490006C6964206D61676963206E756D62657229
:1034A0002F70726F746F636F6C2076657273696FC3
:1034B0006E000000506172616D6574657220526526
:1034C0007175657374205061636B6574204C656E13
:1034D000677468204572726F72000000496E7661F1
:1034E0006C6964207061636B6574206C656E6774D1
:1034F000680000005061636B657420746F6F206C0E
:1035000061726765000000005265616420756E732A
:1035100075636365737366756C00000043616E6E5E
:103520006F74207265736574206265666F726520C2
:10353000636C6F736500000053696D706C65207774
:1035400072697465206E6F7420616C6C6F7765644E
:103550000000000043616E6E6F74207772697465BD
:10356000206265666F7265206F70656E00000000F6
:10357000426F6F74206C6F61646572206164647265
:1035800065737320696E76616C6964005772697443
:103590006520756E7375636365737366756C000083
:1035A00043616E6E6F7420706F77657220646F7701
:1035B0006E206265666F726520636C6F73650000D4
:1035C000416C7265616479206F70656E6564206915
:1035D0006E20646966666572656E74206D6F6465E1
:1035E00000000000416C7265616479206F70656E47
:1035F00065642C2069676E6F72696E67206F7065F5
:103600006E20696E2073616D65206D6F64650000CA
:10361000496E76616C6964204F70656E204D6F64F1
:10362000650000004F70656E206661696C6564001E
:1036300043616E6E6F7420636C6F7365207768658D
:103640006E206E6F742070726576696F75736C7919
:10365000206F70656E656400436C6F7365206661F2
:10366000696C6564000000004552523A20435243A1
:1036700020696E76616C69640000000044554D4D10
:10368000590000555603590C0F5A5A0F0C5903563E
:103690005500653033663C696A3F3F6A693C663372
:1036A0003065663330653F6A693C3C696A3F653026
:1036B0003366035655005A0F0C59590C0F5A0055D2
:1036C0005603693C3F6A30656633336665306A3F4E
:1036D0003C690C595A0F55000356560300550F5AB2
:1036E000590C0F5A590C56030055550003560C59E6
:1036F0005A0F6A3F3C693366653030656633693C12
:103700003F6A6A3F3C693366653030656633693CC1
:103710003F6A0F5A590C56030055550003560C5971
:103720005A0F0C595A0F55000356560300550F5A9D
:10373000590C693C3F6A30656633336665306A3FD1
:103740003C69035655005A0F0C59590C0F5A005535
:103750005603663330653F6A693C3C696A3F6530B1
:103760003366653033663C696A3F3F6A693C66335D
:10377000306500555603590C0F5A5A0F0C59035611
:1037800055000000C51180007D148000BD1180002F
:103790006910800071108000291580005D1680007E
:1037A000A9278000812880000117800079128000FD
:1037B00000000000B9158000CD138000000000005B
:1037C00000000000000000000000000000000000F9
:1037D000B9148000B90F80005D1180003D16800093
:1037E000E51280005038800000100000200000002A
:1037F00000020000100200009800000076000000A7
:103800000100000000000000623880000008000095
:1038100020000000000200001002000098000000DC
:1038200075000000020000000000000074388000F5
:103830000010000020000000000200001002000044
:103840009800000046000000020000000000000098
:10385000746F73686962615F7463353835313266DD
:103860007400746F73686962615F746364616D385A
:1038700032663100746F73686962615F74633538F2
:1038800064646D3932663200C51180007D14800099
:10389000BD11800069108000711080002915800022
:1038A0005D168000C5248000B125800001178000CE
:1038B0007912800000000000B9158000CD1380004F
:1038C00000000000000000000000000000000000F8
:1038D00000000000B9148000B90F80005D11800065
:1038E0003D168000E5128000083A800000040000C8
:1038F000200000000002000010020000EC000000A8
:10390000730000000100000000000000083A800081
:10391000000400002000000000020000100200006F
:10392000EC00000033000000010000000000000077
:10393000183A80000008000020000000000200008B
:1039400010020000EC000000350000000100000043
:1039500000000000283A8000001000002000000055
:103960000002000010020000EC00000076000000E1
:103970000100000000000000283A80000010000054
:10398000200000000002000010020000EC00000017
:10399000360000000100000000000000383A8000FE
:1039A00000200000200000000002000010020000C3
:1039B000EC000000790000000100000000000000A1
:1039C000473A8000001000002000000000020000C4
:1039D00010020000EC0000004600000002000000A1
:1039E00000000000383A80000020000020000000A5
:1039F0000002000010020000EC000000780000004F
:103A0000010000000000000073616D73756E675F58
:103A10006B3966323830380073616D73756E675F6D
:103A20006B3966353630380073616D73756E675F5C
:103A30006B3966313230380073616D73756E675F54
:103A40006B39316730380073616D73756E675F6B0A
:103A5000396B3132313600000000891112239B325C
:103A60002446AD573665BF74488CC19D5AAFD3BE4E
:103A70006CCAE5DB7EE9F7F88110080193331A225E
:103A8000A5562C47B7753E64C99C408DDBBF52AE2E
:103A9000EDDA64CBFFF976E802218B30100299133E
:103AA0002667AF763444BD554AADC3BC588ED19F0E
:103AB0006EEBE7FA7CC8F5D983310A20911218031E
:103AC000A7772E66B5543C45CBBD42ACD99E508FEE
:103AD000EFFB66EAFDD874C904428D5316619F70EE
:103AE0002004A9153227BB364CCEC5DF5EEDD7FCCE
:103AF0006888E1997AABF3BA85520C4397711E60DE
:103B0000A1142805B3373A26CDDE44CFDFFD56ECAD
:103B1000E9986089FBBB72AA06638F7214409D51BD
:103B20002225AB343006B9174EEFC7FE5CCCD5DD8D
:103B30006AA9E3B8788AF19B87730E6295501C419D
:103B4000A3352A24B1163807CFFF46EEDDDC54CD6D
:103B5000EBB962A8F99A708B088481951AA793B67D
:103B60002CC2A5D33EE1B7F04008C919522BDB3A6D
:103B7000644EED5F766DFF7C899400859BB712A63D
:103B8000ADD224C3BFF136E0C1184809D33B5A2A4D
:103B9000E55E6C4FF77D7E6C0AA583B4188691971D
:103BA0002EE3A7F23CC0B5D14229CB38500AD91B2D
:103BB000666FEF7E744CFD5D8BB502A499961087FD
:103BC000AFF326E2BDD034C1C3394A28D11A580B0D
:103BD000E77F6E6EF55C7C4D0CC685D71EE597F4CD
:103BE0002880A1913AA3B3B2444ACD5B5669DF78ED
:103BF000600CE91D722FFB3E8DD604C79FF516E4BD
:103C0000A9902081BBB332A2C55A4C4BD7795E68CC
:103C1000E11C680DF33F7A2E0EE787F61CC495D59C
:103C20002AA1A3B03882B193466BCF7A5448DD59AC
:103C3000622DEB3C700EF91F8FF706E69DD414C57C
:103C4000ABB122A0B9923083C77B4E6AD5585C498C
:103C5000E33D6A2CF11E780F00000000C7B9302048
:103C600049CA51208E736100552D93209294A30070
:103C70001CE7C200DB5EF2206DE31621AA5A260182
:103C800024294701E390772138CE8501FF77B521BC
:103C90007104D421B6BDE4011D7F1D22DAC62D02B8
:103CA00054B54C02930C7C2248528E028FEBBE22FC
:103CB0000198DF22C621EF02709C0B03B7253B233E
:103CC00039565A23FEEF6A0325B19823E208A80368
:103CD0006C7BC903ABC2F923FD470A243AFE3A04C0
:103CE000B48D5B0473346B24A86A99046FD3A92440
:103CF000E1A0C8242619F80490A41C05571D2C2502
:103D0000D96E4D251ED77D05C5898F250230BF058B
:103D10008C43DE054BFAEE25E0381706278127266F
:103D2000A9F246266E4B7606B515842672ACB4060B
:103D3000FCDFD5063B66E5268DDB01274A623107AD
:103D4000C411500703A86027D8F692071F4FA22777
:103D5000913CC3275685F3073D362428FA8F140873
:103D600074FC7508B3454528681BB708AFA28728BF
:103D700021D1E628E668D60850D53209976C022989
:103D8000191F6329DEA6530905F8A129C24191092B
:103D90004C32F0098B8BC0292049390AE7F0092AF7
:103DA0006983682AAE3A580A7564AA2AB2DD9A0A6B
:103DB0003CAEFB0AFB17CB2A4DAA2F2B8A131F0BF5
:103DC00004607E0BC3D94E2B1887BC0BDF3E8C2BB7
:103DD000514DED2B96F4DD0BC0712E0C07C81E2C37
:103DE00089BB7F2C4E024F0C955CBD2C52E58D0C8F
:103DF000DC96EC0C1B2FDC2CAD92382D6A2B080DB9
:103E0000E458690D23E1592DF8BFAB0D3F069B2DFA
:103E1000B175FA2D76CCCA0DDD0E332E1AB7030E0E
:103E200094C4620E537D522E8823A00E4F9A902E7A
:103E3000C1E9F12E0650C10EB0ED250F7754152FB4
:103E4000F927742F3E9E440FE5C0B62F2279860FC6
:103E5000AC0AE70F6BB3D72FBDD578307A6C48101A
:103E6000F41F291033A61930E8F8EB102F41DB308E
:103E7000A132BA30668B8A10D0366E11178F5E3140
:103E800099FC3F315E450F11851BFD3142A2CD11DA
:103E9000CCD1AC110B689C31A0AA651267135532C6
:103EA000E96034322ED90412F587F632323EC6125A
:103EB000BC4DA7127BF49732CD4973330AF04313FC
:103EC00084832213433A12339864E0135FDDD033C6
:103ED000D1AEB1331617811340927214872B42343E
:103EE00009582334CEE1131415BFE134D206D1149E
:103EF0005C75B0149BCC80342D716435EAC85415C0
:103F000064BB3515A3020535785CF715BFE5C735E9
:103F10003196A635F62F96155DED6F369A545F16DD
:103F200014273E16D39E0E3608C0FC16CF79CC3629
:103F3000410AAD3686B39D16300E7917F7B749376B
:103F400079C42837BE7D18176523EA37A29ADA1795
:103F50002CE9BB17EB508B3780E35C18475A6C3861
:103F6000C9290D380E903D18D5CECF381277FF18DD
:103F70009C049E185BBDAE38ED004A392AB97A1907
:103F8000A4CA1B1963732B39B82DD9197F94E93949
:103F9000F1E78839365EB8199D9C413A5A25711A65
:103FA000D456101A13EF203AC8B1D21A0F08E23AC9
:103FB000817B833A46C2B31AF07F571B37C6673BF3
:103FC000B9B5063B7E0C361BA552C43B62EBF41B15
:103FD000EC98951B2B21A53B7DA4563CBA1D661C75
:103FE000346E071CF3D7373C2889C51CEF30F53CED
:103FF0006143943CA6FAA41C1047401DD7FE703DB7
:10400000598D113D9E34211D456AD33D82D3E31D58
:104010000CA0821DCB19B23D60DB4B1EA7627B3E1C
:1040200029111A3EEEA82A1E35F6D83EF24FE81E98
:104030007C3C891EBB85B93E0D385D3FCA816D1F32
:1040400044F20C1F834B3C3F5815CE1F9FACFE3FE4
:1040500011DF9F3FD666AF1F00040080340400804C
:1040600010040080040400803804008014040080E0
:104070000857008440570084005700840C57008480
:104080004457008404570084080400803C040080E6
:104090001804008000000000505700840000000059
:1040A00000F0008000F0008000F0008000000000C0
:1040B000000000000000000020205155414C434FFB
:1040C0004D4D2041524D505247204964656E7469F0
:1040D0006669636174696F6E20426C6F636B002068
:1040E000202020436F6D70696C65642041707220E0
:1040F000313420323030362031373A35383A3331A6
:10410000002020202056657273696F6E203D3D208F
:1041100030372E30312E303100202020204E5052AA
:1041200047363535302E48455820666F72204D533E
:104130004D36353530204F4E4C59202D20554152AB
:104140005420616E642055534220666F7220382FD0
:1041500031362D626974204E414E442044796E619F
:104160006D69632044657465726D696E6174696F11
:104170006E0020202020436F707972696768742078
:104180002863292032303036206279205155414C45
:10419000434F4D4D2C20496E636F72706F72617486
:1041A00065642E20416C6C205269676874732052DC
:1041B000657365727665642E002020456E64206FFD
:1041C0006620494420426C6F636B000001000000D0
:1041D000B4338000D2338000CD1B8000C51C80002A
:1041E000E11D8000C51C8000691E8000C51C800088
:1041F0007D1E8000C51C8000291F8000C51C80001A
:104200008D1D8000C51C8000C51C8000C51C800061
:10421000C51C8000C51C8000451D8000C51C800099
:10422000D91C8000C51C8000811B8000C51C80003B
:1042300002000000C928800005268000192A80009D
:10424000CD298000FD29800001098000412A8000DD
:1042500000C201000000080000000000192E8000CC
:10426000612A8000DD2B8000450980002530800018
:10427000B8408000DF40800001418000194180008B
:0842800072418000B941800089
:040000030080000079
:00000001FF
