:0200000400807A
:10000000F4109FE5F0209FE5EC309FE5E8409FE588
:10001000E4509FE5E0609FE5DC709FE5D8809FE5B8
:10002000D4909FE5D0B09FE5CCC09FE5C8D09FE5B8
:10003000C4E09FE500000FE1801080E301F021E1C2
:10004000D7F021E3B4D09FE5DBF021E3B0D09FE50A
:10005000D2F021E3ACD09FE5D3F021E3A8D09FE517
:10006000A8009FE5010010E3A4E09F15A4E09F0510
:1000700010FF2FE1784700009C009FE5010010E38E
:1000800098E09F1598E09F0510FF2FE1784700004A
:1000900090009FE5100F01EE100F11EE400D80E370
:1000A000100F01EE80009FE510FF2FE1DEEEDEEE87
:1000B000784700000220A0E3101E10EE021001E0BD
:1000C000000051E3FBFFFF1A100E01EE1EFF2FE1AF
:1000D000784700000120A0E3101E10EE021001E09E
:1000E000000051E3FBFFFF0A100E11EE1EFF2FE18F
:1000F000784700000070A0E117FF2FE1EFBEADDEF2
:10010000FC968000FC978000FC958000FC8D8000B0
:100110001D0580007500800078008000792880002F
:100120008D00800090008000780005005927800035
:1001300078470000030051E1020050011EFF2FE14B
:1001400010B4042A0ED3031C0B439B070AD108C822
:1001500010C9A34202D1043A042AF8D2A34201D022
:1001600004380439002A02D1002010BC7047D3079C
:1001700001D5013205E003780C7801310130A3424A
:1001800007D103780C7801310130A34201D1023A42
:10019000F1D1181BE9E7000078470000030052E3A3
:1001A0003E00009A03C010E20800000A0130D1E4CA
:1001B00002005CE30C2082E001C0D1940130C0E475
:1001C0000130D134042042E201C0C0940130C03477
:1001D000033011E21E00000A042052E22F00003A10
:1001E00003C031E7020053E30800000A0F00008A51
:1001F0002C34A0E104C0B1E5042052E20C3C83E1C0
:10020000043080E4F9FFFF2A011081E2230000EAB4
:100210002C38A0E104C0B1E5042052E20C3883E19F
:10022000043080E4F9FFFF2A021081E21B0000EA9B
:100230002C3CA0E104C0B1E5042052E20C3483E17F
:10024000043080E4F9FFFF2A031081E2130000EA82
:100250007847000010402DE9202052E20500003AC6
:100260001850B1281850A0281850B1281850A028AC
:1002700020205222F9FFFF2A02CEB0E11850B12807
:100280001850A0281800B1481800A0481040BDE838
:1002900002CFB0E104309124043080241EFF2F01EE
:1002A000822FB0E10120D1440130D12401C0D124FA
:1002B0000120C0440130C02401C0C0241EFF2FE132
:1002C000031C0B439B0770B40FD1104CE60102E0F6
:1002D00004300431043A042A07D303680D68AB42A2
:1002E00003D11D1B9D433540F2D0002A02D10020CE
:1002F00070BC704703780C7801310130012B03D3B7
:10030000A34201D1013AF5D1181BF1E70101010126
:1003100010B5214CFF21E0690131422822D010DCC8
:1003200020282FD006DC012828D00A2830D100F060
:100330005FFD2EE040281ED0412829D100F0B0FFFB
:1003400027E0452814D006DC43280ED044281FD1CE
:1003500000F0DCFE1DE0482817D04C2818D100F032
:100360008DFE16E001F014F813E000F0CFFF10E06E
:1003700000F03AFE0DE000F011FF0AE0074801F03E
:10038000DBFD06E000F0EEFC03E001F085FE00E09E
:10039000081CE06110BD0000904F8200183A8200F6
:1003A000F7B55C480E1C0068151CC06884B0804717
:1003B000594B9969002963D0DC69002C0AD108687F
:1003C0009861D961002008601962049A4A608E60C1
:1003D000CD6099E01F1C206802E00268041C101C1C
:1003E000002814D08268B242F7D38268B24248D162
:1003F000027C012A44D0C268AA4241D3AA4233D126
:10040000049A42608660C5600122027480E0A068A0
:10041000E2688018B04206D108683B1CB8612160D0
:1004200000240C606BE00290301A0190011C0298CD
:1004300002F030FC002823D0BA693B1C11680F6819
:100440009F612260116000240C60506002989060EF
:100450000198D0601474586A049A01304A608E6022
:10046000CD6001220A7451E00A683B1CBA61216028
:100470000860C268521BC2608268521982603EE006
:100480002AE0227C012A27D0A2680392E3689E46D4
:10049000D21873199C469A4229D90F681E4B3A68A4
:1004A0009A61039A7346B21AE26052199A1AFA6074
:1004B00021600F6038600498174B48608E60CD60F3
:1004C00001200874586A013058626046B860F968C3
:1004D00002F0E0FB002802D1002007B0F0BD7860F8
:1004E00000200D493874486A0130486210E00A68FB
:1004F0003B1CBA6121600860E068401BE060049822
:1005000048608E60CD6001200874586A01305862DE
:100510000120E2E7F84D8000B44F820070470000F0
:10052000F7B515480C1C0068161CC0688047134FAF
:10053000F86900280ED1B96A0123651A2A1C02F055
:100540002FFB002806D03868B96A2A1CFFF728FF5D
:1005500000280DD00023321C211C009802F020FB43
:10056000002805D0321C211CFFF71AFF002801D1FA
:100570000020FEBD0120FCE7F84D8000B44F820052
:10058000FFB58C4600210D1C0C1C96460F4F002217
:1005900081B0835CFB5C9E06B60E74405B0606D59C
:1005A00013061B0E5940DB435D402D062D0E013214
:1005B0001204120C802AECD373466246281C02F007
:1005C000E9FE0498047005B0F0BD0000EC44800022
:1005D0000549322201E00A6232383228FBDC002869
:1005E00000DD08627047000000020080B0B5084DD1
:1005F000064C281CE18800F049F8E1886854000A9C
:100600006A185070881CE080B0BD0000FC97800024
:10061000602E8200F8B50524184BE4011B195B6BB2
:100620001C1C54434B4325181E1815490120C86053
:10063000C24207D0114C80342069291C426B90477C
:10064000012801D10120F8BD20690E4F036B3A1C2F
:10065000291C984700280C4D01D00B2007E0206989
:100660003A1C436A311C9847002803D00A20A8612D
:100670000020E8E702490120C860E3E74437820030
:1006800000540080EC3C8200904F820030B50C4D4D
:100690000A4A07E0037853401B06DB0DEB5A120AA7
:1006A0005A4001304B1E1B041B0C0C1C191C002C47
:1006B000F0D1D0430004000C30BD0000FFFF00006B
:1006C000EC45800030B5D2431204120C0A4D07E00D
:1006D000037853401B06DB0DEB5A120A5A400130D7
:1006E0004B1E1B041B0C0C1C191C002CF0D1D043FE
:1006F0000004000C30BD0000EC45800070B50D4ECC
:100700000125F5600C4C0020022103C4083CE06088
:10071000A16020616061216A08700A20E061FFF732
:10072000F7FDF560E069002801D0072070BD0020CA
:1007300070BD000000540080904F820070B50E1C08
:10074000051C141C23490120C86002F089FB2249C2
:100750000020086048608860C86008614861081C23
:1007600005620121490202200322072E1B4D2DD2D2
:1007700001A39B5D5B009F442903090D111A290009
:10078000002C01D028700CE0412017E0002CF9D19A
:10079000422013E0002CF5D143200FE0002C02D1C1
:1007A0002A70072070BD8C4205D8442006E0002C3A
:1007B000F6D08C4201D90120E4E745200649C86102
:1007C000FFF7A6FD0448C069002801D00420D9E73E
:1007D000002070BD00540080904F8200009880007F
:1007E000B0B5144A0125D560134C00222260626026
:1007F000A260E26022612062A16162614020E0614A
:10080000FFF786FDE069002811D0A0690B4909288F
:1008100007D0232803D0282805D1022004E00D703A
:1008200003E0032000E0042008700720B0BD002092
:10083000B0BD000000540080904F8200FF97800000
:1008400070B50025002304E0CE5C2C1C013501337B
:1008500006559342F8DB002070BD00000C4A10B52D
:100860000121D1600B4C002121606160A160E16039
:1008700021616161226A1170A0614820E061FFF787
:1008800047FDE069002801D0072010BD002010BD01
:1008900000540080904F820080B502F053FC002885
:1008A00001D1072080BD002080BD0000F8B5114FA8
:1008B00000240126FE60104DA8680106090E12E012
:1008C000E8680006000E4906490F06D0302028616E
:1008D0001020286128612E6101E002F00DF8A8685F
:1008E0000106090EFE60201C0134802801DAC807C9
:1008F000E6D4F8BD0054008000400080F8B54948B7
:100900000122C2604849496AC90772D5474902268F
:100910004E600121C1604548403081684A0704D5D6
:1009200004210160052181608168090761D5016B9F
:10093000446B0C40046308218160A00701D503F0DB
:100940009DF8E00706D501220121002002F07EFF7C
:1009500002F04EFE364DD12000012F18BD7B6800FD
:100960008640311C324E201C08400C3E00281BD013
:100970000121281C02F0DCFFC068C002C00A002868
:1009800010DC0121281C02F019FF0121281C02F0B3
:1009900039FF00220121281C02F058FF0121281CE8
:1009A00002F0FAFE00203070F87B0121204D420059
:1009B00091400C4001D0B16871603178002918D1A4
:1009C0007168371C002914D0002102F0B1FFC06803
:1009D0000922D201101A0604101C1549683808189B
:1009E000B968360C884201D112482818011CB86039
:1009F00000E016E0042003F071F8002E11D00D2065
:100A0000000200242D1807E0688B411C6983796877
:100A1000085C01F071FF0134B442F5DB002068830B
:100A20007860F8BD00540080400D008000200080F8
:100A3000981B870098080000F8B50521C901051C1E
:100A40004018066B11480127C760002417E00F48C3
:100A5000C7600F480068C0688047211CEA69281CED
:100A60009047831C0AD0211CAA6A281C90470028A2
:100A700004D00849092088610020F8BD0134B4423F
:100A8000E5DB0248C7600120F7E700000054008062
:100A9000F84D8000904F8200F8B52F4E0120F06095
:100AA0002E4FF86802F014FA2D492D4C486090340E
:100AB0002069391C826AC96890470028294D01D0F5
:100AC000092031E0244E0120F060022603E0042ECC
:100AD00008D0072E06D0F9683A69301CFFF79AFD56
:100AE00001282ED10136082EF1DB1D480521C90150
:100AF00010304618194F706BF9681B4A4843011DA6
:100B00002069436A984700280DD1134F0120F860EF
:100B1000706B124EF1684843411C2069436A726849
:100B20009847002802D00A20A8610AE00124FC604E
:100B300001F034FE002804D0FC6002F0CFFC012854
:100B400001D00020F8BDFC603069F168F0603161CF
:100B5000FC600120F6E70000005400808C4D80000E
:100B600034378200904F8200EC4C8200F8B53E4D45
:100B70000120E8603D4C3E4F2069826AF968904749
:100B800000283C4E02D00920B0614AE0364D0121D8
:100B9000E9600425F9683A69281CFFF73BFD012844
:100BA0003FD10135082DF5DB30480521C9018038DA
:100BB00045182F4F686BF968102248432F49871C4E
:100BC0002D4801602E4941600121816027499039FB
:100BD00009680C30FFF7E2EA2069274A436A391CAA
:100BE00098470A2700281BD11F490120C8602049C7
:100BF000686BC968234A4843C11C2069436A984707
:100C000000280DD118490120C860194A686BD168C5
:100C10004843411C2069436A52689847002801D024
:100C2000B76106E0104E0125F56001F0B7FD002820
:100C300001D10020F8BDF560134F0C4C1022391C77
:100C4000903C2068FFF73CFB002803D10E480C3095
:100C5000206000E02760064A1069D168D060116109
:100C6000F5600120E6E7000000540080C4378200F0
:100C70008C4D8000904F8200EC3C82009C120FFA59
:100C8000C9B68F5AEC4A8200BC418000044980B545
:100C90000220087003490020086002F0E1F880BDDE
:100CA000884D8000A0368200024880B50068016847
:100CB000884780BDA0368200F8B50B4C002520681F
:100CC0000A4E00280ED10021271D381C00F054FCCC
:100CD000002805D12760002F04D101203070F8BD15
:100CE0002560FAE73570FAE7A0368200884D80006B
:100CF000F8B5051C00201A4F00903868C168884775
:100D0000041C386801698847061C386841698847AF
:100D100001E064107600C82CFBDC46430098321CCE
:100D2000411C2C542004030E6B54130E9C461302DA
:100D30001B0E9E461304481C00211E0E17063F0E74
:100D40000AE0421C2F54AE54501C73462B54421CD4
:100D5000501C6346AB540131A142F2DBF8BD0000E8
:100D6000A0368200F8B51D490120C8601C4F3868C4
:100D7000C068804700211B4C201C00F0FDFB1A4975
:100D8000002806D1201CCC6006D1184902208861B9
:100D90001BE00020C860F8E70D1CC1688847061CEE
:100DA0000024012715E00D48C7600D480068C068A1
:100DB0008047E868211CC2699047831C08D0E86816
:100DC000211C826A9047002802D0FF200130F8BD24
:100DD0000134B442E7DB0020F9E700000054008052
:100DE000F84D8000EC4E820034378200904F820034
:100DF000F8B51D4D0120E8601C4F0520C0013918D1
:100E00004869EC0D002811D08A6B101AFF2306E008
:100E10004A69561CD21990324E611371013800286C
:100E2000F6D1381C02F06AFF002818D00126EE60C7
:100E30000F4D28780B2812D201A31B5C5B009F4446
:100E40000E0E100E1010050A0E0E1000FFF78EFE8B
:100E5000002806D103E0FFF71FFE002801D1201C67
:100E6000F8BD2E700020FBE700540080183A820085
:100E70008C4D8000F8B5FF27061C0C1C151CD007F4
:100E80004F7105D5A31C621C211C301CFFF778FB99
:100E9000A80706D5A31D221DE11C301C8030FFF7DA
:100EA0006FFB680708D5231C0933301CFF305A1E1E
:100EB000E11D0130FFF764FB280708D5231C0C3324
:100EC0005A1E301CFF30511E8130FFF759FB6773EB
:100ED000A773E773F8BD0000BFB50D1C041C1022FA
:100EE000011C6846FFF75AE901204002854219D1EA
:100EF00000AB5878207018786070D878A070987817
:100F0000E07058792071987AD97A08406071187920
:100F1000A071D879E07198792072587A6072187A45
:100F2000A072BFBD00AB1878597808402070D878FF
:100F300060705879E070D8796071587AE071D87A29
:100F400060725878E072ECE70122D202914230B52B
:100F50000BD142780178027082784270C278827038
:100F60000279C27042790271417101784278C37886
:100F700009041202114382781B02C479114312043E
:100F80001A4303792402457A1A4383792D02090909
:100F90001B042343047A234324042C43857A1B092E
:100FA0002C438D0B05708D042D0E8906890E45701E
:100FB00081701103890EC1709104090E01719106AF
:100FC000890E8171990BC1719904090E01729906FC
:100FD000890E41722103890E8172A104090EC1722A
:100FE000A106890E017330BDF8B51D4F0126FE60C4
:100FF0001C48340280681C4D002801D1242018E0D0
:1010000001F058FC012825D1184801F06BFB01289C
:1010100001D027200DE00126FE60154E0021301C76
:1010200000F0C8FB0521C9017118C861431C02D139
:101030000320A8610EE00126FE6072020D48296AB5
:10104000FFF7ACE80C4907200870094801F02EFDB5
:10105000002801D1201CF8BDFE600020FBE7000045
:101060000054008034378200904F8200DC418000C1
:10107000183A8200EC4C82008C4D8000F8B51D4E71
:101080000127F7601C48F40D80681C4D002801D131
:1010900024201DE001F00EFC012825D1184801F0A4
:1010A00021FB012801D02D2012E00127F760154F08
:1010B000381CFFF7C1FC012816D10021381C00F0B4
:1010C00079FB0521C9017918C861431C02D10320AD
:1010D000A86109E00125F5600B490A200870381C59
:1010E00001F0E4FC002801D1201CF8BDF5600020CF
:1010F000FBE700000054008034378200904F8200EC
:10110000D4418000183A82008C4D8000F8B51D4F04
:101110000120F8601C4EFC0DB0681C4D002801D168
:10112000242018E001F0C6FB012825D1306801F029
:10113000D9FA012801D026200DE00126FE60144EC8
:101140000021301C00F036FB0521C9017118C8616F
:10115000431C02D10320A8610EE00126FE6072024A
:101160000C48296AFFF71AE80B490620087008485E
:1011700001F09CFC002801D1201CF8BDFE6000207D
:10118000FBE700000054008034378200904F82005B
:10119000183A8200EC4A82008C4D8000F8B5374F37
:1011A0000120F8603648FE0D006A3649431C01D123
:1011B0002C203BE033490C6A33492068884209D12E
:1011C00032496068884205D1A068012802D1E068F0
:1011D000102801D9282028E02D4D2869002815D194
:1011E0002B4F0021803F381C00F0C6F9002801D1A8
:1011F0002F6101E0002028612869002801D1022028
:1012000013E0381C01F026FA012826D11B4F0120DB
:10121000F8601F4910208039086628691E491D4A58
:1012200000F07AFA431C03D122201649886114E0A9
:101230001348C1684B1C09D10069431C06D1012029
:10124000F86001F0B7FE002809D106E00120F8603F
:10125000201C01F0E1FE002801D1301CF8BD012561
:10126000FD60FF22D132211C0C48FEF7F4EF084844
:1012700090388560FD600020F0E700000054008099
:101280008C4D8000904F8200AA73EE55DBBD5EE36B
:10129000C43782009C4D8000984D8000EC42820053
:1012A000F8B5154F0126FE6001F004FB3402012859
:1012B0001AD1124D281C01F0CDF9012814D1104883
:1012C0000168281C00F076FA0521C9016918C86177
:1012D000F04203D10B490320886105E0FE60281C21
:1012E00001F0E4FB002801D1201CF8BD06490220D2
:1012F0000870FE600020F8E700540080183A820071
:101300007C4F8200904F82008C4D8000F8B51A4EC1
:101310000127F7601948F40D8068194D002801D1A4
:10132000242018E001F0C6FA012820D1154801F068
:10133000D9F9012801D025200DE00127F760124FCF
:101340000021381C00F036FA0521C9017918C8615E
:10135000431C02D10320A86109E00125F5600B4977
:1013600005200870381C01F0A1FB002801D1201CC9
:10137000F8BDF5600020FBE70054008034378200A0
:10138000904F8200E4418000183A82008C4D80002A
:10139000F8B5154F0126FE6001F08CFA34020128E1
:1013A0001DD1124D281C01F055F9012817D1104804
:1013B0004168281C00F0FEF90521C9016918C861BF
:1013C000F04203D10B490320886108E0FE600A491E
:1013D00004200870281C01F069FB002801D1201CA2
:1013E000F8BDFE600020FBE700540080183A820040
:1013F0007C4F8200904F82008C4D80000020C043C3
:1014000070470000016EC06D081A7047C06E7047CB
:10141000064902204861054880308068800703D56E
:1014200003490120C860FDE7704700000004008008
:1014300000540080F0B50F1C0169051C002485B024
:101440008847061C6969281C8847039080204059FA
:101450000290286EE96D401A7043B84202D8E0430A
:1014600005B0F0BD34490120086001F097FB334A14
:10147000916A334B194001319162002801D101F08A
:101480008BFB00220298039900F020FC0190E86D8C
:1014900070432A4EC01940020490306000F054F8A6
:1014A0000025254F11E0FFF7B3FF0320706000F027
:1014B0003FFC7868012801D100F064FCB068882105
:1014C000084001D00024E443013578688542EADB16
:1014D0007868042801D100F055FC002C18D104983C
:1014E0000199E44340183060FFF792FF02207060DA
:1014F00000F01EFCB0681349084009D1706A00046E
:101500000299000C022902D1210C814300D0002451
:10151000FFF77EFF0720706000F00AFC01F03EFB41
:10152000B16A074B1940B162002801D101F034FBC8
:1015300000203860201C93E78417870000030060B8
:10154000FE0F000048000080054901204861044961
:1015500080318968C90702D50249C860FDE7704734
:1015600000040080005400800020C0437047000049
:10157000C06F7047406E7047F3B589B00221071CF9
:1015800000200791444902900125002401200860B1
:1015900000F09CFA20221101012000F099FAFFF7D7
:1015A000D3FFFFF735FF3D4E002070603C480068D8
:1015B000B0623C48006830633B480068F06101F06D
:1015C000EDFAB16A394A1140B162002801D101F047
:1015D000E3FAFFF71DFF314E0720706000F0A8FB13
:1015E00006A905A800F01AF93149A0000B58059981
:1015F000069A381C9847061C46D1391C80310A9837
:10160000089188600868244A0490386F0104090C26
:101610000391F86E490A0404B86E51600399240CD2
:101620006143CA17920D51188912414321A08F0AB4
:10163000002101910CC8381CFEF77CED06D80199F9
:10164000029703E001352D0464082D0C022CF9D11A
:101650000899CD6004980399029A00F039FA00289D
:1016600003D00020C0430BB0F0BD0D4801680B480B
:1016700081620C49096801630B490968C161064A26
:1016800000201060301CEEE7079801348442ABDB89
:10169000014900200860E4E7841787000003006028
:1016A000581787005C17870060178700FE0F00003F
:1016B000B84D8000FFFFFFFF0000000070B5C26D55
:1016C000036E0024E4439B1A8B421DD9104E012364
:1016D00033608030C068511809300E4D8140296058
:1016E000FFF732FFFFF794FE0420686000F04AFB2A
:1016F000FFF78EFE0620686000F01AFBA868002144
:1017000031608821084001D0201C70BD002070BDD0
:101710008417870000030060F7B50D1C0024161C19
:1017200086B00494002703AA211C069800F01CF937
:10173000012807D101900594C02C11DD0020C04381
:10174000306020E00134C02CF8DCECE702AA211C58
:10175000069800F009F9012802D10127049402E05B
:101760000134C02CF2DD01983843E7D001980028FD
:1017700003D0002F09D1059C02E0002F05D0049C66
:101780000020C0433460286011E003980299884229
:1017900003D10020C04309B0F0BD884203D9059CA5
:1017A0003460049C02E0049C3460059C2C600020A2
:1017B000F1E70000FEB5061C002002900F1C00247B
:1017C000E543F168301C88470190874218DC0CE043
:1017D000211CF269301C9047831C05D00135BD42A5
:1017E00002D10120029000E001340198844204DA21
:1017F0000298002801D1BD42EADB0198844202DB55
:101800000020C043FEBD201CFCE700000122520264
:10181000914201D1052070470020704770B5051C2A
:101820000E1CFFF7F5FD094C0520606000F080FA02
:10183000FFF7EEFD0620606000F07AFA206A0104EE
:10184000090E0006000E2960306070BD00030060C4
:10185000FFB585B002920F1C016F3E4E0091B16A38
:10186000051C01243C4A11400131B16201698847DD
:10187000E96D4843C01940023060281C8030049054
:1018800000980021400A0390019157E0FFF7C0FD46
:10189000304D0120686000F04BFAA868000701D4C1
:1018A000002C01D1002446E001990F208900089AFC
:1018B00088400240CA40151C38D0284E2A1C311CD2
:1018C0000298FFF7D7FA2648244F0FC810370FC7E2
:1018D0000498103F0068022803D1381C0099FFF7D4
:1018E000FBFA381C0099FFF72FFB0022281CD04080
:1018F000C00718D51B4E5100705C002389194E7823
:101900000FE01649154F095C10373F5C794007D04E
:10191000002B02D14B1E194001D0002403E001230B
:1019200001308642EDD20132042ADFDB0121029828
:1019300049024018029001990131019103980199DF
:101940008842A3D8034DA86A034A1040A862201C0D
:1019500009B0F0BD00030060FE0F000064178700AF
:1019600000020060B04D8000F7B5C269041C0D1C78
:101970009047831C36D02169201C88474543626B01
:101980006E1C291C201C904700282BD1194F291CA4
:10199000236B3A1C201C9847002823D1164938682D
:1019A00088421FD11549786888421BD1B868012840
:1019B00018D1311C626B201C9047002812D1104DA9
:1019C000311C236B2A1C201C984700280AD10D4982
:1019D0002868884206D10C496868884202D1A86804
:1019E000012801D00020FEBDF8680299086001209E
:1019F000F9E700008C198700AC9F56FE7A127FCD64
:101A00008C178700AA73EE55DBBD5EE3F3B5016961
:101A1000051C012481B08847071C286EE96D21262A
:101A2000411A794302983601814201D80020FEBD57
:101A300022490120086001F0B1F8214A916A214B46
:101A4000194001319162002801D101F0A5F8E86D3B
:101A5000029978431A4F401840023860002519E077
:101A6000FFF7D6FC0120786000F062F9B868000743
:101A700001D500240DE000200322520705E0811863
:101A800009684B1C00D000240430B04201D2002C65
:101A9000F5D10135094840688542E1DB01F07EF867
:101AA000B96A084B1940B962002801D101F074F8F5
:101AB000024900200860201CB9E700008417870055
:101AC00000030060FE0F0000806F70477047000049
:101AD000094810B5816A0B05084A1B0D1360016B9C
:101AE0008C00A4085460C1694906490E9160836264
:101AF0000463C161002010BD000300605817870017
:101B0000F3B5FFB084B0C56D066E041C10202066CE
:101B10000020E065201C81AA82A9FFF7FDFD0027B7
:101B2000FF43B8423ED08198B8423BD080902169B3
:101B3000201C8847809A236B50436A46011C201C56
:101B40009847002807D119490098884203D11849BD
:101B50000198884201D0381C00E00398431C21D032
:101B60002169201C88478199236B4843114A411CF5
:101B7000201C9847002815D10E490F4A086890424A
:101B800010D10E4A486890420CD18868012809D1CA
:101B9000201C849A00F0AEF8012803D100207FB009
:101BA00006B0F0BDE5652666381CF8E7AC9F56FE2A
:101BB0007A127FCD8C178700AA73EE55DBBD5EE3EA
:101BC000006F7047F7B584B0049D2969281C8847C9
:101BD000031C0698012149020026019602910390F8
:101BE000286EED6D059A411B59430024E043914254
:101BF00056D9314901220A605D43059BEB185D020D
:101C00002E4B1D60002736E00025FFF701FC2B4816
:101C10000123436000F08CF8284880682849731C31
:101C200023D0014015D0400642D50020234901238E
:101C3000002837D0012837D0022837D0032800D118
:101C40008C69002C02DA1A1C8240154301300428EA
:101C5000EEDB002E09D1032149070398029AFEF713
:101C60009EEA0398029940180390B80085400198B5
:101C7000284301900137104840688742C4DB731C39
:101C80000AD00198002807D004AA07CA019BFFF7D1
:101C9000DFFD002800D1C643074900200860301C42
:101CA00007B0F0BDCC68CCE70C69CAE74C69C8E75F
:101CB0000026F643D9E70000841787000003006080
:101CC00048000080803041607047000030B5051C3E
:101CD000141CFFF79BFD0549022D03D141180C7020
:101CE0004C7030BD41180C7030BD00000002006027
:101CF000406F704770B5041CE56D081C111C266E02
:101D000000F0BEF800280ED00169E16541694B1C66
:101D100001D1A06E01E0006940182066A16E8842E2
:101D200001D8012070BDE5652666002070BD000069
:101D300070B5114D0024A8688007800F0F4E06E093
:101D400001340120FEF744FCA8688007800F80075B
:101D500001D4B442F4D30849022080394861A8680C
:101D600082070121002A064801DAC160FDE7B4427A
:101D700001D3C160FDE770BD80040080581B0000E6
:101D80000054008070B5124D0024A8688007800FB1
:101D9000104E06E001340120FEF71AFCA868800707
:101DA000800FC00701D4B442F4D30949032080391D
:101DB0004861A8688207920F0121002A064801D0D5
:101DC000C160FDE7B44201D3C160FDE770BD000012
:101DD00080040080581B000000540080F7B50169A2
:101DE000151C061C8847F16D326E019B521A424346
:101DF00001277F0200249A4201D8E043FEBD1E4B1A
:101E000001221A60019B41431C4AC818400210601D
:101E1000FFF79AFB002616E0002C06D13A1C291C7D
:101E200003204007FEF7BAE9ED19FFF7F1FA13496D
:101E300003204860FFF77CFF10498868000701D540
:101E40000024E44301360C4840688642E4DBFFF797
:101E500099FFFFF7DDFA094D06206860FFF768FF7C
:101E6000A8688821084001D00024E44302490020EA
:101E70000860201CC2E70000841787000003006090
:101E8000F3B5061C002481B0C7680CE01C20604339
:101E9000029985191035281C00F00AF8002801D095
:101EA000281CFEBD0134BC42F0DB0020F9E7000035
:101EB00080B51022FEF704FA002801D1012080BD70
:101EC000002080BDF3B5051C006881B00299096847
:101ED000884229D1686802994968884224D1A86853
:101EE0000299896888421FD1E8680299C9688842C6
:101EF0001AD100241BE01C206043029947194618A0
:101F0000311C1031381C1030FFF7D2FF00280BD0E5
:101F1000386A316A884207D1786A716A884203D187
:101F2000B86AB16A884201D00020FEBD0134E86879
:101F3000A042E0D80120F8E7F1B5554F84B0012068
:101F4000F8605449C8680A6A16180A6910180A68BD
:101F50004969801A0D042D0C411901910521049B3A
:101F6000C9015C18A16A002902D101216062A16245
:101F7000474F0121F960616A814237D0421A171C2C
:101F80008142029228D9192017E0A06B6169401A9A
:101F9000B84200D3381CFF2208E06169013F4B1CA6
:101FA0006361049BC91890310A7101380028F4D18B
:101FB0006069A16B884203D91A203649886160E0C4
:101FC000884209D132490120C860049801F096FE88
:101FD000002856D000206061002FD6D10B20049B32
:101FE000800118188168029A89188160284F0120A1
:101FF000F8600499943103913BE0A06B6169471A42
:10200000AF420BD9606904992A1C40189430311CE6
:10201000FEF7C4E86069401960612CE0AF4206D168
:10202000002904D0049BC81894302A1C07E0AF4252
:1020300010D200290ED0049BC81894303A1C311CD1
:10204000FEF7ACE8F619E81B05042D0C00200399F7
:10205000606104E0311C8619281A05042D0C0C4F10
:102060000120F860049801F0D5FD002809D0012076
:10207000F860002DC1D1019961626069A16B88424D
:1020800003D9FF20013005B0F0BD0020FBE70000C0
:1020900000540080904F8200B0B5104C104A0120CF
:1020A000A169D060FF30002903D0012901D02A2185
:1020B00006E00C4D2A6A531C06D08A4202D02B211E
:1020C000A161B0BD0020B0BD081C2962064900F026
:1020D00051FF011CFF390139B0BD0000904F820053
:1020E000005400808C4D80007C4F8200F8B5214F59
:1020F0003868C0688047386801697E2088470125B4
:1021000000241FE01F20A04302D13868C068804728
:102110001948065D7E2E01D07D2E0CD138680169EC
:102120007D20884720203968464030060969000E26
:102130008847023505E0386801693006000E884797
:10214000013501340D48C0888442DBDB3868C06843
:102150008047386801697E208847681C800607D15F
:10216000386801697E208847386801697E20884781
:10217000F8BD0000F84D8000602E8200FC978000C2
:10218000B0B5041C17480068C0688047164DEA695E
:10219000002A25D09168101CA1420BD10168E96189
:1021A000002900D12962A9690160A861696A013921
:1021B0006962B0BD0068016802E00B68081C191C68
:1021C00000280DD08368A342F7D10168A969016096
:1021D000A861696A01396962002AEAD12A62B0BD40
:1021E0000020B0BDF84D8000B44F820010B50E4CF9
:1021F000A078002802D10D490F2005E0FEF77EFAF5
:10220000002804D00949283101F0F6F80AE000203E
:10221000A0700749162008700120E080FEF7E6F95B
:10222000FFF764FF002010BDFC9780005040800045
:10223000602E8200F8B5041C39480078002838D197
:102240002022E01D3749FDF77BFF002802D03549E9
:10225000913106E0261C2036307A022803D231491B
:10226000A931052028E0A088242803D22D49C531B2
:10227000032021E02C48002505702C4F294902201D
:10228000387020222131781CFDF788EF3C1C203467
:10229000032060700220A070E57004202071657139
:1022A000A571E57125726572A572FEF7FDFC051C2E
:1022B00005D11C497531082001F09EF82EE0281C3C
:1022C00000F0EEFA0206120E381C291C2C30E272C5
:1022D000FDF764EFE07A642200252C30411C3A546B
:1022E0004C1C38197D54FEF703FD727A0119092040
:1022F00002407A54481C0E49C8800121C902884214
:1023000008D90849ED31072001F076F80949012084
:10231000C860FDE7FEF76AF9FFF7E8FE0020F8BDA8
:10232000884D80005F3E80000C4D8000602E820052
:10233000FC9780000054008080B50349052001F01F
:102340005BF8002080BD0000C43E800080B50349DA
:102350000E2001F051F8002080BD000018408000E0
:1023600070B5011CCC7989881A4D083002390A04ED
:10237000A968120C012901D0174904E0E968012974
:1023800005D015492C310F2001F036F81FE0211C33
:10239000FEF7D4F91C2302260028104A0ED0287913
:1023A0000D495C31042807D0012803D0022801D050
:1023B000032801D1137004E00720E5E7AC70137027
:1023C00000205070EE80FEF711F9FFF78FFE00201D
:1023D00070BD0000FC97800020418000602E8200CC
:1023E000B0B5011C8A881A4CC979023A1204A36854
:1023F000120C0830012B02D016490F2016E00123E1
:102400005B029A4203D91349343103200EE0FEF7F0
:10241000E7F902221A25002100280F4B0DD0E078A1
:10242000042806D1E1600B495431072000F0E4FF95
:102430000CE0E1601D70587003E00120E0601D7049
:102440005970E280FEF7D2F8FFF750FE0020B0BDD1
:10245000FC978000A4408000602E8200064980B571
:102460001220087005490120C8800549152000F098
:10247000C3FF002080BD0000602E8200FC9780001A
:10248000004080000E4810B58178002904D00D4925
:102490000F2000F0B1FF10E00C210B4A0124117055
:1024A000C480FEF7A3F8FFF721FE0848C46008487F
:1024B00000688068804700F0F1F9002010BD00003E
:1024C000FC978000B43F8000602E820000540080A2
:1024D000F84D800080B5C079FEF7C0F9002803D020
:1024E000084900F089FF0AE00121074A074B18203C
:1024F00091601870D180FEF779F8FFF7F7FD0020A2
:1025000080BD000088408000FC978000602E820023
:1025100010B5821D8088072801D01C4914E09178ED
:10252000507809020843D178090408431179090653
:102530000143507993791B021843041C0120800247
:10254000844205D911491831032000F055FF1AE0E3
:102550000F48042303705378437093788370D378C3
:10256000C370127902710530221CFEF769F9002848
:1025700002D006492C31E8E70649601DC880FEF705
:1025800035F8FFF7B3FD002010BD0000743F800058
:10259000602E8200FC97800080B50349052000F082
:1025A0002BFF002080BD0000D03F800010B5831DB0
:1025B000808899780538020458780902120C08437B
:1025C000D97809040843197909060843041C211C19
:1025D000581DFEF761F9002803D00C4900F00CFFEC
:1025E00012E00B48082101702104090E447081702B
:1025F0002102090EC170210E017106490520C88013
:10260000FDF7F4FFFFF772FD002010BDEC3F8000E6
:10261000602E8200FC97800010B5811D80880A2200
:102620000131013804040848240C0270221C0130D6
:10263000FDF7B4ED0549601CC880FDF7D7FFFFF733
:1026400055FD002010BD0000602E8200FC97800028
:10265000704700007CB5041C1E48062201684068D3
:10266000009101901C4869460068FDF798ED1B4EEB
:102670000120F060E168201C88470521C901651828
:1026800028632169201C884768636169201C88478A
:10269000A8632168201C88470B21890161184860C4
:1026A0006A6BA86B131C4343EB632B6B5343B20D54
:1026B00090420B6004D90A490620886100207CBD45
:1026C0000120F0600020A86208618860C86068612D
:1026D0000120F4E7B4418000F44D800000540080F4
:1026E000904F820070B50D4C021C0120E060E0604C
:1026F0000B4D90200B4940594968FFF7FBFA012820
:1027000006D10126E660281CFFF7A4FF012801D0AE
:10271000002070BDE660012070BD00000054008004
:10272000183A82008C4D8000B0B5084C2068804774
:102730000128074D05D1606880470028FBD02C6038
:10274000B0BD044C20688047F9E70000E04D8000F0
:10275000F84D8000C04D80008CB5684606220C49BB
:10276000FDF71CED0B48062269460068FDF716EDE3
:10277000FFF76EFFFEF78AFA07490120C860FFF7EE
:10278000D3FF00F0F1F8FEF797FA00F013F98CBDD3
:10279000103E8000F44D800000540080F8B53149AF
:1027A0002E4F0522D2010C1C386980348D18431C31
:1027B0002B4E07D12C49F86901602C494160012159
:1027C00081600CE0696B2A4A41432069036B98479A
:1027D000002801D00B2020E0F869C1680131C160F8
:1027E0001E48696BC0681D4A41432069436AD2692B
:1027F00098470A27002801D0B7610FE01D49012042
:10280000C860164801694B1C25D1416901612069E6
:10281000826A9047002803D00920B0610020F8BDEB
:102820000E490020CA69D0606D6B08694543206974
:10283000291C436A98470028DED10E490120C86050
:102840002069064A436A5268691C98470028D3D118
:1028500008490120C8600120E1E700008C4D80009C
:10286000904F820044378200AC9F56FE7A127FCD93
:10287000EC48820000540080054C0020054900E02F
:1028800001C48C42FCD304490120C8607047000099
:10289000F84D8000BC28870000540080FEE700004F
:1028A000011C002000E001300A780131002AFAD131
:1028B0007047000070B50D4D0124EC600C4E0021F6
:1028C000301CFEF759FE0A498031002801D10E6103
:1028D00001E0002008610869002804D105490220B0
:1028E0008861002070BDEC60012070BD0054008044
:1028F000183A8200904F8200B0B5184C002521692B
:1029000001312161216A00290BD16169002903D1BC
:10291000134801F05FFAB0BD21620A6862618D80E0
:102920000D607D2805D07E2806D100F019F92570AC
:10293000B0BD01202070B0BD216A0A4B8A889A423E
:1029400007D22378002B02D020235840257052183C
:102950009071888801308880B0BD0000FC978000AD
:10296000A43E80000704000070B500220E494124F7
:1029700001200A608A80240183011B181B015D1855
:102980002E1BCE5001306428AA80F5DB07480918B9
:10299000054824384161826102620270C2610449C3
:1029A0000120087070BD0000209880003092010066
:1029B0000C4D800070B5064E044D01243068C0688F
:1029C0008047EC6000F006F8EC60F7E70054008008
:1029D000F84D8000F8B52D4C2068C06880474DE068
:1029E0002B490120487020688861002800D1C86107
:1029F000002000270025206011E024480068C068FE
:102A00008047A088461B802E00DD80266019063096
:102A10003A1C3104090CFDF755FE071CAD19A088BE
:102A2000A842EADC1B48874203D01B4801F0D2F9D8
:102A300020E0A0880238A080A079411E1B2916D86A
:102A400016490978002901D0012810D114490978C4
:102A5000002904D01349082000F0CEFC0AE01249F6
:102A6000800040184038C16B201C884702E0201CC1
:102A7000FFF762FC0649486920604C6104498C6993
:102A8000002CADD100204870F8BD0000F84D80004A
:102A9000FC978000470F0000A04180000C4D800093
:102AA000884D8000D43E8000184D8000F8B5071C8A
:102AB000051C0B208001011C40397C183E1806E0E3
:102AC000F068E16B4018F060E0690130E061E169B5
:102AD000EA69281C9047831CF2D0206BE1691A4EEA
:102AE000814201D3082005E0AA6A281C90470028EB
:102AF00002D00920B0611BE0606BE16920624143B4
:102B00001248A16100780A240B2811D201A31B5C92
:102B10005B009F440D16161616050F1616161600A6
:102B20000B4A0C49381C01F0D9F8002809D1B461CE
:102B30000020F8BD084A0949381C01F0CFF80028E8
:102B4000F5D00120F5E70000904F82008C4D800009
:102B5000BCCE6452DF5DE85FC9B68F5A9C120FFA93
:102B60000B4B10B5186A0B4C81880022A14201D88A
:102B7000032901D2828010BDD969002902D1D86110
:102B8000986102E00860186AD8611A6210BD0000FE
:102B9000FC97800007040000002070470020704769
:102BA000FFB525480E1C0068151CC06881B0804721
:102BB000FF212D31214FB86888421CDA79683A68C4
:102BC0008A4202D1002816D101E0002801D1B86A5A
:102BD000F860F868331A7869D418844208D3841AE4
:102BE0001B1B164C3434E4186319934206D302E0DD
:102BF0006219824202D9002005B0F0BD3B6972190A
:102C0000D21A9E420BD98B1883423E6105D9401AD5
:102C10000A49101A3431081800E0601978600498E5
:102C2000002804D12A1C201C0199FDF7B8EAB868D5
:102C30000130B860201CDFE7F84D8000B44F8200FF
:102C400070B5061C11480D1C0068141CC068804734
:102C50000F4A916800290AD01068B04207D1D368A2
:102C6000AB4204D15369161C1A1A944201DD0020AC
:102C700070BD00193060984202D105483430306090
:102C800001392819F060B160012070BDF84D800055
:102C9000B44F820070B5051C15480C1C0068C06854
:102CA0008047FF202D30134EB16881421BDA7068D7
:102CB0003268824201D1002915D1F068281A75695D
:102CC0001318AB420BD30B4B0A4D14335B1BC01ACA
:102CD000084B343318180319934206D303E0181C29
:102CE0001A19AA4201D9002070BD0131B16070BD2E
:102CF000F84D8000B44F8200F0B5061C002085B06E
:102D000003900C1C3169301C884702907169301C9B
:102D10008847316EF26D891AA14202D8002005B0B1
:102D2000F0BD244A01211160311C80310491CA6830
:102D300094400A68011C101CFEF768FD01900025F4
:102D4000F06D02991C4F4843019900194002401848
:102D50003860FEF75DFB02207860FEF7E9FFB86897
:102D6000000702D50120C04303901349486A0704B5
:102D70003F0CFEF74DFB104907204860FEF7D8FFD7
:102D800004980068022803D10C48874206D001E06D
:102D9000FF2F03D00120C043039005E001352D042F
:102DA0002D0C0134022DCBD3024A00201060039871
:102DB000B5E700008417870000030060FFFF0000F4
:102DC000F8B5061C006EF26D801A884202D8002009
:102DD000C043F8BD0D4F012038600C1C3169301C18
:102DE000884701E0401064000128FBD10025211C28
:102DF000301CFEF71FFB002801D13860E9E70134E1
:102E00000135022DF3DB00203860E0E784178700EE
:102E1000F8B5124F0926051C002024234343DC1972
:102E200063698B4214D1A369934211D10B495C228F
:102E30005C39281CFDF70EEA2422211C281C643072
:102E4000FDF708EA0020E865606828660020F8BD04
:102E50000130B042E1DB0020C043F8E74843800086
:102E6000F0B517490120C86000221649FF242D340F
:102E700002250A6014264643013073181F1C143FB4
:102E80008F515A60DA609A601D74A042F2DB0E48DE
:102E90004B2309180D481B0381610C49C261026272
:102EA00034314160426201608260C260C918416190
:102EB00002618262C262026301490120C860F0BD02
:102EC00000540080E8FF86005C170000B44F8200C9
:102ED000F8B5051C0520214CC0012618706B20494F
:102EE0006843871C0120C86080342069391C426B0C
:102EF0009047012827D020691A4A036B391C98474C
:102F0000002803D018490B2088611CE015481022C6
:102F10000C30071C1549FDF7D3F9002807D01349D9
:102F200010220C31381CFDF7CBF900280BD1706B47
:102F30000B496843C51C0120C8602069291C426BED
:102F40009047012801D10020F8BD2069084A036B91
:102F5000291C98470028D5D10120F5E74437820085
:102F600000540080EC448200904F8200BC418000FD
:102F7000EC468200C0B50027012603220223002868
:102F800008D001280ED1404281C108390A61CB60C6
:102F90008E6005E004200861CA608B604E600F609F
:102FA0000020C0BD02492A208861FF200130C0BD39
:102FB000904F8200F8B512490120C8601148C168DD
:102FC0001148FEF7F7FB11492225431C104CC8603D
:102FD0000BD00B4F0126FE600A4801690A48FEF734
:102FE000E9FB0A49F042486102D10020A561F8BD21
:102FF000FE60054A0748103A10608E610120F6E72E
:10300000005400807C4F8200443782008C4D800049
:10301000904F8200BC418000F1B505204149C001BC
:103020000F18414E786B31693E4D48433F4A411C71
:1030300080352869036B984700283D4C52D1B16810
:103040000098FEF73FFF002816D1A069012811D192
:10305000FDF788FEFF38013801D1092043E03549EA
:103060000120C8604042F0603061FFF7A3FF0028F4
:1030700056D04FE0232036E00020B061F068431CBA
:103080001AD12D48C1682748FEF794FBF060431C15
:103090000DD0284A0121D1603169884209D12648E2
:1030A00001692048FEF786FBF060431C01D1222015
:1030B00019E0204A0121D160786B31694843861CB0
:1030C0002869311C426B9047164F103F012801D1EF
:1030D0001A4E1EE028691A4D036B2A1C311C9847B2
:1030E000002802D00B20A0611AE0144E281C0C30DE
:1030F0001022311C051CFDF7E3F810490C310028A3
:1031000001D1396006E01022281CFDF7D9F800280B
:1031100002D13E600120F8BD2620A0610020B860E9
:103120000020F8E7443782008C4D8000EC4082009C
:10313000904F8200005400807C4F8200BC41800090
:10314000EC448200F8B5061C23480C1C0068151CD2
:10315000C068804767192149C869002819D1081C2F
:10316000806AA0420BD0081C006B844232D32A1C18
:10317000211C301CFDF7D4F9002826D11EE02A1CA2
:10318000211C301C00F02CF8002817D0134887624F
:103190001BE080681149A0421CD8A04207D12A1C1C
:1031A000211C301C00F0BAFD00280ED106E02A1CBC
:1031B000211C301CFDF7B4F9002801D10020F8BD16
:1031C0000649886A844200D38F620449C86A8442EF
:1031D00000D9CC620120F2E7F84D8000B44F8200A4
:1031E000F8B5061C0D480D1C0068171CC068804708
:1031F000022000210A4C606021600834A3C4183CFE
:1032000026620120E061FDF783F8E069002801D023
:103210000020F8BD034805630120FAE7F84D80005F
:10322000904F8200B44F8200F0B5061C002085B09C
:1032300003900C1C3169301C884702907169301C66
:103240008847316EF26D891AA14202D8002005B07C
:10325000F0BD254A01211160311C80310491CA68FA
:1032600094400A68011C101CFEF7D0FA019000255A
:10327000F06D02991D4F4843019900194002401812
:103280003860FEF7C5F802207860FEF751FDB86897
:103290008007FCD4B868000702D50120C043039022
:1032A0001249486A07043F0CFEF7B2F80F4907209D
:1032B0004860FEF73DFD04980068022803D10C48E1
:1032C000874206D001E0FF2F03D00120C0430390C6
:1032D00005E001352D042D0C0134012DC8D3024A1F
:1032E000002010600398B2E7841787000003006095
:1032F000FFFF0000F8B5061C006EF26D801A8842D0
:1033000002D80020C043F8BD0D4F012038600C1CCE
:103310003169301C884701E0401064000128FBD16E
:103320000025211C301CFEF785F8002801D13860EB
:10333000E9E701340135012DF3DB00203860E0E7D7
:1033400084178700F8B5124F0326051C002024239C
:103350004343DC1963698B4214D1A369934211D1B1
:103360000B495C225C39281CFCF774EF2422211CD9
:10337000281C6430FCF76EEF0020E8656068286662
:103380000020F8BD0130B042E1DB0020C043F8E787
:1033900048428000F0B52025402400261E7016709B
:1033A0000F1C274002D017782F4317706D08071C99
:1033B000274002D017782F43177001363606360E95
:1033C0006D086408032EEBD3802200250E1C2640D6
:1033D00002D01E7816431E705208061C264002D0EA
:1033E0001E7816431E7001352D062D0E52086408F6
:1033F000042DEBD3F0BD000070B50D1C041C081C9F
:10340000FFF74EFA061C281C00F0E4FC0C480D21C6
:1034100001702104090E447081702102090EC170EF
:10342000210E0171291C321C0530FCF7B8EE05494C
:10343000701DC880FDF7DAF8FEF758FE70BD000079
:10344000602E8200FC9780000A4A002190680006E6
:10345000000EC3070BD54006400F07D03020106187
:103460001020106110610120106100E001210806A8
:10347000000E70470040008004490120044A00E02B
:10348000C86093681B07FBD570470000005400809C
:103490000040008010B5074C0020A063FFF7ECFF50
:1034A0000548012101E0E268C160A268D207FAD4B0
:1034B000012010BD004000800054008010B5054B75
:1034C0000122054900E0DA604C69E407FBD5C860D9
:1034D00010BD00000054008000400080F8B53A495B
:1034E0000520C0010E183949706B0969384F4843EF
:1034F00001240090FC60344D80352869426B0099AE
:103500009047012801D12E2007E02869314A036B3A
:1035100000999847002803D00B202F4A906144E07F
:1035200028692A49826A0969904727491039002881
:1035300005D0294A092090610020486035E0201C10
:10354000FC6001240F1C22490120C860032C11D10A
:10355000786801282BD11D49706B09691F4A4843BF
:10356000C11C2869436A9847002820D01A4A0A20BB
:10357000906118E0022C0ED17868012817D1134908
:10358000706B0969164A4843811C2869436A984749
:103590000028EBD10BE00D480169C268201CFDF743
:1035A00039F8012803D0002078600020F8BD0134EC
:1035B000082CC8DB2869074A436A00999847002805
:1035C000D4D178600120F1E7443782008C4D80002F
:1035D00000540080EC488200904F8200EC4682004C
:1035E000EC44820001490120C8607047005400800B
:1035F000FEB50026002553480122C260524F6920C3
:1036000040013C18A378514948680968002B08D04C
:103610000022A27039603871000A7871000AB8710E
:1036200038E000AB9980090CD9801881000C5881D2
:103630009888FF23033398420BD0454B984206D01D
:10364000444B984226D100AB5D893E1C22E0A2701B
:1036500020E000AB1889000601D4002100E0012120
:1036600000AB1889394F00237F6800073F07FF0E22
:10367000000F00292FD0012901D10223BB40364F72
:10368000BA6B1A4000D0BB6300F052F901684900E0
:10369000490801600021002000F0A2F8002100206C
:1036A00000F0C2F80021002000F088F8002100207E
:1036B00000F0A8F8294801680205914301600C3028
:1036C0000168490D49050160A278002A06D000ABC7
:1036D0005A89891803E0BA40131CD0E78031016091
:1036E0000021002000F012F9A078002805D1002D5B
:1036F00004D02A1C311C00F027FAFEBD0121002055
:1037000000F016F90121002000F06AF801210020E4
:1037100000F08AF80121002000F050F8012100207B
:1037200000F070F80C4F0220F969014000D1F861F7
:103730000121002000F0D8F80121002000F0E6F877
:10374000DBE7000000540080981B870000300080F9
:1037500021200000A12100004020008000240080E2
:103760000A48D12109014018B0B5807B012302220B
:1037700041008A40074D064C00E0E360696A114051
:10378000FBD10022012100F061F8B0BD981B870039
:10379000005400800028008000224000002903D04F
:1037A000012903D1022200E0012282400249086B74
:1037B000104000D00A637047402000800022400083
:1037C000002903D0012903D1022200E00122824016
:1037D00002490869104000D00A617047402000800B
:1037E00000224000002903D0012903D1022200E079
:1037F000012282400249C869104000D0CA61704766
:103800004020008000224000002903D0012903D17C
:10381000022200E00122824002494869104000D0A3
:103820004A6170474020008000224000002903D0F8
:10383000012903D1022200E0012282400249086AE4
:10384000104000D00A62704740200080F8B5051C87
:103850000C1C6900012602278F408E400020002C9E
:1038600037D0012C00D1381C1D4B596B8143596353
:10387000002A29D00020002C2DD0012C00D1381C8A
:10388000D863211C281CFFF787FF211C281C00F08F
:103890004FF8C168490D4905C160480D0CD00020A2
:1038A000002C1AD0012C00D1381C0E49496A014065
:1038B00002D00C494031C860211C281CFFF790FF42
:1038C000211C281CFFF7B0FF211C281CFFF764FFF8
:1038D000F8BD301CC8E7301CD2E7301CE5E700001B
:1038E000402000800028008000224000002903D0F2
:1038F000012903D1022200E0012282400249486BE3
:1039000010434863704700004020008000224000C0
:10391000002903D0012903D1022200E001228240C4
:103920000249886A104000D18A62704740200080B6
:10393000034A40018018012900D11030704700006F
:10394000002400804000F0B502240123834084401D
:10395000002200291FD0012900D1221C114EB56B75
:10396000281C104016D10020002916D0012900D1B2
:10397000201C776A074000D070621543281CB06392
:10398000002000290BD0012900D1201C716A0140C0
:1039900000D17062F0BD1A1CE0E7181CE9E7181CA2
:1039A000F4E7000040200080F8B5304E0020716838
:1039B000002900D1F8BD2E4A0D210902511800241A
:1039C0000C834C838C836921490151180925ED0131
:1039D00089231B012E1C8C700C80703E11188F19CE
:1039E000C9183C720130A8420C72F7DB214820490B
:1039F00003680C39CB600179161C11714179517142
:103A00008079002190710420FFF792FFC068D121D6
:103A1000174A09010004000C5118002801D00420A5
:103A200000E00220C8738873C97B13480F4E4A0018
:103A30000121914000E0C360326B01230A4001D0B4
:103A40001A1C00E0221C002AF5D000210020FFF7FC
:103A50004BFF074E8320C000311805480C388160A9
:103A60002A1C042000F03AF80120A3E7402000803F
:103A7000981B8700D44D80000054008080B5012140
:103A80000020FFF755FFC068C002C00A002820DCF4
:103A900001210020FFF792FE01210020FFF7B2FE76
:103AA000012201210020FFF7D1FE01210020FFF7B4
:103AB00073FE01210020FFF745FF064948680028F2
:103AC00007D105486922520180180088002800D0DB
:103AD000486080BD40200080981B870070B50D1C99
:103AE000041C161C0021FFF723FFC168490D49057E
:103AF0008919C1601249E000401805600021201CAE
:103B0000FFF76EFE0021201CFFF78EFE0021201C17
:103B1000FFF754FE0021201CFFF774FE6100012016
:103B20008840084948620021201CFFF735FE00212B
:103B3000201CFFF7D9FE0021201CFFF7E7FE70BD17
:103B40008029008000280080F8B50E1C041C171C7A
:103B50000121FFF7EDFE051CC068C00204D0012260
:103B60000121201CFFF772FEE8681349400D400553
:103B7000C019E860E00040184660610002208840FB
:103B80000E4948620121201CFFF72AFE0121201C5A
:103B9000FFF74AFE0121201CFFF710FE0121201C27
:103BA000FFF730FE0121201CFFF79EFE0121201CA3
:103BB000FFF7ACFEF8BD00008029008000280080DF
:103BC000124B0D21090270B55C18218B4A1CC918D3
:103BD000228308727E2818D1228B012A15D00C4E20
:103BE0000125F560D12000011818191C0831807BCF
:103BF000FFF7AAFF00202083044C0C3C2570FCF743
:103C00007DFEF56020780028F9D170BD981B8700F3
:103C100000540080F8B50F1C0521C9010B22920148
:103C20004418A16986183268051C914201D9082000
:103C30003DE0216A002912D125490978022903D0E3
:103C4000032901D0042901D1212030E0E1690131AB
:103C5000E161FEF72BFF002801D10020F8BDA1692A
:103C60006B6A3A1C281C9847002801D00A201EE0E5
:103C700000200023174902E00B7001310130A26BD4
:103C80008242F9DCA1692B6B124A281C9847002854
:103C900001D00B200BE0381C00210E4AA36B0AE078
:103CA0000578177801320130BD4203D00C200A4953
:103CB0008861D2E701318B42F2DCA0690130A0615A
:103CC0003069C0183061206A013820620120C5E7E0
:103CD0008C4D8000EC3C8200904F82000B1C05490B
:103CE00080B54A600B60044B0122DA60FFF792FF57
:103CF00080BD0000EC3E82000054008010B5041C22
:103D0000011C9431FFF786FF002800D110BD05216A
:103D1000C901611800204861012010BDF8B5061CDA
:103D20002A480D1C0068141CC0688047284FF86999
:103D3000017C00293FD1C068A0423CD3221C291C31
:103D4000301CFFF74DFA002835D0221C291C38689A
:103D5000FEF776FF00282ED0F969C868A0420CD97A
:103D6000061B88680D1C311C0419201CFEF792FFED
:103D7000002820D0043551C525E0281CFEF700FAA4
:103D8000002818D002260674FC692568002C1AD079
:103D900016E0221D07CAFFF723FA00280BD0A068FF
:103DA000FEF7EEF9002806D00674221D07CAFEF7BA
:103DB00047FF002801D10020F8BD2C1C03D0256846
:103DC000207C0128E5D00120F6E70000F84D8000B6
:103DD000B44F820070B5051CFEF762FD041C0A4E4C
:103DE0000E203070221C291C701CFCF7D8E9601CC6
:103DF0000004000C054A0A23411CD1803354FCF70F
:103E0000F5FBFEF773F970BD602E8200FC97800011
:103E100044554D4D59000000546F74616C20627917
:103E200074657320726563642062792041524D503D
:103E300052472030780041524D5052472073697AE2
:103E400065206D7367206F76657272756E00303114
:103E500032333435363738394142434445460051D0
:103E6000434F4D206661737420646F776E6C6F6191
:103E7000642070726F746F636F6C20686F7374006E
:103E800051434F4D206661737420646F776E6C6F81
:103E900061642070726F746F636F6C2074617267FD
:103EA000000000004552523A2057696E646F772037
:103EB0006F76657272756E2064657465637465648F
:103EC0002E2E2E00496E76616C696420436F6D6DF5
:103ED000616E6400556E7265636F676E697A6564C2
:103EE00020666C6173682064657669636500000014
:103EF000496E76616C6964206D61676963206E75D7
:103F00006D62657200000000496E76616C69642024
:103F100070726F746F636F6C2076657273696F6E09
:103F200000000000506172616D6574657220526519
:103F30007175657374205061636B6574204C656E98
:103F4000677468204572726F72000000496E746574
:103F5000726E616C206572726F72202D20726570B6
:103F60006C795F627566666572206F7665727275D0
:103F70006E000000496E76616C6964207061636B4D
:103F80006574206C656E6774680000005061636B37
:103F9000657420746F6F206C6172676500000000AB
:103FA0005265616420756E737563636573736675BE
:103FB0006C00000043616E6E6F74207265736574EF
:103FC000206265666F726520636C6F736500000028
:103FD00053696D706C65207772697465206E6F74BB
:103FE00020616C6C6F776564000000005772697423
:103FF0006520756E7375636365737366756C000019
:10400000506F776572206F6666206E6F74207375CF
:1040100070706F72746564004475616C20496D61E5
:104020006765204E414E442070726F6772616D6DFE
:10403000696E67206E6F7420737570706F7274652F
:104040006420286D756C7469206F6E6C792900008E
:1040500043616E6E6F7420636C6F73652077686563
:104060006E206E6F742070726576696F75736C79EF
:10407000206F70656E656400436C6F7365206661C8
:10408000696C656400000000536574207365637596
:1040900072697479206D6F6465206661696C65640E
:1040A0002E0000004E6F207365637572697479206D
:1040B0006D6F64652072656365697665642062650D
:1040C000666F726520706172746974696F6E2074B6
:1040D00061626C6500000000506172746974696F00
:1040E0006E207461626C65206C656E677468206513
:1040F0007863656564656400556E6B6E6F776E20DE
:104100006572726F7220616363657074696E672097
:10411000706172746974696F6E207461626C65009D
:104120004E6F207365637572697479206D6F646575
:10413000207265636569766564206265666F726585
:10414000206F70656E206D756C7469004E6F207005
:104150006172746974696F6E207461626C6520723B
:1041600065636569766564206265666F7265206F58
:1041700070656E206D756C74690000004F70656E1F
:10418000206D756C7469206661696C65642C20759E
:104190006E6B6E6F776E206572726F72000000003A
:1041A0004552523A2043524320696E76616C6964ED
:1041B0000000000044554D4D59000000303A4F4575
:1041C0004D53424C31000000303A4F454D53424C64
:1041D00032000000303A454653320000303A414D3B
:1041E00053530000303A514353424C007515800040
:1041F000C91A800071158000051480000D1480001C
:10420000C11B8000F11C800029328000F532800043
:10421000DD1D8000BD16800000000000C51B800071
:104220000D1A8000000000000000000000000000E7
:104230000000000000000000011B8000FD13800052
:1042400069158000C51C8000B44280000010000089
:104250002000000000020000100200009800000092
:10426000760000000100000000000000C64280004F
:104270000008000020000000000200001002000002
:10428000980000007500000002000000000000001F
:10429000D842800000100000200000000002000052
:1042A000100200009800000046000000020000001C
:1042B00000000000746F73686962615F7463353871
:1042C000353132667400746F73686962615F74635C
:1042D00064616D3832663100746F73686962615F62
:1042E0007463353864646D39326632007515800048
:1042F000C91A800071158000051480000D1480001B
:10430000C11B8000F11C8000F92C8000C12D8000B1
:10431000DD1D8000BD16800000000000C51B800070
:104320000D1A8000000000000000000000000000E6
:104330000000000000000000011B8000FD13800051
:1043400069158000C51C80008C44800000040000BA
:10435000200000000002000010020000EC0000003D
:104360007300000001000000000000008C44800089
:104370000004000020000000000200001002000005
:10438000EC0000003300000001000000000000000D
:104390009C44800000080000200000000002000093
:1043A00010020000EC0000003500000001000000D9
:1043B00000000000AC44800000100000200000005D
:1043C0000002000010020000EC0000007600000077
:1043D0000100000000000000AC448000001000005C
:1043E000200000000002000010020000EC000000AD
:1043F000360000000100000000000000BC44800006
:104400000020000020000000000200001002000058
:10441000EC00000079000000010000000000000036
:10442000BC448000002000002000000000020000CA
:1044300010020000EC000000780000000100000005
:1044400000000000CB4480000010000020000000AD
:104450000002000010020000EC0000004600000016
:104460000200000000000000DB44800000080000A3
:10447000400000000008000040080000EC000000C0
:10448000AA000000010000000000000073616D73CD
:10449000756E675F6B3966323830380073616D73E3
:1044A000756E675F6B3966353630380073616D73D2
:1044B000756E675F6B3966313230380073616D73CA
:1044C000756E675F6B39316730380073616D737576
:1044D0006E675F6B396B313231360073616D7375A6
:1044E0006E675F6B396B32673038000000555603DA
:1044F000590C0F5A5A0F0C59035655006530336644
:104500003C696A3F3F6A693C6633306566333065B3
:104510003F6A693C3C696A3F653033660356550023
:104520005A0F0C59590C0F5A00555603693C3F6AF3
:1045300030656633336665306A3F3C690C595A0F03
:1045400055000356560300550F5A590C0F5A590C73
:1045500056030055550003560C595A0F6A3F3C69E3
:104560003366653030656633693C3F6A6A3F3C6953
:104570003366653030656633693C3F6A0F5A590CC3
:1045800056030055550003560C595A0F0C595A0F33
:1045900055000356560300550F5A590C693C3F6AA3
:1045A00030656633336665306A3F3C6903565500B3
:1045B0005A0F0C59590C0F5A005556036633306583
:1045C0003F6A693C3C696A3F6530336665303366F3
:1045D0003C696A3F3F6A693C663330650055560363
:1045E000590C0F5A5A0F0C590356550000008911E7
:1045F00012239B322446AD573665BF74488CC19D4B
:104600005AAFD3BE6CCAE5DB7EE9F7F8811008012A
:1046100093331A22A5562C47B7753E64C99C408D2A
:10462000DBBF52AEEDDA64CBFFF976E802218B30C6
:10463000100299132667AF763444BD554AADC3BC0A
:10464000588ED19F6EEBE7FA7CC8F5D983310A20EA
:1046500091121803A7772E66B5543C45CBBD42ACEA
:10466000D99E508FEFFB66EAFDD874C904428D5382
:1046700016619F702004A9153227BB364CCEC5DFCA
:104680005EEDD7FC6888E1997AABF3BA85520C43AA
:1046900097711E60A1142805B3373A26CDDE44CFAA
:1046A000DFFD56ECE9986089FBBB72AA06638F7246
:1046B00014409D512225AB343006B9174EEFC7FE8A
:1046C0005CCCD5DD6AA9E3B8788AF19B87730E626A
:1046D00095501C41A3352A24B1163807CFFF46EE6A
:1046E000DDDC54CDEBB962A8F99A708B0884819512
:1046F0001AA793B62CC2A5D33EE1B7F04008C9195A
:10470000522BDB3A644EED5F766DFF7C8994008519
:104710009BB712A6ADD224C3BFF136E0C118480939
:10472000D33B5A2AE55E6C4FF77D7E6C0AA583B4B5
:10473000188691972EE3A7F23CC0B5D14229CB3819
:10474000500AD91B666FEF7E744CFD5D8BB502A4D9
:1047500099961087AFF326E2BDD034C1C3394A28F9
:10476000D11A580BE77F6E6EF55C7C4D0CC685D771
:104770001EE597F42880A1913AA3B3B2444ACD5BD9
:104780005669DF78600CE91D722FFB3E8DD604C799
:104790009FF516E4A9902081BBB332A2C55A4C4BB9
:1047A000D7795E68E11C680DF33F7A2E0EE787F635
:1047B0001CC495D52AA1A3B03882B193466BCF7A99
:1047C0005448DD59622DEB3C700EF91F8FF706E659
:1047D0009DD414C5ABB122A0B9923083C77B4E6A79
:1047E000D5585C49E33D6A2CF11E780F00000000AB
:1047F000C7B9302049CA51208E736100552D9320CE
:104800009294A3001CE7C200DB5EF2206DE3162148
:10481000AA5A260124294701E390772138CE850141
:10482000FF77B5217104D421B6BDE4011D7F1D229F
:10483000DAC62D0254B54C02930C7C2248528E02EB
:104840008FEBBE220198DF22C621EF02709C0B0382
:10485000B7253B2339565A23FEEF6A0325B1982327
:10486000E208A8036C7BC903ABC2F923FD470A2405
:104870003AFE3A04B48D5B0473346B24A86A99043D
:104880006FD3A924E1A0C8242619F80490A41C051C
:10489000571D2C25D96E4D251ED77D05C5898F2521
:1048A0000230BF058C43DE054BFAEE25E0381706D3
:1048B00027812726A9F246266E4B7606B515842653
:1048C00072ACB406FCDFD5063B66E5268DDB01271E
:1048D0004A623107C411500703A86027D8F692072F
:1048E0001F4FA227913CC3275685F3073D36242846
:1048F000FA8F140874FC7508B3454528681BB7087F
:10490000AFA2872821D1E628E668D60850D532091B
:10491000976C0229191F6329DEA6530905F8A129FE
:10492000C24191094C32F0098B8BC0292049390AC8
:10493000E7F0092A6983682AAE3A580A7564AA2AF8
:10494000B2DD9A0A3CAEFB0AFB17CB2A4DAA2F2BED
:104950008A131F0B04607E0BC3D94E2B1887BC0B28
:10496000DF3E8C2B514DED2B96F4DD0BC0712E0CE0
:1049700007C81E2C89BB7F2C4E024F0C955CBD2CAA
:1049800052E58D0CDC96EC0C1B2FDC2CAD92382DF7
:104990006A2B080DE458690D23E1592DF8BFAB0DC2
:1049A0003F069B2DB175FA2D76CCCA0DDD0E332E48
:1049B0001AB7030E94C4620E537D522E8823A00EA4
:1049C0004F9A902EC1E9F12E0650C10EB0ED250F81
:1049D0007754152FF927742F3E9E440FE5C0B62F4C
:1049E0002279860FAC0AE70F6BB3D72FBDD578308D
:1049F0007A6C4810F41F291033A61930E8F8EB1030
:104A00002F41DB30A132BA30668B8A10D0366E115E
:104A1000178F5E3199FC3F315E450F11851BFD31CB
:104A200042A2CD11CCD1AC110B689C31A0AA651269
:104A300067135532E96034322ED90412F587F63205
:104A4000323EC612BC4DA7127BF49732CD49733368
:104A50000AF0431384832213433A12339864E01319
:104A60005FDDD033D1AEB13316178113409272148B
:104A7000872B423409582334CEE1131415BFE13497
:104A8000D206D1145C75B0149BCC80342D71643582
:104A9000EAC8541564BB3515A3020535785CF715D3
:104AA000BFE5C7353196A635F62F96155DED6F3605
:104AB0009A545F1614273E16D39E0E3608C0FC1675
:104AC000CF79CC36410AAD3686B39D16300E7917B4
:104AD000F7B7493779C42837BE7D18176523EA37F9
:104AE000A29ADA172CE9BB17EB508B3780E35C18DE
:104AF000475A6C38C9290D380E903D18D5CECF389D
:104B00001277FF189C049E185BBDAE38ED004A3941
:104B10002AB97A19A4CA1B1963732B39B82DD9196C
:104B20007F94E939F1E78839365EB8199D9C413A9E
:104B30005A25711AD456101A13EF203AC8B1D21A56
:104B40000F08E23A817B833A46C2B31AF07F571BC3
:104B500037C6673BB9B5063B7E0C361BA552C43B36
:104B600062EBF41BEC98951B2B21A53B7DA4563CD6
:104B7000BA1D661C346E071CF3D7373C2889C51C48
:104B8000EF30F53C6143943CA6FAA41C1047401D4D
:104B9000D7FE703D598D113D9E34211D456AD33D90
:104BA00082D3E31D0CA0821DCB19B23D60DB4B1EEE
:104BB000A7627B3E29111A3EEEA82A1E35F6D83E82
:104BC000F24FE81E7C3C891EBB85B93E0D385D3F27
:104BD000CA816D1F44F20C1F834B3C3F5815CE1FFA
:104BE0009FACFE3F11DF9F3FD666AF1F202051557F
:104BF000414C434F4D4D2041524D50524720496446
:104C0000656E74696669636174696F6E20426C6F6A
:104C1000636B0A20202020436F6D70696C656420EF
:104C20004A756E20323320323030362031303A35FA
:104C3000343A35330A2020202056657273696F6E2E
:104C4000203D3D2030392E30302E30380A202020B3
:104C5000204E505247363237352E48455820666F21
:104C600072204D534D363237352052656C2E20332D
:104C70002E30204F4E4C59202D205541525420614A
:104C80006E64205553420A2020202020204D756C50
:104C900074692D496D61676520426F6F742053758B
:104CA00070706F7274206F6E6C790A202020204320
:104CB0006F707972696768742028632920323030F8
:104CC000342D32303036206279205155414C434FDB
:104CD0004D4D2C20496E636F72706F726174656404
:104CE0002E20416C6C205269676874732052657382
:104CF00065727665642E0A2020456E64206F6620FA
:104D0000494420426C6F636B0A0000000100000000
:104D1000183E8000363E8000352280003923800016
:104D200011258000392380009925800039238000D7
:104D3000AD258000392380001926800039238000AA
:104D400085248000392380003923800039238000A6
:104D500039238000392380005D24800039238000BE
:104D60004D23800039238000ED218000392380000D
:104D7000D524800039238000E1238000392380007E
:104D80006123800039238000020000000100000040
:104D9000EC428200EC408200FFFFFFFFFFFFFFFFBD
:104DA000FFFFFFFF01000000EC488200FFFFFFFF54
:104DB0000002030607090A0C45338000112E80000B
:104DC000953480004934800079348000AD0880003B
:104DD000BD34800000C20100000008000000000097
:104DE000A9398000E535800061378000FD0880002A
:084DF000C13B8000EC4B800088
:040000030080000079
:00000001FF
